:100000000C94B0070C94F7070C94F7070C94F707BF
:100010000C94F7070C94F7070C94F7070C94F70768
:100020000C94F7070C94F7070C94882A0C945A2B1D
:100030000C946C1C0C94F7070C94F7070C94F707BE
:100040000C94F7070C94F7070C94F7070C94F70738
:100050000C94F7070C94C51C0C94F7070C94F70745
:100060000C94F7070C94F7070C94F7070C94F70718
:100070000C94F7070C94F7070C94F7070C94F70708
:100080000C94F7070C94F7070C94F7070C94F707F8
:100090000C94F7070C94F7070C94F7070C94F707E8
:1000A0000C94F7070C94F7070C94F7071C111C111C
:1000B0004E114E119B11B91111131113FB11901216
:1000C000A112A1120113111311130A13A613A613DF
:1000D000B813B813AF13B813B813B813A613A613F5
:1000E000B413B813B813B413152303231C23A1218D
:1000F000F523F5230023F523F5234923F5235D2379
:10010000D523F523F523F523F5239123F523F523B3
:100110007A23F5233523F523F523EF23EF23EF236C
:10012000EF23EF23EF23EF23EF23EF23F123F52337
:100130001523F822F523F523F523F523F523F523DD
:10014000F523F523F523F523F123F523F5230023E8
:10015000F523ED23ED23ED23ED23ED23ED23ED2317
:10016000ED23ED23F123C72BEE2BE62CEE2BE62C13
:100170003A2C5D2CE62CB42CC32C0A0025303136E9
:1001800062003A200025303258000A722F63203076
:100190003132333435363738394142434445460AE3
:1001A0000035421E001F00200021002200015101E5
:1001B00051230024002500260027002D422B001487
:1001C000001A000800150017002F0030001C00184E
:1001D000000C00120013002E002900040016000776
:1001E0000009000A004B434D430B000D000E000FA9
:1001F0000033003400D75C1D001B00060019000509
:10020000004E004A0011001000360037003800D8B8
:100210005CE30057005600556431612A004C002809
:10022000002C00E6005000510052004F0001003A3F
:10023000003B003C003D003E00010001003F00404B
:1002400000410042004300000001001E021F022F77
:1002500002300231020100010054005F00600061C1
:1002600000560000000100200221022F003000355E
:10027000000100010055005C005D005E00570000B9
:10028000000100220223022602270235020100019A
:1002900000000059005A005B0058000000010001F6
:1002A00000010001000100010001000100010062E5
:1002B000006200630058000000010001000100011D
:1002C0000001000100010001000100010001000126
:1002D000000100010000000000F0000000F9000033
:1002E000000100010000000000000000000000000C
:1002F000000000F200F100F300FA0000000100002D
:10030000005000510052004F0000000000000000AB
:1003100000000000000000000001000100000000DB
:1003200000000000000000000000000000000000CD
:1003300000F400F5000100010001000000000000D1
:10034000000000000000003A003B003C003D003E81
:1003500000000000003F0040004100420043000058
:10036000000000005C000000000000000000000031
:10037000000000000000000000000000000000007D
:10038000000000000000000000010001000000006B
:10039000000000000000000000000000000000005D
:1003A000000000000000000000000000000000004D
:1003B000000000000000000000000000000000003D
:1003C000000000000000000000000000000000002D
:1003D0000044454255473A2064697361626C656424
:1003E0002E0A0044454255473A20656E61626C65AD
:1003F000642E0A000A002530325820006B657962AD
:100400006F6172645F7265706F72743A20000A00E7
:1004100025303258006B6579626F6172645F736575
:10042000745F6C65643A20004F6E6573686F743A50
:100430002074696D656F75740A0064656C5F6B6527
:10044000795F6269743A2063616E27742064656C19
:100450003A20253032580A006164645F6B65795F29
:100460006269743A2063616E2774206164643A2083
:10047000253032580A00290A002575002F002575FD
:10048000005D28002564002000256400200025640C
:100490000020002564007C0025303258006D6F7507
:1004A00073656B6579205B62746E7C782079207649
:1004B00020685D287265702F61636C293A205B00AB
:1004C0006D6B5F776865656C5F74696D655F746F90
:1004D0005F6D6178203D2025640A006D6B5F776851
:1004E00065656C5F6D61785F7370656564203D2044
:1004F00025640A006D6B5F74696D655F746F5F6D75
:100500006178203D2025640A006D6B5F6D61785F26
:100510007370656564203D2025640A006D6B5F691A
:100520006E74657276616C203D2025640A006D6BE7
:100530005F64656C6179203D2025640A006D6B5F06
:10054000776865656C5F74696D655F746F5F6D6119
:1005500078203D2025640A006D6B5F776865656CC7
:100560005F6D61785F7370656564203D2025640A66
:10057000006D6B5F74696D655F746F5F6D6178208E
:100580003D2025640A006D6B5F6D61785F73706557
:100590006564203D2025640A006D6B5F696E74659B
:1005A0007276616C203D2025640A006D6B5F646586
:1005B0006C6179203D2025640A000A00257500360B
:1005C0003A20776865656C5F74696D655F746F5F0D
:1005D0006D61783A20000A00257500353A20776869
:1005E00065656C5F6D61785F73706565643A200066
:1005F0000A00257500343A2074696D655F746F5F79
:100600006D61783A20000A00257500333A206D614B
:10061000785F73706565643A20000A0025750032C2
:100620003A20696E74657276616C286D73293A2080
:10063000000A00257500313A2064656C6179282A2A
:1006400031306D73293A20000A092D2056616C75EE
:100650006573202D0A004D3E004D25643E20003F6D
:10066000007365742064656661756C740A00433EAE
:10067000200077686572652064656C74613A206358
:100680007572736F723D25642C20776865656C3DCB
:1006900025640A53656520687474703A2F2F656E5F
:1006A0002E77696B6970656469612E6F72672F7749
:1006B000696B692F4D6F7573655F6B6579730A00A0
:1006C0000A092D204D6F7573656B6579202D0A45DC
:1006D00053432F713A09717569740A313A09646597
:1006E0006C6179282A31306D73290A323A09696EB2
:1006F00074657276616C286D73290A333A096D61ED
:10070000785F73706565640A343A0974696D655F72
:10071000746F5F6D61780A353A09776865656C5F5B
:100720006D61785F73706565640A363A097768654C
:10073000656C5F74696D655F746F5F6D61780A0ADF
:10074000703A097072696E742076616C7565730A0F
:10075000643A097365742064656661756C74730A24
:1007600075703A092B310A646F776E3A092D310A98
:10077000706775703A092B31300A7067646F776E55
:100780003A092D31300A0A7370656564203D206492
:10079000656C7461202A206D61785F737065656493
:1007A000202A2028726570656174202F2074696D7D
:1007B000655F746F5F6D6178290A003F004D3E20D0
:1007C00000433E20004C25640A0074696D65725F29
:1007D00072656164333228293A202530346C580A16
:1007E000006B65796D61705F636F6E6669672E6E11
:1007F0006B726F3A2025580A006B6579626F6172DF
:10080000645F69646C653A2025580A006B657962FB
:100810006F6172645F70726F746F636F6C3A2025E2
:10082000580A00686F73745F6B6579626F617264F8
:100830005F6C65647328293A2025580A000A092D3F
:1008400020537461747573202D0A004743433A2086
:10085000352E342E30204156522D4C4942433A20F9
:10086000322E302E30204156525F415243483A20BA
:10087000617672350A004F5054494F4E533A204C1E
:10088000554641204D4F5553454B455920455854E9
:1008900052414B455920434F4E534F4C4520434FF7
:1008A0004D4D414E44204E4B524F20343039360A84
:1008B000004255494C443A2022303064363264229A
:1008C000202830363A33393A3437204A756E203191
:1008D000372032303230290A005649443A203078E5
:1008E00046454544284D61747469612044616C201B
:1008F00042656E29205049443A20307836303630EF
:10090000285265646F785F776972656C65737329C7
:10091000205645523A203078303030310A00444574
:1009200053433A20712E6D2E6B2E206B6579626FCA
:10093000617264206669726D7761726520666F729C
:10094000205265646F782D770A000A092D205665BC
:100950007273696F6E202D0A000A092D20436F6E95
:10096000736F6C65202D0A4553432F713A097175D9
:1009700069740A6D3A096D6F7573656B65790A0064
:100980000A092D204D61676963202D0A443A094404
:1009900065627567204D65737361676520546F6785
:1009A000676C650A583A094D61747269782044652C
:1009B000627567204D6F646520546F67676C6520B2
:1009C0002D2053686F77206B65797072657373653E
:1009D0007320696E206D6174726978206772696432
:1009E0000A4B3A094B6579626F6172642044656213
:1009F000756720546F67676C65202D2053686F778B
:100A0000206B65797072657373207265706F727494
:100A10000A4D3A094465627567204D6F757365200C
:100A2000546F67676C650A563A0956657273696F49
:100A30006E0A533A095374617475730A433A094153
:100A40006374697661746520436F6E736F6C6520A3
:100A50004D6F64650A46312D4631303A0953776946
:100A600074636820746F204C6179657220302D3971
:100A70002028463130203D204C30290A302D393A8B
:100A80000953776974636820746F204C61796572CB
:100A900020302D390A47524156453A095377697437
:100AA000636820746F204C61796572203020286162
:100AB0006C7465726E617465290A423A094A756DF3
:100AC0007020746F20426F6F746C6F616465720A7E
:100AD0004553433A094A756D7020746F20426F6F19
:100AE000746C6F616465722028616C7465726E61EC
:100AF0007465290A453A095072696E74204545505B
:100B0000524F4D2053657474696E67730A42535097
:100B10004143453A09436C65617220454550524F47
:100B20004D0A4E3A094E4B524F20546F67676C6521
:100B30000A000A002575002E6E6B726F3A20000ABB
:100B4000002575002E737761705F6261636B736C53
:100B50006173685F6261636B73706163653A200003
:100B60000A002575002E737761705F677261766584
:100B70005F6573633A20000A002575002E6E6F5F73
:100B80006775693A20000A002575002E7377617039
:100B90005F72616C745F726775693A20000A0025A4
:100BA00075002E737761705F6C616C745F6C677534
:100BB000693A20000A002575002E737761705F7214
:100BC00063746C5F726775693A20000A00257500CE
:100BD0002E737761705F6C63746C5F6C6775693AD4
:100BE00020000A002575002E636170736C6F636BC3
:100BF0005F746F5F636F6E74726F6C3A20000A00EF
:100C00002575002E737761705F636F6E74726F6C01
:100C10005F636170736C6F636B3A20000A0025306C
:100C20003258006B65796D61705F636F6E666967DE
:100C30002E7261773A20000A002575002E6D6F75BF
:100C400073653A20000A002575002E6B6579626F86
:100C50006172643A20000A002575002E6D6174727D
:100C600069783A20000A002575002E656E61626C75
:100C7000653A20000A0025303258006465627567C5
:100C80005F636F6E6669672E7261773A20000A00B3
:100C900025750064656661756C745F6C6179657259
:100CA0003A20003F004E4B524F3A206F66660A00D2
:100CB0004E4B524F3A206F6E0A000A6D6F75736586
:100CC0003A206F66660A000A6D6F7573653A206F89
:100CD0006E0A000A6B6579626F6172643A206F6612
:100CE000660A000A6B6579626F6172643A206F6E02
:100CF0000A000A6D61747269783A206F66660A00AC
:100D00000A6D61747269783A206F6E0A000A646530
:100D10006275673A206F66660A000A6465627567E5
:100D20003A206F6E0A000A0A4A756D70696E672074
:100D3000746F20626F6F746C6F616465722E2E2EFB
:100D40002000433E2000436C656172696E67204558
:100D50004550524F4D0A006565636F6E6669673A8C
:100D60000A005B735D004B6579626F61726420738A
:100D7000746172742E0A005B575D005B535D005B0B
:100D8000525D005B445D005B435D00040330000086
:100D9000001E035200650064006F0078005F00775A
:100DA000006900720065006C00650073007300004C
:100DB000001E034D00610074007400690061002092
:100DC00000440061006C002000420065006E0000DD
:100DD000000403090409025B00030100A0FA0904EE
:100DE000000001030101000921110100012240005E
:100DF0000705810308000A0904010001030000003F
:100E000009211101000122BC000705820320000A0C
:100E1000090402000203000000092111010001225F
:100E200022000705830320000107050303200001BA
:100E30001201100100000008EDFE606001000102D7
:100E400003010631FF0974A1010975150026FF0091
:100E50009520750881020976150026FF00952075FA
:100E6000089102C005010902A10185020901A10042
:100E7000050919012905150025019505750181024E
:100E80009501750381010501093009311581257F1F
:100E900095027508810609381581257F9501750829
:100EA0008106050C0A38021581257F950175088198
:100EB00006C0C005010980A101850319012AB700F8
:100EC000150126B700950175108100C0050C0901B8
:100ED000A101850419012AA002150126A00295018D
:100EE00075108100C005010906A1018505050719D6
:100EF000E029E7150025019508750181020507190C
:100F00000029EF1500250195F075018102050819EA
:100F1000012905950575019102950175039101C09F
:100F200005010906A101050719E029E715002501BA
:100F30009508750181029501750881010507190061
:100F400029FF150026FF0095067508810005081980
:100F5000012905950575019102950175039101C05F
:100F600011241FBECFEFDAE0DEBFCDBF04B603FE13
:100F700027C08091950290919602A0919702B0911E
:100F800098028730904BA740B04BD1F41092950255
:100F900010929602109297021092980214BE84B793
:100FA000877F84BF0FB6F894A89580916000886110
:100FB00080936000109260000FBEE0E0F8E30995B6
:100FC00011E0A0E0B1E0EEE2FBE502C005900D9279
:100FD000A039B107D9F722E0A0E9B1E001C01D9224
:100FE000A539B207E1F70E94AE270C94952D0C9419
:100FF0000000FF93EF93E0919001F0919101309701
:1010000009F00995EF91FF910895FC0185918030D9
:1010100011F0EFDFFBCF0895FF27E0E230E247FF5A
:101020000CC0419597FF09C0EDE2609570958095E1
:101030009095611D711D811D911D27FF02C0219595
:1010400030E350E2AA27660F771F881F991FAA1F57
:10105000A41710F0A41B63955A95A9F7AA3008F0BD
:10106000A95FA05DAF93F3956115710581059105A9
:1010700041F7ED3211F4EF93F395F21718F43F9323
:10108000F395FBCF8F91B5DFFA95E1F70895E991DC
:10109000F9918591803021F0853219F0AADFF9CFDE
:1010A000089520E0E89455915532C1F3503311F47E
:1010B000689455915A3348F4505390F3220F022EFE
:1010C000220F220F200D250FF4CF0EF421958991C8
:1010D0009991533619F3533729F1533559F1BC011E
:1010E00088279927E8945C3621F48991999168942E
:1010F0005591543639F446EF7EF077FF0DC08FEFEF
:101100009FEF0AC055374AE039F0583540E121F0E9
:10111000523642E009F00895FF93EF937DDFEF919F
:10112000FF91B7CFFF93EF93FC0181918030B9F32A
:1011300060DFFBCFFF93EF9368DFF1CFDF93CF93B7
:10114000CDB7DEB72596A3DFCF91DF91089508953F
:101150000C94A7080C94C209CF93DF93CDB7DEB7E8
:101160002B970FB6F894DEBF0FBECDBF1092CC0008
:101170001092CD0088E18093C90086E08093CA0078
:1011800083E78093CE00FE0131968BE0DF011D9254
:101190008A95E9F7CE010C96DF0140E050E0BA01F4
:1011A0002091C80027FD0AC04F5F5F4F6F4F7F4FF0
:1011B000413127E252076105710590F32091CE007D
:1011C0002D93A817B90761F78B85803E91F4A2E9AA
:1011D000B1E09E01255F3F4F818140E8849FC001BF
:1011E00011244081842B8D939D933296E217F3074F
:1011F00099F70E94CA0981E02B960FB6F894DEBFDA
:101200000FBECDBFDF91CF910895E82FF0E0EE0F34
:10121000FF1FEE56FE4F808191810895CF92DF929D
:10122000EF92FF920F931F93CF93DF938AE891E0A1
:101230000E94050882E9E82E81E0F82EC0E0D0E0A7
:1012400095E8C92E91E0D92E0CE711E0DF93CF93FA
:10125000DF92CF920E949E0882E891E00E940508EA
:10126000F701819191917F010E947A1A9F938F9348
:101270001F930F930E949E088AE791E00E94050841
:1012800021968DB79EB708960FB6F8949EBF0FBEF5
:101290008DBFC530D105D1F6DF91CF911F910F9150
:1012A000FF90EF90DF90CF9008951092CC001092B5
:1012B000CD0088E18093C90086E08093CA0008953C
:1012C000519A599A80B3806380BB81B3806381BB9C
:1012D00008950E94A8080E9455090C9460090C9476
:1012E000A708089581E0089581E008950C94740999
:1012F00008950C9478091F93CF93DF9300D000D00A
:101300001F92CDB7DEB749835A836B833091B10109
:1013100089819A81311114C0662359F0222349F042
:101320000E94DF18182F682F89819A810E948818DF
:1013300003C00E94B318182F69817A81812F04C0DD
:101340000E94DF1869817A810F900F900F900F90A3
:101350000F90DF91CF911F910C94450AFC01262F2D
:10136000408151816281738184810C947B09CF9388
:10137000DF93EC0160E00E94AE09BE01DF91CF91E6
:101380000C9479090E948D1A811102C00E942D1BB4
:101390000C9469090C946F0981E008950C94CC09B0
:1013A000CF93C82F0E9471098C2F0E94CE09CF9134
:1013B000089508950E9494130E94D9092FEF84E3A1
:1013C0009CE0215080409040E1F700C000000C9468
:1013D000EB1C0F931F93CF93DF93EC0161E00E940E
:1013E000AE098C01BE010E947609882309F442C02F
:1013F000BE01C8010E94C30C8823E1F1BE01C801EF
:101400000E94040D8823B1F1BE01C8010E942F0E75
:10141000882381F18A81882331F101308CE5180716
:1014200051F00E3D8CE51807D9F001151C45D9F493
:101430000E94DA091FC080914802C82FC095C17070
:10144000C0FB80F980934802CC2329F083EE93E01F
:101450000E9405080FC081ED93E00E9405080BC0B3
:101460000E942D1B07C0CE01DF91CF911F910F91DC
:101470000C947209C0E08C2FDF91CF911F910F91D6
:10148000089580E090E00895089526E4829FC001C9
:101490001124FC012EE0729FE00DF11D1124E60FD6
:1014A000F11DEE0FFF1FEF55FE4F859194910895AA
:1014B000880F991FFC01EC50FC4F85919491089581
:1014C000CF93DF930E94450A0E94780BEC018115AF
:1014D000904508F041C0C11580E4D80708F0D1C09C
:1014E000C83ED10510F5C03ED10508F0FDC0C83A90
:1014F000D10578F4C53AD10508F0A2C0C130D105B4
:1015000009F4F2C008F4EEC0C430D10508F0ECC014
:10151000E9C0CF3BD10508F49BC0C03CD10508F41D
:10152000E1C0CE01805C91099EC0C11590E2D9074F
:1015300058F4C11521E0D20708F0D6C0C03FD1054C
:1015400008F4D0C0D065D0C0C11580E3D80708F03A
:101550008EC0CE019F7087C0C11595E5D90708F0F0
:1015600043C0C11524E5D20708F0A2C0C11582E529
:10157000D80708F5C11591E5D90708F085C0CE0157
:1015800074E0969587957A95E1F783709C2F937018
:1015900021E030E002C0220F331F9A95E2F73C6849
:1015A000382BCF70C695C69580E2C89FE001112404
:1015B000C22BD32B99C09E01237033278C2F869585
:1015C0008695C115D34508F064C0C1E0D0E002C0E3
:1015D000CC0FDD1F2A95E2F720E2829FC001112483
:1015E000C82BD92BDC6880C0C11529E5D207A0F42F
:1015F000C11588E5D80708F060C0C11596E5D90780
:1016000008F070C08C2F0E940C0C8F71C82FD0E096
:10161000DC2FCC27D06268C0C1152AE5D20708F4B8
:1016200051C0CE0190568115904208F05BC08D2FBD
:101630008F710E940C0CDD27D0628F71D82B54C0A3
:10164000C55AD0E0CD5BDE4FC881D0E0D0644CC03D
:10165000C85AD0E0CC0FDD1FCB5EDE4F0990D88199
:10166000C02DD46441C00E94580AEC013DC0CE0197
:101670009927D3FF03C0EC01D86C36C0EC01D06CC5
:1016800033C0DF70D06A30C0DC2FCC27C16FD06A86
:101690002BC0C1E0D0E002C0CC0FDD1F2A95E2F7DD
:1016A00020E2829FC0011124C82BD92BDA681CC00C
:1016B000DC2FCC27C46FD06A17C0DC2FCC27C06FBB
:1016C000D06A12C08C2F8F700E940C0C94E0D695BB
:1016D000C7959A95E1F7CF70D0E0DC2FCC27D06981
:1016E000C82B02C0C0E0D0E0CE01DF91CF910895B9
:1016F0008238910569F1B0F48133910509F46DC028
:1017000048F48932910509F463C08A32910509F4DD
:1017100069C008958533910509F455C08933910551
:10172000B9F00895833E910569F138F4803E910542
:10173000B1F0823E910509F10895863E9105A9F127
:10174000873E9105B9F1843E910509F064C023C03C
:101750002091860220FD4FC021FD4DC0089580914B
:10176000860280FD44C08091870280FF44C0809142
:10177000860284FD42C083EE4DC08091860282FFC6
:1017800038C0F5CF8091860282FD33C080918702F8
:1017900080FD31C0ECCF8091870281FF32C0809103
:1017A000860284FD2AC087EE35C08091860283FFC1
:1017B00026C0F5CF8091860283FD21C080918702EB
:1017C00081FD1FC0ECCF8091860285FD1CC01DC02D
:1017D0008091860285FD19C016C08091860286FD23
:1017E00016C017C08091860286FD13C010C089E321
:1017F00011C082EE0FC080EE0DC080E00BC086EEFF
:1018000009C084EE07C089E205C085E303C08AE20F
:1018100001C081E390E008959091860292FF0DC08F
:10182000282F2871283019F4877F846006C0282F5C
:101830002471243011F48B7F886093FF0DC0282F12
:101840002871283119F4877E846106C0282F2471FD
:10185000243111F48B7E88612091870220FF0DC016
:10186000382F3871383019F4877F816006C0382FDF
:101870003171313011F48E7F886021FF0DC0282F27
:101880002871283119F4877E816106C0282F2171C3
:10189000213111F48E7E886194FD877E08950F9327
:1018A0001F93CF93DF93C62FD42F122FFC01828179
:1018B0008823C9F060939E010E949E1C90939D0115
:1018C00080939C0180E28C0F883008F057C0C7706D
:1018D00081E001C0880FCA95EAF7DF91CF911F918F
:1018E0000F910C94DC1080919E01681330C08091A0
:1018F0009C0190919D010E94B61C883C910538F591
:1019000000E20D0FCD17B9F080E28C0F883040F463
:10191000C77081E001C0880FCA95EAF70E94E31002
:10192000083028F581E09D2F977001C0880F9A95A7
:10193000EAF70E94DC10812F0E94C9100830F0F4F1
:10194000D77081E001C0880FDA95EAF70AC080E21B
:101950008C0F883098F4C77081E001C0880FCA9559
:10196000EAF7DF91CF911F910F910C94E310812F33
:10197000DF91CF911F910F910C94C910DF91CF91FE
:101980001F910F9108959C01CB01233F4CE5340733
:10199000F9F078F4283DFCE53F07B9F0293D4CE526
:1019A000340711F1273D3C4531F526E241EE61EE69
:1019B0001EC0253FFCE53F0799F070F0263F3C45EF
:1019C000D1F427E245EE66EE12C027E245EE0EC0E6
:1019D00026E241EE60EE0BC027E245EE64EE07C062
:1019E00026E241EE62EE03C028E241E065EE0E948D
:1019F0004F0C80E00895FC018281882319F0109239
:101A00009E01089581E00895CF93DF93EC01FB01DF
:101A10008281882309F41FC1C230FCE5DF0708F486
:101A20001BC1C6319CE5D90738F09E012A5F3C45B1
:101A30002930310508F010C10E94A01A9093870246
:101A400080938602C031ECE5DE0709F4C3C008F0DC
:101A500041C0C8308CE5D80709F49AC0F0F4C4300E
:101A6000ECE5DE0709F487C068F4C2308CE5D807DE
:101A700009F477C0C330DC4509F0E3C080918602E9
:101A8000826076C0C630ECE5DE0709F46EC008F06F
:101A90007BC08091860288606BC0CC308CE5D80713
:101AA00009F485C068F4CA30ECE5DE0709F474C0B7
:101AB00008F079C00E94941380918602806858C013
:101AC000CE308CE5D80709F476C008F07FC080914D
:101AD00086028BC0CB3FECE5DE0709F44FC018F55A
:101AE000C3318CE5D80709F47DC078F4C131ECE549
:101AF000DE0709F473C0C231DC4509F0A2C00E94C0
:101B00009413809186028F7733C0C5318CE5D80756
:101B100009F472C008F486C0CA3FDC4509F091C0E0
:101B2000809187023EC0CF3FFCE5DF0709F45FC02C
:101B300058F4CD3F9CE5D90709F444C008F43FC0F0
:101B40008091870282602DC0C130FDE5DF0709F476
:101B500075C008F45DC0C230DD4509F072C080E098
:101B60006EC080918602816003C080918602806190
:101B70008093860266C08091860211C080918702A0
:101B80008260809387025DC0809186028062F0CF80
:101B9000809186028064ECCF8091860288608460A8
:101BA000E7CF8160EECF809186028E7FE1CF80917A
:101BB00086028D7FDDCF80918602877FD9CF80918D
:101BC000870218C0809187028D7FDBCF80918602CB
:101BD0008F7ECECF809186028F7DCACF8091860284
:101BE0008F7BC6CF80918602877F8B7FC1CF80910C
:101BF00087028D7F8E7FC5CF8091860282FB222750
:101C000020F991E0922790FB82F990FB83F9B0CF05
:101C100080918702982F909591708E7F892B90FBF1
:101C200081F9AFCF0E9494138091860287FB22270F
:101C300020F991E0922790FB87F99ACF81E00E94EA
:101C40002F1B80918602909187020E94B11A0E94F8
:101C5000941380E001C081E0DF91CF910895CF938C
:101C6000DF9386319C4541F5EB010E948519982F41
:101C70008A812091000130910101882379F09A7ABC
:101C800081E009F480E080939F01911102C069E234
:101C900001C065E3C9010E94EC1B0AC080919F014D
:101CA000811102C069E201C065E3C9010E94F71B0E
:101CB0000E94E21980E001C081E0DF91CF91089598
:101CC0009093A5018093A4010895E091A401F0915F
:101CD000A501309721F00190F081E02D099480E07A
:101CE0000895EF92FF921F93CF93DF93FC01A09191
:101CF000A401B091A501109709F442C0809114018C
:101D0000882341F08091860287FF04C0808181830F
:101D100085E08083EF011296ED91FC911397CE013F
:101D200009958091480282FF2BC080FF04C08CEF90
:101D300093E00E94050818E086EFE82E83E0F82E75
:101D40008091480280FF0BC088811F928F93FF9281
:101D5000EF920E949E080F900F900F900F901150DD
:101D600021961111EDCF8091480280FF09C084EFC8
:101D700093E0DF91CF911F91FF90EF900C940508B5
:101D8000DF91CF911F91FF90EF900895E091A40112
:101D9000F091A501309739F022E0DC012C9304800A
:101DA000F581E02D099408952091A2013091A301BD
:101DB0002817390771F09093A3018093A201E09155
:101DC000A401F091A501309721F00680F781E02D64
:101DD000099408952091A0013091A1012817390795
:101DE00071F09093A1018093A001E091A401F09182
:101DF000A501309721F00084F185E02D0994089524
:101E000085B7806885BF85B7806885BF08950895C8
:101E10000C94070F0C94080F0C94070F0C94070FE9
:101E20000E94000F0E940C0F0C940A0F81E008958D
:101E30000C94160F0E94951C0E94AA080E94FC1C7C
:101E40000C940E0FCF93C82F8091480282FF1EC0C2
:101E500080FF04C085E194E00E940508809148025B
:101E600080FF0CC01F92CF9380E194E09F938F93EB
:101E70000E949E080F900F900F900F908091480243
:101E800080FF04C08EE094E00E9405088C2FCF9163
:101E90000C94D0097F928F929F92AF92BF92CF9273
:101EA000DF92EF92FF920F931F93CF93DF93CDB703
:101EB000DEB72A970FB6F894DEBF0FBECDBF0E94E3
:101EC000AC080E94180F811111C08FEF89838A839B
:101ED0001B820E949E1C8160782F9D838C83498188
:101EE0005A816B818D810E94FA0F4FC047EAA42E60
:101EF00041E0B42E00E010E0702E802F0E94050912
:101F00006C01F501819091905F01882699268114DA
:101F1000910431F40F5F1F4F0530110569F7D5CFDC
:101F20008091480281FD0E940E0980E0EE24E39436
:101F3000F12C94012E213F21232B09F18E837F82E6
:101F4000CE20DF2081E0CD2809F480E088870E9440
:101F50009E1C8160782F9A8789874E815F81688572
:101F60008A850E94FA0F000F111FF801E955FE4FF4
:101F700080819181E826F926F182E08206C08F5F98
:101F8000EE0CFF1C8E30A9F6C5CF0E94101F0E94D8
:101F9000650E9091A6018917C9F00E94650E809385
:101FA000A6012A960FB6F894DEBF0FBECDBFDF9113
:101FB000CF911F910F91FF90EF90DF90CF90BF9046
:101FC000AF909F908F907F900C94220F2A960FB61F
:101FD000F894DEBF0FBECDBFDF91CF911F910F915F
:101FE000FF90EF90DF90CF90BF90AF909F908F9039
:101FF0007F900895CF93DF93CDB7DEB72B970FB6C1
:10200000F894DEBF0FBECDBF4F83588769877A87AC
:102010008B87DE01119686E0FD0111928A95E9F722
:1020200085E0FE01379601900D928A95E1F70E94B6
:102030006819882319F082E00E944A1A0E944F19F9
:1020400081110E94D41949815A816B817C818D81D3
:102050009E810E944D162B960FB6F894DEBF0FBEE0
:10206000CDBFDF91CF910895FC01808191810E94C5
:1020700021190895CF93882309F455C0C82F8CEFF8
:102080008C0F813AF8F48C2F0E940D2481114BC0E3
:102090006C2F80910001909101010E944A1B8823BE
:1020A00049F06C2F80910001909101010E94F71B73
:1020B0000E94E2196C2F80910001909101010E9411
:1020C000EC1B0CC080E28C0F883058F4C77081E0A4
:1020D00001C0880FCA95EAF70E948819CF910C9425
:1020E000E219EBE5EC0FE33040F4F0E0EC58FE4F82
:1020F000808190E0CF910C94D40EE8E5EC0FE731AD
:1021000050F4F0E0EE0FFF1FEA5BFE4F80819181FB
:10211000CF910C94EA0EC03F30F08C2F0E94961D98
:10212000CF910C94831ECF910895882389F19CEF61
:10213000980F913A40F4682F80910001909101012D
:102140000E94F71B0DC090E2980F983058F48770EA
:1021500091E001C0990F8A95EAF7892F0E948E19A4
:102160000C94E2199BE5980F933020F480E090E006
:102170000C94D40E98E5980F973120F480E090E00D
:102180000C94EA0E803F20F00E94FE1D0C94831EEA
:102190000895CF93C82F0E943A10C93349F42FEF06
:1021A00087EE93E0215080409040E1F700C00000AE
:1021B0008C2FCF910C949510882321F00E948819C0
:1021C0000C94E2190895882321F00E948E190C9432
:1021D000E2190895CF92DF92EF92FF920F931F932F
:1021E000CF93DF937C01062FC72FFC011581129539
:1021F0001F70D281D1110E94A5190E947E198823D7
:1022000079F0DD2369F080E2800F883048F082E0C9
:102210000E944A1A0E947E1991E0D82ED92601C048
:10222000D12CCC2EC2948FE0C8228C2D90E0FC01E2
:10223000EA5AFF4F0C94392D8C2F807FCF70882362
:1022400011F0C295C07FDD2399F0CC2309F4C4C1FD
:1022500080E2800F883010F0011104C08C2F0E94A2
:10226000881903C08C2F0E9498190E94E219B4C1EA
:10227000802F0E949510CC2309F4D3C180E2800FF7
:10228000883010F0011104C08C2F0E948E1903C0F9
:102290008C2F0E949E190E94E219C3C18C2F807F4F
:1022A000CF70803211F0C295C07F002319F0013049
:1022B000C9F022C0DD2371F0112341F0113031F457
:1022C0000E94B8198C2B0E94C019ABC10E94B8198A
:1022D0008C2B1DC0112319F0113009F4A2C10E94EA
:1022E000D41925C0DD2321F0163008F09AC10EC0A4
:1022F000153008F096C11BC0DD2361F0112331F0C9
:10230000F701858180FF68C18F7085838C2F0E94C3
:10231000DC1087C1112359F0093309F06EC1FFEFBA
:1023200027EE83E0F15020408040E1F764C18C2F1C
:102330000E94E31076C18C2F86958695837019F0E4
:10234000813061F06EC1DD2321F0802F9C2F9370CE
:1023500002C080E090E00E94D40E6BC1DD2321F02A
:10236000802F9C2F937002C080E090E00E94EA0EC4
:1023700060C1DD23F9F0053F51F0063F71F0043FE5
:10238000A9F4809180029091810281600BC08091BC
:10239000800290918102826005C0809180029091BC
:1023A000810284609093810280938002802F0E943A
:1023B000961D1EC0053F51F0063F71F0043FA9F481
:1023C00080918002909181028E7F0BC0809180026B
:1023D000909181028D7F05C0809180029091810251
:1023E0008B7F9093810280938002802F0E94FE1D3C
:1023F0000E94831E1EC18C2F837009F045C0D1112D
:1024000014C1402F429546954770440F440F602FEA
:102410006F70862F90E0A0E0B0E0042E04C0880F1B
:10242000991FAA1FBB1F0A94D2F704FF10C00FE028
:1024300010E020E030E004C0000F111F221F331F06
:102440004A95D2F7009510952095309503C000E08D
:1024500010E09801C695C695C370BC01CD01602BF4
:10246000712B822B932BC23049F058F4C13019F0F4
:102470000E949E17DAC00E948C17D7C00E94B01726
:10248000D4C00E948A17D1C0DD2319F08C2F81702F
:1024900001C08695882309F4C8C0402F429546950F
:1024A0004770440F440F602F6F70862F90E0A0E0BC
:1024B000B0E0042E04C0880F991FAA1FBB1F0A9406
:1024C000D2F704FF10C00FE010E020E030E004C0BD
:1024D000000F111F221F331F4A95D2F70095109548
:1024E0002095309503C000E010E09801C695C69590
:1024F000C370BC01CD01602B712B822B932BC2309A
:1025000049F058F4C13019F00E9463188EC00E943F
:1025100051188BC00E94751888C00E94C41785C0CE
:10252000CF70DD2339F08C2F0E94EA17802F0E9494
:10253000DC107BC0802F0E94E3108C2F0E940B18B0
:1025400074C0023F01F128F4003F41F0013FA1F0C7
:102550003FC0033FF9F0043F39F13AC0DD2341F0B9
:10256000153008F05EC08C2F8F710E94301859C052
:10257000163008F056C0F7CFDD2339F08C2F8F715D
:102580000E94EA174EC0DD23C9F38C2F8F710E9481
:102590000B1847C0DD2329F08C2F8F710E94D517AF
:1025A00040C00E94D0173DC0DD2349F0CF718C2F71
:1025B0000E94EA1763E08C2F0E942B1A32C081E040
:1025C0000E944A1A123068F182E00E944A1A29C019
:1025D000DD2331F0112391F2802F0E943A1021C0A7
:1025E000112399F2093349F49FEFE7EEF3E091509C
:1025F000E040F040E1F700C00000802F0E949510FD
:1026000010C04C2F4F70602FC7010E94410A0E94DA
:10261000FB160FC04C2F4F70602FC7010E94440A59
:1026200008C088EF8C0D843020F40E94650E0E9453
:10263000D009DD20C9F00E94641980FD15C0F701A2
:1026400012820E945E190E94EA17C7010E94551368
:102650000E945E19DF91CF911F910F91FF90EF9033
:10266000DF90CF900C940B18DF91CF911F910F91B9
:10267000FF90EF90DF90CF9008950F931F93CF932B
:10268000DF93EC01688179818A810E942C198C0189
:102690000E9487180E947817B801CE010E94EA10A4
:1026A000DF91CF911F910F910895CF93DF93FC019C
:1026B0009081818123813481232B31F08F3F31F44C
:1026C00081E09F3F19F403C081E001C080E080FDFC
:1026D0000EC0EF01CF010E94E909882341F0CE012D
:1026E0000E943D13CE01DF91CF910C94B709DF9189
:1026F000CF9108950E94A5190E94B5190E94E21970
:102700000E942F200E94831E80E090E00E94D40E41
:1027100080E090E00C94EA0E80910001909101011C
:102720000E94021C0C947A130E9495190C948C132D
:10273000E92FE295EF704E2F50E0FA013297EE301C
:10274000F105B0F4EA59FF4F0C94392D803F91F018
:1027500018F4883E68F40EC0843F51F40BC0883EE4
:1027600048F0813F29F406C093FB882780F908953B
:1027700080E0089581E008950E9421190E94981335
:102780000895CF93DF9300D000D01F92CDB7DEB76E
:102790000F900F900F900F900F90DF91CF910895B1
:1027A000CF93DF9300D000D000D0CDB7DEB7269610
:1027B0000FB6F894DEBF0FBECDBFDF91CF91089565
:1027C0001F93CF93DF93C091B20116E08091B301C4
:1027D000C81799F0D0E01C9FF0011D9FF00D112447
:1027E000EC54FE4F408151816281738184819581D7
:1027F0000E94D0132196C770E9CFDF91CF911F912E
:1028000008954091E4015091E5016091E6017091D5
:10281000E7018091E8019091E9010C94D0130F93A6
:102820001F93CF93DF938091E90182958F7009F018
:102830005DC08091E601882309F458C08091B201FF
:102840001091B3016091E4017091E501C091E7013D
:10285000D091E80191E06F3F09F090E0292F06E068
:10286000811709F443C0209721F07F3F21F030E029
:1028700003C031E001C0322F90E030FD34C0089F2A
:10288000F001099FF00D1124DF01AC54BE4F1196E9
:102890003C911197371327C03C91361324C01296F0
:1028A0003C91129731111FC013964D915C91149772
:1028B0004C1B5D0B483C5105B0F48091E9018F70D1
:1028C00080618093E901E754FE4F80818F708061C1
:1028D000808384EE91E00E945513DF91CF911F9188
:1028E0000F910C94E01301968770BACFDF91CF91CE
:1028F0001F910F9108959F92AF92BF92CF92DF9256
:10290000EF92FF920F931F93CF93DF93CDB7DEB774
:1029100061970FB6F894DEBF0FBECDBF8C0185E086
:10292000F801DE011D9601900D928A95E1F7F801FC
:1029300040815181E2809091E4016091E501209114
:10294000E7013091E8012115310531F06F3F31F495
:1029500081E09F3F19F403C081E001C080E0F82FBF
:10296000F1709F2E80FD46C1F801A380B48084EEF3
:10297000C82E81E0D82EF090E601F501E21BF30BA2
:10298000FF2009F4DFC08091E901E83CF10508F07F
:102990009BC0282F207F09F052C0561313C0491343
:1029A00011C0FE2CE1100EC08F7080618093E90190
:1029B0000E940114C6010E9455138091E901F8019B
:1029C000858358C1AB2831F05F3F31F481E04F3F40
:1029D00019F403C081E001C080E080FD03C081E004
:1029E0008E2502C080E090E0F82FF170FF2E80FF6E
:1029F0001CC08091B2012091B30136E0821709F426
:102A000017C190E0389FF001399FF00D1124EC546C
:102A1000FE4F6181561306C06081461303C0628178
:102A2000E61203C001968770E9CFFE2CEE2009F470
:102A300021C18091E90181608093E9015AC0561358
:102A400006C0491304C0E11002C0F8019FC04D87C1
:102A50005E878D859E850E94BC13882379F1EE20C8
:102A600069F12091E901822F82958F7090E00297A1
:102A700074F08091E4019091E50198878F83198625
:102A8000BB86AA862C87CE0107960E94551386E046
:102A9000F801A4EEB1E001900D928A95E1F70E9451
:102AA0000F140E9401140DC0561729F14D875E873F
:102AB0008D859E850E94BC1381112CC0C8010E9487
:102AC0005513FF24F394D6C0282F207F69F77A2D61
:102AD000B98AA88A6E2D89890E94C11384EE91E07B
:102AE0000E94551386E0F60111928A95E9F70E943B
:102AF0000114F12CBFC04913D9CFE110D7CFF80191
:102B00008583C8010E94551386E0F60111928A95CB
:102B1000E9F7B0C0EE2091F22091E901822F829571
:102B20008F7090E002970CF4B2CF8091E401909105
:102B3000E5019A8389831B82BD82AC822E83CE01FC
:102B40000196A3CFE83CF10508F047C0FE2CEE202B
:102B500009F4B4CF561330C049132EC02091E901B7
:102B600020FD21C0822F82958F70482F50E04115A3
:102B70005105C9F0F80125834F30510541F08F5FB1
:102B8000982F9295907F822F8F70892B8583C80113
:102B90000E94551386E0F801A4EEB1E001900D9279
:102BA0008A95E1F742C086E0F801A4EEB1E0019019
:102BB0000D928A95E1F75EC04D875E878D859E8573
:102BC0000E94BC13811163CF8091E90181608093E1
:102BD000E901C8010E9455134DC07A2DB98AA88A0F
:102BE0006E2D89890E94C11386E0F60111928A95A3
:102BF000E9F71BC0EE2009F461CF4D875E878D8514
:102C00009E850E94BC13F82E882309F457CF86E0D6
:102C1000F801A4EEB1E001900D928A95E1F784EEFF
:102C200091E00E9434100E940F140E94011422C0EF
:102C30004D875E878D859E850E942119292F2295BB
:102C40002F70223028F49F7039F0811105C00BC01D
:102C5000243028F49F7049F4805E883020F0C80149
:102C60000E9455139F2CF92C05C0F8019581907F87
:102C700099F7F9CF8F2D61960FB6F894DEBF0FBE8E
:102C8000CDBFDF91CF911F910F91FF90EF90DF901B
:102C9000CF90BF90AF909F9008951F93CF93DF93F5
:102CA000CDB7DEB72C970FB6F894DEBF0FBECDBF01
:102CB0004F83588769877A878B879C87CE010796D1
:102CC0000E947B148823D1F09F8188852A853B85CB
:102CD000232B31F08F3F31F481E09F3F19F403C083
:102CE00081E001C080E080FD47C04F815885698543
:102CF0007A858B859C850E94D0133EC086E0FE01BC
:102D00003796DE01119601900D928A95E1F7FF81C9
:102D1000E8856A857B856115710531F0EF3F31F4F7
:102D200081E0FF3F19F403C081E001C080E080FD35
:102D300023C02091B30130E0C90101968770992723
:102D40004091B20150E084179507F1F1F983EA83CD
:102D50007D836C8396E0929FD001939FB00D1124E8
:102D6000AC54BE4FFE01319601900D929A95E1F759
:102D70008093B3010E94E01316E08091B20190911C
:102D8000B301891771F1189FC00111248C549E4F13
:102D90000E947B14882329F1E091B2011E9FF0016B
:102DA0001124EC54FE4F40815181628173818481F2
:102DB00095810E94D0138091B20190E001968770B6
:102DC00099278093B201D9CF0E9494131092B30136
:102DD0001092B201E4EEF1E086E0DF011D928A95E7
:102DE000E9F72C960FB6F894DEBF0FBECDBFDF918A
:102DF000CF911F910895EF92FF920F931F93CF935E
:102E0000DF938C01892B09F46CC0F12CEE24E39440
:102E1000E8012196F8018491843740F4843008F069
:102E200051C0813081F0823019F15BC0853709F4DF
:102E300044C0A8F19CE7980F903708F052C08F77F4
:102E40000E94951041C00E5F1F4FFE01849190E2D9
:102E5000980F983050F48770FE2D01C0FF0F8A95AF
:102E6000EAF78F2F0E94A81914C00E943A102DC0B3
:102E70000E5F1F4FFE01849190E2980F983060F42E
:102E80008770FE2D01C0FF0F8A95EAF78F2F0E94F1
:102E9000AE190E94E21919C00E94951016C00E5F6B
:102EA0001F4FFE01C491CC2381F08FE99FE0019771
:102EB000F1F700C00000C150F6CF0E5F1F4FFE01BA
:102EC000F49003C00E943A108E018F2D882309F4DC
:102ED0009FCFEFE9FFE03197F1F700C0000081508C
:102EE000F5CFDF91CF911F910F91FF90EF90089553
:102EF000089508950C9479170C947A170E947C1702
:102F000060931B0270931C0280931D0290931E021B
:102F10000C947A130C947E170F931F9300911B024D
:102F200010911C0220911D0230911E02602B712B0A
:102F3000822B932B1F910F910C947E170F931F934D
:102F400000911B0210911C0220911D0230911E0263
:102F500060237123822393231F910F910C947E177A
:102F60000F931F9300911B0210911C0220911D02D0
:102F700030911E0260277127822793271F910F919E
:102F80000C947E170C9479170E94C2176093170255
:102F9000709318028093190290931A020C947A137A
:102FA00060E070E0CB010C94C4170F931F9341E0D5
:102FB00050E060E070E08A019B0104C0000F111F27
:102FC000221F331F8A95D2F7C901B8011F910F91B3
:102FD0000C94C4170F931F9341E050E060E070E041
:102FE00004C0440F551F661F771F8A95D2F7809142
:102FF000170290911802A0911902B0911A028A0149
:103000009B01082B192B2A2B3B2BC901B8011F91BF
:103010000F910C94C4170F931F9341E050E060E0B0
:1030200070E004C0440F551F661F771F8A95D2F7C2
:103030004095509560957095809117029091180277
:10304000A0911902B0911A028A019B010823192349
:103050002A233B23C901B8011F910F910C94C41777
:103060000F931F9341E050E060E070E004C0440F14
:10307000551F661F771F8A95D2F78091170290918E
:103080001802A0911902B0911A028A019B01082727
:1030900019272A273B27C901B8011F910F910C94CA
:1030A000C4170F931F9300911702109118022091DB
:1030B000190230911A02602B712B822B932B1F91D6
:1030C0000F910C94C4170F931F9300911702109146
:1030D00018022091190230911A0260237123822371
:1030E00093231F910F910C94C4170F931F9300917A
:1030F0001702109118022091190230911A026027CC
:103100007127822793271F910F910C94C41708955C
:103110002EE0929F800D1124E82FE695E695E69526
:10312000877051E001C0550F8A95EAF785E0E89F66
:10313000F0011124E651FE4F20E030E070E04081C4
:10314000CB01022E02C0969587950A94E2F7817012
:10315000819584278523842781932F5F3F4F2530D6
:10316000310569F708952EE0929F800D1124682F94
:10317000669566956695982F977085E0689FB00173
:10318000112440E050E080E0FB01E40FF51FE65120
:10319000FE4F208130E0092E02C0369527950A9413
:1031A000E2F721703327042E01C0220F0A94EAF7B8
:1031B000822B4F5F5F4F4530510531F70895BF9225
:1031C000CF92DF92EF92FF920F931F93CF93DF93F3
:1031D0008C01C0901702D0901802E0901902F09074
:1031E0001A0280911B0290911C02A0911D02B091C5
:1031F0001E02C82AD92AEA2AFB2ACFE1D0E0D70149
:10320000C6010C2E04C0B695A795979587950A948C
:10321000D2F780FD04C0219790F7B12C07C0BC2ED7
:10322000B8018C2F0E94600A0197A9F38B2DDF91C2
:10323000CF911F910F91FF90EF90DF90CF90BF90B3
:103240000895CF93DF93EC010E94DF18BE010E9426
:10325000600ADF91CF9108951F93CF93DF93EB0125
:103260009091B101992321F0CB010E94211913C043
:10327000882349F0CB010E94DF18182F682FCE0158
:103280000E94881804C0CB010E94B318182FBE01F9
:10329000812F0E94600ADF91CF911F9108950E94B3
:1032A0009E1C2091220230912302821B930B9C01D1
:1032B00081E0243F314008F480E0089580912102AC
:1032C000859585958595089580912102877008954B
:1032D0000E949E1C20911F0230912002821B930BA2
:1032E000843F914040F08091210282FB882780F941
:1032F00091E0892701C080E08170089590912102BA
:10330000977081E009F480E0089580914702089564
:1033100090914702892B8093470208958095909160
:103320004702892380934702089510924702089527
:1033300090914602892B8093460208958095909142
:10334000460289238093460208951092460208950A
:1033500090914502892B8093450208958095909124
:1033600045028923809345020895109245020895ED
:1033700080912402089508950C94BB190C94BC19F3
:10338000CF9390912402981769F0C82F0E949E1C39
:103390009093230280932202C09324028C2FCF911A
:1033A0000C94BE19CF91089580912402882349F08E
:1033B00010922402109223021092220280E00C94B8
:1033C000BE190895E0910001F0910101809147023A
:1033D0008083E0910001F09101019081809146028B
:1033E000892B8083E0910001F0910101908180910F
:1033F0004502892B808380912402882321F10E9439
:103400004F19882371F08091480280FF08C088E23C
:1034100094E09F938F930E949E080F900F900E94BC
:10342000D419E0910001F091010190818091240272
:10343000892B808380910001909101010E94341BAF
:1034400081110E94D41980910001909101010C9486
:10345000710E0C94BB1998E0899F90011124262BC2
:10346000209321020E94EA170E949E1C9093200242
:1034700080931F02809121028595859585950C94F6
:10348000291A109221021092200210921F0280E04D
:103490000C94291A20912102809582238093210285
:1034A000982F977079F430E0482F082E000C550BB8
:1034B0002417350739F08595859585950E940B1859
:1034C0000C94411A0895909391018093900108956E
:1034D0008295982F937344E0949F900111248C7CE3
:1034E00086958695282B822F8575880F2A7A2695B2
:1034F000822B0895CF93DF93D92F0E94681AC82F8B
:103500008D2F0E94681A2C2F30E0322F2227A9011C
:10351000482BCA01DF91CF91089580E090E00E948E
:103520005B2D21E08C3E9E4F09F020E0822F089514
:1035300082E090E00C94532D83E090E00C94532DA6
:10354000CF9384E090E00E94532DC82F81E290E059
:103550000E94532D2C2F30E0A901582BCA01CF9186
:103560000895CF93C92F682F84E090E00E94612DC9
:103570006C2F81E290E0CF910C94612DAB01BC01E6
:103580008FE090E00C94732DAB01BC0183E190E0DF
:103590000C94732D60E070E0CB010C94C41A60E0D1
:1035A00070E0CB010E94BE1A0C94CA1A6CEE7EEF3A
:1035B00080E090E00E947F2D60E082E090E00E9439
:1035C000612D60E083E090E00E94612D10921B026B
:1035D00010921C0210921D0210921E0260E084E004
:1035E00090E00E94612D60E081E290E00E94612DF8
:1035F00060E085E090E00E94612D60E086E090E070
:103600000E94612D6FEF87E090E00E94612D40E005
:1036100050E0BA0188E090E00E94732D60E08DE0F8
:1036200090E00E94612D40E050E0BA0188E190E016
:103630000E94732D60E087E190E00E94612D40E0E0
:1036400050E0BA018CE190E00E94732D60E080E2CE
:1036500090E00E94612D0C94CF1A0C94D61A682F1A
:103660008EE090E00C94612DFC0132968091140163
:10367000882331F08091860287FF02C09EE101C05D
:1036800096E080E0915028F021912223D9F38F5FBA
:10369000F9CF0895662351F1209114012223E9F016
:1036A0002091860227FF19C0462F469546954695DC
:1036B0004E31E0F4677021E030E002C0220F331F8A
:1036C0006A95E2F7FC01E40FF11D828190E0282366
:1036D000392381E0232B69F409C0FC013296089656
:1036E0002191621729F0E817F907D1F780E00895D2
:1036F00081E008959C01FC0132969FEF80E04191AA
:10370000461789F09F3F19F4411101C0982F8F5F30
:103710008630A9F79F3F39F0F901E90FF11D97FDB8
:10372000FA956283089508959C012A5F3F4FFC013A
:103730004281461301C01282019682179307B9F79E
:103740000895262F2695269526952E3170F4FC0196
:10375000E20FF11D677021E030E001C0220F6A9591
:10376000EAF78281282B228308958091480280FF06
:103770000CC01F926F9388E594E09F938F930E94F3
:103780009E080F900F900F900F900895262F26956A
:10379000269526952E3178F4FC01E20FF11D677015
:1037A00021E030E001C0220F6A95EAF7209582817E
:1037B0002823228308958091480280FF0CC01F9225
:1037C0006F938AE394E09F938F930E949E080F90DB
:1037D0000F900F900F90089520911401222329F04B
:1037E0002091860227FD0C94A11B0C947A1B20913A
:1037F0001401222329F02091860227FD0C94C61B78
:103800000C94941B20911401FC013296222331F078
:103810008091860287FF02C08EE101C086E0DF0151
:103820001D928A95E9F7089508950C94141C0C9440
:10383000141CCF930E94171C0E94AC080E94151CF8
:10384000C0E08C2F0E940509892B29F4CF5FC53079
:10385000C1F780E001C081E0CF9108950C94141C61
:103860000C942E1C0E94301C80918C02843049F1F3
:103870001092490220E488E190E00FB6F894A895F0
:10388000809360000FBE2093600080E00E94D0090A
:103890000E94301C83B7817F846083BF83B78160BF
:1038A00083BF7894889583B78E7F83BF0FB6F894D3
:1038B000A8958091600088618093600010926000FC
:1038C0000FBE08950C94141C0E9494130E94650E60
:1038D0000E94D0090C94621C1F920F920FB60F9297
:1038E00011248F939F93AF93BF93809149028111CD
:1038F00013C08091820290918302A0918402B091C2
:1039000085024196A11DB11D80938202909383028E
:10391000A0938402B0938502BF91AF919F918F9144
:103920000F900FBE0F901F90189582E084BD93E01A
:1039300095BD9AEF97BD80936E0008952FB7F894C8
:103940008091820290918302A0918402B0918502BD
:103950002FBF08952FB7F89460918202709183026F
:1039600080918402909185022FBF08959C014FB7EA
:10397000F8948091820290918302A0918402B09188
:1039800085024FBF821B930B089578941F920F926C
:103990000FB60F9211248F939F93AF93BF93809193
:1039A000820290918302A0918402B09185020196D7
:1039B000A11DB11D8093820290938302A093840283
:1039C000B0938502BF91AF919F918F910F900FBEE1
:1039D0000F901F90189587E797E7909301088093C1
:1039E00000089AE088E10FB6F894A89580936000EB
:1039F0000FBE90936000FFCF0E948D1A811102C00C
:103A00000E942D1B0E94981A809348020E94A01ABF
:103A100090938702809386020E949C1A682F70E020
:103A200080E090E00C948A178091510280FF0BC0D7
:103A30006091070185E0689FB00111247595679535
:103A4000759567952BC081FF09C06091070185E0DE
:103A5000689FB00111247595679520C082FF07C04B
:103A60006091070185E0689FB001112417C0909113
:103A700050029923D1F060910601961788F72091A2
:103A8000070185E0289F90011124929FA001939F38
:103A9000500D112470E0CA010E94252D6038710577
:103AA00040F46115710519F406C065E070E0862FD9
:103AB00008958FE7089581E008958091510280FF75
:103AC00008C06091030170E07595679575956795DD
:103AD00021C081FF06C06091030170E07595679574
:103AE00019C082FF04C06091030170E010C0909182
:103AF0005002992399F0609102019617A0F78091E6
:103B00000301899FC001112470E00E94252D6038B7
:103B1000710540F46115710519F406C061E070E0AB
:103B2000862F08958FE7089581E00895803F21F45E
:103B30000E94141D819504C0813F29F40E94141D28
:103B4000809355020895823F21F40E94141D8195AF
:103B500004C0833F29F40E94141D809354020895E9
:103B6000893F19F40E945D1D05C08A3F31F40E940F
:103B70005D1D81958093560208958B3F21F40E942C
:103B80005D1D819504C08C3F29F40E945D1D8093CA
:103B900057020895843F21F480915302816017C039
:103BA000853F21F480915302826011C0863F21F449
:103BB0008091530284600BC0873F21F480915302AF
:103BC000886005C0883F31F4809153028061809302
:103BD000530208958D3F21F48091510281600BC002
:103BE0008E3F21F480915102826005C08F3F29F4FD
:103BF000809151028460809351020895803F39F48E
:103C00008091550287FF6CC01092550269C0813FB8
:103C100029F4809155021816BCF362C090915402A9
:103C2000823F29F497FF5CC01092540259C0833F31
:103C300019F41916CCF354C0893F41F4809156020F
:103C400018160CF04DC0109256024AC08A3F29F453
:103C50008091560287FF44C0F6CF8B3F39F48091A4
:103C6000570287FF3DC0109257023AC08C3F29F49B
:103C7000809157021816BCF333C0843F21F4809121
:103C800053028E7F17C0853F21F4809153028D7FB0
:103C900011C0863F21F4809153028B7F0BC0873F78
:103CA00021F480915302877F05C0883F31F48091D1
:103CB00053028F7E8093530213C08D3F21F4809175
:103CC00051028E7F0BC08E3F21F4809151028D7F77
:103CD00005C08F3F29F4809151028B7F8093510260
:103CE0008091540281110EC08091550281110AC049
:103CF00080915602811106C080915702811102C045
:103D00001092500208958091480283FF7EC08DE991
:103D100094E00E940508809153021F928F9388E9D6
:103D200094E09F938F930E949E0886E994E00E94FE
:103D3000050880915402282F082E000C330B3F9366
:103D40008F9383E994E09F938F930E949E0881E96B
:103D500094E00E94050880915502282F082E000C3F
:103D6000330B3F938F938EE894E09F938F930E9441
:103D70009E088CE894E00E94050880915602282F46
:103D8000082E000C330B3F938F9389E894E09F93A8
:103D90008F930E949E0887E894E00E940508809116
:103DA0005702282F082E000C330B3F938F9384E883
:103DB00094E09F938F930E949E0881E894E00E9474
:103DC0000508809150021F928F938EE794E09F9395
:103DD0008F930E949E088CE794E00E9405088091D2
:103DE00051021F928F9389E794E09F938F930E94D3
:103DF0009E0886E794E00E9405088DB79EB74C9612
:103E00000FB6F8949EBF0FBE8DBF82E592E00E9470
:103E1000C60E0E949E1C90934F0280934E020895FE
:103E2000CF93DF9300D000D000D0CDB7DEB786E0CF
:103E3000E2E5F2E0DE01119601900D928A95E1F73C
:103E400080915402811105C080915502882309F4A4
:103E50007AC080914C0290914D020E94B61CAC0138
:103E600090915002992339F02091080130E02417F5
:103E7000350758F068C0209109018AE0289F900119
:103E800011242417350718F05EC09F3F19F09F5F7B
:103E90009093500210925602109257028091540251
:103EA000181624F40E94141D809354028091540229
:103EB00087FF05C00E94141D819580935402809154
:103EC0005502181624F40E94141D80935502809107
:103ED000550287FF05C00E94141D819580935502ED
:103EE000309154023323E1F0209155022223C1F096
:103EF00045EB3403C0011124992319F09093540227
:103F000003C081E08093540235EB2303C0011124E8
:103F1000992319F09093550203C081E080935502D4
:103F20000E94831E80914E0290914F0290934D0209
:103F300080934C0286E0FE013196A2E5B2E001904A
:103F40000D928A95E1F780915602811105C080910A
:103F50005702882309F47AC080914A0290914B025B
:103F60000E94B61CAC0190915002992339F0209127
:103F7000040130E02417350758F068C0209105018E
:103F80008AE0289F900111242417350718F05EC09D
:103F90009F3F19F09F5F909350021092540210922D
:103FA000550280915602181624F40E945D1D8093DC
:103FB00056028091560287FF05C00E945D1D8195C3
:103FC0008093560280915702181624F40E945D1DBA
:103FD000809357028091570287FF05C00E945D1DA4
:103FE000819580935702309156023323E1F020915E
:103FF00057022223C1F045EB3403C0011124992359
:1040000019F09093560203C081E08093560235EB7D
:104010002303C0011124992319F09093570203C080
:1040200081E0809357020E94831E80914E029091FE
:104030004F0290934B0280934A0286E0FE01319634
:10404000A2E5B2E001900D928A95E1F726960FB6AF
:10405000F894DEBF0FBECDBFDF91CF910895E2E5AA
:10406000F2E086E0DF011D928A95E9F71092500296
:1040700010925102089580EC96E00E9405081F926C
:1040800081E08F931F9285E08F9382E796E09F9364
:104090008F930E949E080F900F900F900F900F909B
:1040A0000F9008958330E9F128F4813061F0823077
:1040B00009F10895853009F462C008F449C08630DA
:1040C00009F474C0089580910901262F30E0280F6B
:1040D000311D2F3F310524F4680F6093090103C09F
:1040E0008FEF80930901809109011F928F938BEAD2
:1040F00095E072C080910801262F30E0280F311D15
:104100002F3F310524F4680F6093080103C08FEF3F
:1041100080930801809108011F928F9389E995E0AF
:104120005BC080910701262F30E0280F311D2F3F03
:10413000310524F4680F6093070103C08FEF80936B
:104140000701809107011F928F9386E895E044C094
:1041500080910601262F30E0280F311D2F3F3105B9
:1041600024F4680F6093060103C08FEF809306016B
:10417000809106011F928F9381E795E02DC0809179
:104180000301262F30E0280F311D2F3F310524F485
:10419000680F6093030103C08FEF80930301809148
:1041A00003011F928F9388E595E016C0809102016C
:1041B000262F30E0280F311D2F3F310524F4680FE2
:1041C0006093020103C08FEF80930201809102018E
:1041D0001F928F938DE395E09F938F930E949E088B
:1041E0000F900F900F900F900895833081F128F475
:1041F000813059F08230D1F00895853009F449C0FA
:10420000B8F1863009F456C0089580910901681705
:1042100020F4861B8093090102C01092090180914D
:1042200009011F928F938EE295E054C0809108019E
:10423000681720F4861B8093080102C010920801C1
:10424000809108011F928F938CE195E043C080918B
:104250000701681720F4861B8093070102C01092A3
:104260000701809107011F928F9389E095E032C08A
:1042700080910601681720F4861B8093060102C016
:1042800010920601809106011F928F9384EF94E0B3
:1042900021C080910301681720F4861B80930301DD
:1042A00002C010920301809103011F928F938BED46
:1042B00094E010C080910201681720F4861B80935F
:1042C000020102C010920201809102011F928F939D
:1042D00080EC94E09F938F930E949E080F900F9024
:1042E0000F900F900895CF93C82F1F928F9385EC56
:1042F00097E09F938F930E949E0881E090E0A0E05A
:10430000B0E0BC01CD0104C0660F771F881F991F64
:10431000CA95D2F70E948A170F900F900F900F90B6
:10432000CF910C949413CF93DF93482F50E0FA0170
:104330003597EF33F10508F058C2EC58FF4F0C9455
:10434000392D87E59DE00E94050883E99CE00E94E5
:1043500005080E949C1A1F928F9380E99CE09F930E
:104360008F930E949E088EE89CE00E9405080E94A0
:10437000981AC82F8BE79CE00E9405081F92CF93E4
:1043800086E79CE09F938F930E949E0884E79CE0C1
:104390000E9405088AE69CE00E9405088C2F817027
:1043A0001F928F9387E69CE09F938F930E949E08B5
:1043B00085E69CE00E9405088BE59CE00E940508CC
:1043C000C1FB882780F91F928F9388E59CE09F931B
:1043D0008F930E949E0886E59CE00E9405088AE46F
:1043E0009CE00E940508C2FB882780F91F928F93EA
:1043F00087E49CE09F938F930E949E0885E49CE055
:104400000E9405088CE39CE00E940508C3FBCC27B2
:10441000C0F91F92CF9389E39CE09F938F930E94F2
:104420009E0887E39CE00E9405080E94A01AEC0108
:1044300083E29CE00E940508DF93CF938EE19CE02D
:104440009F938F930E949E088CE19CE00E94050838
:1044500083E09CE00E9405088C2F81701F928F934F
:1044600080E09CE09F938F930E949E088DB79EB73B
:1044700080960FB6F8949EBF0FBE8DBF8EEF9BE067
:104480000E94050887EE9BE00E940508C1FB882773
:1044900080F91F928F9384EE9BE09F938F930E94ED
:1044A0009E0882EE9BE00E94050880ED9BE00E9442
:1044B00005088D2F81701F928F938DEC9BE09F9349
:1044C0008F930E949E088BEC9BE00E94050889EB6D
:1044D0009BE00E940508D695D1701F92DF9386EB72
:1044E0009BE09F938F930E949E0884EB9BE00E9429
:1044F000050882EA9BE00E940508C2FB882780F934
:104500001F928F938FE99BE09F938F930E949E0849
:104510008DE99BE00E9405088BE89BE00E9405085E
:10452000C3FB882780F91F928F9388E89BE09F93B5
:104530008F930E949E0886E89BE00E9405088CE706
:104540009BE00E940508C4FB882780F91F928F9387
:1045500089E79BE09F938F930E949E0887E79BE0EB
:104560000E94050885E69BE00E940508C5FB882798
:1045700080F91F928F9382E69BE09F938F930E9416
:104580009E0880E69BE00E94050884E49BE00E9470
:104590000508C6FB882780F91F928F9381E49BE072
:1045A0009F938F930E949E088DB79EB780960FB6FB
:1045B000F8949EBF0FBE8DBF8FE39BE00E9405085D
:1045C00087E39BE00E940508C7FBCC27C0F91F9238
:1045D000CF9384E39BE09F938F930E949E0882E396
:1045E0009BE00E9405080F900F900F900F9006C05F
:1045F00086E49DE00E9405080E942D1BC1E0FAC0E0
:1046000080E899E074C080914802817F8E7F80931A
:10461000480289E599E00E94050882E49DE00E9435
:10462000050881E080935902E9CF86E29DE00E946F
:1046300005080E94DA09E2CF80914802C82FC09590
:10464000C170C0FB80F980934802CC2319F08AE145
:104650009DE0BDC08DE09DE00E940508809148026C
:10466000897F877F80934802C9CF9091480291FB50
:10467000CC27C0F981E0C827892FC0FB81F980933E
:104680004802CC2319F080E09DE027C082EF9CE037
:104690002EC09091480292FBCC27C0F981E0C82738
:1046A000892FC0FB82F980934802CC2319F083EE56
:1046B0009CE013C083ED9CE01AC09091480293FBEC
:1046C000CC27C0F981E0C827892FC0FB83F98093EC
:1046D0004802CC2351F087EC9CE00E9405088091B1
:1046E000480281608093480285C08AEB9CE00E946A
:1046F000050884CF8AE499E00E9405088EE199E0DC
:104700000E94050889ED98E00E94050881EB98E079
:104710000E94050886E798E00E9405088BE498E06F
:10472000E6CF8DE398E00E9405080E94650E1F9277
:104730008F9383E298E09F938F930E949E088091CD
:1047400014011F928F938CE098E09F938F930E94A7
:104750009E0880917E021F928F9389EF97E09F932E
:104760008F930E949E088091860287FB882780F99C
:104770001F928F9381EE97E09F938F930E949E08E4
:104780000E94AA1C9F938F937F936F938AEC97E06C
:104790009F938F930E949E088DB79EB746960FB643
:1047A000F8949EBF0FBE8DBF29CF0E9494139091A5
:1047B000860297FBCC27C0F981E0C827892FC0FB70
:1047C00087F980938602CC2329F080EB9CE00E943D
:1047D000050810C085EA9CE08ACF895303C08D513B
:1047E00001C080E00E94732109CF83EA9CE00E940F
:1047F0000508C0E08C2FDF91CF91089580E00895E7
:104800000C94FE238E518A3030F4E82FF0E0E95802
:10481000FE4F8081089580E00895CF93C82F809146
:104820005902813059F020F0823009F445C039C175
:104830000E948519823209F036C104C00E94851990
:10484000823261F48C2F0E940024811104C08C2FCD
:104850000E9493212FC081E090E02CC08C2F0E94F9
:10486000FE23811126C0C431E1F070F4CB3081F019
:10487000C031D1F40E943B208DEB97E00E940508E7
:1048800082E08093590215C0C93259F0C83361F4EF
:1048900089E599E00E94050881EC97E00E940508EF
:1048A00008C01092590201C18BEB97E00E940508E5
:1048B000FCC081E08170FBC0C43228F5CE3108F025
:1048C000C1C0CB30A1F1D0F4C73009F0D0C08EE127
:1048D0008093090182E3809308018AE080930701B5
:1048E00084E18093060188E08093030188E280934D
:1048F000020181E696E00E940508BCC0C33149F17F
:10490000C431C1F0B4C0CB3409F4A6C028F4C93214
:1049100089F0C83361F0ABC0C13509F49BC0C23522
:1049200009F496C0CE3409F0A2C06AE09BC00E9490
:104930003B20A0C080915802882319F010925802A1
:1049400099C08EE696E00E94050881E080935902A6
:10495000AEC088E496E00E94050886E396E00E94D7
:104960000508809109011F928F9383E396E09F933E
:104970008F930E949E0881E396E00E9405088FE1D4
:1049800096E00E940508809108011F928F938CE1A8
:1049900096E09F938F930E949E088AE196E00E9482
:1049A00005088BE096E00E940508809107011F92A0
:1049B0008F9388E096E09F938F930E949E0886E0F5
:1049C00096E00E94050885EF95E00E940508809119
:1049D00006011F928F9382EF95E09F938F930E9421
:1049E0009E0880EF95E00E9405088BED95E00E94FF
:1049F0000508809103011F928F9388ED95E09F93A6
:104A00008F930E949E0886ED95E00E9405088FEB2B
:104A100095E00E940508809102011F928F938CEB14
:104A200095E09F938F930E949E088AEB95E00E94E9
:104A300005088DB79EB748960FB6F8949EBF0FBE77
:104A40008DBF18C08C2F0E9402248093580212C080
:104A500061E003C061E006C06AE0809158020E94F4
:104A6000522008C0809158020E94F52003C08FE5B3
:104A700096E013C080915802882369F01F928F93AB
:104A800089E596E09F938F930E949E080F900F9068
:104A90000F900F9004C086E596E00E94050881E023
:104AA00006C01092590280E002C080E003CFCF918F
:104AB000089580917D0208959FB7F89410925C024A
:104AC0009FBF90918C02943009F057C09091E900FB
:104AD0009F703091EC00232F217030FD20E8922B45
:104AE00023E02093E9002091EB0020FF43C02091B8
:104AF000EE0027FF3FC020915A02222321F020918F
:104B0000E80025FF37C010925A0226E03091E800F5
:104B100035FD15C030918C02343061F53091EB00D9
:104B200035FD28C0215021F481E080935A0222C033
:104B3000EFE9FFE03197F1F700C00000E7CF809385
:104B4000F1008091E80085FD0AC08091E80080FFB7
:104B5000FCCF8091E8008E778093E80006C08FB785
:104B6000F89421E020935C028FBF9F709093E9003E
:104B700080E008959F709093E9008FEF0895CF93A0
:104B8000DF9300D01F92CDB7DEB790918C029430A6
:104B900019F589837B836A8382E08093E9008FEF34
:104BA0009091E800815095FD06C095ED9A95F1F73A
:104BB00000008111F5CF8091E80085FF0DC040E035
:104BC00050E063E070E0CE0101960E947C28809165
:104BD000E8008E778093E8000F900F900F90DF91A0
:104BE000CF910895CF93DF93EC010E945F2882302C
:104BF00011F0843031F4BE0184E0DF91CF910C9448
:104C0000BF25DF91CF910895BC0183E00C94BF25AF
:104C1000CF93DF93EC010E945F28823011F0843043
:104C2000F9F482E08093E9008FEF9091E8008150E1
:104C300095FD06C095ED9A95F1F700008111F5CF2D
:104C40008091E80085FF0CC040E050E066E070E035
:104C5000CE010E947C288091E8008E778093E80046
:104C6000DF91CF910895CF93DF93EC010E945F28ED
:104C7000823011F08430D9F580911401882339F005
:104C80008091860287FF03C060E282E002C068E094
:104C900081E08093E9008FEF9091E800815095FDCD
:104CA00006C095ED9A95F1F700008111F5CF80913E
:104CB000E80085FF1CC080911401811105C040E00F
:104CC00050E068E070E003C070E040E050E0CE01EA
:104CD0000E947C288091E8008E778093E80080E233
:104CE000FE01ADE5B2E001900D928A95E1F7DF910A
:104CF000CF91089587E89DE00E94050880918B027E
:104D0000811109C00E940D2A0E946A2A8091E20046
:104D100084608093E200089583E89DE00E94050886
:104D200010928B0208958FE79DE00C9405088BE7A5
:104D30009DE00C94050887E79DE00E9405080C940F
:104D4000641C20915B022F5F822F62E30E94192D69
:104D5000992319F020935B02089510925B028091D1
:104D60005C02882371F180918C02843041F580913E
:104D7000E9008F702091EC00922F917020FD90E857
:104D8000892B93E09093E9009091EB0090FF14C081
:104D90009091EE0097FF10C09091E80095FF03C03E
:104DA0001092F100F9CF9091E80090FF05C090912A
:104DB000E8009E779093E8008F708093E90010924E
:104DC0005C02089542E061EC81E00E94862942E2A3
:104DD00061EC82E00E94862942E261EC83E00C945F
:104DE000862980918E02833009F460C030F48130CE
:104DF00071F0823009F499C008958A3009F485C0B1
:104E00008B3009F46BC0893009F0A7C020C08091B5
:104E10008D02813A09F0A1C08091E800877F8093DC
:104E2000E8008091910290919202892B21F460E236
:104E30008DE592E003C060E080E090E070E00E94C9
:104E4000C7288091E8008B778093E80008958091CF
:104E50008D02813209F081C080919102909192027D
:104E6000029708F07AC08091E800877F8093E8007D
:104E70008091E80082FD05C080918C028111F8CFFD
:104E80006CC02091F3008091F20090E0922B029789
:104E900029F48091F1008B7F813021F48091F10021
:104EA00080937D028091E8008B7753C080918D02C2
:104EB000813A09F052C08091910290919202892B1F
:104EC00009F04BC08091E800877F8093E8008091D3
:104ED000E80080FFFCCF8091140136C080918D02E4
:104EE0008132D9F58091910290919202892BA9F596
:104EF0008091E800877F8093E8000E94BB29809121
:104F00008F02809314010C94941380918D0281324E
:104F100021F58091E800877F8093E8000E94BB29FB
:104F20008091900280937E02089580918D02813A53
:104F3000A1F48091E800877F8093E8008091E800E9
:104F400080FFFCCF80917E028093F1008091E80089
:104F50008E778093E8000C94BB29089584B7877FEF
:104F600084BF0FB6F894A895809160008861809303
:104F70006000109260000FBE90E080E80FB6F894D9
:104F800080936100909361000FBE0E94100F0E94F9
:104F90000D2A0E946A2A8091E20084608093E200D8
:104FA0008CE595E20E94631A78940E94FE2C0E9480
:104FB0001A0F8AE091E00E94600E86E69DE00E9452
:104FC000050880918C02853089F482E69DE00E947C
:104FD00005080E94321C80918A02882391F30E9466
:104FE000191C882371F30E946628EBCF0E944A0F98
:104FF000E8CF0C94FB27292F332723303105C9F044
:1050000060F42130310581F02230310509F047C0CC
:105010008BE590E025ED3DE046C02132310511F1F0
:105020002232310561F13BC082E190E020E33EE0B5
:105030003AC099278130910561F040F082309105A6
:1050400059F0039761F5EBE8FDE008C0E1EDFDE004
:1050500005C0E1EBFDE002C0E1E9FDE0849190E0F4
:105060009F0121C063307105D0F4660F771FFB01EB
:10507000E657FE4F2081318189E090E014C0633013
:10508000710568F4FB01EE0FFF1FEC57FE4F208106
:105090003181FB01EF57FE4F808190E004C080E03A
:1050A00090E020E030E0FA01318320830895809180
:1050B0008C02843011F081E0089582E0089580919F
:1050C0007F02811102C00C945728089580E189BDA8
:1050D00082E189BD09B400FEFDCF8091D8008F7DAB
:1050E0008093D8008091E00082608093E0008091FE
:1050F000E00081FDFCCF0895CF92DF92EF92FF9206
:105100000F931F93CF93DF93EC018B017A010E94E1
:10511000DA29811133C0E114F10439F0F7018081FB
:105120009181081B190BC80FD91FC12CD12C011557
:10513000110519F18091E80085FD16C08091E80005
:105140008E778093E800E114F10449F0F701808143
:105150009181C80ED91ED182C08285E00FC00E9405
:10516000DA29882321F30AC089918093F100015044
:105170001109FFEFCF1ADF0ADACF80E0DF91CF917C
:105180001F910F91FF90EF90DF90CF9008952091A5
:105190009302309194022617370748F06115710584
:1051A00039F42091E8002E772093E80001C0B9017E
:1051B000FC0120E06115710579F180918C02882352
:1051C000F1F18530F1F18091E80083FD3CC08091E0
:1051D000E80082FD2EC08091E80080FFEBCF209197
:1051E000F3008091F20090E0922B6115710551F06F
:1051F0008830910538F421912093F10061507109B4
:105200000196F3CF21E0089709F020E08091E800B3
:105210008E778093E800CECF2111CFCF0AC0809146
:105220008C02882361F0853061F08091E80083FD75
:105230000AC08091E80082FFF2CF80E0089582E00A
:10524000089583E0089581E00895209193023091BC
:1052500094022617370748F06115710539F420913B
:10526000E8002E772093E80001C0B901FC0120E09E
:105270006115710591F180918C02882309F440C079
:10528000853009F43FC08091E80083FD3DC08091E6
:10529000E80082FD2FC08091E80080FFE9CF2091D7
:1052A000F3008091F20090E0922B6115710559F0A6
:1052B0008830910540F424912093F100319661509B
:1052C00071090196F2CF21E0089709F020E0809162
:1052D000E8008E778093E800CBCF2111CCCF0AC0B5
:1052E00080918C02882361F0853061F08091E80024
:1052F00083FD0AC08091E80082FFF2CF80E008952C
:1053000082E0089583E0089581E00895982F973012
:1053100068F59093E900981739F07091EC002091AE
:10532000ED005091F00003C0242F762F50E021FDB6
:1053300002C09F5FECCF3091EB003E7F3093EB00DB
:105340003091ED003D7F3093ED003091EB00316006
:105350003093EB007093EC002093ED005093F0003D
:105360002091EE0027FDE5CF80E008958F708093B7
:10537000E90081E0089580918D0287FF11C080913E
:10538000E80082FD05C080918C028111F8CF11C028
:105390008091E8008B770BC080918C02882349F0C4
:1053A0008091E80080FFF8CF8091E8008E778093AD
:1053B000E80008952091E4003091E50095E64091E1
:1053C000EC00842F817040FF23C08091E80080FDB5
:1053D0001DC080918C02882399F0853099F08091CE
:1053E000EB0085FD11C04091E4005091E5002417C9
:1053F000350729F3915011F09A01E1CF84E0089527
:1054000082E0089583E0089581E0089580E00895A2
:105410004091E80042FFDDCF08950E947B2A0E9460
:10542000832AE0EEF0E0808181608083E8EDF0E0A7
:1054300080818F77808319BCA7EDB0E08C918E7F3F
:105440008C9380818F7E808310928B0208950F93BE
:105450001F93CF93DF930E947B2A0E94832AC8ED7B
:10546000D0E088818F77888388818068888388816D
:105470008F7D888319BC10928C0210928802109242
:105480008A021092890200EE10E0F80180818B7F81
:10549000808388818160888342E060E080E00E94B0
:1054A0008629E1EEF0E080818E7F8083E2EEF0E0FD
:1054B000808181608083808188608083F801808121
:1054C0008E7F8083888180618883DF91CF911F9157
:1054D0000F910895E8EDF0E080818F7E8083E7ED05
:1054E000F0E080818160808384E082BF81E08093EE
:1054F0008B020C94272AE8EDF0E080818E7F808378
:105500001092E20008951092DA001092E1000895DE
:105510001F920F920FB60F9211242F933F934F9328
:105520005F936F937F938F939F93AF93BF93EF930B
:10553000FF938091E10082FF0BC08091E20082FF27
:1055400007C08091E1008B7F8093E1000E94A1263B
:105550008091DA0080FF1FC08091D80080FF1BC0BF
:105560008091DA008E7F8093DA008091D90080FFED
:105570000DC080E189BD82E189BD09B400FEFDCF87
:1055800081E080938C020E947A2605C019BC10929B
:105590008C020E948C268091E10080FF19C08091CE
:1055A000E20080FF15C08091E2008E7F8093E200D0
:1055B0008091E20080618093E2008091D800806257
:1055C0008093D80019BC85E080938C020E949726B6
:1055D0008091E10084FF30C08091E20084FF2CC004
:1055E00080E189BD82E189BD09B400FEFDCF8091D3
:1055F000D8008F7D8093D8008091E1008F7E8093CA
:10560000E1008091E2008F7E8093E2008091E200D1
:1056100081608093E20080918802882311F084E009
:1056200007C08091E30087FD02C081E001C083E0F4
:1056300080938C020E949B268091E10083FF29C009
:105640008091E20083FF25C08091E100877F8093F5
:10565000E10082E080938C02109288028091E10048
:105660008E7F8093E1008091E2008E7F8093E20044
:105670008091E20080618093E20042E060E080E09F
:105680000E9486298091F00088608093F0000E943B
:105690009326FF91EF91BF91AF919F918F917F9151
:1056A0006F915F914F913F912F910F900FBE0F908F
:1056B0001F9018951F920F920FB60F9211242F93DF
:1056C0003F934F935F936F937F938F939F93AF938A
:1056D000BF93CF93DF93EF93FF93C091E900CF7017
:1056E0008091EC00D82FD17080FDD0E81092E900B5
:1056F0008091F000877F8093F00078940E949E2B29
:105700001092E9008091F00088608093F000CD2B2A
:10571000CF70C093E900FF91EF91DF91CF91BF91DE
:10572000AF919F918F917F916F915F914F913F9139
:105730002F910F900FBE0F901F9018951F93CF932E
:10574000DF93CDB7DEB7AA970FB6F894DEBF0FBED2
:10575000CDBFEDE8F2E08091F100819322E0E539E0
:10576000F207C9F70E94F1268091E80083FF2EC15D
:1057700080918D0290918E02492F50E04A30510560
:1057800008F024C1FA01ED54FF4F0C94392D8038F4
:1057900021F0823809F01AC108C0809189029091E5
:1057A0008A02992389F082600FC0809191028F70E4
:1057B000873008F00BC18093E9008091EB0085FBF6
:1057C000882780F91092E9009091E800977F9093E4
:1057D000E8008093F1001092F100D1C0282F2D7FB6
:1057E00009F0F4C0882319F0823061F0EFC0809195
:1057F0008F02813009F0EAC0933009F080E0809395
:105800008A022EC080918F0281112AC0809191025C
:105810008F702FEF280F263008F0D8C08093E90052
:105820002091EB0020FF1CC0933021F48091EB000D
:10583000806214C09091EB0090619093EB0021E0A6
:1058400030E0A90102C0440F551F8A95E2F740934A
:10585000EA001092EA008091EB0088608093EB00F0
:105860001092E9008091E800877F8093E8000E9411
:10587000BB29ACC08111AAC010918F021F77809103
:10588000E3008078812B8093E3008091E800877F9C
:105890008093E8000E94BB298091E80080FFFCCF44
:1058A0008091E30080688093E300111102C082E0E0
:1058B00001C083E080938C0289C08058823008F058
:1058C00085C080918F02909190028C3D53E09507A6
:1058D00079F583E08A838AE289834FB7F894DE0101
:1058E000139620E03EE051E2E32FF0E050935700A2
:1058F000E49120FF03C0E295EF703F5FEF708E2FC1
:1059000090E0EA3010F0C79601C0C0968D939D9349
:105910002F5F243149F74FBF8091E800877F809344
:10592000E8006AE270E0CE0101960E94C72816C026
:105930006091910270919202AE014F5F5F4F0E94A1
:10594000F927BC01892B09F441C09091E800977FA9
:105950009093E80089819A810E9425298091E8002E
:105960008B778093E80032C0803881F58091E80021
:10597000877F8093E800809188028093F100809176
:10598000E8008E7772CF811121C080918F029091B3
:10599000900299270297D4F48091E800877F809342
:1059A000E80080918F02809388020E94BB29809139
:1059B0008802811106C08091E30087FD02C081E06A
:1059C00001C084E080938C020E94E2268091E8006E
:1059D00083FF0AC08091E800877F8093E800809170
:1059E000EB0080628093EB00AA960FB6F894DEBFBE
:1059F0000FBECDBFDF91CF911F910895CF938091BE
:105A00008C028823A1F0C091E900CF709091EC0046
:105A1000892F817090FD80E8C82B1092E900809159
:105A2000E80083FD0E949E2BCF70C093E900CF91C8
:105A30000895991B79E004C0991F961708F0961BEA
:105A4000881F7A95C9F78095089597FB072E16F45D
:105A5000009407D077FD09D00E943F2D07FC05D0A8
:105A60003EF4909581959F4F0895709561957F4F75
:105A70000895EE0FFF1F0590F491E02D0994AA1BE5
:105A8000BB1B51E107C0AA1FBB1FA617B70710F029
:105A9000A61BB70B881F991F5A95A9F7809590955B
:105AA000BC01CD010895F999FECF92BD81BDF89A50
:105AB000992780B50895A8E1B0E042E050E00C9449
:105AC000872D262FF999FECF92BD81BDF89A0197B7
:105AD00000B4021639F01FBA20BD0FB6F894FA9A36
