:10000000004000208D120000CD120000CF12000031
:1000100000000000000000000000000000000000E0
:10002000000000000000000000000000D1120000ED
:100030000000000000000000D3120000D5120000F4
:10004000D71200002D300000E5100000D71200008C
:10005000D712000000000000D7120000D7120000E5
:10006000D7120000D7120000B93F0000D7120000DD
:10007000D7120000D7120000D7120000D7120000DC
:10008000D7120000D7120000D7120000D7120000CC
:1000900085330000D7120000D7120000D7120000ED
:1000A000D7120000D712000000000000000000007E
:1000B0000000000000000000000000000000000040
:1000C00008B5054B054803331B1A062B03D9044B0F
:1000D000002B00D0984708BD880000208800002031
:1000E000000000000648074908B5091A8910CB0F1F
:1000F0005918491003D0044B002B00D0984708BD75
:1001000088000020880000200000000010B5074C87
:100110002378002B09D1FFF7D3FF054B002B02D02A
:10012000044800E000BF0123237010BD88000020B8
:10013000000000001042000008B5094B002B03D05E
:100140000848094900E000BF08480368002B02D1B5
:10015000FFF7C8FF08BD064B002BF9D09847F7E71B
:1001600000000000104200008C00002084000020ED
:1001700000000000144B002B00D1124B9D46402282
:1001800092029A1A924600218B460F461148124A53
:10019000121A00F07DF80D4B002B00D098470C4B45
:1001A000002B00D098470020002104000D000B48D0
:1001B00000F016F800F046F82000290000F0C4F91D
:1001C00000F016F8000008000040002000000000C9
:1001D0000000000088000020B80600201D0200007A
:1001E000011C002008B5021C031C00F059F808BDD2
:1001F000084B10B5041C002B02D0002100F0ACF815
:10020000054B1868836A002B00D09847201C00F02B
:1002100017F9C046590300008C41000038B5074B60
:10022000074C1D1CE41AA410002C04D0013CA300B0
:10023000EB589847F8E703F0A1FF38BD8000002095
:10024000840000200E4B70B500251E1C0D4CE41AD6
:10025000A410A54204D0AB00F35898470135F8E745
:1002600003F086FF084B00251E1C084CE41AA4105E
:10027000A54204D0AB00F35898470135F8E770BDAC
:100280007C0000207C0000207C00002080000020FA
:10029000031C8218934202D019700133FAE77047A9
:1002A000F7B52A4D061C2C680091171C0193002CF1
:1002B00001D1274C2C6063681F2B15DD254B002BCB
:1002C00002D10120404240E08C2000E000BF041E2B
:1002D000F7D02A6800230260021C8832436028603D
:1002E00013609E420AD128E0002E26D0231C8833BA
:1002F0001868002810D1174B002BE2D08420400052
:1003000000E000BF0028DCD0031C0022FC335A6050
:100310009A60231C88331860012261688A408B0030
:10032000C31880C3FC304168114341600199D9670B
:10033000022E02D183681A438260002063685A1C2F
:1003400062600233009A9B001A51FEBD300100200A
:10035000A400002000000000F0B587B005900391D4
:10036000344D2C68002C63D0231C88331E686368CE
:100370005A1E0192304A9B189B00F7180433E31869
:100380000293019B002B3DDB039B002B07D0002E2B
:1003900031D03B1C80331B68039A93422BD1626897
:1003A000029B0199013A5B68914201D1616002E0D0
:1003B000002202994A60002B1DD062680492002E30
:1003C00007D0012201998A40311CFC314868104253
:1003D00001D1984708E08968114203D1059839682E
:1003E000984701E038689847049B62689342B7D108
:1003F0002B68A342B4D1019B043F013B0193029BB4
:10040000043BBDE70D4B002B12D062682368002A25
:100410000BD1002B09D02B60002E02D0301C00E045
:1004200000BF201C00E000BF9BE7251C1C1C99E7B7
:1004300007B0F0BD30010020FFFFFF3F00000000CB
:10044000FEE7C046304B1B78012B00D070472F4B86
:100450001B681B07FAD1F0222D4B1B68134027D1D4
:100460002C4B1B68134229D0284B1B681B07EDD16E
:10047000F022274B1B681340402B32D0244B1A68C4
:10048000F0231340A02B01D0D02BDFD1214B1A68D1
:10049000F0231A42DAD1204A1368012B04D01F4BF3
:1004A00013601368012BFCD1C0221D4B1A60CDE7ED
:1004B000102B0FD1174B1B681342D9D1194A1A4B75
:1004C0001A608022194B12021A600F4B1B78012B05
:1004D000CAD0BBE7302BCBD10E4B1B681342C7D120
:1004E000ECE70C4B1B681342C8D1C12380220121C9
:1004F000DB00D205D150044B1B78012BA6D1034B56
:100500001B681B07BAD0A1E7E00F00F0E40F00F072
:10051000E80F00F0EC0F00F000EC064075930000CF
:1005200014EC0640DFFF07C004050040186C0040D3
:1005300008B50378022B02D0012B00D008BD40681B
:1005400000F0A8FAFAE7C046F0B54D4644465F46CB
:100550005646F0B489B001A8021CFA4B32CB32C225
:10056000F94B04A9049301230593F84BF84A069329
:1005700080235B000793FD3B00F048FB002801D07F
:1005800000F088FA012001F0D3F9F24801F02CF8CC
:10059000F14801F041F85522F04BF1491A70002062
:1005A000503A00F0BCFEEE490522012000F0B7FEF3
:1005B00000F092FEEB4B4026984620239B46EA4CE7
:1005C000EA4B1B78002B00D1D6E00022E74B1A70D3
:1005D000321CE34B1B781A40501E82415846D90901
:1005E000184052000A43411E8841102180000243F6
:1005F000081C18408C46411E8841C0000243082058
:10060000111C021C1A40571EBA4112010A43042150
:100610000F1C1F407D1EAF417F013A4302273B4024
:100620005D1EAB419B0113432370CD4BB9465B78F4
:10063000DA099246321C1A40551EAA41574652000A
:1006400017435A461A40551EAA4192003A4367463C
:100650001F407D1EAF41FF003A43071C1F407D1E17
:10066000AF413F013A430F1C1F407D1EAF417F0148
:100670003A434F463B405D1EAB419B011343A37081
:10068000B74B9B78DA099246321C1A40551EAA4194
:100690005746520017435A461A40551EAA41920027
:1006A0003A4367461F407D1EAF41FF003A43071C97
:1006B0001F407D1EAF413F013A430F1C1F407D1E6E
:1006C000AF417F013A434F463B405D1EAB419B012A
:1006D00013432371A24BDA78D3099A46331C134093
:1006E0005D1EAB4157465B001F435B4613405D1EDA
:1006F000AB419B003B43674617407D1EAF41FF0067
:100700003B43071C17407D1EAF413F013B430F1C7D
:1007100017407D1EAF417F013B434F463A40551E77
:10072000AA4192011A438E4BA2711B79DA099246B3
:10073000321C1A40551EAA415746520017435A46CA
:100740001A40551EAA419200174362461A401840AB
:10075000551EAA41451EA841D2003A431940000146
:1007600010434A1E91414A4613405A1E9341490183
:1007700001439B010B4323727D4B1B78002B00D15F
:10078000D6E000227A4B1A70321C7A4B1B781A4042
:10079000501E82415846D909184052000A43411E52
:1007A0008841102180000243081C18408C46411EDD
:1007B0008841C00002430820111C021C1A40551E2B
:1007C000AA4112010A4304210F1C1F407D1EAF41A4
:1007D0007F013A4302273B405D1EAB419B0113431F
:1007E0006370644BB9465B78DA099246321C1A4052
:1007F000551EAA415746520017435A461A40551EE5
:10080000AA4192003A4367461F407D1EAF41FF0058
:100810003A43071C1F407D1EAF413F013A430F1C66
:100820001F407D1EAF417F013A434F463B405D1E56
:10083000AB419B011343E3704E4B9B78DA09924620
:10084000321C1A40551EAA415746520017435A46B9
:100850001A40551EAA4192003A4367461F407D1E2A
:10086000AF41FF003A43071C1F407D1EAF413F01CF
:100870003A430F1C1F407D1EAF417F013A434F4654
:100880003B405D1EAB419B0113436371394BDA78EA
:10089000D3099A46331C13405D1EAB4157465B009B
:1008A0001F435B4613405D1EAB419B003B436746C5
:1008B00017407D1EAF41FF003B43071C17407D1EC4
:1008C000AF413F013B430F1C17407D1EAF417F01ED
:1008D0003B434F463A40551EAA4192011A43254BCD
:1008E000E2711B79DA099246321C1A40551EAA4160
:1008F0005746520017435A461A40551EAA419200C5
:10090000174362461A401840551EAA41451EA84189
:10091000D2003A431940000110434A1E91414A4611
:1009200013405A1E9341490101439B010B436372DB
:10093000114800F0BDF9002820D10F4B1B78732B14
:1009400057D01BE090410000840100208801002066
:1009500031050000040302010807060534010020E8
:1009600064010020880200208C0200205D0100202C
:100970005C0100203C010020200300200A200138F7
:10098000C046C046C046C046C046C046C046C04637
:10099000C046C046C046C046F1D11A4B41461B680E
:1009A0005A1C184B1A6043461B6801330B601649EA
:1009B0008A420CD9002222700022A27000222271E9
:1009C0000022A2710022227200220E490A600E4A01
:1009D000934200D8F4E5002363700023E370002302
:1009E00063710023E37100230022637243461A609F
:1009F000E6E5201C0A2100F065FAE02000F072F91B
:100A0000BCE7C04660010020A086010082B002B0B1
:100A10007047C04682B002B07047C0467047C046BB
:100A2000202310B584B0041E019103930DD001283A
:100A300016D0201C00F048FD55230F49201C05222C
:100A40000B7000F06CFC04B010BD01220B4B0C4984
:100A50001A700C4B03AA1860002000F0A3FCE8E712
:100A60000022094B09491870094B01201A6003AA9A
:100A700000F098FCDDE7C046340100205D01002055
:100A800064010020600100205C0100203C01002086
:100A900088020020002300B585B001AA90600021E3
:100AA00003481380536000F005F805B000BDC04650
:100AB00001400000BFF34F8F034A044BDA60BFF3DD
:100AC0004F8FC046FDE7C0460400FA0500ED00E088
:100AD00010B500290DD00923002A01D1181C10BD22
:100AE000541E2240FAD1826001608480C2600023DB
:100AF000F4E70E23F2E7C046031C10B59C8880681B
:100B0000DA68121A0420944200D210BDDA6800207C
:100B100014401A681155DA680132DA60F5E7C04608
:100B200010B58468C268031C0520944209D09868F7
:100B30009A8802401868825C00200A709A68013224
:100B40009A6010BD30B5047885B0012C19D0022C04
:100B500034D0002C01D005B030BD274C274D201CCF
:100B6000291CFFF7DDFF002823D0A268E3689A4222
:100B7000F1D1032302AA1370214B101C1B68984764
:100B8000E9E743681F4D1978281CFFF7B5FF0028D7
:100B900022D1AA68EB689B1A012B25D0A968AA88E4
:100BA000EB685B1A9A42D6D30121174800F0ECF9A2
:100BB000D1E7281C012100F085F9D6E702AB1C70B3
:100BC000C368012110480193039300F0DDF90C4B39
:100BD00002A81B689847BEE702AB1C70084B039045
:100BE0001B6802A89847D9E702AB1870044B02A80B
:100BF0001B689847D2E7C046A40200209802002054
:100C00009C020020B4020020A0020020F0B51E1CAF
:100C1000214B051C89B00C1C1A600720002906D046
:100C20008A881E480968FFF753FF002801D009B0E1
:100C3000F0BDA168A2891A48FFF74AFF0028F6D143
:100C40006A46184B684692CB92C292CB92C212CBA4
:100C500012C2AB6806932B7906775A1E934103752F
:100C60006B790E22591E8B415B421A404275EB781C
:100C70000D490293AB7803932B7801936B78009323
:100C800000F090F80028D2D100F016FA01210748B0
:100C900000F07AF9CBE7C0469C020020B4020020A5
:100CA000A40200209C410000450B0000A00200208F
:100CB00038B50A4C051CA168A288E3685B1A9A4201
:100CC00004D0201C291CFFF72BFF38BD044801214C
:100CD00000F05AF90028F4D00520F6E7B40200200D
:100CE000A002002070B50D4D011C281CFFF704FF69
:100CF000041E01D0201C70BD00F03EF90028F9D17F
:100D0000074E281C311CFFF70BFF0028F2D1301CC6
:100D1000012100F0D7F8041CECE7C046A402002033
:100D200098020020F0B5002820DBFF271B4B032290
:100D30009C463B1C8408C026C0B20240D2009340AF
:100D4000A4006444B600A5599D438B013B409340E9
:100D5000191C2943A1511F2318401E3B8340C02268
:100D6000181C0E4B520098501860F0BDFF260C4A1C
:100D700003249446321C0F23C0B20440E400A24076
:100D80000340083B9B089B006344DD6995438A014F
:100D90003240A240111C2943D961DCE700E100E0A8
:100DA00000ED00E0F0B557464E464546E0B43B4CFA
:100DB000031CE27E0820002A04D01CBC9046994601
:100DC000A246F0BD002B67D001221868A125824001
:100DD000A020ED00C0054251A94603251A68AA4685
:100DE000C132FF329200155000255A68AC46C1321C
:100DF000FF32920015509F69294A2A4D57511D7D97
:100E0000A84647465D7D3D43274FD5515D681F6825
:100E1000A846264D57514746254D57511D7D012D5A
:100E200019D19F683E1CE0277F00B8464644B700B2
:100E300066463E50DE68B5404E4685515646DD68F2
:100E4000C135FF35AD002E504E46D8689D68905193
:100E5000A220C00015501A696160226000290DD0DF
:100E6000197F0023134A14481360144A1360C123E6
:100E70000B4A9B00D0500220FFF754FFA02304210F
:100E8000074ADB00D15000230122E3752376A375C6
:100E9000E276A376002090E7094B95E7C402002094
:100EA00000200040240500006C0500000C05000037
:100EB000140500001C210040800002004421004075
:100EC000BC410000F0B5264A041C937D1120002B84
:100ED00000D0F0BD0125917522482349938294608A
:100EE0000B6005600B60938AE05C938A1F4C0133B2
:100EF0009BB293821E4BE0505068002801D0002026
:100F0000E7E70027261C1D1C0130FF30947D938AE3
:100F1000A34203D312E0938A834202D00B68002BD2
:100F2000F9D0938A8342F2D00F60938A9468E45C8C
:100F3000938A01339BB293827451E7E78023918AAD
:100F40005B0099420AD008490B68002BFCD00121B4
:100F50000020084B196000239375BAE70F20FAE7C9
:100F6000C4020020082000401C2100400020004056
:100F70001C0500000C200040024B987D431E984148
:100F8000C0B27047C4020020F0B5474680B4444B5D
:100F90005A68002A05D08126C224424DB600A4001A
:100FA0002E51DC7D002C0DD01C7E002C1DD0002A83
:100FB00000D16EE08121C1233A4A89009B00D150C3
:100FC00011200FE0D975997ED8605C761C760029D7
:100FD0002BD0002A0DD08121C1230020314A890065
:100FE0009B00D15004BC9046F0BD18611976002AD0
:100FF000F1D12D4C2D4D22602A4A2D489046A32236
:10100000D2009446296806684A1E91412268C9B2F6
:10101000571EBA41D2B2002E10D1002A27D1002982
:10102000F0D000220320DA75DCE7204A1160204A64
:10103000116001211B4A11605A68CAE70029F0D1EA
:10104000002A16D1D97D002917D101606246414698
:101050008A585A7ED97D9142D4D80022DA759B7E77
:10106000002B18D001220F4B00201A60BAE700298C
:10107000D7D100220F20DA75B4E7464661460260F8
:101080005A7E7158DE68B1545A7E0132D2B25A7615
:10109000DFE71120A6E70122064B00201A60A1E736
:1010A000C4020020002000404421004024210040D0
:1010B0000821004004200040064A937E002B07D1FF
:1010C00005490B6005490B60054901330B609376B8
:1010D0007047C046C402002024210040082100407F
:1010E00000200040C12210B5604B92009A5884B095
:1010F00092054DD55E4A1168002949D00021116042
:101100008121C2228900920099505A4B9A7E002A6E
:1011100002D10121584A1160022269460A709021C9
:101120005248C9004258425069460392DA7D6846E7
:101130000A72DA68196801920022DA751A765B6819
:1011400098474E4A1368002B10D04A4B988A997DD5
:1011500081424FD9002111609A8A9968895C9A8AE4
:10116000013292B29A82464B404AD150454B1A689E
:10117000002A0BD000221A603E4B9A7E002A02D031
:1011800001213A4A1160DA7D002A42D104B010BD33
:10119000C123364A9B00D3585B07D2D53A490B6826
:1011A000002BCED0334BD87D00283FD10860A3213F
:1011B000C90052585A7ED97D9142C2D11A7E002A66
:1011C00041D19A7E002A02D101212B4A116081204F
:1011D000C2222649800092008850002268460121E0
:1011E000DA755A7E01700272DA68196801925B68DA
:1011F0009847A6E7002010600029B7D06A46107013
:1012000011729A689875196801925B6868469847E8
:10121000ACE7002268460121DA755A7E017002723D
:10122000DA68196801925B689847AFE700200860A8
:10123000A320C000597E1258D86842545A7E013209
:10124000D2B25A76B6E7DA751A69D968DA6000223E
:101250006C46587E1A765A760132207201912270BD
:10126000196868465B6898476BE7C04600200040F5
:1012700024210040C4020020042000401C21004022
:101280001C050000442100400821004003210A48B9
:1012900002680A430260094802680A43026008497A
:1012A000084A094B9B1A03DD043BC858D050FBDCAD
:1012B000FFF7C8F8FEF75EFF240500405405004024
:1012C0001C4200000000002088000020FEE7FEE72E
:1012D000FEE7FEE7FEE7FEE708B5064B18680028C4
:1012E00003D1054902220A7002E001F049F9012008
:1012F00008BDC046E002002021030020014B186811
:10130000407E7047E002002008B500F011FE002882
:1013100002D100F0F8FD01E0FFF780FB08BDF8B551
:10132000051C0F1C161C072804D904221B4E002084
:10133000327031E003220029F8D00622202EF5D8A1
:1013400000F04CFE09220228F0D8281C00F04AFECA
:101350000A220228EAD800F049FE08220128E5D92D
:1013600000F0F4FD4378041C067001200343637011
:10137000391C321CA01C02F0F1FEE8B2211C00F066
:10138000F9FD051C0120002D06D1054802F0CAFA1E
:10139000024F0F213970281CF8BDC04621030020E0
:1013A000DD000500F8B5061C0D1C171C00F01AFE28
:1013B000002803D1154F0B253D7025E00322002D99
:1013C00007D0301C00F0FCFD3A6803789A4204D242
:1013D00006220E4E0020327016E0301C00F0E6FDB2
:1013E000041E0AD00278811C3A60281C02F0B6FE66
:1013F000201C00F0B5FD012006E0054802F092FA3D
:1014000002490F200870201CF8BDC04621030020AF
:101410000501050008B5072804D9044B04221A70F9
:10142000002001E000F0DAFD08BDC04621030020E5
:1014300008B5072805D9044B042201201A70404240
:1014400001E000F0CFFD08BD2103002008B500F049
:10145000CDFD0623181A08BD10B5041E072C03D9AC
:101460000B4B04241C7003E0FFF7D4FF022801DDBE
:1014700000200CE0201CFFF7DBFF0228F8DCFFF760
:10148000E5FF0623181A012181429241504210BD06
:101490002103002008B50A4B19684A7E002A04D0AF
:1014A000084A0C211170002009E0072803D9054BD8
:1014B00004201870F7E7C0B200F09CFD012008BDC1
:1014C000E00200202103002008B5072804D9054BBD
:1014D00004221A70002003E0C0B200F0A5FD012034
:1014E00008BDC0462103002010B501280AD00028FD
:1014F00003D0022808D1002000E0012001F028F8E4
:10150000012005E00220F9E7024B05221A700020B5
:1015100010BDC0462103002010B500F011FD0128C8
:101520000AD00224002808D0A04201D1012404E0FE
:10153000034802F0F7F900E00024201C10BDC0466B
:101540007001050038B5134A031C10680C1C407E5E
:10155000002804D0104D02202870002018E0013926
:101560000F2903D90C4907220A7011E0002B03D17F
:10157000094C03232370F0E7084D191C10C5221CE9
:10158000281C02F0EBFD281C211C00F0BDFD0120F1
:1015900038BDC046E002002021030020600000208A
:1015A0000C4B10B51A680C68944201D3102C04D966
:1015B000094C0720207000200AE0002803D10649CA
:1015C00003220A7004E00A60191D02F0C7FD012021
:1015D00010BDC0466000002021030020014B1868A8
:1015E0007047C0466000002008B5074B19684A7E66
:1015F000002A04D0054B02201870002002E000F001
:101600001DFD012008BDC046E0020020210300208E
:1016100008B500F023FD08BD08B5074B19684A7EE0
:10162000002A04D0054B02201870002002E000F0D0
:101630001BFD012008BDC046E00200202103002060
:1016400008B500F01FFD08BD08B50A4B1A68537EA7
:10165000002B04D0084B02221A70002008E0072853
:1016600003D9054804210170F7E700F011FD0120BE
:1016700008BDC046E00200202103002010B50C1C6C
:10168000072804D90422064B00201A7006E0032222
:101690000029F8D000F028FD2070012010BDC046C0
:1016A0002103002008B5074B19684A7E002A04D0A0
:1016B000054B02201870002002E000F065FD0120BB
:1016C00008BDC046E00200202103002008B500F05C
:1016D00061FD08BD08B50E4A031C1068407E002855
:1016E00004D00C480222027000200FE0012B0AD027
:1016F000002B07D0022B01D1012004E0054B0E2165
:10170000197003E0022000F0DDFD012008BDC04695
:10171000E00200202103002008B501F023F8002199
:10172000012801D8014B195C081C08BDDC410000F0
:1017300008B5134B19684A7E002A04D0114A0221C9
:10174000117000201BE006280FD802F06BFC121469
:101750000406080A0C00FC200EE0F8200CE0F4203F
:101760000AE0F02008E0EC2006E0064B0E2018709E
:10177000E7E7042000E0002000F046FD012008BD5E
:10178000E00200202103002008B500F04BFDF02806
:1017900013D004D8042814D0EC2806D10FE0F82880
:1017A00007D0FC2803D0F42805D001200AE002204D
:1017B00008E0032006E0042004E0052002E0062003
:1017C00000E0002008BD08B5064B19684A7E002AD3
:1017D00004D0054B02201870002002E000F0E0FC6D
:1017E000012008BDE00200202103002008B500F020
:1017F000DDFC08BD08B5074B19684A7E002A04D0F5
:10180000054B02201870002002E000F097FC012038
:1018100008BDC046E00200202103002008B500F00A
:1018200093FC08BD08B5074B19684A7E002A04D00E
:10183000054B02201870002002E000F0CBFC0120D4
:1018400008BDC046E00200202103002008B500F0DA
:10185000C9FC08BD08B5074B19684A7E002A04D0A8
:10186000054B02201870002002E000F0A5FC0120CA
:1018700008BDC046E00200202103002008B500F0AA
:10188000A3FC08BD08B5074B19684A7E002A04D09E
:10189000054B02201870002002E000F0A9FC012096
:1018A00008BDC046E00200202103002008B500F07A
:1018B000A5FC08BD08B50B4B19684A7E002A04D068
:1018C000094A0221117000200AE0002805D00128F1
:1018D00003D0054B0E201870F5E700F05BFF0120E8
:1018E00008BDC046E00200202103002008B500F03A
:1018F00057FF01384342584108BD08B50A4B1968E3
:101900004A7E002A04D0094A0221117000200AE010
:10191000002805D0012803D0044B0E201870F5E7ED
:1019200000F050FF012008BDE0020020210300204C
:10193000F8B51E4D00241E4E071C281C211C0C222D
:10194000083034706C60FEF7A3FC1A4800F048FEC3
:101950002860A04203D101203070002024E0164B03
:10196000181D1968FFF7EEFD051C381CFFF7BCFDBC
:101970000540042000F0EEFB201CFFF79BFFEFB2B8
:1019800007400120FFF7D4FE07400220FFF7A2FE28
:101990000740201CFFF7B1FF041C01203C4000F071
:1019A000E7FE002CD7D00120F8BDC046E0020020A1
:1019B000210300202F1A00006000002008B500F06D
:1019C00007FF01384342584108BD024B0022DA604C
:1019D0007047C046E0020020014BD8687047C046FF
:1019E000E0020020044B002200B51A72904202D09F
:1019F00018610120187200BDE0020020014B187828
:101A00007047C04621030020014B00221A70704726
:101A100021030020014B58687047C046E0020020B7
:101A2000014B00225A607047E00200207047F0B579
:101A300089B0040C031C060A84460190101C039212
:101A400097B2020C0D1C002002910092E1B2624696
:101A500006AC069060600590D0B21B0EF6B2052869
:101A600054D802F0DFFA03142943403D6A4649B2D4
:101A7000484223701388E080281C6780A38000F010
:101A80006FFA301C06996268FEF7C0FF41E02249F8
:101A90000B68587E002802D1204801F043FF281C23
:101AA0006D4600F05DFA67802F88301CA78006998C
:101AB0006268FEF7AFFF2CE048B205AC42422370EB
:101AC0006280002B07D0002D02D1154801F02AFFBB
:101AD000281C00F045FA301C0599FEF7A1FF18E01C
:101AE000FEF79CFF15E0FFF7A1FF12E00A4DE96841
:101AF0002B7A0131E960002B0BD02F69002F02D126
:101B0000FFF702FC05E0013F2F6102E0054801F00C
:101B100009FF09B0F0BDC046E0020020B503050092
:101B2000C3030500E3030500024B03490F221A70AB
:101B30004860704721030020E002002000B5064AFB
:101B400001231178022903D05068421E904100E021
:101B5000181C1840C0B200BD2403002008B5FFF7D0
:101B6000EDFF044B044A002801D0D06800E09068E3
:101B7000186008BDF80200205C03002008B5044B83
:101B80005A68002A01D0013A5A60FFF7E7FF08BD02
:101B90002403002010B500231A1C041C1C41012141
:101BA00021400724E41AA1400A430133D2B2082B92
:101BB000F3D1101C10BD70B50024061C251C301C70
:101BC000E040C0B2FFF7E6FF1823191B8840083435
:101BD0000543202CF3D1281C70BD38B50D1C01F035
:101BE00071FE084C63699D4202D8074801F09AFED5
:101BF00060690122291A054802F058F90021616143
:101C000038BDC046240300204D06090005390000F8
:101C100007B5A12303210F4A8B40D15001F094FD59
:101C2000002815D002280AD9032811D100230093D7
:101C30000193181C191C1A1C01F09EFC03E00020E3
:101C4000011C01F035FD042802D0034801F06AFEB2
:101C500007BDC04600F00140E801090008B501F0E9
:101C600027FFA1230E4AD900505001F06DFD012835
:101C700007D001F069FD022802D00A4801F052FEA7
:101C8000002001F0B9FA02F093F9074BA221CA0033
:101C900098500648064AC1684868985008BDC04632
:101CA000001000401E06090000F00140F80200206C
:101CB0001405000008B502F0EDF801280FD002F07D
:101CC000CDF8074B187F002803D180210122CB05D6
:101CD0005A60002001F0F6FD024A0020506008BD65
:101CE0005C0300202403002010B501F06AFD0028E9
:101CF0001AD00E4B00229A81DA8101F0C5FB0C4C00
:101D00000C49605001F0C0FBA62201238340D100A2
:101D1000635001F0BFFB084C206001F0C1FB074B92
:101D20006060E360FFF79AFF10BDC0462403002007
:101D3000001000402C05000040030020E51D0000BD
:101D400008B502F0A7F8012822D101F0D5FD00283E
:101D500002D0104801F0E6FD1E210F48002202F0DB
:101D6000A5F80E4B197F002902D002F06BF80FE0A6
:101D70000B480C4B0122026059608021C8050260AB
:101D8000C046C046C046C0465A68002AFCD0ECE7B0
:101D900008BDC0462C060900053900005C03002080
:101DA00014050040FC0000401FB5FFF783FF01F061
:101DB000D9F80A4A002301A80521017043601C1CC0
:101DC0000381438143708370C3709370537601F035
:101DD0009DFA03480470FFF71BFF1FBD240300207A
:101DE00058030020F0B53E4B8022D000195887B030
:101DF000012904D03B4C00261D59B54206D13A4E6C
:101E00002022776800263B789A427641374C01259C
:101E100061692E40281C002901D102F041F82842B6
:101E200001D10120606101F08FFC012802D030480F
:101E300001F078FD2F4DEF683B7D002B02D02E483E
:101E400001F070FD01F08EF8002E47D00120011C3A
:101E500001F02EFC042836D802F0E4F803321832E0
:101E6000320001F017FBE289071CA689019201F0FC
:101E70000BFBE9686D46897D0497AF8803AB0022B0
:101E80001A701E815F815870997014E001F002FB96
:101E9000071CE089A689019001F0F6FAEB686D460F
:101EA0009A7D0497AF8803AB00219A7019701E8148
:101EB0005F8158700122DA70181C01F027FA02E0E5
:101EC0000E4801F02FFD01F019FE0D4E20617069E2
:101ED0006060FFF743FE002001F016FE07B0F0BD82
:101EE00000100040340500004003002024030020BF
:101EF000A8060900F8020020A9060900C806090082
:101F00005C030020704708B5012282F31088074B5C
:101F1000597E002905D09878002802D19A70FFF7E1
:101F20000FFF002282F3108808BDC0462403002062
:101F3000024B0120597E48407047C04624030020D0
:101F4000014B18787047C0462403002008B50123D0
:101F500083F3108801F094FC002181F3108808BD00
:101F600008B5012383F3108801F08EFC002080F374
:101F7000108808BD08B5012383F3108801F0EAFB3F
:101F800000280DD008488278002A04D1417E00291B
:101F900001D0FFF7D5FE002383F31088012001E074
:101FA00080F3108808BDC0462403002008B5012333
:101FB00083F3108801F0F6FB002181F3108808BD3F
:101FC00008B501F0EAFB08BD08B5012383F31088CA
:101FD00001F0D3FB002181F3108808BD08B501F0A2
:101FE000D8FB08BD08B501F0E7FB08BD08B501F056
:101FF0004FFC08BD10B50123041C83F3108808486A
:102000000278002A05D0417E002902D0054801F05F
:1020100089FC201C01F0B5FB002484F3108810BD5E
:1020200024030020FB02090008B5012383F3108874
:1020300001F0BDFB002080F3108808BD08B5044BFB
:102040001862FFF7B8FD0349034A505008BDC04667
:102050005C0300201C05000000100040014B186AC2
:102060007047C0465C03002008B5044B5862FFF778
:10207000A2FDA421024ACB00D05008BD5C03002081
:1020800000100040014B586A7047C0465C030020B6
:10209000F8B5031C081C072B1AD80F4A03261E404C
:1020A000D118F600FF24B4402831E74308700B4CE8
:1020B000032B01D80A4D01E0A525ED0063591F400F
:1020C0006751FFF767FD6759B0400743675102E06A
:1020D000044801F027FCF8BD5C030020001000401C
:1020E000240500003903090010B5041E072C02D98D
:1020F000034801F017FC034B18192830007810BD75
:10210000410309005C03002038B5051C0C1E02D1F8
:10211000074801F007FC002D02D1064801F002FC3F
:10212000054B00209D605C6001F0D6FC38BDC046C8
:102130004803090049030900F8020020014B5861D7
:102140007047C0465C030020014B58697047C04689
:102150005C030020064B074AA32110B55877CB003B
:10216000D4580104044820400843D05010BDC04654
:102170005C03002000100040FFFFF8FF014B587F78
:102180007047C0465C030020014B18617047C04691
:102190005C030020014B18697047C0465C030020B7
:1021A000014B58607047C0465C030020014B5868E3
:1021B0007047C0465C03002008B5024BD860FFF7AB
:1021C000CDFC08BD5C030020014BD8687047C046B9
:1021D0005C03002008B5024B9860FFF7BFFC08BD08
:1021E0005C030020014B98687047C0465C030020E8
:1021F000014B58837047C0465C030020014B588B4D
:102200007047C0465C030020034B0449044A303346
:10221000187050507047C0465C0300200C05000049
:1022200000100040014B3033187870475C030020E9
:10223000184B10B531331870174A184BFF249958B2
:10224000A1439950032821D8995801F0EBFE1D02B3
:102250000A140124214399501149FF205850114973
:1022600006E00220014399500F490D4A99500F4949
:10227000A722D20008E00324214399500C480849C2
:10228000A7225850A2400021995002E0094801F0CD
:1022900049FB10BD5C030020340500000010004025
:1022A0003C05000007010000FFFF000021100100B5
:1022B000FFFFFF00C2030900014B3133187870475C
:1022C0005C0300201F4B00B532331870012821D069
:1022D000002810D0022834D1A2211B4ACB00D050B4
:1022E0001A491B481B4A08601B4B1C481C491A60B2
:1022F00008601C4A20E0A223134AD9005050134B17
:102300001348154A186013491748154B1160186097
:10231000164A11E0A2230C4AD90050500B4B0C482E
:102320000C490D4A186011601148124A0C4B1249B1
:1023300018601160114A02E00E490A60104A114803
:10234000026000BD5C030020001000402417004024
:10235000005000784E0000542817004008800C60A0
:102360002C1700408864720003800C6022647200A5
:1023700002800C603017004011646600DEC08F825E
:102380003E420F8234170040F8B5A122334C344B43
:10239000344E354DD000002703210122F750315033
:1023A00067516251E05831490F220140E150E55830
:1023B000062095430543E550E1582D4DC02290027B
:1023C0000D400543E550A323DD006159294A8023D0
:1023D0000A40625160595904014361516059FF221A
:1023E000904320231843605161592348C02208407C
:1023F0006051224853000221C15001F0D5FD20490F
:10240000204A70507251204D032373511F4800F031
:10241000E1FD1F4E1F4DF060687FFFF79BFE286AAD
:10242000FFF70CFE686AFFF71FFEE81928300178F5
:10243000381C0137FFF72CFE082FF6D12F1C303740
:102440003978154AA1502C1C313420783235FFF7E9
:10245000EFFE2878FFF736FFF8BDC04600100040B9
:102460001405000000F00140FC0F0000FFFEFFFF1C
:10247000FFFFF0FFFFFFFFFDFF00FFFF00E100E0B7
:102480001C0500000411004004050000400300206A
:10249000F80200205C0300200C05000070B5274EF8
:1024A00086B0337872789A4245D0002B01D1FFF77D
:1024B0006BFF7078002801D1FFF7AAFB2049214D5E
:1024C00000246C5000F04EFD1F4D2C606C602C61A0
:1024D000AC60EC603378012B08D101F035F9A042F3
:1024E00017D0201C211C01F0E3F812E0022B10D1C0
:1024F00000F038FD154A2C61147001F025F903280D
:1025000007D100940194201C211C221C231C01F0E3
:1025100033F8FFF723FB70780024307003A80426FB
:10252000067044600481448144708470C47000F07B
:10253000EDFE012000E0002006B070BD2403002065
:102540001405000000F00140400300205803002063
:1025500008B5012383F3108808490A78824208D01D
:102560004870487E002802D1FFF798FF01E0FFF78E
:10257000E7FB002383F3108808BDC0462403002036
:1025800038B5124B5A7E1C1C002A1DD1FFF7FCFEE9
:102590000F488168051C002902D10E4801F0C2F9DC
:1025A0006B68002B02D10C4801F0BCF901F098F9DE
:1025B000002802D0094801F0B5F9002001F082F9A5
:1025C00001226276FFF7BCFB38BDC0462403002021
:1025D000F80200205E0209005F020900660209009D
:1025E000F8B5071C012080F31088544D544B554E0C
:1025F0000024002203211C605C609C60DC601C6184
:102600001A7529702A766A76B46074606870AC7046
:102610006C60AC60AC81EC812C616C6101F0D6FB2C
:10262000381C00F059FE00F0F5FE201C01F042F9C4
:10263000301C01F07BF9444FC2208300F958434A13
:10264000C0260A40FA50B0003B584149C522194003
:1026500039509600BB59FF20402183430B43BB51A7
:102660000120FFF775FF3B4E3B4B3C48311C33626A
:10267000706228310123301C0B7029300223311C79
:1026800003702A3103200870FF22311C32612B3184
:1026900004220A707277321C2C3205201070321C12
:1026A0002D320621301C11702E3007220270301C92
:1026B0002F300821321C0170303200201070321C83
:1026C0000120311C32321070313196229A400B7049
:1026D0001E2171617260F360FFF740FA0F23B3604F
:1026E000FFF73CFA01207483307670760021201CBD
:1026F0006924317701F0D0F834606E780124A64265
:1027000002D0174801F00EF900262C70AE706E60F2
:10271000AE60AE81EE812E616E612E766E76FFF731
:1027200033FEC023802180225800CC0053033C504C
:102730003B5086F31088281CF8BDC04624030020B7
:1027400040030020F802002000E100E0FFFF00FF4E
:10275000FF00FFFF5C03002004070A0D05080B0EB5
:102760003C020900014B3233187870475C030020AB
:10277000054B10B5041CD868002802D1034801F0AD
:10278000D1F803490C7510BDF8020020F6030900CA
:1027900040030020014B18767047C0465C030020C0
:1027A000014B187E7047C0465C030020014B5876F1
:1027B0007047C0465C030020014B587E7047C046FE
:1027C0005C030020014B18777047C0465C03002073
:1027D000014B187F7047C0465C03002008B501F02C
:1027E0005BF808BD08B50B4BD868417D002906D0C1
:1027F000012000F05BFB084B9A8901329A8107495E
:10280000074B084A0020585051681368C91AFFF74F
:10281000E4F908BDF802002024030020140500009C
:1028200000F001405C030020084B10B51A781C1C16
:10283000012A02D0064801F075F80649064A02202E
:10284000002320700B61CA6010BDC04658030020F1
:102850009205090040030020F928000010B500F09F
:1028600081FB194819491A4C002301220270236187
:102870000869A623174AD900505000F065FF0028C8
:102880000AD100F075FD01280DD900F00FFE60603F
:10289000002808D1104804E000F056FF032802D0B9
:1028A0000E4801F03FF8022000F0A6FC002000F0E6
:1028B000FDFA00F049FF032802D0094801F032F880
:1028C000FFF7B2FF10BDC046580300205C03002094
:1028D00040030020001000407B050900800509002E
:1028E0008805090008B5034B05221A70FFF7B6FFEB
:1028F00008BDC04658030020F0B5484A8023D800E0
:10290000115887B0464C012904D0464D0023565932
:102910009E4205D1676800233978202088425B41B8
:10292000414E032500210127357021603B408B4239
:1029300055D08123D80015583C4B11583C48D150F4
:1029400002A912583B1C00910194381C291C00F06C
:1029500013FE032841D801F065FB1E02204E0298A9
:10296000002802D0334800F0DDFF281C00F024FFCF
:10297000002802D1304800F0D5FF304903A8CF68C5
:102980000223B97D0027037047603A1C0781478105
:10299000457081701DE02A482BE0029A002A02D17E
:1029A000284800F0BFFF281C00F006FF002802D1D5
:1029B000254800F0B7FF214F03A8FB68029F997DCF
:1029C00002220023027047600381438145708170B9
:1029D0000122C27000F09AFC0DE01C4809E000934F
:1029E0000193181C191C1A1C00F0C6FD042802D003
:1029F000174800F097FF2568002D06D100F0B2FAC5
:102A000065752561FFF72AFF05E01248012262750E
:102A100020610424347007B0F0BDC04600100040AF
:102A20004003002034050000580300202C0500005E
:102A30000C040000B8050900B9050900F8020020DF
:102A4000BD050900C0050900C1050900C805090048
:102A5000CF050900E528000070B50C4DA124E40065
:102A60002E5901F025F886420AD001F021F82851AC
:102A7000FFF7F4FE064900204968FFF7AEF870BD85
:102A8000044B18780028F3D0F4E7C046001000404B
:102A90005C03002058030020F0B5864C01256369D3
:102AA00089B0281C002B01D101F0FAF90126284039
:102AB00000D0D3E02178B14202D100F04BFA10E00F
:102AC000022908D000F042FFFFF758F8A678002E40
:102AD00000D0A9E00EE0784A1378033BDDB2AE42A5
:102AE00040410028EED0754E75487768012279087C
:102AF0006161CBE0FFF7D2FC704D071E00D08EE085
:102B000020780190061E012E06D0002863D00228EE
:102B100065D1FFF7A1FF65E000F024FA00F014FE94
:102B200000281DD100F024FC012851D9FFF706F838
:102B3000071E0CD000F0FAFF002849D1287E00289B
:102B40000BD100F0DBFF2669B04241D105E02069DE
:102B500000F0C2FF381C00F0D7FFFFF7C5F837E0E0
:102B6000698B002920D0A2898A421DD3311C381CD0
:102B700000F09EFD00F08EFC0290A2890392E6898F
:102B800000F082FC69460A79029905AB1A70069139
:102B90000C226946515A5870181C19815E819F7029
:102BA000DF7000F0B3FB13E001F07AF9002802D0E7
:102BB000444800F0B7FEA1234348DF00C65900F0A7
:102BC00077FF864202D0E1890131E181FFF746F8C3
:102BD0000120296800E06968FEF7FFFF02E03B483A
:102BE00000F0A0FE6D7E012D23D1FEF7A7FF002887
:102BF0001FD12478012C07D0002C0DD0022C18D026
:102C0000334800F08FFE14E000F09EFD002810D144
:102C100000F034FC00280CD1FFF74CF809E069689B
:102C2000301CFEF7DAFF04E0647E002C01D0FFF7D1
:102C3000BBF800F09DFB01280CD905A80021032357
:102C4000037041600181418141708170C17000F069
:102C50005DFB2DE01F4800F065FE29E0FEF78EFFCA
:102C6000A778002F1DD12178022912D1124B1D788F
:102C7000033D012D04D900F069FEFFF7EDFE17E0DA
:102C80000E4F321C786841080D48616101F00EF961
:102C90000EE000F05BFE094A381C5168FEF79DFF0C
:102CA00006E000F053FE607E002801D0FFF77CF8BC
:102CB00009B0F0BD24030020580300205C0300206D
:102CC000053900000A0509000010004058040900F9
:102CD000720409008C04090007B50190C046C04683
:102CE000C046C046C046C046C046C046C046C046B4
:102CF000C046C046C046C046019B013B0193002B25
:102D0000ECD107BD70B58022164B910000245C50B9
:102D10001549C2250E78AD00144A032E07D10926A5
:102D20007442C1265C510825B4001D510AE00126F9
:102D300076425E51C0230E4D02265B00EE501461B8
:102D400003244C7000235360536193604B600B75F8
:102D5000984205D0074801680A69002A00D09047C8
:102D600070BDC0460010004090030020FC100040E1
:102D700000E100E008030020F8B53F4B1A69012A82
:102D800053D19D693D4C80229600013503210420DA
:102D90009D611870C025A15139496A0002278F50E2
:102DA000384F00263E61C1227E607E61BE60364E95
:102DB00008259100655035682A7D3D1C002A17D0F2
:102DC000A927F9006258314F9A75A023D9007A5883
:102DD000024202D12E4800F0A5FD00200123A122CD
:102DE00028620421A361D300F950A927F90060509B
:102DF0006868002802D0274800F094FD2D69002D56
:102E000002D0254800F08EFD244A536899072DD43E
:102E10003768F968002900D088473668707D002837
:102E200028D035681E4AA55024E0022A1AD1154937
:102E300000250D6111484D6180244D6001278D6092
:102E4000C221A6007A428C0085511D7002510320D8
:102E500058705D601D750C4B1E683769AF4209D014
:102E6000B84707E00F4800F05DFD03E00E4800F0B2
:102E700059FDCDE7F8BDC04690030020001000408A
:102E800000E100E0FC1000400803002000F00140D9
:102E9000AD020A00B6020A00B7020A00FCE100E037
:102EA00004050000E7020A00B8020A0070B51E4DD2
:102EB000061C6B7D6C78002B02D11C4800F032FDA3
:102EC000287D002802D01A4800F02CFD01220021A4
:102ED0002A756975022C0CD816482301C318002ED8
:102EE00001D11E683260621E012A05D8997A2970C4
:102EF00002E0114800F016FD104D2868037D002BFC
:102F000011D0022C0FD10E4C0E4E251C32595307F6
:102F100002D40D4800F006FD0C494859002802D1A2
:102F20000B4800F0FFFC70BD9003002021010A0057
:102F300022010A00E04100003A010A0008030020D3
:102F40000405000000F0014040010A0000100040AC
:102F500041010A00024B98680138434258417047CA
:102F6000FC100040F8B5164B164C02200121C0277A
:102F7000C222D8674D4282407B00134E8021134FFE
:102F8000A55081400025F050012265507D61104D13
:102F90002261A2612C78944201D1062003E0023C18
:102FA000012C00D9101C0024FFF796FE7C61201C28
:102FB0002C70FFF7A7FE02206C753060F8BDC0468C
:102FC00004E100E00010004000E100E0FC100040DF
:102FD0009003002038B50E4B0E4C18600E490F4B75
:102FE0000F4A0225201DC56799500E48A421CA002A
:102FF0009850FFF7B7FF0C4800230321037041707E
:1030000043600361037543758375256038BDC04611
:103010000803002000E100E01410004000F001402F
:1030200024050000041100409003002070B55C4CA2
:103030002369607D013365782361002802D05948F7
:1030400000F070FC2178032948D1574E3269002ADC
:1030500044D0012D35D12269032A02D0534800F013
:1030600061FCA06902210130514A8025A061002342
:103070008D400120217053514542C2208840155097
:10308000C02568004B4D29504B4933610968736076
:103090007361B3600326667063602375087D984290
:1030A0000DD0A925E80016580125A6753E4C04262A
:1030B00023629561A124414DE4002E511350CA684A
:1030C00065E0022D08D12369012B02D03C4800F0B5
:1030D00029FCFFF751FE61E03A485DE0032D5AD02C
:1030E000012D3CD12169012918D12F480021304BF5
:1030F0000126C2224160816070429100C126585071
:10310000B0001D502C4D304E2A68117D002902D090
:103110002A4D0420A851E4689C513FE002293DD18A
:10312000234E214A8023002598000221C2231561E5
:103130005561556035504A429800C12132508B008C
:103140000822F25003262670656025751A4C256802
:10315000261C2869002800D08047306816E0022D20
:10316000B7D0657819482B01C1180E7B0025AE42F7
:1031700003D00D4A15696A1E95418B7A0120237090
:10318000FFF7C0FD002D09D00B4C20688268002A93
:1031900004D0904702E00E4800F0C4FB70BDC0466A
:1031A0009003002090010A00FC1000409F010A00DB
:1031B0000010004000E100E00803002000F00140A2
:1031C000A4010A00A9010A0004050000E041000072
:1031D000D6010A0008B5022804D8054B18784342E6
:1031E000584103E0034800F09DFB002008BDC046A5
:1031F00090030020F9020A00F8B52B4C0301061CCD
:103200002A4F207DFF18002802D0294800F08AFBB1
:10321000301CFFF7DFFF002802D1264800F082FBB8
:103220000121C222244D0023484291006375C0222F
:103230006850224902205200885021486670026876
:10324000116852682361A3613B68A160E26063601A
:10325000022E18D8387A80239B00E850F87A194B50
:10326000002805D1E950EA58002A08D1164804E0A0
:10327000EA50E958002902D1144800F053FB7F7A44
:10328000C1208300EF500E4D29680A7D002A07D027
:10329000022E05D10B480E4B00260427A6751F50A1
:1032A00001256575F8BDC04690030020E04100008F
:1032B000DB000A00DD000A000010004000E100E031
:1032C000080300200405000000010A0005010A00AF
:1032D00000F001407047C04610B5041E02D10848F6
:1032E00000F020FB074B00221C60191DDA67083331
:1032F000CA678020DA67044B44031C6010BDC046D7
:1033000029000B00B403002000E100E070B5144C6C
:10331000051C2368002B02D1124800F003FB201C7F
:103320000830C16F092902D90F4800F0FBFAE66F97
:103330000C225643A319043343CD43C3251C08353F
:10334000E86F0130E867E16F0131E167E66F092E50
:1033500001D90022E2678024044B65035D6070BDE3
:10336000B403002034000B0035000B00FCE100E04A
:10337000034B0A200833D96F421AD0B27047C046B7
:10338000B4030020F0B587B0012383F31088134CF9
:10339000124D0834E06F00281BD02A1DD16F0C2677
:1033A000714303AB69180431181CE0C9E0C0E76F32
:1033B0000026013FE767D46F0134D467D56F092D2C
:1033C00000D9D66786F31088044A176807CBB84738
:1033D000DAE780F3108807B0F0BDC046B4030020E0
:1033E00038B50A4C051CE36F002B02D1084800F0E9
:1033F00099FA291C0831E06F00F03CFC002188425A
:1034000001D0E1670121081C38BDC0463C04002002
:103410006F020C0010B500F0B7FB0021124A8800C3
:10342000002384188818A361A363041C80348830A7
:10343000237003700D480C18013123700829EDD159
:10344000111C101C141C90319130583413705360AF
:103450009360D360136153610B7003702370D36763
:1034600092320123137010BD3C040020D0040020D0
:10347000014B185C7047C046D0040020014B9033CC
:10348000187870473C040020014B58687047C046CC
:103490003C040020014B98687047C0463C04002063
:1034A000014BD8687047C0463C04002010B5104C52
:1034B0002378002B02D00F4800F034FAE06F002888
:1034C00002D100F08BFBE067E06F00280FD00121F4
:1034D00043784A4206210B43437002700023C2180E
:1034E000FF2101339170202BF9D10323237010BDEC
:1034F0003C0400203B010C0038B5124C2378002B13
:103500001ED1201C90300178002919D1082560694E
:1035100000F028FC002805D0231C606990330122AC
:103520001A70206161690131082900D10021231C32
:10353000616190331A78002A02D1013D002DE6D155
:1035400038BDC0463C04002038B5094D041C2B1C76
:1035500090331878002804D02969A14201D1FFF7DF
:10356000CBFF2A19034B0025803215701D5538BD3D
:103570003C040020D0040020F0B5464D85B00393F4
:10358000EB6F061C0C1C171C002B02D1424800F0EC
:10359000C9F92878032802D0404800F0C3F9E96F40
:1035A00001234A781A4202D192352D786B400425C6
:1035B000002E61D050070126810F1E40251C231CC0
:1035C0000A0608330E353F023249A8003F0A02932B
:1035D0000B5817430B980A9A0025156005609F4207
:1035E00033D0201CFFF7FCFE0190AE4200D0051C3A
:1035F00001232E1C1E40002828D00299254A06319E
:1036000088008750039F1D1C002F20D0244F3B5D56
:10361000002B1CD0201C00F0A5FB002802D1214863
:1036200000F080F9201C00F05BFB051E02D0201C7E
:10363000FFF78AFF0A990D60002D02D11A4800F0A9
:1036400071F900203855022501E001950325002E6F
:103650000DD0201C00F06CFB0B9E3060002802D1C6
:10366000124B336005E00E4F01223A5501E00B9CEE
:1036700026600199002905D1064CE06F00F0CCFAD4
:103680000020E067034A00261670FFF735FF281C6C
:1036900005B0F0BD3C0400205B010C005C010C0097
:1036A000D004002091010C0096010C00940400202D
:1036B000F8B51F4C071C23780E1C013B012B02D9C7
:1036C0001C4800F02FF90425002F19D0207801287C
:1036D00002D0194800F026F9E268002A02D1174802
:1036E00000F020F9E16800250F78AF4208D060684B
:1036F000FFF776FE0225002802D1114800F012F9EA
:10370000002E0ED06768381C00F0EAFA061E02D0C0
:10371000381CFFF719FFA3689E4202D0094800F049
:1037200001F900202070FFF7E7FE281CF8BDC04615
:103730003C040020FC000C0002010C0003010C0002
:103740000E010C001E010C00014B18787047C0469A
:103750003C04002038B5041C0D1C00F013FB0028AD
:1037600001D1002008E0281C211C00F083FA002869
:10377000F7D0FFF7C1FE012038BD08B500F0D8FA38
:1037800008BD10B5041CFFF7DFFE201C00F000FB95
:1037900010BD08B500F0E6FA08BD08B5083000F025
:1037A000C7FA08BD08B5083000F09AFA08BD08B598
:1037B000083000F0EDFA08BD08B5083000F0D2FA84
:1037C00008BD10B52A4C2378002B02D0294800F000
:1037D000A9F8201C90300178002927D0206960606A
:1037E00000F0A6FAA060002802D1234800F09AF861
:1037F000A26801235078034004D1211C92310A7839
:10380000002A10D16068FFF7D7FF02280ED8E36FB7
:10381000002B02D100F0E2F9E067E16FE1600029DE
:1038200004D0012001E0E360022020702278002013
:1038300082421BD0A368834202D1104800F072F884
:1038400020696060063081006318DA780321013254
:10385000D0B2D870A36808405A784100062082434D
:103860000A435A70903400232370012010BDC046D3
:103870003C040020C3000C00C9000C00E7000C0051
:1038800008B500F0ABF908BD08B500F0C5F908BDF2
:1038900008B500F077FA08BD014B923318707047F5
:1038A0003C040020014B9233187870473C04002000
:1038B0007047C046024B9870587018707047C046E9
:1038C000D804002010B5041E012C02D9024800F0D3
:1038D00029F8024B5C7010BD2A000D00D8040020AE
:1038E000014B18787047C046D8040020014B9878E7
:1038F0007047C046D8040020014B58787047C04636
:10390000D804002008B5054B1A7858789A701870BA
:10391000034B8100CA58904708BDC046D804002018
:103920007400002008B5FEF7FFF808BD10B5041EAE
:1039300002D10448FFF7F6FF034B00221C605A60D7
:103940009A6010BD2A0001000C030020094B00B54D
:1039500018689A68016801329A608A4208D35968E7
:103960004068002201319A605960814200D35A6058
:1039700000BDC0460C030020F8B500282AD0164C24
:10398000A36801280ED1276801333A68A3609342E7
:1039900020D36068796800250130A56060608842A6
:1039A00018D316E02668C7183568A760381C291C8C
:1039B00000F042FB62683B1C80186060AB4201D3A0
:1039C0005B1BFBE771686568A3608D4201D36D1ACC
:1039D000FBE76560F8BDC0460C030020024B1A6887
:1039E00099681068401A70470C03002070B50D4D9F
:1039F000041C2B685868844202D30B48FFF792FFDF
:103A00006E68B4420CD002D829684A68A418FFF73F
:103A1000E5FF2D68F3432E6819197143081800E07B
:103A2000002070BD0C0300206800010070B5041C6C
:103A30000D1C884202D30B48FFF774FF0A4E33680F
:103A40001868854202D90948FFF76CFFB168601A0F
:103A5000A14206D30020A94203D3326815686E1A2A
:103A6000301970BD7D0001000C0300207E000100B4
:103A700038B5041C101C0D1CFFF7B8FF002801D03E
:103A8000001911E0201C291CFFF7D0FF041CFFF7D0
:103A9000A5FF031C201E984206D304490D686A68DE
:103AA0002C68013A5443001938BDC0460C0300206D
:103AB000074B10B51A68596850681C1C814202D324
:103AC0000448FFF72FFF236861689A68505C10BDB7
:103AD0000C030020B200010038B5064B041C1A6824
:103AE0001D1C5068844202D30348FFF71BFF6C6023
:103AF00038BDC0460C030020B9000100014B5868D6
:103B00007047C0460C03002038B5064B041C1A68E9
:103B10001D1C1068844202D30348FFF703FFAC600A
:103B200038BDC0460C030020C5000100014B986859
:103B30007047C0460C03002010B50F4B1A680023D5
:103B400093420BD20D499C006458A04203D10C480B
:103B5000FFF7E8FE0CE00133DBB2F1E7002422229C
:103B6000624308495318984204D00134062CF6D118
:103B7000002000E0012010BDDC040020E004002053
:103B8000F6000300E805002010B500220F495000A0
:103B9000801800230C1801326370A3704354102A5C
:103BA000F4D122225A430A490A485418211C9A0087
:103BB00084502231DE22227001348C42FAD101334A
:103BC000062BEED1044C236010BDC046F804002043
:103BD000E8050020E0040020DC04002038B50A4B92
:103BE0001C68002C0ED0621E084990004458084DF5
:103BF0001A604550201CFFF79FFF002802D105489E
:103C0000FFF790FE201C38BDDC040020E0040020FB
:103C1000ADDEADDE7D00030070B5104C051C2368E1
:103C2000052B02D90E48FFF77DFE281CFFF784FF05
:103C3000002802D10B48FFF775FE21680A488A0068
:103C400011580A4B061C994202D00948FFF76AFE38
:103C5000206882000130B550206070BDDC04002077
:103C60008500030086000300E0040020ADDEADDE29
:103C700088000300F8B5051C0C1E0F2C02D914484F
:103C8000FFF750FE281CFFF757FF002802D111480C
:103C9000FFF748FE104966003019435C0022022BF2
:103CA00013D80B185F78C0190C4F8000C5515D7890
:103CB0000135E8B258705F78022F00D95A70321976
:103CC0008C5C0134E6B28E540122101CF8BDC04653
:103CD0008F00030090000300F80400202805002056
:103CE00038B5041E0F2C02D90E48FFF71BFE0E4AF2
:103CF00065002919885C002813D053189878091892
:103D00000A488900085899780131C9B299709978A0
:103D1000022901D9002199702C19155D013DEBB2E2
:103D2000135538BDA6000300F80400202805002024
:103D300010B5041E0F2C02D90748FFF7F3FD074BFF
:103D400062001119C85C002805D0581884780B1936
:103D500003499A00505810BDB7000300F804002032
:103D60002805002010B5041E0F2C02D90348FFF7C8
:103D7000D9FD630002491819405C10BDC80003005A
:103D8000F8040020014B18687047C046DC0400208E
:103D900038B5051E0F2D0CD90948FFF7C3FD08E003
:103DA000084B9C4202D10848FFF7BCFD201CFFF7DE
:103DB00033FF281CFFF794FF041EF1D138BDC04625
:103DC000D7000300ADDEADDEDB000300164BA12102
:103DD00010B50122CC0000205A60DA6018515A64F4
:103DE000124A1C1C9958814202D01148FFF79AFDD3
:103DF0000123C222584291000E4B60500022A221A2
:103E00005A640420CB00E0500B490C4C0120226086
:103E10002271627108700A4B8022C021D400814057
:103E20005C501C6010BDC04600A00040440500006E
:103E300035000400FCA00040B40600201803002058
:103E400000E100E0034B0449012200201A600870E1
:103E50007047C04600A00040B4060020094A30B5B3
:103E600001235360084CD3608025084AC0200021FC
:103E7000ED0098401160117125505171044A137082
:103E800030BDC04600A0004000E100E01803002063
:103E9000B4060020014B18787047C046B4060020D5
:103EA000014B18797047C04618030020F7B5334F0F
:103EB0000092334C8022C2237E790191051C990027
:103EC00050026050002E02D02E48FFF72BFD002D2F
:103ED00002D12D48FFF726FD3A68002A02D02B4870
:103EE000FFF720FD3D60009D294E012D0DD0002DD6
:103EF00003D0022D0DD1A92208E00120254B009905
:103F00006064E5582064716407E0A822D500655913
:103F100003E02148FFF706FD002501227A71019F89
:103F2000A821E81987B20023C800736427502758D6
:103F300000976264174AA758716C1E1C994202D000
:103F40001648FFF7EFFC009BAB4205D3AF4201D30D
:103F50009F420CD3124808E0301CAF427041009DD4
:103F6000AF427641B04202D00E48FFF7DBFC802220
:103F7000C12157028E00A751F7BDC046180300208B
:103F800000A00040730004007500040076000400E7
:103F9000FCA0004044050000890004009B000400D0
:103FA000B0000400C90004000048704748A0004069
:103FB0000048704740A1004070B58022134C144D5A
:103FC000C22350029900002668506664114C226892
:103FD000B24202D11048FFF7A5FC104B01216671D7
:103FE0002068A82226606964EE58D300EA580C4D78
:103FF0001432AE4203D8C0231D02AA4202D80021C7
:10400000964249412171804770BDC046FCA00040E6
:1040100000A0004018030020EC000400440500004C
:10402000FF3F000002B4714649084900095C49009D
:104030008E4402BC7047C046002243088B4274D3B2
:1040400003098B425FD3030A8B4244D3030B8B4299
:1040500028D3030C8B420DD3FF22090212BA030CA2
:104060008B4202D31212090265D0030B8B4219D383
:1040700000E0090AC30B8B4201D3CB03C01A5241A3
:10408000830B8B4201D38B03C01A5241430B8B42EB
:1040900001D34B03C01A5241030B8B4201D30B03D4
:1040A000C01A5241C30A8B4201D3CB02C01A5241FB
:1040B000830A8B4201D38B02C01A5241430A8B42BE
:1040C00001D34B02C01A5241030A8B4201D30B02A7
:1040D000C01A5241CDD2C3098B4201D3CB01C01AC1
:1040E000524183098B4201D38B01C01A52414309CB
:1040F0008B4201D34B01C01A524103098B4201D3B9
:104100000B01C01A5241C3088B4201D3CB00C01A25
:10411000524183088B4201D38B00C01A524143089D
:104120008B4201D34B00C01A5241411A00D20146C2
:10413000524110467047FFE701B5002000F00CF82F
:1041400002BDC0460029F7D003B5FFF775FF0EBCCE
:104150004243891A1847C0467047C046002310B52D
:10416000934203D0CC5CC4540133F9E710BD000086
:10417000F8B5C046F8BC08BC9E467047F8B5C046C6
:10418000F8BC08BC9E4670474300000000000020B9
:1041900019181617000000000000001009000000A8
:1041A0000B0000000A0000000800000000000000F2
:1041B0000000000000E0D70103000000090000003B
:1041C0000B0000000A0000000800000000000000D2
:1041D0000000000000E0D701030000000102000021
:1041E000001000401011004003100000010000000A
:1041F00000100040000000000B020400000000005E
:104200000410004000000000070803010000000047
:0442100000000000AA
:0842140060BFFF7F0100000004
:10421C000000000000000000000000000000000092
:10422C000000000000000000000000000000000082
:10423C0088410000000000000000000000000000A9
:10424C000000000000000000000000000000000062
:10425C000000000000000000000000000000000052
:10426C000000000000000000000000000000000042
:10427C000500000004192A3F4D000000000000005A
:10428C0000000000992A0000E52700003901000019
:08429C000D010000000000000C
:040000030000128D5A
:00000001FF
