:100000000C94DF060C9426070C9426070C94260704
:100010000C9426070C9426070C9426070C942607AC
:100020000C9426070C9426070C94C8270C949A2845
:100030000C94EC1A0C9426070C9426070C942607B3
:100040000C9426070C9426070C9426070C9426077C
:100050000C9426070C94601B0C9426070C9426071E
:100060000C9426070C9426070C9426070C9426075C
:100070000C9426070C9426070C9426070C9426074C
:100080000C9426070C9426070C9426070C9426073C
:100090000C9426070C9426070C9426070C9426072C
:1000A0000C9426070C9426070C94260789098B09C3
:1000B00096098D098F0991099309950998099A095B
:1000C0009C09A7099E09A009A209A409A609A909D2
:1000D000AF0FAF0FE10FE10F1F103D10A311A311E0
:1000E0007F10A311221122119311A311A3119C11AE
:1000F0002F112F112F112F112F112F112F112F1100
:100100002F112F112F112F112F112F112F112F11EF
:1001100040114E1155115C11661134123412461201
:1001200046123D1246124612461234123412421240
:1001300046124612421207292E29262A2E29262A3D
:100140007A299D29262AF429032A0A0025303136E6
:1001500062003A200025303258000A722F632030A6
:100160003132333435363738394142434445460A13
:100170000035421E001F0020002100220001510115
:1001800051230024002500260027002D422B0014B7
:10019000001A000800150017002F0030001C00187E
:1001A000000C00120013002E0029000400160007A6
:1001B0000009000A004B434D430B000D000E000FD9
:1001C0000033003400E1001D001B0006001900058B
:1001D000004E004A0011001000360037003100E5E3
:1001E00000E30057005600556454612A004C002873
:1001F000002C00E6005000510052004F0001003A70
:10020000003B003C003D003E00010001003F00407B
:1002100000410042004300000001001E021F022FA7
:1002200002300231020100010000005F0060006145
:1002300000000000000100200221022F00300035E4
:10024000000100010000005C005D005E0000000095
:1002500000010022022302260227023502010001CA
:1002600000000059005A005B00000000000100017E
:100270000001000100010001000100010001006215
:1002800000620063000000000001000100010001A5
:100290000001000100010001000100010001000156
:1002A000000100010000000000F0000000F9000063
:1002B000000100010000000000000000000000003C
:1002C000000000F200F100F300FA0000000100015C
:1002D000005000510052004F0000000000000000DC
:1002E000000000000000000000010001000000000C
:1002F00000000000000000000000000000000000FE
:1003000000F400F500010001000100000000000001
:10031000000000000000003A003B003C003D003EB1
:10032000003F0040004100420043004400450000FF
:10033000000000005CCD5CC25CC35CC65CC55CC8F0
:100340005CC75CCA5CC95C00004C00000000000097
:10035000000000000000000000010001000000009B
:10036000000000000000000000000000000000008D
:10037000000000000000000000000000000000007D
:10038000000000000000000000000000000000006D
:10039000000000000000000000000000000000005D
:1003A0000044454255473A20656E61626C65642E93
:1003B0000A000A002530325820006B6579626F61AF
:1003C00072645F7265706F72743A20000A002530A3
:1003D0003258006B6579626F6172645F7365745F38
:1003E0006C65643A20004F6E6573686F743A2074D0
:1003F000696D656F75740A0064656C5F6B65795F24
:100400006269743A2063616E27742064656C3A20D7
:10041000253032580A006164645F6B65795F6269F8
:10042000743A2063616E2774206164643A20253039
:1004300032580A00290A002575002F002575005D35
:100440002800256400200025640020002564002089
:10045000002564007C0025303258006D6F7573658F
:100460006B6579205B62746E7C78207920762068D9
:100470005D287265702F61636C293A205B006D6B9B
:100480005F776865656C5F74696D655F746F5F6DDC
:100490006178203D2025640A006D6B5F7768656593
:1004A0006C5F6D61785F7370656564203D202564C5
:1004B0000A006D6B5F74696D655F746F5F6D617865
:1004C000203D2025640A006D6B5F6D61785F73705D
:1004D000656564203D2025640A006D6B5F696E745C
:1004E000657276616C203D2025640A006D6B5F6447
:1004F000656C6179203D2025640A006D6B5F77682B
:1005000065656C5F74696D655F746F5F6D617820A0
:100510003D2025640A006D6B5F776865656C5F6DD3
:1005200061785F7370656564203D2025640A006D05
:100530006B5F74696D655F746F5F6D6178203D20DE
:1005400025640A006D6B5F6D61785F73706565642B
:10055000203D2025640A006D6B5F696E74657276BC
:10056000616C203D2025640A006D6B5F64656C61E1
:1005700079203D2025640A000A00257500363A20BE
:10058000776865656C5F74696D655F746F5F6D61D9
:10059000783A20000A00257500353A2077686565AD
:1005A0006C5F6D61785F73706565643A20000A0066
:1005B000257500343A2074696D655F746F5F6D61F5
:1005C000783A20000A00257500333A206D61785F83
:1005D00073706565643A20000A00257500323A2080
:1005E000696E74657276616C286D73293A20000A11
:1005F00000257500313A2064656C6179282A313014
:100600006D73293A20000A092D2056616C756573B7
:10061000202D0A004D3E004D25643E20003F007312
:1006200065742064656661756C740A00433E200041
:1006300077686572652064656C74613A20637572D1
:10064000736F723D25642C20776865656C3D256469
:100650000A53656520687474703A2F2F656E2E7783
:10066000696B6970656469612E6F72672F77696B5A
:10067000692F4D6F7573655F6B6579730A000A09A1
:100680002D204D6F7573656B6579202D0A45534399
:100690002F713A09717569740A313A0964656C61A0
:1006A00079282A31306D73290A323A09696E7465E6
:1006B0007276616C286D73290A333A096D61785F2F
:1006C00073706565640A343A0974696D655F746FA7
:1006D0005F6D61780A353A09776865656C5F6D61B1
:1006E000785F73706565640A363A09776865656C8A
:1006F0005F74696D655F746F5F6D61780A0A703A47
:10070000097072696E742076616C7565730A643A5B
:10071000097365742064656661756C74730A75701D
:100720003A092B310A646F776E3A092D310A7067E6
:1007300075703A092B31300A7067646F776E3A0929
:100740002D31300A0A7370656564203D2064656C44
:100750007461202A206D61785F7370656564202A5A
:100760002028726570656174202F2074696D655F43
:10077000746F5F6D6178290A003F004D3E20004391
:100780003E20004C25640A0074696D65725F7265D5
:100790006164333228293A202530346C580A006BC2
:1007A00065796D61705F636F6E6669672E6E6B72DF
:1007B0006F3A2025580A006B6579626F6172645F39
:1007C00069646C653A2025580A006B6579626F612F
:1007D00072645F70726F746F636F6C3A2025580A91
:1007E00000686F73745F6B6579626F6172645F6CD0
:1007F00065647328293A2025580A000A092D2053D8
:100800007461747573202D0A004743433A20352ED6
:10081000342E30204156522D4C4942433A20322E3C
:10082000302E30204156525F415243483A20617683
:1008300072350A004F5054494F4E533A204C55469A
:1008400041204D4F5553454B455920455854524131
:100850004B455920434F4E534F4C4520434F4D4D30
:10086000414E44204E4B524F20343039360A00421C
:1008700055494C443A2022302E362E39362D333904
:10088000322D673663626461382D6469727479222F
:10089000202831323A31313A3533204F63742032D7
:1008A000302032303138290A005649443A20307815
:1008B00046454544284D61747469612044616C204B
:1008C00042656E29205049443A203078363036301F
:1008D000285265646F785F776972656C65737329F8
:1008E000205645523A203078303030310A004445A5
:1008F00053433A20712E6D2E6B2E206B6579626FFB
:10090000617264206669726D7761726520666F72CC
:10091000205265646F782D770A000A092D205665EC
:100920007273696F6E202D0A000A092D20436F6EC5
:10093000736F6C65202D0A4553432F713A09717509
:1009400069740A6D3A096D6F7573656B65790A0094
:100950000A092D204D61676963202D0A443A094434
:1009600065627567204D65737361676520546F67B5
:10097000676C650A583A094D61747269782044655C
:10098000627567204D6F646520546F67676C6520E2
:100990002D2053686F77206B65797072657373656E
:1009A0007320696E206D6174726978206772696462
:1009B0000A4B3A094B6579626F6172642044656243
:1009C000756720546F67676C65202D2053686F77BB
:1009D000206B65797072657373207265706F7274C5
:1009E0000A4D3A094465627567204D6F757365203D
:1009F000546F67676C650A563A0956657273696F7A
:100A00006E0A533A095374617475730A433A094183
:100A10006374697661746520436F6E736F6C6520D3
:100A20004D6F64650A46312D4631303A0953776976
:100A300074636820746F204C6179657220302D39A1
:100A40002028463130203D204C30290A302D393ABB
:100A50000953776974636820746F204C61796572FB
:100A600020302D390A4553433A0953776974636836
:100A700020746F204C6179657220302028616C747D
:100A800065726E617465206B65792031290A475261
:100A90004156453A0953776974636820746F204C56
:100AA0006179657220302028616C7465726E6174A2
:100AB00065206B65792032290A50415553453A0922
:100AC0004A756D7020746F20426F6F746C6F616433
:100AD000657220285265736574290A4E3A094E4B97
:100AE000524F20546F67676C650A003F004E4B52AF
:100AF0004F3A206F66660A004E4B524F3A206F6E97
:100B00000A000A6D6F7573653A206F66660A000AFF
:100B10006D6F7573653A206F6E0A000A6B657962B6
:100B20006F6172643A206F66660A000A6B657962CB
:100B30006F6172643A206F6E0A000A6D61747269A7
:100B4000783A206F66660A000A6D61747269783AB5
:100B5000206F6E0A000A64656275673A206F6666E8
:100B60000A000A64656275673A206F6E0A000A0A15
:100B70004A756D70696E6720746F20626F6F746C58
:100B80006F616465722E2E2E2000433E20005B7341
:100B90005D004B6579626F61726420737461727479
:100BA0002E0A005B575D005B535D005B525D005B8E
:100BB000445D005B435D000403300000001E0352EF
:100BC00000650064006F0078005F007700690072C4
:100BD0000065006C0065007300730000001E034D8B
:100BE000006100740074006900610020004400612D
:100BF000006C002000420065006E00000004030944
:100C00000409028D00050100A0FA09040000010397
:100C100001010009211101000122400007058103A3
:100C200008000A0904010001030102000921110161
:100C30000001224D000705820308000A0904020092
:100C400001030000000921110100012236000705FF
:100C5000830308000A0904030002030000000921BD
:100C6000110100012222000705840320000107056D
:100C7000040320000109040400010300000009210D
:100C8000110100012239000705850320000112012E
:100C9000100100000008EDFE606001000102030188
:100CA00005010906A101050719E029E7150025013D
:100CB0009508750181020508190129059505750139
:100CC00091029501750391010507190029F7150097
:100CD000250195F875018102C00631FF0974A10153
:100CE0000975150026FF0095207508810209761503
:100CF0000026FF00952075089102C005010980A11A
:100D00000185021601002603001A81002A8300755E
:100D10001095018100C0050C0901A1018503160190
:100D200000269C021A01002A9C0275109501810080
:100D3000C005010902A1010901A100050919012944
:100D40000515002501950575018102950175038141
:100D5000010501093009311581257F95027508814A
:100D60000609381581257F950175088106050C0A4D
:100D700038021581257F950175088106C0C00501DF
:100D80000906A101050719E029E7150025019508C5
:100D90007501810295017508810105081901290570
:100DA00095057501910295017503910105071900DB
:100DB00029FF150026FF00950675088100C0112443
:100DC0001FBECFEFDAE0DEBFCDBF04B603FE27C003
:100DD0008091390290913A02A0913B02B0913C027D
:100DE0008730904BA740B04BD1F41092390210924B
:100DF0003A0210923B0210923C0214BE84B7877FE5
:100E000084BF0FB6F894A8958091600088618093A4
:100E10006000109260000FBEE0E0F8E3099511E079
:100E2000A0E0B1E0EEEAF5E502C005900D92A63330
:100E3000B107D9F722E0A6E3B1E001C01D92A933C2
:100E4000B207E1F70E94E9240C94D52A0C94000023
:100E5000FF93EF93E0913601F0913701309709F05D
:100E60000995EF91FF910895FC018591803011F073
:100E7000EFDFFBCF0895FF27E0E230E247FF0CC031
:100E8000419597FF09C0EDE260957095809590952A
:100E9000611D711D811D911D27FF02C0219530E349
:100EA00050E2AA27660F771F881F991FAA1FA41751
:100EB00010F0A41B63955A95A9F7AA3008F0A95F12
:100EC000A05DAF93F395611571058105910541F71B
:100ED000ED3211F4EF93F395F21718F43F93F39575
:100EE000FBCF8F91B5DFFA95E1F70895E991F9917C
:100EF0008591803021F0853219F0AADFF9CF08956D
:100F000020E0E89455915532C1F3503311F46894C0
:100F100055915A3348F4505390F3220F022E220F6A
:100F2000220F200D250FF4CF0EF421958991999170
:100F3000533619F3533729F1533559F1BC0188273A
:100F40009927E8945C3621F4899199916894559198
:100F5000543639F446EF7EF077FF0DC08FEF9FEFE8
:100F60000AC055374AE039F0583540E121F0523691
:100F700042E009F00895FF93EF937DDFEF91FF9139
:100F8000B7CFFF93EF93FC0181918030B9F360DF1D
:100F9000FBCFFF93EF9368DFF1CFDF93CF93CDB714
:100FA000DEB72596A3DFCF91DF91089508950C94C5
:100FB000D6070C94C608CF93DF93CDB7DEB72B9737
:100FC0000FB6F894DEBF0FBECDBF1092CC001092CA
:100FD000CD0088E18093C90086E08093CA0083E752
:100FE0008093CE00FE0131968BE0DF011D928A9541
:100FF000E9F7CE010C96DF0140E050E0BA01209104
:10100000C80027FD0AC04F5F5F4F6F4F7F4F4131D0
:1010100027E252076105710590F32091CE002D93D0
:10102000A817B90761F78B85803E91F4A8E3B1E07A
:101030009E01255F3F4F818140E8849FC0011124BC
:101040004081842B8D939D933296E217F30799F795
:101050000E94D20881E02B960FB6F894DEBF0FBE37
:10106000CDBFDF91CF910895E82FF0E0EE0FFF1F85
:10107000E85CFE4F808191810895CF92DF92EF92DC
:10108000FF920F931F93CF93DF938AE591E00E9425
:10109000340788E3E82E81E0F82EC0E0D0E095E543
:1010A000C92E91E0D92E0CE411E0DF93CF93DF92AB
:1010B000CF920E94CD0782E591E00E943407F701AC
:1010C000819191917F010E946A199F938F931F9341
:1010D0000F930E94CD078AE491E00E943407219685
:1010E0008DB79EB708960FB6F8949EBF0FBE8DBF02
:1010F000C530D105D1F6DF91CF911F910F91FF90AF
:10110000EF90DF90CF9008951092CC001092CD0018
:1011100088E18093C90086E08093CA000895519ABF
:10112000599A80B3806380BB81B3806381BB08958B
:101130000E94D7070E9484080C948F080C94A10881
:1011400008956091C0017091C1018091C201909198
:10115000C3010E940819813041F028F0823041F02B
:10116000833051F008958D9A08C08D9A599806C021
:101170008D9A599A8C9808958D98599A8C9A0895B9
:1011800081E0089581E008950C94C2080E947D19C1
:10119000811106C00E948819811102C00E94F519B0
:1011A0000C9498080C949E080C94A00808950E9432
:1011B00020120E94D6082FEF84E39CE0215080404B
:1011C0009040E1F700C000000C94861BFF920F9343
:1011D0001F93CF93DF938C01FC01C081D18180915B
:1011E0005A01811113C08281882349F0CE010E94E7
:1011F0007F17F82E682FCE010E94281704C0CE0159
:101200000E945317F82EBE018F2D04C0CE010E94FC
:101210007F17BE010E945D0AEC01B8010E94C4085C
:10122000882309F43FC1C631FCE5DF0709F406C194
:1012300078F4C130ECE5DE0759F120F4C115DC4546
:10124000F9F023C1C531ECE5DE0708F440C01DC14B
:10125000C83DFCE5DF0709F4D6C050F4C63DECE517
:10126000DE0709F486C0C73DDC4509F4A5C00DC101
:10127000CB3D8CE5D807D9F0CC3DDC45F9F005C174
:10128000F8018281882309F40DC10E94D7080AC1A0
:10129000F8018281882309F405C18091F101816000
:1012A0008093F10181EA93E00E943407FBC0F801CA
:1012B0008281882309F4F6C080E006C0F8018281AB
:1012C000882309F4EFC082E00E948F25EBC0F8016B
:1012D0008281882309F4DEC00E947D19811102C039
:1012E0000E94F5190E949A1990E090932B02809326
:1012F0002A02FE01E350FC45E231F10530F4EA5ADE
:10130000FF4F80912A020C94792A80912A028160F1
:1013100027C0826025C0846023C0806121C08062B4
:101320001FC080641DC080681BC08460886018C0B6
:101330008E7F16C08D7F14C08B7F12C08F7E10C031
:101340008F7D0EC08F7B0CC08F770AC08B7F877F0D
:1013500007C087FB222720F991E0922790FB87F9AD
:1013600080932A0280912A020E949E190E942012D4
:1013700099C0F8018281882351F0109247010E94A0
:101380001E1B909344018093430182E022C0809110
:10139000470181110FC080914301909144010E9447
:1013A000361B883C910530F486E20E94820E86E26C
:1013B0000E94380F82E024C0F8018281882361F006
:1013C000109248010E941E1B909346018093450194
:1013D00080E20E946C0F66C08091480181110FC0AD
:1013E00080914501909146010E94361B883C9105F1
:1013F00030F487E20E94820E87E20E94380F80E27A
:101400000E94730F4FC0F80182818111D9CF809162
:1014100048018111F4CF80914501909146010E94CD
:10142000361B883C910558F780E20E94730F88E2D2
:101430000E94820E88E20E94380F34C00E94761803
:10144000982FF801828120910001309101018823B9
:1014500079F09A7A81E009F480E080934201911159
:1014600002C069E201C065E3C9010E94761A0AC0A0
:1014700080914201811102C069E201C065E3C901A6
:101480000E94811A0E94B9180DC081E08093470123
:1014900080934801C801DF91CF911F910F91FF9078
:1014A0000C94C00880E0DF91CF911F910F91FF90C5
:1014B000089580E090E00895089526E4829FC00199
:1014C0001124FC012EE0729FE00DF11D1124E60FA6
:1014D000F11DEE0FFF1FEF58FE4F85919491089577
:1014E000880F991FFC01EE54FC4F8591949108954B
:1014F000CF93DF930E945D0A0E941C0CEC018115C2
:10150000904508F041C0C11580E4D80708F01CC11F
:10151000C83ED10510F5C03ED10508F089C1C83AD2
:10152000D10578F4C53AD10508F09EC0C130D10587
:1015300009F47EC108F435C1C430D10508F078C182
:1015400030C1CD3BD10508F49AC0C03CD10508F4A8
:1015500028C1CE01805C9109E9C0C11590E2D9078C
:1015600058F4C11521E0D20708F062C1C03FD1058F
:1015700008F417C1D0655CC1C11580E3D80708F035
:10158000D9C0CE019F70D2C0C11595E5D90708F02A
:1015900044C0C11524E5D20708F0EDC0C11582E5AD
:1015A000D80710F5C11591E5D90708F0D0C0CE01D4
:1015B00074E0969587957A95E1F7282F23703C2F54
:1015C000337081E090E002C0880F991F3A95E2F7EE
:1015D0009C68922BCF70C695C69520E2C29FE00111
:1015E0001124C82BD92B24C19E01237033278C2FA3
:1015F00086958695C115D34508F0AEC0C1E0D0E010
:1016000002C0CC0FDD1F2A95E2F720E2829FC001C5
:101610001124C82BD92BDC680BC1C11529E5D207D1
:1016200080F4C11588E5D80708F0AAC0C11596E571
:10163000D90708F0B6C0CF71DD27DC2FCC27D062E8
:10164000F7C0CE01C1152AE5D20708F49EC0905616
:101650008115904208F0A5C08D2F8F710E94980CC3
:10166000DD27D0628F719BC0C53AD10509F49CC0BB
:10167000C63AD10509F09BC0C2E8D0E4D9C0C83A47
:10168000D10509F497C0C93AD10509F496C0CA3A00
:10169000D10509F495C0CB3AD10509F494C0CC3AF0
:1016A000D10509F493C0CB3BD10509F492C0CC3BE2
:1016B000D10509F491C0CD3AD10509F490C0C03BE1
:1016C000D10509F48FC0CE3AD10509F48EC0CF3AC6
:1016D000D10509F48DC0C13BD10509F48CC0C23BD2
:1016E000D10509F48BC0C33BD10509F48AC0C43BC2
:1016F000D10509F489C0C53BD10509F488C0C63BB2
:10170000D10509F487C0C73BD10509F486C0C83BA1
:10171000D10509F485C0C93BD10509F484C0CA3B91
:10172000D10509F483C0C0E0D4E482C00E94700AED
:10173000EC017EC0CE019927D3FF03C0EC01D86C29
:1017400077C0EC01D06C74C0DF70D06A71C0DC2F40
:10175000CC27C16FD06A6CC0C1E0D0E002C0CC0F12
:10176000DD1F2A95E2F720E2829FC0011124C82BD9
:10177000D92BDA685DC0DC2FCC27C46FD06A58C083
:10178000DC2FCC27C06FD06A53C024E09695879594
:101790002A95E1F78F70CF70C06ED0E0D06AD82B59
:1017A00047C0C0E0D0E044C0C1E8D0E441C0C3E8D5
:1017B000D0E43EC0C2EED4E43BC0C9EED4E438C0AD
:1017C000CAEED4E435C0C5EBD4E432C0C6EBD4E4F1
:1017D0002FC0C3EBD4E42CC0C4EBD4E429C0C7EBC6
:1017E000D4E426C0CCECD4E423C0CDECD4E420C0B7
:1017F000C3E8D5E41DC0CAE8D5E41AC0C2E9D5E4FF
:1018000017C0C4E9D5E414C0C1E2D6E411C0C3E2F4
:10181000D6E40EC0C4E2D6E40BC0C5E2D6E408C0EC
:10182000C6E2D6E405C0C7E2D6E402C0CAE2D6E406
:10183000CE01DF91CF9108958238910549F1B0F43E
:101840008133910509F459C048F48932910509F4AE
:101850004FC08A32910509F455C00895853391052A
:1018600009F441C08933910599F00895833E9105AB
:1018700031F138F4803E910591F0823E9105A9F056
:101880000895863E910501F1873E910539F108954D
:1018900020912A0220FD3BC021FD39C0089580918E
:1018A0002A0280FF34C089E341C080912A0282FF6E
:1018B00030C080912A0284FD2EC083EE37C0809113
:1018C0002A0282FD26C0F5CF80912A0283FF25C01F
:1018D00080912A0284FD1FC087EE28C080912A02D1
:1018E00083FD1BC0F5CF80912A0285FD18C019C069
:1018F00080912A0285FD15C012C080912A0286FDC2
:1019000012C013C080912A0286FD0FC00CC080EE69
:101910000DC082EE0BC080E009C086EE07C089E2F0
:1019200005C085E303C08AE201C081E390E0089529
:1019300090912A0292FF0DC0282F2871283019F4A7
:10194000877F846006C0282F2471243011F48B7F98
:10195000886093FF0DC0282F2871283119F4877EE5
:10196000846106C0282F2471243111F48B7E886194
:1019700094FD877E089590934E0180934D010895C4
:10198000E0914D01F0914E01309721F00190F081EE
:10199000E02D099480E00895EF92FF920F931F933A
:1019A000CF93DF93E0914D01F0914E013097B1F16B
:1019B0008C010280F381E02D09958091F10182FF75
:1019C0002DC080FF04C08AEB93E00E943407E80139
:1019D00010E284EBE82E83E0F82E8091F10180FF85
:1019E0000BC088811F928F93FF92EF920E94CD07C8
:1019F0000F900F900F900F90115021961111EDCF75
:101A00008091F10180FF0AC082EB93E0DF91CF91DA
:101A10001F910F91FF90EF900C943407DF91CF91BD
:101A20001F910F91FF90EF900895E0914D01F0917B
:101A30004E01309721F00480F581E02D099408953E
:101A400020914B0130914C012817390771F0909388
:101A50004C0180934B01E0914D01F0914E01309784
:101A600021F00680F781E02D099408952091490125
:101A700030914A012817390771F090934A018093F9
:101A80004901E0914D01F0914E01309721F0008421
:101A9000F185E02D0994089508950C944C0D81E092
:101AA00008950E94151B85B7806885BF85B780683B
:101AB00085BF0E94D9070C94AA1BCF93C82F809191
:101AC000F10182FF1EC080FF04C083ED93E00E94FD
:101AD00034078091F10180FF0CC01F92CF938EECF0
:101AE00093E09F938F930E94CD070F900F900F90DC
:101AF0000F908091F10180FF04C08CEC93E00E9474
:101B000034078C2FCF910C94D4085F926F927F9200
:101B10008F929F92AF92BF92CF92DF92EF92FF92FD
:101B20000F931F93CF93DF93CDB7DEB72A970FB6EE
:101B3000F894DEBF0FBECDBF0E94DB070E944F0DA1
:101B4000811111C08FEF89838A831B820E941E1B23
:101B50008160782F9D838C8349815A816B818D812F
:101B60000E94420E56C090E5692E91E0792E00E069
:101B700010E088248394912C502E802F0E943408EA
:101B80006C01F301A190B1903F01A826B926A114E0
:101B9000B10431F40F5F1F4F0530110569F7D2CF43
:101BA0008091F10181FD0E943D0880E090E0740188
:101BB000082E02C0EE0CFF1C0A94E2F795012E21BC
:101BC0003F21232B09F18E835F82CE20DF2081E02D
:101BD000CD2809F480E088870E941E1B8160782F41
:101BE0009A8789874E815F8168858A850E94420E27
:101BF000000F111FF801E05BFE4F80819181E82604
:101C0000F926F182E08205C001968E30910579F6C1
:101C1000C1CF0E94BF1D0E94C00C90914F01891737
:101C2000D9F00E94C00C80934F012A960FB6F89409
:101C3000DEBF0FBECDBFDF91CF911F910F91FF90FF
:101C4000EF90DF90CF90BF90AF909F908F907F905C
:101C50006F905F900C945D0D2A960FB6F894DEBFDE
:101C60000FBECDBFDF91CF911F910F91FF90EF90ED
:101C7000DF90CF90BF90AF909F908F907F906F90AC
:101C80005F900895CF93DF93CDB7DEB72B970FB654
:101C9000F894DEBF0FBECDBF4F83588769877A8720
:101CA0008B87DE01119686E0FD0111928A95E9F796
:101CB00085E0FE01379601900D928A95E1F70E942A
:101CC0001918882319F082E00E9454180E94EC171A
:101CD00081110E94B21849815A816B817C818D816A
:101CE0009E810E94ED142B960FB6F894DEBF0FBEB6
:101CF000CDBFDF91CF910895FC01808191810E9439
:101D0000BE170895CF93882309F4B0C0C82F8CEF75
:101D10008C0F813A68F48C2F0E940F218111A6C08C
:101D20006C2F80910001909101010E94761A0CC0E5
:101D300080E28C0F883058F4C77081E001C0880FB2
:101D4000CA95EAF70E947918CF910C94B9188BE5DF
:101D50008C0F833078F4C53A29F0C63A31F083E825
:101D600090E005C081E890E002C082E890E0CF9169
:101D70000C94200D88E58C0F853108F06FC0C83AAF
:101D800061F1C93A69F1CA3A71F1CB3A79F1CC3AC9
:101D900081F1CB3B89F1CC3B91F1CD3A99F1C03B3C
:101DA000A1F1CE3AA9F1CF3AB1F1C13BB9F1C23BB1
:101DB000C1F1C33BC9F1C43BD1F1C53BD9F1C63B2D
:101DC000E1F1C73BE9F1C83BF1F1C93BF9F1CA3B8D
:101DD00009F43FC080E090E03EC082EE90E03BC05E
:101DE00089EE90E038C08AEE90E035C085EB90E057
:101DF00032C086EB90E02FC083EB90E02CC084EBE8
:101E000090E029C087EB90E026C08CEC90E023C0E6
:101E10008DEC90E020C083E891E01DC08AE891E05D
:101E20001AC082E991E017C084E991E014C081E210
:101E300092E011C083E292E00EC084E292E00BC017
:101E400085E292E008C086E292E005C087E292E077
:101E500002C08AE292E0CF910C94360DC03F30F080
:101E60008C2F0E94451CCF910C94321DCF91089568
:101E7000882389F19CEF980F913A40F4682F809164
:101E80000001909101010E94811A0DC090E2980F0B
:101E9000983058F4877091E001C0990F8A95EAF75D
:101EA000892F0E947F180C94B9189BE5980F9330E6
:101EB00020F480E090E00C94200D98E5980F953187
:101EC00020F480E090E00C94360D803F20F00E94DA
:101ED000AD1C0C94321D0895882321F00E947918BE
:101EE0000C94B9180895882321F00E947F180C944F
:101EF000B91808958F929F92AF92BF92DF92EF929E
:101F0000FF920F931F93CF93DF937C01D62FC72FA0
:101F1000FC01058102950F70128111110E94961823
:101F20000E946F18882379F0112369F080E28D0FE9
:101F3000883048F082E00E9454180E946F1891E0A7
:101F4000D82ED92601C0D12CBC2EB2948FE0B82255
:101F50008B2D90E0FC01E859FF4F0C94792A8C2FCF
:101F6000807FCF70882311F0C295C07F112399F034
:101F7000CC2309F4C3C180E28D0F883010F0D11159
:101F800004C08C2F0E94791803C08C2F0E948918DE
:101F90000E94B918B3C18D2F0E94380FCC2309F4C9
:101FA000D2C180E28D0F883010F0D11104C08C2F87
:101FB0000E947F1803C08C2F0E948F180E94B918AE
:101FC000C2C18C2F807FCF70803211F0C295C07F4C
:101FD000DD2319F0D130C9F022C0112371F00023A4
:101FE00041F0013031F40E9400198C2B0E94A91895
:101FF000AAC10E9400198C2B3AC1002319F00130AC
:1020000009F4A1C10E94B21818C0112321F00630B2
:1020100008F099C10EC0053008F095C10EC011231B
:1020200051F0002331F0F701858180FF67C18F7087
:1020300085838C2F1CC1011172C18C2F1EC18C2F66
:1020400086958695837019F0813061F07CC11123EB
:1020500021F08D2F9C2F937002C080E090E00E94B1
:10206000200D7EC1112321F08D2F9C2F937002C073
:1020700080E090E00E94360D73C11123F9F0D53F46
:1020800051F0D63F71F0D43FA9F480912402909191
:10209000250281600BC0809124029091250282600C
:1020A00005C08091240290912502846090932502BE
:1020B000809324028D2F0E94451C1EC0D53F51F0F5
:1020C000D63F71F0D43FA9F480912402909125026B
:1020D0008E7F0BC080912402909125028D7F05C0D8
:1020E00080912402909125028B7F9093250280930A
:1020F00024028D2F0E94AD1C0E94321D31C18C2FF5
:10210000837009F04CC0111127C12D2F22952695FF
:102110002770220F220F6D2F6F70862F90E0A0E0A6
:10212000B0E04C015D01022E04C0880C991CAA1C71
:10213000BB1C0A94D2F7D4FF12C08FE090E0A0E05D
:10214000B0E004C0880F991FAA1FBB1F2A95D2F7C1
:10215000BC01CD01609570958095909503C060E0BD
:1021600070E0CB01C695C695C370C23051F080F4C3
:10217000682979298A299B29C13071F00E943E166D
:10218000EBC0682979298A299B290E945016E4C04E
:102190000E943E16C501B4010E942C16DDC0112319
:1021A00019F08C2F817001C08695882309F4D4C062
:1021B0002D2F229526952770220F220F6D2F6F70DD
:1021C000862F90E0A0E0B0E04C015D01022E04C03B
:1021D000880C991CAA1CBB1C0A94D2F7D4FF12C00D
:1021E0008FE090E0A0E0B0E004C0880F991FAA1F24
:1021F000BB1F2A95D2F7BC01CD01609570958095E3
:10220000909503C060E070E0CB01C695C695C370A1
:10221000C23051F080F4682979298A299B29C1307C
:1022200071F00E94031798C0682979298A299B298F
:102230000E94151791C00E940317C501B4010E94A6
:10224000F1168AC08D2F90E0FC01E05EF109E531C6
:10225000F10508F04FC0E858FF4F0C94792ADF7061
:102260008C2F8F71112331F00E948A168D2F0E94BE
:102270006C0F69C00E94AB168D2F0E94730F63C054
:10228000112341F0053008F05EC08C2F8F710E9441
:10229000D01659C0063008F056C0F7CF112339F0D8
:1022A0008C2F8F710E948A164EC01123C9F38C2F78
:1022B0008F710E94AB1647C0112329F08C2F8F71AC
:1022C0000E94751640C00E9470163DC0112349F04F
:1022D000CF718C2F0E948A1663E08C2F0E944418C5
:1022E00032C081E00E945418023068F182E00E94FE
:1022F000541829C0112331F0002391F28D2F0E9430
:10230000820E21C0002399F2D93349F4FFEF27EE62
:1023100083E0F15020408040E1F700C000008D2FA5
:102320000E94380F10C04C2F4F706D2FC7010E94B4
:10233000590A0E949B1514C04C2F4F706D2FC70176
:102340000E945C0A0DC098E0B91631F0B91640F051
:1023500086EF8B0D823020F40E94C00C0E94D408BE
:10236000DD20E1F00E94151880FD18C0F7011282EF
:102370000E940F180E948A16C7010E94DA110E945B
:102380000F18DF91CF911F910F91FF90EF90DF9089
:10239000BF90AF909F908F900C94AB16DF91CF9130
:1023A0001F910F91FF90EF90DF90BF90AF909F90A3
:1023B0008F9008950F931F93CF93DF93EC01988133
:1023C00089812B813C81232B31F08F3F31F481E0D7
:1023D0009F3F19F403C081E001C080E080FD13C07D
:1023E000CE010E94E608882371F0688179818A8194
:1023F0000E94C9178C010E9427170E941816B80165
:10240000CE010E947A0FDF91CF911F910F91089515
:102410000E9496180E94A6188091000190910101D7
:102420000E948C1A0E94B9180E94561E0E94321DEA
:1024300080E090E00E94200D80E090E00C94360D4A
:102440000E9486180C9408120E94BE17E92FE2958C
:10245000EF704E2F50E0FA013297EE30F105B0F4F4
:10246000E357FF4F0C94792A803F91F018F4803E97
:1024700068F40EC0843F51F40BC0803E48F0813FA9
:1024800029F406C093FB882780F9089580E0089519
:1024900081E00895CF93DF9300D000D01F92CDB795
:1024A000DEB70F900F900F900F900F90DF91CF91AC
:1024B0000895CF93DF9300D000D000D0CDB7DEB722
:1024C00026960FB6F894DEBF0FBECDBFDF91CF9139
:1024D00008951F93CF93DF93C0915B0116E0809125
:1024E0005C01C81799F0D0E01C9FF0011D9FF00D12
:1024F0001124E35AFE4F40815181628173818481AE
:1025000095810E9459122196C770E9CFDF91CF9132
:102510001F91089540918D0150918E0160918F011E
:102520007091900180919101909192010C945912B7
:10253000CF938091920182958F7009F05FC0809156
:102540008F01882309F45AC080915B01B0915C012E
:1025500070918D01A0918E01409190015091910157
:1025600091E07F3F09F090E0692FC6E08B1709F4F6
:1025700045C04115510521F0AF3F21F020E003C0D7
:1025800021E001C0262F90E020FD35C0C89FF0015A
:10259000C99FF00D1124E35AFE4F21812A132BC04D
:1025A0002081271328C02281211125C02381348155
:1025B0002417350710F421503109241B350B283C12
:1025C0003105C8F4209192012F702061209392016F
:1025D00026E0289FF001299FF00D1124EE59FE4FAF
:1025E00080818F70806180838DE891E00E94DA1194
:1025F000CF910C94691201968770B8CFCF9108954E
:10260000AF92BF92CF92DF92EF92FF920F931F9300
:10261000CF93DF93CDB7DEB761970FB6F894DEBFE7
:102620000FBECDBF8C0185E0F801DE011D96019043
:102630000D928A95E1F7D8014C9111965C91119712
:102640001296EC9030918D0160918E0180919001F5
:1026500090919101009731F06F3F31F421E03F3FBD
:1026600019F403C021E001C020E0B22FB170BB2EED
:1026700020FD60C1F801C380D480A0908F01AA2002
:1026800009F4EEC020919201C816D90628F0D601AF
:10269000A81BB90BCD0104C0809590958C0D9D1D94
:1026A000FF24F394883C910580F0F12C207F09F001
:1026B0009CC07C2DD98AC88A6E2D89890E944A12B5
:1026C0008DE891E00E94DA112DC1822F807F09F000
:1026D00054C0561314C0431312C0FE2CE1100FC097
:1026E0002F702061209392010E948A128DE891E060
:1026F0000E94DA1180919201F80185835CC1CD2896
:1027000031F05F3F31F481E04F3F19F403C081E0C5
:1027100001C080E080FD03C081E08E2502C080E022
:1027200090E0F82FF170FF2E80FF1CC080915B01BC
:1027300020915C0136E0821709F41AC190E0389FBD
:10274000F001399FF00D1124E35AFE4F61815613B9
:1027500006C06081461303C06281E61203C0019681
:102760008770E9CFFE2CEE2009F425C180919201FB
:10277000816080939201F12C1EC1561309C043134E
:1027800007C0E11005C080919201F8018583A4C0C3
:102790004D875E878D859E850E942412882379F15E
:1027A000EE2069F120919201822F82958F7090E046
:1027B000029774F080918D0190918E0198878F839C
:1027C0001986DB86CA862C87CE0107960E94DA110D
:1027D00086E0F801ADE8B1E001900D928A95E1F74D
:1027E0000E9498120E948A120DC0561771F04D87F0
:1027F0005E878D859E850E94241281111AC0C801B2
:102800000E94DA11FF24F394D6C04313F0CFE110F5
:10281000EECF80919201F8018583C8010E94DA1100
:1028200086E0EDE8F1E0DF011D928A95E9F7FA2CE8
:10283000C2C0EE2021F320919201822F82958F70E9
:1028400090E002972CF280918D0190918E019A83F5
:1028500089831B82DD82CC822E83CE010196B6CF86
:10286000C816D90628F0F601E81BF90BCF0104C001
:10287000809590958C0D9D1D883C910548F0F12C1C
:102880007C2DD98AC88A6E2D89890E944A124AC035
:10289000FE2CEE2009F4B3CF561333C0431331C0DE
:1028A0002091920120FD24C0822F82958F70482FA5
:1028B00050E041155105E1F0D80115962C9315977C
:1028C0004F30510549F08F5F982F9295907F822F5E
:1028D0008F70892B15968C93C8010E94DA1186E0BF
:1028E000F801ADE8B1E001900D928A95E1F73DC0A5
:1028F00086E0F801ADE8B1E001900D928A95E1F72C
:102900005AC04D875E878D859E850E942412811155
:102910005FCF80919201816080939201C8010E94F3
:10292000DA1149C0EDE8F1E086E0DF011D928A95F9
:10293000E9F71BC0EE2009F462CF4D875E878D85D5
:102940009E850E942412F82E882309F458CF86E031
:10295000F801ADE8B1E001900D928A95E1F78DE8BC
:1029600091E00E947C0E0E9498120E948A1223C05D
:102970004D875E878D859E850E94BE17292F2295E3
:102980002F70223028F49F7039F0811105C00BC0E0
:10299000243028F49F7049F4805E883020F0C8010C
:1029A0000E94DA11BF2CFB2C06C0D80115969C9111
:1029B000907F91F7F8CF8F2D61960FB6F894DEBF18
:1029C0000FBECDBFDF91CF911F910F91FF90EF9080
:1029D000DF90CF90BF90AF9008951F93CF93DF9378
:1029E000CDB7DEB72C970FB6F894DEBF0FBECDBFC4
:1029F0004F83588769877A878B879C87CE01079694
:102A00000E9400138823D1F09F8188852A853B8509
:102A1000232B31F08F3F31F481E09F3F19F403C045
:102A200081E001C080E080FD47C04F815885698505
:102A30007A858B859C850E9459123EC086E0FE01F6
:102A40003796DE01119601900D928A95E1F7FF818C
:102A5000E8856A857B856115710531F0EF3F31F4BA
:102A600081E0FF3F19F403C081E001C080E080FDF8
:102A700023C020915C0130E0C9010196877099273D
:102A800040915B0150E084179507F1F1F983EA83E7
:102A90007D836C8396E0929FD001939FB00D1124AB
:102AA000A35ABE4FFE01319601900D929A95E1F71F
:102AB00080935C010E94691216E080915B01909105
:102AC0005C01891771F1189FC0011124835A9E4F30
:102AD0000E940013882329F1E0915B011E9FF00101
:102AE0001124E35AFE4F40815181628173818481B8
:102AF00095810E94591280915B0190E00196877048
:102B0000992780935B01D9CF0E94201210925C011B
:102B100010925B01EDE8F1E086E0DF011D928A95FD
:102B2000E9F72C960FB6F894DEBF0FBECDBFDF914C
:102B3000CF911F910895EF92FF920F931F93CF9320
:102B4000DF938C01892B09F46CC0F12CEE24E39403
:102B5000E8012196F8018491843740F4843008F02C
:102B600051C0813081F0823019F15BC0853709F4A2
:102B700044C0A8F19CE7980F903708F052C08F77B7
:102B80000E94380F41C00E5F1F4FFE01849190E2FA
:102B9000980F983050F48770FE2D01C0FF0F8A9572
:102BA000EAF78F2F0E94991814C00E94820E2DC040
:102BB0000E5F1F4FFE01849190E2980F983060F4F1
:102BC0008770FE2D01C0FF0F8A95EAF78F2F0E94B4
:102BD0009F180E94B91819C00E94380F16C00E5FC6
:102BE0001F4FFE01C491CC2381F08FE99FE0019734
:102BF000F1F700C00000C150F6CF0E5F1F4FFE017D
:102C0000F49003C00E94820E8E018F2D882309F458
:102C10009FCFEFE9FFE03197F1F700C0000081504E
:102C2000F5CFDF91CF911F910F91FF90EF90089515
:102C3000089508950C9419160C941A160E941C16E7
:102C40006093C4017093C5018093C6019093C7013E
:102C50000C9408120C941E160F931F930091C4013C
:102C60001091C5012091C6013091C701602B712BD5
:102C7000822B932B1F910F910C941E160F931F9371
:102C80000091C4011091C5012091C6013091C70186
:102C900060237123822393231F910F910C941E169E
:102CA0000F931F930091C4011091C5012091C6019B
:102CB0003091C70160277127822793271F910F91B9
:102CC0000C941E160C9419160E9462166093C00193
:102CD0007093C1018093C2019093C3010C940812B8
:102CE00060E070E0CB010C9464160F931F9341E0F9
:102CF00050E060E070E08A019B0104C0000F111FEA
:102D0000221F331F8A95D2F7C901B8011F910F9175
:102D10000C9464160F931F9341E050E060E070E064
:102D200004C0440F551F661F771F8A95D2F7809104
:102D3000C0019091C101A091C201B091C3018A016B
:102D40009B01082B192B2A2B3B2BC901B8011F9182
:102D50000F910C9464160F931F9341E050E060E0D4
:102D600070E004C0440F551F661F771F8A95D2F785
:102D700040955095609570958091C0019091C101EA
:102D8000A091C201B091C3018A019B0108231923BC
:102D90002A233B23C901B8011F910F910C9464169B
:102DA0000F931F9341E050E060E070E004C0440FD7
:102DB000551F661F771F8A95D2F78091C0019091A9
:102DC000C101A091C201B091C3018A019B010827F2
:102DD00019272A273B27C901B8011F910F910C948D
:102DE00064160F931F930091C0011091C1012091AF
:102DF000C2013091C301602B712B822B932B1F9149
:102E00000F910C9464160F931F930091C0011091C1
:102E1000C1012091C2013091C3016023712382233B
:102E200093231F910F910C9464160F931F9300919D
:102E3000C0011091C1012091C2013091C3016027EE
:102E40007127822793271F910F910C946416089580
:102E50002EE0929F800D1124E82FE695E695E695E9
:102E6000877051E001C0550F8A95EAF785E0E89F29
:102E7000F0011124ED56FE4F20E030E070E040817B
:102E8000CB01022E02C0969587950A94E2F78170D5
:102E9000819584278523842781932F5F3F4F253099
:102EA000310569F708952EE0929F800D1124682F57
:102EB000669566956695982F977085E0689FB00136
:102EC000112440E050E080E0FB01E40FF51FED56D7
:102ED000FE4F208130E0092E02C0369527950A94D6
:102EE000E2F721703327042E01C0220F0A94EAF77B
:102EF000822B4F5F5F4F4530510531F70895CF92D8
:102F0000DF92EF92FF920F931F93CF93DF938C0189
:102F1000C090C001D090C101E090C201F090C30107
:102F20008091C4019091C501A091C601B091C701E3
:102F3000C82AD92AEA2AFB2ACFE1D0E0D701C60164
:102F40000C2E04C0B695A795979587950A94D2F74D
:102F500080FD04C0219790F780E007C0B8018C2F56
:102F60000E94780A0197B1F38C2FDF91CF911F91C6
:102F70000F91FF90EF90DF90CF900895CF93DF9364
:102F8000EC010E947F17BE010E94780ADF91CF9169
:102F900008951F93CF93DF93EB0190915A019923EA
:102FA00021F0CB010E94BE1713C0882349F0CB014A
:102FB0000E947F17182F682FCE010E94281704C087
:102FC000CB010E945317182FBE01812F0E94780A4F
:102FD000DF91CF911F9108950E941E1B2091CB017C
:102FE0003091CC018217930750F00E941E1B209154
:102FF000CB013091CC01821B930B9C010AC00E9433
:103000001E1B2091CB013091CC0120953095280FCB
:10301000391F81E0243F314008F480E00895809119
:10302000CA0185958595859508958091CA01877017
:1030300008950E941E1B2091C8013091C90182177A
:103040009307A8F00E941E1B2091C8013091C9016E
:10305000821B930B843F914010F480E013C0809159
:10306000CA0182FB882780F991E089270BC00E9462
:103070001E1B2091C8013091C90120953095820F07
:10308000931FE8CF8170089598E0899F90011124E3
:10309000262B2093CA010E948A160E941E1B909321
:1030A000C9018093C80108952091CA0180958223A7
:1030B0008093CA01982F977089F430E0482F082E2A
:1030C000000C550B2417350749F085958595859596
:1030D0000E94AB161092C9011092C80108959091F8
:1030E000CA01977081E009F480E008958091F001B1
:1030F00008959091F001892B8093F00108958095B7
:103100009091F00189238093F00108951092F001CD
:1031100008959091EF01892B8093EF010895809598
:103120009091EF0189238093EF0108951092EF01B0
:1031300008959091EE01892B8093EE01089580957A
:103140009091EE0189238093EE0108951092EE0193
:1031500008958093CD010E941E1B9093CC01809313
:10316000CB0108951092CD011092CC011092CB01A9
:103170000895E0910001F09101018091F0018083B8
:10318000E0910001F091010190818091EF01892B84
:103190008083E0910001F091010190818091EE0126
:1031A000892B80838091CD01882321F10E94EC1727
:1031B000882371F08091F10180FF08C086EE93E0D2
:1031C0009F938F930E94CD070F900F900E94B2188B
:1031D000E0910001F091010190818091CD01892B56
:1031E000808380910001909101010E94F719811163
:1031F0000E94B21880910001909101010C94CC0CB6
:103200008091CD0108959093370180933601089500
:10321000CF92DF92EF92FF926C01EE24FF24C11453
:10322000D104E104F10421F0C701B60120E101C09D
:1032300020E0C72ED82EE92EFF24C114D104E104CA
:10324000F10419F0285FC701B6016B017C0154E05D
:10325000F694E794D794C7945A95D1F7C114D10442
:10326000E104F10419F02C5FC701B6016B017C0188
:1032700042E0F694E794D794C7944A95D1F7C114E5
:10328000D104E104F10419F02E5FC701B601DC019D
:10329000CB01B695A79597958795892B8A2B8B2B74
:1032A00009F02F5F822FFF90EF90DF90CF9008956D
:1032B0008295982F937344E0949F900111248C7C05
:1032C00086958695282B822F8575880F2A7A2695D4
:1032D000822B0895CF93DF93D92F0E945819C82FBE
:1032E0008D2F0E9458192C2F30E0322F2227A90150
:1032F000482BCA01DF91CF91089580E090E00E94B1
:103300009B2A21E08D3E9E4F09F020E0822F0895F8
:1033100080E090E00E949B2A21E0019609F020E0E5
:10332000822F089582E090E00C94932A83E090E04D
:103330000C94932A84E090E00C94932A682F84E004
:1033400090E00C94A12AAB01BC018FE090E00C94BA
:10335000B32AAB01BC0183E190E00C94B32A60E096
:1033600070E0CB010C94A91960E070E0CB010E94E1
:10337000A3190C94AF196DEE7EEF80E090E00E94EF
:10338000BF2A60E082E090E00E94A12A60E083E032
:1033900090E00E94A12A1092C4011092C5011092DF
:1033A000C6011092C70160E084E090E00E94A12A6B
:1033B00060E085E090E00E94A12A60E086E090E075
:1033C0000E94A12A6FEF87E090E00E94A12A40E0CE
:1033D00050E0BA0188E090E00E94B32A60E08DE0FE
:1033E00090E00E94A12A0C94B4190C94BB19FC0122
:1033F00031969C01205E3F4F80E0919191118F5F4B
:10340000E217F307D1F708959C01FC0132969FEF74
:1034100080E04191461789F09F3F19F4411101C0A6
:10342000982F8F5F8E31A9F79F3F39F0F901E90F8F
:10343000F11D97FDFA956283089508959C01225E1F
:103440003F4FFC014281461301C012820196821750
:103450009307B9F70895262F2695269526952F319F
:1034600071F0FC01E20FF11D677021E030E001C056
:10347000220F6A95EAF78181282B21830895809194
:10348000F10180FF0CC01F926F9386E194E09F933F
:103490008F930E94CD070F900F900F900F9008957B
:1034A000262F2695269526952F3179F0FC01E20FDF
:1034B000F11D677021E030E001C0220F6A95EAF744
:1034C000209581812823218308958091F10180FF37
:1034D0000CC01F926F9388EF93E09F938F930E948D
:1034E000CD070F900F900F900F900895209112012B
:1034F000222329F020912A0227FD0C942B1A0C94E8
:10350000041A20911201222329F020912A0227FD7A
:103510000C94501A0C941E1AFC013196809611924C
:10352000E817F907E1F7089508950C94941A0C949C
:10353000941ACF930E94971A0E94DB070E94951A53
:10354000C0E08C2F0E943408892B29F4CF5FC5304E
:10355000C1F780E001C081E0CF9108950C94941AE6
:103560000C94AE1A0E94B01A80913002843049F156
:103570001092F20120E488E190E00FB6F894A8954B
:10358000809360000FBE2093600080E00E94D4080A
:103590000E94B01A83B7817F846083BF83B7816044
:1035A00083BF7894889583B78E7F83BF0FB6F894D6
:1035B000A8958091600088618093600010926000FF
:1035C0000FBE08950C94941A0E9420120E94C00C01
:1035D0000E94D4080C94E21A1F920F920FB60F9219
:1035E00011248F939F93AF93BF938091F201811128
:1035F00013C08091260290912702A0912802B091D9
:1036000029024196A11DB11D8093260290932702A5
:10361000A0932802B0932902BF91AF919F918F91FF
:103620000F900FBE0F901F90189582E084BD93E01D
:1036300095BD9AEF97BD80936E0008952FB7F894CB
:103640008091260290912702A0912802B091290230
:103650002FBF08952FB7F89460912602709127022A
:1036600080912802909129022FBF0895CF92DF9276
:10367000EF92FF920F931F932FB7F8944091260279
:103680005091270260912802709129022FBF6A0190
:103690007B01EE24FF248C0120E030E0C016D1062F
:1036A000E206F30610F4415051099A01281B390B28
:1036B000C9011F910F91FF90EF90DF90CF90089577
:1036C00078941F920F920FB60F9211248F939F93AD
:1036D000AF93BF938091260290912702A091280278
:1036E000B09129020196A11DB11D809326029093ED
:1036F0002702A0932802B0932902BF91AF919F9116
:103700008F910F900FBE0F901F90189581E08093BE
:10371000E00080E28093D8001092C9008FE19EE41F
:103720000197F1F700C0000087E090EBDC01809387
:10373000390290933A02A0933B02B0933C029CE082
:1037400088E10FB6F894A895809360000FBE90931F
:103750006000FFCF0E947D19811102C00E94F519FF
:103760000E9492198093F1010E949A1990E090931F
:103770002B0280932A020E949619682F70E080E045
:1037800090E00C942A168091F50180FF0BC06091A7
:10379000050185E0689FB0011124759567957595C1
:1037A00067952BC081FF09C06091050185E0689F86
:1037B000B00111247595679520C082FF07C0609104
:1037C000050185E0689FB001112417C09091F601B2
:1037D0009923D1F060910401961788F72091050193
:1037E00085E0289F90011124929FA001939F500D86
:1037F000112470E0CA010E94652A6038710540F406
:103800006115710519F406C065E070E0862F089512
:103810008FE7089581E008958091F50180FF08C049
:103820006091030170E0759567957595679521C066
:1038300081FF06C06091030170E07595679519C01E
:1038400082FF04C06091030170E010C09091F60106
:10385000992399F0609102019617A0F780910301D6
:10386000899FC001112470E00E94652A60387105AB
:1038700040F46115710519F406C061E070E0862F0F
:1038800008958FE7089581E00895803F21F40E9414
:10389000C31B819504C0813F29F40E94C31B809300
:1038A000F9010895823F21F40E94C31B819504C051
:1038B000833F29F40E94C31B8093F8010895893F38
:1038C00019F40E940C1C05C08A3F31F40E940C1CA4
:1038D00081958093FA0108958B3F21F40E940C1C7E
:1038E000819504C08C3F29F40E940C1C8093FB013D
:1038F0000895843F21F48091F701816017C0853FCE
:1039000021F48091F701826011C0863F21F48091FB
:10391000F70184600BC0873F21F48091F701886034
:1039200005C0883F31F48091F70180618093F701F1
:1039300008958D3F21F48091F50181600BC08E3F89
:1039400021F48091F501826005C08F3F29F48091B8
:10395000F50184608093F5010895803F39F48091EA
:10396000F90187FF6CC01092F90169C0813F29F409
:103970008091F9011816BCF362C09091F801823F62
:1039800029F497FF5CC01092F80159C0833F19F4E5
:103990001916CCF354C0893F41F48091FA011816EE
:1039A0000CF04DC01092FA014AC08A3F29F4809170
:1039B000FA0187FF44C0F6CF8B3F39F48091FB01B9
:1039C00087FF3DC01092FB013AC08C3F29F48091E3
:1039D000FB011816BCF333C0843F21F48091F7013A
:1039E0008E7F17C0853F21F48091F7018D7F11C034
:1039F000863F21F48091F7018B7F0BC0873F21F434
:103A00008091F701877F05C0883F31F48091F701ED
:103A10008F7E8093F70113C08D3F21F48091F501D3
:103A20008E7F0BC08E3F21F48091F5018D7F05C004
:103A30008F3F29F48091F5018B7F8093F501809170
:103A4000F80181110EC08091F90181110AC08091A5
:103A5000FA01811106C08091FB01811102C0109210
:103A6000F60108958091F10183FF7EC08BE594E01B
:103A70000E9434078091F7011F928F9386E594E0AE
:103A80009F938F930E94CD0784E594E00E943407B2
:103A90008091F801282F082E000C330B3F938F9351
:103AA00081E594E09F938F930E94CD078FE494E08B
:103AB0000E9434078091F901282F082E000C330B47
:103AC0003F938F938CE494E09F938F930E94CD0754
:103AD0008AE494E00E9434078091FA01282F082E8E
:103AE000000C330B3F938F9387E494E09F938F9365
:103AF0000E94CD0785E494E00E9434078091FB0189
:103B0000282F082E000C330B3F938F9382E494E010
:103B10009F938F930E94CD078FE394E00E94340718
:103B20008091F6011F928F938CE394E09F938F9383
:103B30000E94CD078AE394E00E9434078091F5014A
:103B40001F928F9387E394E09F938F930E94CD07FA
:103B500084E394E00E9434078DB79EB74C960FB66D
:103B6000F8949EBF0FBE8DBF87EF91E00E94150DA8
:103B70000E941E1B9093F4018093F30108951F93FC
:103B8000CF93DF938091F3019091F4010E94361B53
:103B9000AC019091F601992321F02091060130E0CB
:103BA00006C0209107018AE0289F90011124421746
:103BB000530708F477C08091F801C091F901D091C2
:103BC000FA011091FB01811107C0C11167C0D11129
:103BD00065C0111163C066C09F3F19F09F5F90934D
:103BE000F601181624F40E94C31B8093F8018091FB
:103BF000F80187FF05C00E94C31B81958093F801DF
:103C00001C1624F40E94C31B8093F9018091F901D2
:103C100087FF05C00E94C31B81958093F9013091F5
:103C2000F8013323C1F02091F9012223A1F045EBE3
:103C30003403C0011124892F911101C081E08093C8
:103C4000F80135EB2303C0011124892F911101C024
:103C500081E08093F9011D1624F40E940C1C8093CE
:103C6000FA018091FA0187FF05C00E940C1C819522
:103C70008093FA01111624F40E940C1C8093FB011E
:103C80008091FB0187FF05C00E940C1C81958093E9
:103C9000FB01DF91CF911F910C94321D9F3F09F0E2
:103CA0009DCFAECFDF91CF911F910895E7EFF1E067
:103CB00085E0DF011D928A95E9F71092F6011092D6
:103CC000F50108958EE796E00E9434071F9281E087
:103CD0008F931F9285E08F9380E396E09F938F935D
:103CE0000E94CD070F900F900F900F900F900F90A4
:103CF00008958330E9F128F4813061F0823009F1D0
:103D00000895853009F462C008F449C0863009F48A
:103D100074C0089580910701262F30E0280F311DCF
:103D20002F3F310524F4680F6093070103C08FEF24
:103D300080930701809107011F928F9389E695E098
:103D400072C080910601262F30E0280F311D2F3FD1
:103D5000310524F4680F6093060103C08FEF809350
:103D60000601809106011F928F9387E595E05BC065
:103D700080910501262F30E0280F311D2F3F31059E
:103D800024F4680F6093050103C08FEF8093050151
:103D9000809105011F928F9384E495E044C0809147
:103DA0000401262F30E0280F311D2F3F310524F468
:103DB000680F6093040103C08FEF8093040180912A
:103DC00004011F928F938FE295E02DC08091030133
:103DD000262F30E0280F311D2F3F310524F4680FC6
:103DE0006093030103C08FEF80930301809103016F
:103DF0001F928F9386E195E016C080910201262FD5
:103E000030E0280F311D2F3F310524F4680F6093F7
:103E1000020103C08FEF80930201809102011F9283
:103E20008F938BEF94E09F938F930E94CD070F9019
:103E30000F900F900F900895833081F128F4813016
:103E400059F08230D1F00895853009F449C0B8F1B5
:103E5000863009F456C0089580910701681720F450
:103E6000861B8093070102C0109207018091070111
:103E70001F928F938CEE94E054C0809106016817D6
:103E800020F4861B8093060102C0109206018091E7
:103E900006011F928F938AED94E043C08091050143
:103EA000681720F4861B8093050102C0109205015B
:103EB000809105011F928F9387EC94E032C080912E
:103EC0000401681720F4861B8093040102C010923D
:103ED0000401809104011F928F9382EB94E021C032
:103EE00080910301681720F4861B8093030102C0B0
:103EF00010920301809103011F928F9389E994E04E
:103F000010C080910201681720F4861B8093020183
:103F100002C010920201809102011F928F938EE7DE
:103F200094E09F938F930E94CD070F900F900F9076
:103F30000F900895CF93C82F1F928F9383E897E037
:103F40009F938F930E94CD0781E090E0A0E0B0E0C6
:103F5000BC01CD0104C0660F771F881F991FCA9549
:103F6000D2F70E942A160F900F900F900F90CF91CA
:103F70000C942012CF938732A8F58E3108F032C10D
:103F8000803109F49FC0F8F4873009F465C0A8F4C3
:103F9000863009F02DC18091F101817F8E7F809361
:103FA000F10189E299E00E9434078AE89BE00E94CF
:103FB000340781E08093FD014DC08B30F1F18E30EC
:103FC00009F46CC015C1863109F4B0C020F4813108
:103FD00009F4F0C00DC1893109F491C08B3109F4A5
:103FE00049C006C1883349F150F4893209F4FCC054
:103FF000853309F4F9C0873209F4F6C0F9C0833477
:1040000009F4F2C028F48A3308F4F2C08953EDC0F1
:10401000883409F0EDC00E9420128EE69BE00E94D9
:1040200034072FEF83ED90E3215080409040E1F77B
:1040300000C000000E94861B0DC080E599E05CC0B6
:1040400085E59BE00E9434078091F101897F877F9D
:104050008093F101C1E0D1C08091F101C82FC095DA
:10406000C170C0FB80F98093F101CC2349F382E653
:104070009BE0B2C09091F10191FBCC27C0F981E0A7
:10408000C827892FC0FB81F98093F101CC2319F057
:1040900088E49BE027C08AE39BE02EC09091F10169
:1040A00092FBCC27C0F981E0C827892FC0FB82F999
:1040B0008093F101CC2319F08BE29BE013C08BE1DC
:1040C0009BE01AC09091F10193FBCC27C0F981E0ED
:1040D000C827892FC0FB83F98093F101CC2351F0CD
:1040E0008FE09BE00E9434078091F1018160809312
:1040F000F10183C082E09BE00E943407ABCF8AE1EC
:1041000099E00E9434078EEE98E00E94340789EA15
:1041100098E00E9434078FE698E00E94340784E319
:1041200098E00E94340789E098E0E6CF8BEF97E0B3
:104130000E9434070E94C00C1F928F9381EE97E07B
:104140009F938F930E94CD07809112011F928F93AE
:104150008AEC97E09F938F930E94CD078091220273
:104160001F928F9387EB97E09F938F930E94CD07C9
:1041700080912A0287FB882780F91F928F938FE90D
:1041800097E09F938F930E94CD070E942A1B9F93D5
:104190008F937F936F9388E897E09F938F930E940C
:1041A000CD078DB79EB746960FB6F8949EBF0FBE4B
:1041B0008DBF50CF0E94201290912A0297FBCC27EE
:1041C000C0F981E0C827892FC0FB87F980932A02B4
:1041D000CC2329F088EF9AE00E9434070EC08DEEC0
:1041E0009AE08ACF8D5101C080E00E949A1F32CFA1
:1041F0008BEE9AE00E943407C0E08C2FCF91089597
:1042000080E008950C9400218E518A3030F4E82F1C
:10421000F0E0ED5EFE4F8081089580E00895CF9339
:10422000C82F8091FD01813071F020F0823009F4B7
:104230004BC03FC1E0910001F091010180818232C9
:1042400009F039C107C0E0910001F09101018081BE
:10425000823261F48C2F0E940221811104C08C2FC4
:104260000E94BA1F2FC081E090E02CC08C2F0E94CA
:104270000021811126C0C431E1F070F4CB3081F00F
:10428000C031D1F40E94621E8BE797E00E94340790
:1042900082E08093FD0115C0C93259F0C83361F442
:1042A00089E299E00E9434078FE797E00E94340783
:1042B00008C01092FD0101C189E797E00E94340710
:1042C000FCC081E08170FBC0C43228F5CE3108F01B
:1042D000C1C0CB30A1F1D0F4C73009F0D0C08EE11D
:1042E0008093070182E3809306018AE080930501B1
:1042F00084E18093040188E08093030188E2809345
:1043000002018FE196E00E943407BCC0C33149F13D
:10431000C431C1F0B4C0CB3409F4A6C028F4C9320A
:1043200089F0C83361F0ABC0C13509F49BC0C23518
:1043300009F496C0CE3409F0A2C06AE09BC00E9486
:10434000621EA0C08091FC01882319F01092FC012C
:1043500099C08CE296E00E94340781E08093FD01D1
:10436000AEC086E096E00E94340784EF95E00E949C
:104370003407809107011F928F9381EF95E09F93FF
:104380008F930E94CD078FEE95E00E9434078DED4C
:1043900095E00E943407809106011F928F938AED69
:1043A00095E09F938F930E94CD0788ED95E00E9442
:1043B000340789EC95E00E943407809105011F9233
:1043C0008F9386EC95E09F938F930E94CD0784ECAA
:1043D00095E00E94340783EB95E00E9434078091BA
:1043E00004011F928F9380EB95E09F938F930E941F
:1043F000CD078EEA95E00E94340789E995E00E9496
:104400003407809103011F928F9386E995E09F9373
:104410008F930E94CD0784E995E00E9434078DE7D1
:1044200095E00E943407809102011F928F938AE7E2
:1044300095E09F938F930E94CD0788E795E00E94B7
:1044400034078DB79EB748960FB6F8949EBF0FBE3F
:104450008DBF18C08C2F0E9404218093FC0112C0D4
:1044600061E003C061E006C06AE08091FC010E9447
:10447000791E08C08091FC010E941C1F03C08DE1C1
:1044800096E013C08091FC01882369F01F928F93FE
:1044900087E196E09F938F930E94CD070F900F9036
:1044A0000F900F9004C084E196E00E94340781E0F1
:1044B00006C01092FD0180E002C080E003CFCF91E2
:1044C00008958091210208959FB7F89410920002F8
:1044D0009FBF90913002943009F057C09091E9004D
:1044E0009F703091EC00232F217030FD20E8922B3B
:1044F00024E02093E9002091EB0020FF43C02091AD
:10450000EE0027FF3FC02091FE01222321F02091E1
:10451000E80025FF37C01092FE0126E03091E80048
:1045200035FD15C030913002343061F53091EB002B
:1045300035FD28C0215021F481E08093FE0122C086
:10454000EFE9FFE03197F1F700C00000E7CF80937B
:10455000F1008091E80085FD0AC08091E80080FFAD
:10456000FCCF8091E8008E778093E80006C08FB77B
:10457000F89421E0209300028FBF9F709093E90090
:1045800080E008959F709093E9008FEF08950F9356
:104590001F93CF93DF9300D01F92CDB7DEB78C016E
:1045A0000E949F25823011F0843019F583E08983C1
:1045B0001B830A838093E9008FEF9091E80081507C
:1045C00095FD06C095ED9A95F1F700008111F5CFA4
:1045D0008091E80085FF0DC040E050E063E070E0AE
:1045E000CE0101960E94BC258091E8008E778093D1
:1045F000E8000F900F900F90DF91CF911F910F91D6
:104600000895CF93DF9300D01F92CDB7DEB72091EE
:104610003002243031F522E02983805891099B83B0
:104620008A8383E08093E9008FEF9091E8008150C6
:1046300095FD06C095ED9A95F1F700008111F5CF33
:104640008091E80085FF0DC040E050E063E070E03D
:10465000CE0101960E94BC258091E8008E77809360
:10466000E8000F900F900F90DF91CF910895CF93B6
:10467000DF93EC010E949F25823011F08430F9F421
:1046800082E08093E9008FEF9091E800815095FDE2
:1046900006C095ED9A95F1F700008111F5CF809154
:1046A000E80085FF0CC040E050E065E070E0CE011E
:1046B0000E94BC258091E8008E778093E800DF910E
:1046C000CF910895CF93DF93EC010E949F25823014
:1046D00019F0843009F047C0809112018823E1F07D
:1046E00080912A0287FF18C085E08093E9008FEF50
:1046F0009091E800815095FD06C095E19A95F1F7FB
:1047000000008111F5CF8091E80085FF2CC040E0CA
:1047100050E060E270E017C081E08093E9008FEF25
:104720009091E800815095FD06C095ED9A95F1F7BE
:1047300000008111F5CF8091E80085FF14C040E0B2
:1047400050E068E070E0CE010E94BC258091E80056
:104750008E778093E80080E2FE01A1E0B2E0019054
:104760000D928A95E1F7DF91CF91089583EB9BE05D
:104770000E94340780912F02811109C00E944D27A9
:104780000E94AA278091E20084608093E20008954D
:104790008FEA9BE00E94340710922F0208958BEA63
:1047A0009BE00C94340787EA9BE00C94340783EA7F
:1047B0009BE00E9434070C94E41A2091FF012F5FC4
:1047C000822F62E30E94592A992319F02093FF0156
:1047D00008951092FF0180910002882371F1809169
:1047E0003002843041F58091E9008F702091EC0017
:1047F000922F917020FD90E8892B94E09093E9002E
:104800009091EB0090FF14C09091EE0097FF10C0C4
:104810009091E80095FF03C01092F100F9CF9091BC
:10482000E80090FF05C09091E8009E779093E80023
:104830008F708093E90010920002089542E061ECCD
:1048400081E00E94C62642E061EC82E00E94C6261A
:1048500042E061EC83E00E94C62642E261EC84E023
:104860000E94C62642E261EC85E00C94C626809147
:104870003202833009F455C030F4813071F0823057
:1048800009F48EC008958A3009F47AC08B3009F497
:1048900060C0893009F09CC020C080913102813A0B
:1048A00009F096C08091E800877F8093E8008091AE
:1048B000350290913602892B21F460E281E092E08A
:1048C00003C060E080E090E070E00E9407268091E5
:1048D000E8008B778093E80008958091310281325F
:1048E00009F076C08091350290913602009719F058
:1048F000049709F06DC08091E800877F8093E800FD
:104900008091E80082FD05C0809130028111F8CFCE
:104910005FC08091F100809321028091E8008B7745
:1049200053C080913102813A09F052C08091350222
:1049300090913602892B09F04BC08091E800877F67
:104940008093E8008091E80080FFFCCF8091120105
:1049500036C0809131028132D9F580913502909133
:104960003602892BA9F58091E800877F8093E800C3
:104970000E94FB2680913302809312010C94201236
:1049800080913102813221F58091E800877F809308
:10499000E8000E94FB268091340280932202089551
:1049A00080913102813AA1F48091E800877F809361
:1049B000E8008091E80080FFFCCF80912202809384
:1049C000F1008091E8008E778093E8000C94FB263C
:1049D000089584B7877F84BF0FB6F894A895809117
:1049E0006000886180936000109260000FBE80E8D4
:1049F00080936100109261000E944D0D0E944D272E
:104A00000E94AA278091E20084608093E20084E6FD
:104A100092E20E94031978940E943E2A0E94510D4E
:104A200088E091E00E94BB0C82E99BE00E94340781
:104A300080913002853089F48EE89BE00E94340733
:104A40000E94B21A80912E02882391F30E94991A33
:104A5000882371F30E94A625EBCF0E94850DE8CF35
:104A60000C943225292F332723303105C9F060F407
:104A70002130310581F02230310509F047C08DE841
:104A800090E021E03CE046C02132310511F12232B4
:104A9000310561F13BC082E190E02EE83CE03AC094
:104AA00099278130910561F040F08230910559F0ED
:104AB000039761F5E7EBFBE008C0EDEFFBE005C015
:104AC000EDEDFBE002C0EDEBFBE0849190E09F0197
:104AD00021C065307105D0F4660F771FFB01E45DDE
:104AE000FE4F2081318189E090E014C0653071056E
:104AF00068F4FB01EE0FFF1FEE5DFE4F2081318158
:104B0000FB01E35EFE4F808190E004C080E090E016
:104B100020E030E0FA013183208308950895CF9397
:104B2000C82F0E948E25C0932302CF9108958091B3
:104B30003002843011F081E0089582E00895809180
:104B40002302811102C00C949725089580E189BD4C
:104B500082E189BD09B400FEFDCF8091D8008F7D30
:104B60008093D8008091E00082608093E000809183
:104B7000E00081FDFCCF0895CF92DF92EF92FF928B
:104B80000F931F93CF93DF93EC018B017A010E9467
:104B90001A27811133C0E114F10439F0F701808143
:104BA0009181081B190BC80FD91FC12CD12C0115DD
:104BB000110519F18091E80085FD16C08091E8008B
:104BC0008E778093E800E114F10449F0F7018081C9
:104BD0009181C80ED91ED182C08285E00FC00E948B
:104BE0001A27882321F30AC089918093F10001508C
:104BF0001109FFEFCF1ADF0ADACF80E0DF91CF9102
:104C00001F910F91FF90EF90DF90CF90089520912A
:104C10003702309138022617370748F061157105C1
:104C200039F42091E8002E772093E80001C0B90103
:104C3000FC0120E06115710579F180913002882333
:104C4000F1F18530F1F18091E80083FD3CC0809165
:104C5000E80082FD2EC08091E80080FFEBCF20911C
:104C6000F3008091F20090E0922B6115710551F0F4
:104C70008830910538F421912093F1006150710939
:104C80000196F3CF21E0089709F020E08091E80039
:104C90008E778093E800CECF2111CFCF0AC08091CC
:104CA0003002882361F0853061F08091E80083FD57
:104CB0000AC08091E80082FFF2CF80E0089582E090
:104CC000089583E0089581E008952091370230919E
:104CD00038022617370748F06115710539F420911D
:104CE000E8002E772093E80001C0B901FC0120E024
:104CF0006115710591F180913002882309F440C05B
:104D0000853009F43FC08091E80083FD3DC080916B
:104D1000E80082FD2FC08091E80080FFE9CF20915C
:104D2000F3008091F20090E0922B6115710559F02B
:104D30008830910540F424912093F1003196615020
:104D400071090196F2CF21E0089709F020E08091E7
:104D5000E8008E778093E800CBCF2111CCCF0AC03A
:104D600080913002882361F0853061F08091E80005
:104D700083FD0AC08091E80082FFF2CF80E00895B1
:104D800082E0089583E0089581E00895982F973098
:104D900068F59093E900981739F07091EC00209134
:104DA000ED005091F00003C0242F762F50E021FD3C
:104DB00002C09F5FECCF3091EB003E7F3093EB0061
:104DC0003091ED003D7F3093ED003091EB0031608C
:104DD0003093EB007093EC002093ED005093F000C3
:104DE0002091EE0027FDE5CF80E008958F7080933D
:104DF000E90081E008958091310287FF11C0809120
:104E0000E80082FD05C0809130028111F8CF11C009
:104E10008091E8008B770BC080913002882349F0A5
:104E20008091E80080FFF8CF8091E8008E77809332
:104E3000E80008952091E4003091E50095E6409166
:104E4000EC00842F817040FF23C08091E80080FD3A
:104E50001DC080913002882399F0853099F08091AF
:104E6000EB0085FD11C04091E4005091E50024174E
:104E7000350729F3915011F09A01E1CF84E00895AC
:104E800082E0089583E0089581E0089580E0089528
:104E90004091E80042FFDDCF08950E94BB270E94A9
:104EA000C327E0EEF0E0808181608083E8EDF0E0F0
:104EB00080818F77808319BCA7EDB0E08C918E7FC5
:104EC0008C9380818F7E808310922F0208950F93A0
:104ED0001F93CF93DF930E94BB270E94C327C8ED87
:104EE000D0E088818F7788838881806888838881F3
:104EF0008F7D888319BC1092300210922C02109280
:104F00002E0210922D0200EE10E0F80180818B7FBE
:104F1000808388818160888342E060E080E00E9435
:104F2000C626E1EEF0E080818E7F8083E2EEF0E045
:104F3000808181608083808188608083F8018081A6
:104F40008E7F8083888180618883DF91CF911F91DC
:104F50000F910895E8EDF0E080818F7E8083E7ED8A
:104F6000F0E080818160808384E082BF81E0809373
:104F70002F020C946727E8EDF0E080818E7F80831C
:104F80001092E20008951092DA001092E100089564
:104F90001F920F920FB60F9211242F933F934F93AE
:104FA0005F936F937F938F939F93AF93BF93EF9391
:104FB000FF938091E10082FF0BC08091E20082FFAD
:104FC00007C08091E1008B7F8093E1000E94DD2388
:104FD0008091DA0080FF1FC08091D80080FF1BC045
:104FE0008091DA008E7F8093DA008091D90080FF73
:104FF0000DC080E189BD82E189BD09B400FEFDCF0D
:1050000081E0809330020E94B62305C019BC109243
:1050100030020E94C8238091E10080FF19C0809176
:10502000E20080FF15C08091E2008E7F8093E20055
:105030008091E20080618093E2008091D8008062DC
:105040008093D80019BC85E0809330020E94D3235E
:105050008091E10084FF30C08091E20084FF2CC089
:1050600080E189BD82E189BD09B400FEFDCF809158
:10507000D8008F7D8093D8008091E1008F7E80934F
:10508000E1008091E2008F7E8093E2008091E20057
:1050900081608093E20080912C02882311F084E0EB
:1050A00007C08091E30087FD02C081E001C083E07A
:1050B000809330020E94D7238091E10083FF29C0B2
:1050C0008091E20083FF25C08091E100877F80937B
:1050D000E10082E08093300210922C028091E10086
:1050E0008E7F8093E1008091E2008E7F8093E200CA
:1050F0008091E20080618093E20042E060E080E025
:105100000E94C6268091F00088608093F0000E9483
:10511000CF23FF91EF91BF91AF919F918F917F919D
:105120006F915F914F913F912F910F900FBE0F9014
:105130001F9018951F920F920FB60F9211242F9364
:105140003F934F935F936F937F938F939F93AF930F
:10515000BF93CF93DF93EF93FF93C091E900CF709C
:105160008091EC00D82FD17080FDD0E81092E9003A
:105170008091F000877F8093F00078940E94DE2871
:105180001092E9008091F00088608093F000CD2BB0
:10519000CF70C093E900FF91EF91DF91CF91BF9164
:1051A000AF919F918F917F916F915F914F913F91BF
:1051B0002F910F900FBE0F901F9018951F93CF93B4
:1051C000DF93CDB7DEB7AA970FB6F894DEBF0FBE58
:1051D000CDBFE1E3F2E08091F100819322E0E93379
:1051E000F207C9F70E9437248091E80083FF2EC19F
:1051F0008091310290913202492F50E04A3051059E
:1052000008F024C1FA01E556FF4F0C94792A803842
:1052100021F0823809F01AC108C080912D029091C6
:105220002E02992389F082600FC0809135028F7021
:10523000873008F00BC18093E9008091EB0085FB7B
:10524000882780F91092E9009091E800977F909369
:10525000E8008093F1001092F100D1C0282F2D7F3B
:1052600009F0F4C0882319F0823061F0EFC080911A
:105270003302813009F0EAC0933009F080E0809376
:105280002E022EC08091330281112AC080913502F6
:105290008F702FEF280F263008F0D8C08093E900D8
:1052A0002091EB0020FF1CC0933021F48091EB0093
:1052B000806214C09091EB0090619093EB0021E02C
:1052C00030E0A90102C0440F551F8A95E2F74093D0
:1052D000EA001092EA008091EB0088608093EB0076
:1052E0001092E9008091E800877F8093E8000E9497
:1052F000FB26ACC08111AAC0109133021F778091A8
:10530000E3008078812B8093E3008091E800877F21
:105310008093E8000E94FB268091E80080FFFCCF8C
:105320008091E30080688093E300111102C082E065
:1053300001C083E08093300289C08058823008F039
:1053400085C080913302909134028C3D53E09507E3
:1053500079F583E08A838AE289834FB7F894DE0186
:10536000139620E03EE051E2E32FF0E05093570027
:10537000E49120FF03C0E295EF703F5FEF708E2F46
:1053800090E0EA3010F0C79601C0C0968D939D93CF
:105390002F5F243149F74FBF8091E800877F8093CA
:1053A000E8006AE270E0CE0101960E94072616C06E
:1053B0006091350270913602AE014F5F5F4F0E94DF
:1053C0003025BC01892B09F441C09091E800977FFA
:1053D0009093E80089819A810E9465268091E80077
:1053E0008B778093E80032C0803881F58091E800A7
:1053F000877F8093E80080912C028093F100809158
:10540000E8008E7772CF811121C080913302909194
:10541000340299270297D4F48091E800877F809323
:10542000E8008091330280932C020E94FB26809139
:105430002C02811106C08091E30087FD02C081E04B
:1054400001C084E0809330020E941E248091E80015
:1054500083FF0AC08091E800877F8093E8008091F5
:10546000EB0080628093EB00AA960FB6F894DEBF43
:105470000FBECDBFDF91CF911F910895CF93809143
:1054800030028823A1F0C091E900CF709091EC0028
:10549000892F817090FD80E8C82B1092E9008091DF
:1054A000E80083FD0E94DE28CF70C093E900CF9111
:1054B0000895991B79E004C0991F961708F0961B70
:1054C000881F7A95C9F78095089597FB072E16F4E3
:1054D000009407D077FD09D00E947F2A07FC05D0F1
:1054E0003EF4909581959F4F0895709561957F4FFB
:1054F0000895EE0FFF1F0590F491E02D0994AA1B6B
:10550000BB1B51E107C0AA1FBB1FA617B70710F0AE
:10551000A61BB70B881F991F5A95A9F780959095E0
:10552000BC01CD010895F999FECF92BD81BDF89AD5
:10553000992780B50895A8E1B0E042E050E00C94CE
:10554000C72A262FF999FECF92BD81BDF89A0197FF
:1055500000B4021639F01FBA20BD0FB6F894FA9ABB
:10556000F99A0FBE08950396272F0E94A22A0E943F
:10557000A12A252F0E94A22A242F0C94A22A019648
:10558000272F0E94A22A0C94A12ADC01CB01FC0146
:10559000F999FECF06C0F2BDE1BDF89A319600B48C
:0E55A0000D9241505040B8F70895F894FFCF97
:1055AE00CE012808140A321E6122622337230123FA
:1055BE00C7220101020304050607080900404D3603
:1055CE0022397E0D310DFB0CD90CA00C130C2C0CBA
:0655DE00450C5E0C7E0C82
:00000001FF
