:100000000C943A070C9481070C9481070C94810797
:100010000C9481070C9481070C9481070C94810740
:100020000C9481070C9481070C9480290C94542A19
:100030000C94F61B0C9481070C9481070C94810797
:100040000C9481070C9481070C9481070C94810710
:100050000C9481070C94681C0C9481070C94810704
:100060000C9481070C9481070C9481070C948107F0
:100070000C9481070C9481070C9481070C948107E0
:100080000C9481070C9481070C9481070C948107D0
:100090000C9481070C9481070C9481070C948107C0
:1000A0000C9481070C9481070C9481070A00253079
:1000B000313662003A200025303258000A722F6330
:1000C00020303132333435363738394142434445B4
:1000D000460A0035421E001F0020002100220001B8
:1000E000510151230024002500260027002D422B1A
:1000F0000014001A000800150017002F0030001C23
:100100000018000C00120013002E00290004001635
:1001100000070009000A004B434D430B000D000E81
:10012000000F0033003400E1001D001B0006001921
:100130000005004E004A001100100036003700385C
:1001400000E500E30057005600556431612A004C79
:100150000028002C00E6005000510052004F000122
:10016000003A003B003C003D003E00010001003F22
:10017000004000410042004300000001001E021F39
:10018000022F02300231020100010000005F006016
:10019000006100000000000100200221022F003059
:1001A0000035000100010000005C005D005E000001
:1001B000000000010022022302260227023502016C
:1001C000000100000059005A005B0000000000011F
:1001D0000001000100010001000100010001000117
:1001E00000620062006300000000000100010001E5
:1001F00000010001000100010001000100010001F7
:100200000001000100010000000000F0000000F902
:1002100000000001000100000000000000000000DC
:100220000000000000F200F100F300FA00000001FD
:100230000000005000510052004F0000000000007C
:1002400000000000000000000000000100010000AC
:10025000000000000000000000000000000000009E
:10026000000000F400F500010001000100000000A2
:100270000000000000000000003A003B003C003D90
:10028000003E00000000003F0040004100420043EB
:100290000000000000005C00000000000000000002
:1002A000000000000000000000000000000000004E
:1002B000000000000000000000000001000100003C
:1002C000000000000000000000000000000000002E
:1002D000000000000000000000000000000000001E
:1002E000000000000000000000000000000000000E
:1002F00000000000000000000000000000000000FE
:1003000000000044454255473A2064697361626CBD
:1003100065642E0A0044454255473A20656E616285
:100320006C65642E0A000A002530325820006B6587
:1003300079626F6172645F7265706F72743A2000E7
:100340000A0025303258006B6579626F6172645F14
:100350007365745F6C65643A20004F6E6573686FF7
:10036000743A2074696D656F75740A0064656C5F1A
:100370006B65795F6269743A2063616E27742064EB
:10038000656C3A20253032580A006164645F6B6501
:10039000795F6269743A2063616E277420616464D6
:1003A0003A20253032580A00290A002575002F000E
:1003B0002575005D280025640020002564002000CC
:1003C00025640020002564007C0025303258006D33
:1003D0006F7573656B6579205B62746E7C782079CC
:1003E000207620685D287265702F61636C293A2041
:1003F0005B006D6B5F776865656C5F74696D655FE9
:10040000746F5F6D6178203D2025640A006D6B5F1D
:10041000776865656C5F6D61785F73706565642092
:100420003D2025640A006D6B5F74696D655F746FB4
:100430005F6D6178203D2025640A006D6B5F6D6102
:10044000785F7370656564203D2025640A006D6BDC
:100450005F696E74657276616C203D2025640A00C8
:100460006D6B5F64656C6179203D2025640A006DC9
:100470006B5F776865656C5F74696D655F746F5FEE
:100480006D6178203D2025640A006D6B5F7768659B
:10049000656C5F6D61785F7370656564203D2025D4
:1004A000640A006D6B5F74696D655F746F5F6D6189
:1004B00078203D2025640A006D6B5F6D61785F7365
:1004C00070656564203D2025640A006D6B5F696E70
:1004D00074657276616C203D2025640A006D6B5F47
:1004E00064656C6179203D2025640A000A00257549
:1004F00000363A20776865656C5F74696D655F7476
:100500006F5F6D61783A20000A00257500353A204A
:10051000776865656C5F6D61785F73706565643A77
:1005200020000A00257500343A2074696D655F74F7
:100530006F5F6D61783A20000A00257500333A201C
:100540006D61785F73706565643A20000A002575F7
:1005500000323A20696E74657276616C286D732979
:100560003A20000A00257500313A2064656C6179F3
:10057000282A31306D73293A20000A092D2056614E
:100580006C756573202D0A004D3E004D25643E209C
:10059000003F007365742064656661756C740A00C1
:1005A000433E200077686572652064656C74613A2B
:1005B00020637572736F723D25642C2077686565C2
:1005C0006C3D25640A53656520687474703A2F2F5A
:1005D000656E2E77696B6970656469612E6F7267ED
:1005E0002F77696B692F4D6F7573655F6B657973D5
:1005F0000A000A092D204D6F7573656B6579202DF2
:100600000A4553432F713A09717569740A313A09E1
:1006100064656C6179282A31306D73290A323A0990
:10062000696E74657276616C286D73290A333A09B4
:100630006D61785F73706565640A343A0974696D39
:10064000655F746F5F6D61780A353A097768656533
:100650006C5F6D61785F73706565640A363A09771F
:100660006865656C5F74696D655F746F5F6D6178F7
:100670000A0A703A097072696E742076616C756549
:10068000730A643A097365742064656661756C74F5
:10069000730A75703A092B310A646F776E3A092D27
:1006A000310A706775703A092B31300A7067646FD0
:1006B000776E3A092D31300A0A7370656564203D02
:1006C0002064656C7461202A206D61785F737065A9
:1006D0006564202A2028726570656174202F20745B
:1006E000696D655F746F5F6D6178290A003F004D29
:1006F0003E2000433E20004C25640A0074696D656D
:10070000725F72656164333228293A202530346C77
:10071000580A006B65796D61705F636F6E6669671B
:100720002E6E6B726F3A2025580A006B6579626FE6
:100730006172645F69646C653A2025580A006B65D4
:1007400079626F6172645F70726F746F636F6C3A1D
:100750002025580A00686F73745F6B6579626F615A
:1007600072645F6C65647328293A2025580A000A70
:10077000092D20537461747573202D0A004743437B
:100780003A20382E332E30204156522D4C494243C8
:100790003A20322E302E30204156525F415243488B
:1007A0003A20617672350A004F5054494F4E533A01
:1007B000204C554641204D4F5553454B45592045FA
:1007C000585452414B455920434F4E534F4C4520AE
:1007D000434F4D4D414E44204E4B524F2034303903
:1007E000360A004255494C443A2022302E362E34E7
:1007F00034342D332D67353735343061222028319C
:10080000323A31383A303820417567203139203258
:10081000303139290A005649443A20307846454556
:1008200044284D61747469612044616C2042656E96
:1008300029205049443A20307836303630285265E5
:10084000646F785F776972656C65737329205645AC
:10085000523A203078303030310A00444553433A20
:1008600020712E6D2E6B2E206B6579626F61726424
:10087000206669726D7761726520666F72205265BD
:10088000646F782D770A000A092D20566572736906
:100890006F6E202D0A000A092D20436F6E736F6C56
:1008A00065202D0A4553432F713A09717569740A01
:1008B0006D3A096D6F7573656B65790A000A092DCC
:1008C000204D61676963202D0A443A0944656275C9
:1008D00067204D65737361676520546F67676C654A
:1008E0000A583A094D6174726978204465627567E7
:1008F000204D6F646520546F67676C65202D205311
:10090000686F77206B6579707265737365732069A2
:100910006E206D617472697820677269640A4B3A5F
:10092000094B6579626F6172642044656275672066
:10093000546F67676C65202D2053686F77206B6557
:10094000797072657373207265706F72740A4D3AB4
:10095000094465627567204D6F75736520546F6734
:10096000676C650A563A0956657273696F6E0A5369
:100970003A095374617475730A433A09416374699F
:100980007661746520436F6E736F6C65204D6F6484
:10099000650A46312D4631303A09537769746368E8
:1009A00020746F204C6179657220302D39202846E3
:1009B0003130203D204C30290A302D393A09537707
:1009C0006974636820746F204C6179657220302DE2
:1009D000390A47524156453A09537769746368208A
:1009E000746F204C6179657220302028616C7465C9
:1009F000726E617465290A423A094A756D702074F5
:100A00006F20426F6F746C6F616465720A45534367
:100A10003A094A756D7020746F20426F6F746C6F65
:100A2000616465722028616C7465726E61746529F9
:100A30000A453A095072696E7420454550524F4D2F
:100A40002053657474696E67730A4253504143457D
:100A50003A09436C65617220454550524F4D0A4E2C
:100A60003A094E4B524F20546F67676C650A000A73
:100A7000002575002E6E6B726F3A20000A002575F6
:100A8000002E737761705F6261636B736C61736872
:100A90005F6261636B73706163653A20000A0025D1
:100AA00075002E737761705F67726176655F65733D
:100AB000633A20000A002575002E6E6F5F67756926
:100AC0003A20000A002575002E737761705F72610D
:100AD0006C745F726775693A20000A002575002EF4
:100AE000737761705F6C616C745F6C6775693A20D5
:100AF000000A002575002E636170736C6F636B5F75
:100B0000746F5F636F6E74726F6C3A20000A002519
:100B100075002E737761705F636F6E74726F6C5FB8
:100B2000636170736C6F636B3A20000A002530328A
:100B300058006B65796D61705F636F6E6669672ED3
:100B40007261773A20000A002575002E6D6F75736B
:100B5000653A20000A002575002E6B6579626F6189
:100B600072643A20000A002575002E6D6174726966
:100B7000783A20000A002575002E656E61626C656A
:100B80003A20000A00253032580064656275675FBC
:100B9000636F6E6669672E7261773A20000A0025DE
:100BA000750064656661756C745F6C617965723A35
:100BB00020003F004E4B524F3A206F66660A004EAF
:100BC0004B524F3A206F6E0A000A6D6F7573653A8B
:100BD000206F66660A000A6D6F7573653A206F6E46
:100BE0000A000A6B6579626F6172643A206F66660B
:100BF0000A000A6B6579626F6172643A206F6E0A4F
:100C0000000A6D61747269783A206F66660A000A9C
:100C10006D61747269783A206F6E0A000A646562C9
:100C200075673A206F66660A000A64656275673AFE
:100C3000206F6E0A000A0A4A756D70696E6720742B
:100C40006F20626F6F746C6F616465722E2E2E2040
:100C500000433E2000436C656172696E6720454524
:100C600050524F4D0A006565636F6E6669673A0AB8
:100C7000005B735D004B6579626F61726420737411
:100C80006172742E0A005B575D005B535D005B521E
:100C90005D005B445D005B435D00040330000000C9
:100CA0001E035200650064006F0078005F0077004B
:100CB0006900720065006C0065007300730000003D
:100CC0001E034D0061007400740069006100200083
:100CD000440061006C002000420065006E000000CE
:100CE0000403090409025B00030100A0FA090400DF
:100CF0000001030101000921110100012240000748
:100D000005810308000A090401000103000000092D
:100D1000211101000122C0000705820320000A09F9
:100D20000402000203000000092111010001222237
:100D300000070583032000010705030320000112BB
:100D400001100100000008EDFE60600100010203D7
:100D5000010631FF0974A1010975150026FF0095F0
:100D600020750881020976150026FF009520750878
:100D70009102C005010902A10185020901A1000536
:100D800009190129051500250195057501810295AF
:100D900001750381010501093009311581257F9510
:100DA000027508810609381581257F95017508812E
:100DB00006050C0A38021581257F95017508810604
:100DC000C0C005010980A1018503160100260300AA
:100DD0001A81002A8300751095018100C0050C0955
:100DE00001A1018504160100269C021A01002A9C1B
:100DF00002751095018100C005010906A101850554
:100E0000050719E029E715002501950875018102FC
:100E100005081901290595057501910295017503CC
:100E200091010507190029EF1500250195F07501BD
:100E30008102C005010906A101050719E029E7158E
:100E4000002501950875018102950175088101054C
:100E50000819012905950575019102950175039100
:100E6000010507190029FF150026FF0095067508E2
:100E70008100C00011241FBECFEFDAE0DEBFCDBF7E
:100E800004B603FE27C080912D0290912E02A091FE
:100E90002F02B09130028730904BA740B04BD1F475
:100EA00010922D0210922E0210922F0210923002F8
:100EB00014BE84B7877F84BF0FB6F894A89580913D
:100EC0006000886180936000109260000FBEE0E0D7
:100ED000F8E3099511E0A0E0B1E0E2E2FAE502C032
:100EE00005900D92AC32B107D9F722E0ACE2B1E047
:100EF00001C01D92AD32B207E1F70E94A1260C9409
:100F0000812C0C940000FF93EF93E0912C01F09161
:100F10002D01309709F00995EF91FF910895FC019B
:100F20008591803011F0EFDFFBCF0895FF27E0E2DD
:100F300030E247FF0CC0419597FF09C0EDE2609594
:100F4000709580959095611D711D811D911D27FFE4
:100F500002C0219530E350E2AA27660F771F881F51
:100F6000991FAA1FA41710F0A41B63955A95A9F7FF
:100F7000AA3008F0A95FA05DAF93F39561157105E4
:100F80008105910541F7ED3211F4EF93F395F217D6
:100F900018F43F93F395FBCF8F91B5DFFA95E1F706
:100FA0000895E991F9918591803021F0853219F009
:100FB000AADFF9CF089520E0E89455915532C1F3A6
:100FC000503311F4689455915A3348F4505390F3C8
:100FD000220F022E220F220F200D250FF4CF0EF428
:100FE000219589919991533619F3533729F1533546
:100FF00059F1BC0188279927E8945C3621F489913E
:10100000999168945591543639F446EF7EF077FF04
:101010000DC08FEF9FEF0AC055374AE039F05835C1
:1010200040E121F0523642E009F00895FF93EF933A
:101030007DDFEF91FF91B7CFFF93EF93FC0181919B
:101040008030B9F360DFFBCFFF93EF9368DFF1CF20
:10105000DF93CF93CDB7DEB72596A3DFCF91DF9196
:10106000089508950C946809EF92FF921F93CF930F
:10107000DF93CDB7DEB72B970FB6F894DEBF0FBE68
:10108000CDBF1092CC001092CD0088E18093C900B2
:1010900086E08093CA0083E78093CE00CE0101965C
:1010A0007C018BE0D7011D928A95E9F7D7019E015B
:1010B000245F3F4FC70140E050E0BA011091C800E3
:1010C00017FD0AC04F5F5F4F6F4F7F4F4131E7E21F
:1010D0005E076105710590F31091CE00FC0111933C
:1010E000CF01E217F30751F78B85803EB1F42EE272
:1010F00031E0B701665F7F4F11968C911197F0E850
:101100008F9FC00111244C91842BF90181939193FD
:101110009F0112966A177B0779F70E94700981E098
:101120002B960FB6F894DEBF0FBECDBFDF91CF91E7
:101130001F91FF90EF900895E82FF0E0EE0FFF1F52
:10114000E25DFE4F808191810895CF92DF92EF9210
:10115000FF920F931F93CF93DF938CEB90E00E944D
:101160008F078EE2E82E81E0F82ED0E0C0E097EB0A
:10117000C92E90E0D92E0EEA10E0DF93CF93DF92D4
:10118000CF920E94280884EB90E00E948F07F7011D
:10119000819191917F010E945E1A9F938F931F937B
:1011A0000F930E9428088CEA90E00E948F072196F6
:1011B0008DB79EB708960FB6F8949EBF0FBE8DBF31
:1011C000C530D105D1F6DF91CF911F910F91FF90DE
:1011D000EF90DF90CF9008951092CC001092CD0048
:1011E00088E18093C90086E08093CA000895519AEF
:1011F000599A80B3806380BB81B3806381BB0895BB
:101200000E9431080E94EC080C94F7080C9409091C
:1012100008956091B3017091B4018091B5019091EE
:10122000B6010E94F919813051F0882329F08230EB
:1012300051F0833061F008958D9A599A02C08D9AC9
:1012400059988C9A08958D9A599A8C9808958D98EA
:10125000F4CF81E0089581E008950C942B091F9349
:10126000CF93DF9300D000D00F92CDB7DEB7498384
:101270005A836B8320914D0189819A8121111BC072
:101280006623A9F00E943618182F682F89819A8149
:101290000E94E21769817A81812F0F900F900F9041
:1012A0000F900F90DF91CF911F910C94940A0E94A0
:1012B0000E18182FEFCF0E94361869817A81EDCF72
:1012C000FC01408151816281738184810C942F09DA
:1012D0000E946B1A811102C00E94F11A0C9400093D
:1012E0000C9406090C94080908950E9422130E9488
:1012F00074092FEF84E39CE0215080409040E1F797
:1013000000C0000087E797E79093010880930008EA
:101310000C948C1C0F931F93CF93DF938C010E942E
:101320006009EC01B8010E942D09882309F450C01E
:10133000B801CE010E94740D882309F449C0C5315B
:101340008CE5D807A0F4C230ECE5DE0708F06AC0EF
:10135000C115FCE5DF07B9F1C130DC4509F43EC039
:10136000C801DF91CF911F910F910C942909CC3DB9
:10137000ECE5DE0709F448C0C0F4C631DC4581F76E
:101380000E941819F8019281992309F4BFC08A7A42
:1013900091E009F490E0909338018111B5C089E2A1
:1013A0000E94A6180E94731913C0CD3DECE5DE071C
:1013B00099F1CE3DDC45A1F6F8018281882341F008
:1013C0000E94F11A05C0F801828181110E947509FD
:1013D00080E0DF91CF911F910F910895F8018281F4
:1013E0008823B1F39091E401892F8E7F90FF816073
:1013F0008093E40180FF05C085E193E00E948F07A0
:10140000E7CF83E093E0FACFF8018281882301F3EC
:1014100080E00E944827DCCFF80182818823C1F256
:1014200082E0F7CFF8018281882309F499CF0E94E6
:101430006B1A811102C00E94F11A0E947E1A90E07C
:1014400090931F0280931E02FE01E350FC458091A1
:101450001E028160E231F10538F4ED57F34D0C9432
:10146000252C80911E02826080931E0280911E02B4
:101470000E94821A0E942213ABCF80911E028460C8
:10148000F3CF80911E028860EFCF80911E028061B1
:10149000EBCF80911E028062E7CF80911E028064B4
:1014A000E3CF80911E028068DFCF80911E028C60A6
:1014B000DBCF80911E028E7FD7CF80911E028D7F61
:1014C000D3CF80911E028B7FCFCF80911E02877F6A
:1014D000CBCF80911E028F7EC7CF80911E028F7D61
:1014E000C3CF80911E028F7BBFCF80911E028F776A
:1014F000BBCF80911E02837FB7CF90911E02892FB0
:1015000097FB87F98058B0CF85E34ACF80913801A7
:10151000811104C089E20E94AD1844CF85E3FBCF5E
:1015200090E080E008950895972F70E02EE0929F5C
:10153000600D711D1124FB0196E4899FE00DF11DE2
:101540001124EE0FFF1FED52FF4F859194910895E6
:10155000FC01EE0FFF1FEA5DFC4F85919491089509
:10156000CF93DF930E94940A0E94690CEC018115CD
:1015700020E5920708F042C0811530E4930708F097
:1015800014C1883E910528F5803E910508F0A0C061
:10159000883A910588F4853A910508F08FC081302A
:1015A000910509F495C0009709F492C0049708F0DA
:1015B0008FC0D0E0C0E08CC08F3B910508F48CC098
:1015C000805C9109C03CD105A0F30E94A80AEC01FF
:1015D0007FC08115904250F4C11581E0D80708F012
:1015E00077C0C03FD10528F3D06572C0C11590E324
:1015F000D90708F0D0C0CE019F70E7CF811525E54F
:10160000920758F5811534E5930708F0FDC0811560
:1016100042E5940750F4C11581E5D80708F4C8C025
:10162000DC2FCC27C16FD06A53C0982F9695969522
:101630009E0123703327C115D34508F0D6C0C1E001
:10164000D0E002C0CC0FDD1F2A95E2F720E2929F86
:10165000C0011124C82BD92BC6C0C11589E5D807F4
:10166000A8F4C11598E5D90708F0D3C0C11526E53F
:10167000D20708F09ECF8C2F0E94E40CC82FD0E038
:10168000DC2FCC27CC27DF71D06222C0C1153AE510
:10169000D30708F4C3C0CE0190568115904208F0DC
:1016A00088CF8D2F8F710E94E40C90E0982F8827AF
:1016B00088279F719C012C2BE901E6CF853A910583
:1016C00009F4BCC0863A910509F0BBC0C2E8D0E479
:1016D000CE01DF91CF910895883A910509F4B4C005
:1016E000893A910509F4B3C08A3A910509F4B2C068
:1016F0008B3A910509F4B1C08C3A910509F4B0C058
:101700008B3B910509F4AFC08C3B910509F4AEC049
:101710008D3A910509F4ADC0803B910509F4ACC048
:101720008E3A910509F4ABC08F3A910509F4AAC02D
:10173000813B910509F4A9C0823B910509F4A8C039
:10174000833B910509F4A7C0843B910509F4A6C029
:10175000853B910509F4A5C0863B910509F4A4C019
:10176000873B910509F4A3C0883B910509F4A2C009
:10177000893B910509F4A1C08D3B910509F4A0C0F6
:101780008E3B910509F49FC08A3B910509F49EC0E8
:10179000C0E0D4E49DCFCE019927D3FF03C0EC0174
:1017A000D86C96CFEC01D06C93CFDF70D06A90CF1D
:1017B000CE01E4E096958795EA95E1F783702C2FAA
:1017C00026952695237090E2299F90011124382BAD
:1017D0008C2F8370C1E0D0E002C0CC0FDD1F8A9552
:1017E000E2F7C22BD32BDC6873CFC1E0D0E002C09C
:1017F000CC0FDD1F2A95E2F730E2939FC001112440
:10180000C82BD92BDA6864CFD82FCC27C46FD06A05
:101810005FCFDC2FCC27C06FD06A5ACF8C2F8F7050
:101820000E94E40C34E0D695C7953A95E1F79C2FD9
:101830009F70C82FCF70C06ED92FB8CFC1E8D0E449
:1018400047CFC3E8D0E444CFC2EED4E441CFC9EEE1
:10185000D4E43ECFCAEED4E43BCFC5EBD4E438CFDA
:10186000C6EBD4E435CFC3EBD4E432CFC4EBD4E43D
:101870002FCFC7EBD4E42CCFCCECD4E429CFCDECE4
:10188000D4E426CFC3E8D5E423CFCAE8D5E420CFFB
:10189000C2E9D5E41DCFC4E9D5E41ACFC1E2D6E44C
:1018A00017CFC3E2D6E414CFC4E2D6E411CFC5E229
:1018B000D6E40ECFC6E2D6E40BCFC7E2D6E408CF1B
:1018C000CFE6D4E405CFC0E7D4E402CFCAE2D6E441
:1018D000FFCE8238910549F1B0F48133910509F4C6
:1018E00062C048F48932910509F456C08A329105E4
:1018F00009F460C008958533910509F446C0893321
:10190000910599F00895833E910531F138F4803EB8
:10191000910591F0823E9105B1F00895863E9105C2
:1019200021F1873E910551F1089520911E02237007
:10193000D9F080EE90E0089520911E0220FF14C09F
:1019400089E390E0089520911E0222FF0DC024FD3E
:1019500009C083EE90E0089520911E0222FD31C05F
:1019600024FF02C090E080E0089520911E0223FF32
:10197000FBCF24FDF7CF87EE90E0089520911E0263
:1019800023FFEECF86EE90E0089520911E0225FF02
:10199000EBCF89E290E0089520911E0225FFE4CF6D
:1019A00085E390E0089520911E0226FFDDCF8AE2B4
:1019B00090E0089520911E0226FFD6CF81E390E0AB
:1019C000089582EE90E0089590911E0292FF06C065
:1019D000282F2871283069F4877F846093FF06C020
:1019E000282F2871283161F4877E846194FD877ED9
:1019F0000895282F2471243089F78B7F8860EECFDB
:101A0000282F2471243191F78B7E8861EFCF0F93BB
:101A10001F93CF93DF93C62FD42F022FFC01828117
:101A20008823C9F060933B010E94261C90933A01E1
:101A30008093390180E28C0F883008F050C0C77065
:101A400081E001C0880FCA95EAF7DF91CF911F911D
:101A50000F910C94861010913B01161335C08091A4
:101A6000390190913A010E943E1C883C910560F535
:101A7000C0E2CD0F1D17B9F080E2810F883040F42D
:101A8000177081E001C0880F1A95EAF70E948D1047
:101A9000C83048F481E09D2F977001C0880F9A9557
:101AA000EAF70E948610802F0E947310C830B8F4A5
:101AB000D77081E001C0880FDA95EAF7DF91CF9106
:101AC0001F910F910C948D1080E28C0F883038F4A8
:101AD000C77081E001C0880FCA95EAF7EFCFDF91A8
:101AE000CF911F910F9108959C01CB01203F4CE5B0
:101AF000340731F190F4283DFCE53F07E9F0293D3A
:101B00004CE5340769F1273D3C4579F426E241EE86
:101B100061EE0E94070D80E00895223FFCE53F073B
:101B2000B9F090F0233F3C45B9F0FC018281882355
:101B3000D1F010923B01089527E245EE65EEE9CF22
:101B400026E241EE60EEE5CF27E245EE64EEE1CF1E
:101B500026E241EE62EEDDCF27E245EE66EED9CF1A
:101B600028E241E0EBCF81E008959093410180931A
:101B700040010895E0914001F0914101309721F03A
:101B80000190F081E02D099480E00895EF92FF929A
:101B90000F931F93CF93DF93EC01E0914001F091FD
:101BA0004101309709F446C080911201882341F029
:101BB00080911E0287FF04C08881898385E0888325
:101BC0000280F381E02DCE0109958091E40182FF2E
:101BD00031C080FF04C08EE293E00E948F0710E0C6
:101BE00000E088E2E82E83E0F82E8091E40180FF97
:101BF0000EC0FE01E00FF11F80811F928F93FF92B4
:101C0000EF920E9428080F900F900F900F900F5F97
:101C10001F4F0830110549F78091E40180FF0AC089
:101C200086E293E0DF91CF911F910F91FF90EF90AB
:101C30000C948F07DF91CF911F910F91FF90EF9040
:101C40000895E0914001F0914101309739F022E090
:101C5000DC012C930480F581E02D099408952091F6
:101C60003E0130913F012817390771F090933F01F1
:101C700080933E01E0914001F0914101309721F0C5
:101C80000680F781E02D0994089520913C01309160
:101C90003D012817390771F090933D0180933C0175
:101CA000E0914001F0914101309721F00084F185ED
:101CB000E02D0994089585B7806885BF85B7806851
:101CC00085BF0895089508950C94620E08950C94AC
:101CD000660E0E945B0E0E94630E0C94640E81E0FF
:101CE00008950E941D1C0E9432080E949D1C0C94A5
:101CF000670ECF93C82F8091E40182FF1EC080FF42
:101D00001CC087E493E00E948F078091E40180FF6C
:101D100014C01F92CF9382E493E09F938F930E940D
:101D200028088091E4010F900F900F900F9080FF92
:101D300004C080E493E00E948F078C2FCF910C9415
:101D400072095F926F927F928F929F92AF92BF9231
:101D5000CF92DF92EF92FF920F931F93CF93DF9377
:101D6000CDB7DEB72A970FB6F894DEBF0FBECDBF52
:101D70000E9434080E946F0E882309F47AC093E40D
:101D8000A92E91E0B92E10E000E088248394912CD4
:101D9000502E802F0E949C087C01F501C190D190AB
:101DA0005F01C816D90609F45EC08091E40181FD87
:101DB0000E94A50890E080E0CE24DF243401082EA4
:101DC00002C0660C771C0A94E2F79601262137219F
:101DD000232B09F443C08E835F82E620F72081E045
:101DE000EF2809F480E088870E94261C8160782F04
:101DF0009A8789874E815F8168858A850E94600FF6
:101E0000000F111FF801ED5BFE4F80819181682664
:101E10007926718260820E94AD1E0E94BA0D909157
:101E200042018917B9F10E94BA0D809342012A96A6
:101E30000FB6F894DEBF0FBECDBFDF91CF911F91DB
:101E40000F91FF90EF90DF90CF90BF90AF909F9059
:101E50008F907F906F905F900C94790E01968E30EA
:101E6000910509F0ABCF0F5F1F4F0530110509F049
:101E70008FCF8FEF89838A831B820E94261C81600B
:101E8000782F9D838C8349815A816B818D810E943B
:101E9000600FC1CF2A960FB6F894DEBF0FBECDBF3C
:101EA000DF91CF911F910F91FF90EF90DF90CF9036
:101EB000BF90AF909F908F907F906F905F900895AC
:101EC000CF93DF93CDB7DEB72B970FB6F894DEBF75
:101ED0000FBECDBF4F83588769877A878B871E8255
:101EE0001D8285E0FE013796DE01119601900D926C
:101EF0008A95E1F70E94E718882319F082E00E9492
:101F0000DC190E94BA1881110E94651949815A8111
:101F10006B817C818D819E812B960FB6F894DEBFFC
:101F20000FBECDBFDF91CF910C94C215FC01808113
:101F300091810C947818CF93C82F882309F4A2C0FC
:101F40008CEF8C0F813A58F48C2F0E94E92281117A
:101F500099C08C2F0E94A618CF910C94731980E21F
:101F60008C0F883048F4C77081E001C0880FCA9593
:101F7000EAF70E941B19F0CF8BE58C0F833068F4D1
:101F800081E890E0C53A31F083E890E0C63A11F478
:101F900082E890E0CF910C942F0E88E58C0F87316A
:101FA00008F068C082EE90E0C83A09F460C089EE9B
:101FB00090E0C93A09F45BC08AEE90E0CA3A09F4AD
:101FC00056C085EB90E0CB3A09F451C086EB90E027
:101FD000CC3A09F44CC083EB90E0CB3B09F447C00A
:101FE00084EB90E0CC3B09F442C087EB90E0CD3A23
:101FF000F1F18CEC90E0C03BD1F18DEC90E0CE3A69
:10200000B1F183E891E0CF3A91F18AE891E0C13BE8
:1020100071F182E991E0C23B51F184E991E0C33B67
:1020200031F181E292E0C43B11F183E292E0C53BE1
:10203000F1F084E292E0C63BD1F085E292E0C73B4A
:10204000B1F086E292E0C83B91F087E292E0C93BB2
:1020500071F08FE690E0CD3B51F080E790E0CE3B11
:1020600031F090E080E0CA3B11F48AE292E0CF9137
:102070000C94450EC03F30F08C2F0E94391DCF913B
:102080000C94201ECF910895882361F19CEF980F46
:10209000913A20F40E94AD180C94731990E2980FB5
:1020A000983050F4877091E001C0990F8A95EAF753
:1020B000892F0E942119F0CF9BE5980F933020F4CF
:1020C00090E080E00C942F0E98E5980F973120F463
:1020D00090E080E00C94450E803F20F00E94A11D0E
:1020E0000C94201E0895CF93C82F0E949B0FC933D4
:1020F00049F42FEF87EE93E0215080409040E1F7C4
:1021000000C000008C2FCF910C944410882321F044
:102110000E941B190C9473190895882321F00E94C2
:1021200021190C9473190895BF92CF92DF92EF9208
:10213000FF920F931F93CF93DF936C01D62FC72F7E
:10214000FC01058102950F70128111110E9438194E
:102150000E941119B82E882371F01123B1F080E28A
:102160008D0F883090F082E00E94DC190E941119D6
:1021700091E0B82EB926EC2EE2949FE0E922EE2DF4
:10218000F0E0EB56F34D0C94252CB12CF4CF0C2F32
:102190000F70C07F11F00295007F1123A9F000237A
:1021A00059F080E28D0F883010F0D11109C0802FD6
:1021B0000E941B190E9473198D2F0E949B0F14C03F
:1021C000802F0E942B19F6CF8D2F0E9444100023E0
:1021D00059F080E28D0F883010F0D11130C0802F7F
:1021E0000E9421190E94731928E0E21639F0E216C4
:1021F00048F086E08E0D8F70823020F40E94BA0D78
:102200000E947209BB2009F4D3C10E94E31880FD2B
:10221000CFC1F60112820E94DD180E944617C60146
:102220000E94E2120E94DD18DF91CF911F910F9161
:10223000FF90EF90DF90CF90BF900C946717802FA6
:102240000E943119CFCFFC2FFF70FF2EC07FC0320C
:1022500019F0F29480EFF822DD2369F0D13049F1D2
:10226000112391F1002351F1F601858180FFA4CF64
:102270008F70858323C0112381F0011106C00E9455
:102280004B198F290E948610AFCF0130C1F70E94F1
:102290004B198F290E945119A7CF011106C00E9426
:1022A00065198F2D0E948D109FCF013009F49CCFAE
:1022B000F6CF112329F0063008F096CF8F2DE2CF0C
:1022C000053008F091CFEDCF002359F3D93349F40D
:1022D000FFEF27EE83E0F15020408040E1F700C09F
:1022E00000008D2F0E9444107FCF8C2F86958695FD
:1022F000837069F0813009F077CF8D2F9C2F937018
:10230000111102C090E080E00E94450E6DCF8D2F2C
:102310009C2F9370111102C090E080E00E942F0E5C
:1023200063CF112309F1D53F99F0D63FB9F0D43FDF
:1023300049F48091180290911902816090931902DA
:10234000809318028D2F0E94391D0E94201E4CCFB1
:1023500080911802909119028260F0CF809118024A
:10236000909119028460EACFD53F89F0D63FA9F059
:10237000D43F49F480911802909119028E7F909376
:102380001902809318028D2F0E94A11DDECF80912B
:102390001802909119028D7FF2CF809118029091CE
:1023A00019028B7FECCF8C2F837009F041C0111183
:1023B0001BCF4D2F429546954770440F440F0D2F6C
:1023C0000F7010E030E020E0042E04C0000F111F59
:1023D000221F331F0A94D2F760E070E0CB01D4FFD4
:1023E0000FC06FE070E080E090E004C0660F771FE0
:1023F000881F991F4A95D2F76095709580959095A2
:10240000C695C695C370602B712B822B932BC2305F
:1024100049F058F4C13019F00E94F816E5CE0E9438
:10242000E616E2CE0E940A17DFCE0E94E416DCCE4A
:102430008695112311F08C2F8170882309F4D4CE56
:102440004D2F429546954770440F440F0D2F0F7046
:1024500010E030E020E0042E04C0000F111F221F06
:10246000331F0A94D2F760E070E0CB01D4FF0FC0B5
:102470006FE070E080E090E004C0660F771F881F77
:10248000991F4A95D2F76095709580959095C6955D
:10249000C695C370602B712B822B932BC23049F0F1
:1024A00058F4C13019F00E94BD179ECE0E94AB17A0
:1024B0009BCE0E94CF1798CE0E94201795CEE0E2C7
:1024C000ED0FE53108F04DC0F0E0EB55F34D0C9405
:1024D000252CDF708C2F8F71112321F00E9446175D
:1024E0008D2FD0CE0E9467178D2FDCCE112341F0A7
:1024F000053008F079CE8C2F8F710E948A1774CE28
:10250000063008F071CEF7CF8C2F8F71112339F080
:102510000E94461769CE8C2F8F711123C9F30E9438
:10252000671762CE112329F08C2F8F710E9431170B
:102530005BCE0E942C1758CE112349F0CF718C2FFF
:102540000E94461763E08C2F0E94BD194DCE81E09A
:102550000E94DC19023008F447CE82E00E94DC19A8
:1025600043CE112329F0011127CE8C2F8F71D0CFAC
:10257000002359F0D93309F0B4CE9FEFE7EEF3E032
:102580009150E040F040E1F7AACE8C2F8F71C7CF79
:102590004C2F4F706D2FC6010E94900A0E945C164E
:1025A00023CE4C2F4F706D2FC6010E94930A1CCE74
:1025B000DF91CF911F910F91FF90EF90DF90CF901F
:1025C000BF9008950F931F93CF93DF93EC018B81FE
:1025D0009C81892B29F08881998189238F3F29F457
:1025E000DF91CF911F910F910895CE010E948A092A
:1025F0008823B1F3688179818A810E9482188C01D5
:102600000E94E1170E94E316B801CE01DF91CF913D
:102610001F910F910C9494100E9438190E94481930
:102620000E9473190E94441F0E94201E90E080E0C7
:102630000E942F0E90E080E00C94450E0E94B4188A
:102640000C940C130E9428190C941E13E92FE29588
:10265000EF70E250EE3070F4F0E0E654F34D0C947D
:10266000252C803F19F020F4803E20F481E008956D
:10267000843FE1F380E00895803EC0F3813FD1F7CD
:10268000F5CF93FB882780F908950E9478180C9461
:102690002613CF93DF9300D000D00F92CDB7DEB7D3
:1026A0000F900F900F900F900F90DF91CF910895A2
:1026B000CF93DF9300D000D000D0CDB7DEB7269601
:1026C0000FB6F894DEBF0FBECDBFDF91CF91089556
:1026D0001F93CF93DF93C0914E0116E080914F017D
:1026E0008C1304C0DF91CF911F910895D0E01C9FFF
:1026F000F0011D9FF00D1124E05BFE4F40815181E0
:1027000062817381848195810E9458132196C770DC
:10271000E5CF4091800150918101609182017091DB
:10272000830180918401909185010C9458131F932B
:10273000CF93DF9380918501807FC1F480918201E6
:102740008823A1F080914E01C0914F0160918001DA
:10275000709181014091830150918401D62FD7233C
:10276000DA01A095B09516E0C81304C0DF91CF91AF
:102770001F91089590E04115510511F0DF3F31F4AC
:1027800001968770F1CF2A0F3B1F17C0189FF001E9
:10279000199FF00D1124E05BFE4F21812713F0CF2C
:1027A00020812613EDCF22812111EACF23813481AC
:1027B0002417350740F3241B350B283C310500F75F
:1027C000209185012F7020612093850126E0289FAC
:1027D000F001299FF00D1124EB5AFE4F80818F707C
:1027E0008061808380E891E00E94E212DF91CF91C6
:1027F0001F910C946813BF92CF92DF92EF92FF92D9
:102800000F931F93CF93DF93CDB7DEB761970FB6CA
:10281000F894DEBF0FBECDBF8C0185E0F801DE016C
:102820001D9601900D928A95E1F7D8014C91119671
:102830005C9111971296EC90129780918301909180
:102840008401009709F47FC12091800130918101BA
:10285000622F63236F3F09F476C11396CD90DC900D
:10286000B0908201BB2009F411C1C816D906D0F17D
:10287000F601E81BF90BCF01FF24F394883C910586
:1028800008F0F12C80918501982F907FFF2009F4AA
:10289000B8C091117FC0FE2C351329C0241327C066
:1028A000E11025C08F708061809385010E9489139B
:1028B00080E891E00E94E21280918501D80115968E
:1028C0008C938F2D61960FB6F894DEBF0FBECDBFEF
:1028D000DF91CF911F910F91FF90EF90DF90CF90FC
:1028E000BF900895809590958C0D9D1DC5CFCD28E6
:1028F00029F0852F84238F3F09F041C180E0B82F54
:10290000B170DB2E80FF3CC080914E0120914F01C1
:1029100036E0821315C04D875E878D859E850E94A7
:102920007818292F22952F702230F0F0243018F5D6
:102930009F70F1F0F8019581907FD1F4D12C1EC0E9
:1029400090E0389FF001399FF00D1124E05BFE4FBD
:102950006181651306C06081641303C06281E61261
:102960000FC001968770D5CF9F7011F0882331F387
:10297000805E883018F3C8010E94E212FD2CA1CFBE
:10298000EE2009F49ECF80918501816080938501BE
:10299000F12C97CF351306C0241304C0D801EE20C4
:1029A00009F49AC04D875E878D859E850E944513E8
:1029B000882319F1EE2009F180918501803270F0B1
:1029C000209180013091810138872F831986DB8621
:1029D000CA868C87CE0107960E94E21286E0F80133
:1029E000A0E8B1E001900D928A95E1F70E9497135B
:1029F0000E948913FF24F39464CFC8010E94E2125D
:102A0000F9CF911113C07C2DD98AC88A6E2D89897E
:102A10000E94491380E891E00E94E21286E0E0E81B
:102A2000F1E0DF011D928A95E9F763C0351312C00A
:102A3000241310C0E1100EC0F8018583C8010E9464
:102A4000E212E0E8F1E086E0DF011D928A95E9F705
:102A5000FB2C37CF4D875E878D859E850E94451361
:102A6000882359F2EE2049F280918501803208F4E2
:102A7000B5CF20918001309181013A8329831B8257
:102A8000DD82CC828E83CE010196A6CFC816D906F0
:102A900098F1F601E81BF90BCF01F12C883C910568
:102AA00008F049C0FE2CEE2009F4A7CF351332C040
:102AB000241330C08091850180FD23C0982F907F22
:102AC00001F1D80115968C931597903F39F0982F06
:102AD000907F905F8F70892B15968C93C8010E9410
:102AE000E21286E0F801A0E8B1E001900D928A952B
:102AF000E1F70E948913E5CE809590958C0D9D1D80
:102B0000CCCF86E0F801A0E8B1E001900D928A9563
:102B1000E1F7D7CE4D875E878D859E850E94451350
:102B200081115CCF80918501816080938501C8010E
:102B30000E94E212C6CE7C2DD98AC88A6E2D898960
:102B40000E9449136BCFEE2009F457CF4D875E8763
:102B50008D859E850E944513F82E882309F44DCF5C
:102B600086E0F801A0E8B1E001900D928A95E1F7C6
:102B700080E891E00E94960F0E949713BACF81E0FF
:102B80008E25BDCE1F93CF93DF93CDB7DEB72C97A5
:102B90000FB6F894DEBF0FBECDBF4F83588769874D
:102BA0007A878B879C87CE0107960E94FB13882328
:102BB00069F08A859B85892B39F04F815885842F50
:102BC00085238F3F09F071C016E05FC086E0FE01EB
:102BD0003796DE01119601900D928A95E1F78A856C
:102BE0009B85892B89F388859F8189238F3F61F39A
:102BF00020914F0130E0C9010196877099274091DB
:102C00004E014817190671F40E94221310924F01C9
:102C100010924E0186E0E0E8F1E0DF011D928A9516
:102C2000E9F7D2CF96E0929FD001939FB00D112487
:102C3000A05BBE4FFE01319601900D929A95E1F78F
:102C400080934F010E946813BFCF819FC001112460
:102C5000805B9E4F0E94FB138823E9F0E0914E01B8
:102C60001E9FF0011124E05BFE4F40815181628183
:102C70007381848195810E94581380914E0190E068
:102C800001968770992780934E0180914E01909113
:102C90004F018913DACF2C960FB6F894DEBF0FBE22
:102CA000CDBFDF91CF911F91089569857A858B857E
:102CB0009C850E94581388CFEF92FF920F931F9329
:102CC000CF93DF938C01892B81F0F12CEE24E394D8
:102CD000E8012196F8018491843770F4843008F07B
:102CE0005FC08130B1F08230A1F1DF91CF911F91AF
:102CF0000F91FF90EF900895853709F44CC008F4C8
:102D00003DC09CE7980F903780F78F770E94441062
:102D100049C00E5F1F4FFE01849190E2980F9830DA
:102D200060F48770FE2D01C0FF0F8A95EAF78F2FA0
:102D30000E943B190E94731902C00E949B0F8F2DA5
:102D4000815030F2EFE9FFE03197F1F700C0000069
:102D5000F7CF0E5F1F4FFE01849190E2980F9830DD
:102D600050F48770FE2D01C0FF0F8A95EAF78F2F70
:102D70000E944119DFCF0E944410E1CF0E5F1F4F28
:102D8000FE01C491C150D8F28FE99FE00197F1F79D
:102D900000C00000F7CF0E5F1F4FFE01F490CFCFB1
:102DA0000E949B0F8E01CBCF08950C94D4160E94E5
:102DB000D5166093B7017093B8018093B9019093D1
:102DC000BA010C940C1308950C94D7160F931F930B
:102DD0000091B7011091B8012091B9013091BA0169
:102DE000602B712B822B932B1F910F910C94D71674
:102DF0000F931F930091B7011091B8012091B90171
:102E00003091BA0160237123822393231F910F9184
:102E10000C94D7160F931F930091B7011091B8012E
:102E20002091B9013091BA01602771278227932739
:102E30001F910F910C94D7160C94D4160C941C1758
:102E40000E941E176093B3017093B4018093B50183
:102E50009093B6010C940C1360E070E0CB010C94DD
:102E600020170F931F9341E050E060E070E08A016B
:102E70009B0104C0000F111F221F331F8A95D2F738
:102E8000C901B8011F910F910C9420170F931F9344
:102E900041E050E060E070E004C0440F551F661F41
:102EA000771F8A95D2F78091B3019091B401A091D8
:102EB000B501B091B6018A019B01082B192B2A2B71
:102EC0003B2BC901B8011F910F910C9420170F9350
:102ED0001F9341E050E060E070E004C0440F551FD4
:102EE000661F771F8A95D2F7CB01BA01609570955E
:102EF000809590950091B3011091B4012091B50196
:102F00003091B60160237123822393231F910F9187
:102F10000C9420170F931F9341E050E060E070E0A5
:102F200004C0440F551F661F771F8A95D2F7809102
:102F3000B3019091B401A091B501B091B6018A019D
:102F40009B01082719272A273B27C901B8011F9190
:102F50000F910C9420170F931F930091B3011091C0
:102F6000B4012091B5013091B601602B712B822BF9
:102F7000932B1F910F910C9420170F931F93009187
:102F8000B3011091B4012091B5013091B6016023D5
:102F90007123822393231F910F910C9420170F9379
:102FA0001F930091B3011091B4012091B5013091AC
:102FB000B60160277127822793271F910F910C94E8
:102FC000201708952EE0929F800D1124982F97705E
:102FD00041E001C0440F9A95EAF78695869586955B
:102FE00095E0899FF0011124EA57FE4F90E080E0C0
:102FF00070E05191DF0111979B01082E02C03695B8
:1030000027950A94E2F72170219525272423252767
:103010002C9301968530910561F708952EE0929FDB
:10302000800D1124982F977086958695869525E0BA
:10303000829FF0011124EA57FE4F50E040E080E00B
:10304000219130E0092E02C0369527950A94E2F7C7
:1030500021703327042E01C0220F0A94EAF7822B35
:103060004F5F5F4F4530510559F70895BF92CF929A
:10307000DF92EF92FF920F931F93CF93DF938C0118
:10308000C090B301D090B401E090B501F090B601CA
:103090008091B7019091B801A091B901B091BA01A6
:1030A000C82AD92AEA2AFB2ACFE1D0E0BC2ED701D0
:1030B000C6010C2E04C0B695A795979587950A94DE
:1030C000D2F780FD0EC0219788F7B12C8B2DDF91B0
:1030D000CF911F910F91FF90EF90DF90CF90BF9015
:1030E0000895B8018C2F0E94B00A019761F3EECFCA
:1030F000CF93DF93EC010E943618BE01DF91CF9190
:103100000C94B00A1F93CF93DF93EB0190914D0184
:10311000992331F0CB01DF91CF911F910C94781856
:10312000882379F0CB010E943618182F682FCE0122
:103130000E94E217BE01812FDF91CF911F910C9465
:10314000B00ACB010E940E18182FF4CF682F80917F
:103150000001909101010C94791B682F809100016E
:10316000909101010C94841B8091000190910101C8
:103170000C948F1B0E94261C2091BE013091BF0130
:103180008217930778F00E94261C2091BE0130918F
:10319000BF01821B930B9C0181E0243F314008F466
:1031A00080E008950E94261C2091BE013091BF014D
:1031B00020953095280F391FEFCF8091BD0185955F
:1031C0008595859508958091BD01877008950E9429
:1031D000261C2091BB013091BC0182179307B0F0EF
:1031E0000E94261C2091BB013091BC01821B930BD5
:1031F000843F914018F480E0817008958091BD0172
:1032000082FB882780F991E08927F6CF0E94261C4F
:103210002091BB013091BC0120953095820F931F06
:10322000E7CF9091BD01977081E009F480E00895A7
:103230008091E30108959091E301892B8093E3014C
:10324000089580959091E30198239093E301089568
:103250001092E30108959091E201892B8093E2019D
:10326000089580959091E20198239093E20108954A
:103270001092E20108959091E101892B8093E10180
:10328000089580959091E10198239093E10108952C
:103290001092E10108958091C001089508950C9461
:1032A0004E19CF93C82F8091C0018C1761F00E94F6
:1032B000261C9093BF018093BE01C093C0018C2F48
:1032C000CF910C944F19CF9108958091C00188231C
:1032D00049F01092C0011092BF011092BE0180E02F
:1032E0000C944F190895E0910001F0910101809133
:1032F000E3018083E0910001F091010180819091D0
:10330000E201892B8083E0910001F091010180812D
:103310009091E101892B80838091C001882321F164
:103320000E94BA18882371F08091E40180FF08C0E0
:103330008AE593E09F938F930E9428080F900F9047
:103340000E946519E0910001F09101018081909146
:10335000C001892B808380910001909101010E941E
:10336000F31A81110E946519809100019091010169
:103370000C94C60D08950C94BA1998E0899F900199
:103380001124622B6093BD010E9446170E94261CE7
:103390009093BC018093BB018091BD01859585957B
:1033A00085950C94BB191092BD011092BC0110922E
:1033B000BB0180E00C94BB199091BD0180958923DD
:1033C0008093BD01282F277071F4282F082E000C40
:1033D000330B9217130639F08595859585950E94D4
:1033E00067170C94D319089590932D0180932C01A5
:1033F0000895CF92DF92EF92FF926C01EE24FF24AA
:1034000020E0C114D104E104F10419F0C701B601B0
:1034100020E1C72ED82EE92EFF24C114D104E104E7
:10342000F10419F0285FC701B6016B017C0154E07B
:10343000F694E794D794C7945A95D1F7C114D10460
:10344000E104F10419F02C5FC701B6016B017C01A6
:1034500042E0F694E794D794C7944A95D1F7C11403
:10346000D104E104F10419F02E5FC701B60196956D
:10347000879577956795672B682B692B09F02F5FE8
:10348000822FFF90EF90DF90CF900895829590E08B
:103490009C01220F331F220F331F2C7C959587959B
:1034A000959587958373282B30E0C901880F991F64
:1034B0008A7A359527952575822B0895CF93DF93CA
:1034C000D92F0E94461AC82F8D2F0E94461A9C2F72
:1034D000DF91CF91089590E080E00E94472C21E099
:1034E0008D3E9E4F09F020E0822F089582E090E00B
:1034F0000C943F2C83E090E00C943F2C84E090E00F
:103500000C943F2C682F84E090E00C944D2CAB0180
:10351000BC018FE090E00C945F2CAB01BC0183E117
:1035200090E00C945F2C60E070E0CB010C948D1A5D
:1035300060E070E0CB010E94871A0C94931A6DEE44
:103540007EEF90E080E00E946B2C60E082E090E0F3
:103550000E944D2C60E083E090E00E944D2C109280
:10356000B7011092B8011092B9011092BA0160E04F
:1035700084E090E00E944D2C60E085E090E00E94A5
:103580004D2C60E086E090E00E944D2C6FEF87E0CC
:1035900090E00E944D2C40E050E0BA0188E090E0BD
:1035A0000E945F2C60E08DE090E00E944D2C40E096
:1035B00050E0BA0188E190E00E945F2C60E087E172
:1035C00090E00E944D2C40E050E0BA018CE190E088
:1035D0000E945F2C60E080E290E00E944D2C0C94F1
:1035E000981A0C949F1AFC0132968091120188233C
:1035F00021F080911E029EE187FF96E080E09150CD
:1036000008F4089521912223D1F38F5FF8CF9C0114
:10361000FC0132969FEF80E04191461751F09F3FA9
:1036200019F4411101C0982F8F5F8630A9F79F3F91
:1036300009F40895290F311D97FD3A95F901628328
:103640000895FC01329608962191261303C0DF01EC
:1036500011971C92E817F907B9F70895E62FE69538
:10366000E695E695EE3170F4E80FF92FF11D6770DD
:1036700021E030E001C0220F6A95EAF78281822BB7
:10368000828308958091E40180FF0CC01F926F93A4
:103690008AE893E09F938F930E9428080F900F90E1
:1036A0000F900F900895E62FE695E695E695EE319A
:1036B00078F4E80FF92FF11D677021E030E001C0C8
:1036C000220F6A95EAF720958281282322830895A4
:1036D0008091E40180FF0CC01F926F938CE693E011
:1036E0009F938F930E9428080F900F900F900F9038
:1036F000089520911201222329F020911E0227FD16
:103700000C942E1B0C94071B20911201222329F0EC
:1037100020911E0227FD0C94531B0C94211BFC01CD
:10372000329680911201882351F080911E0287FF0A
:1037300006C08EE1DF011D928A95E9F7089586E0C3
:10374000F9CF089508950C94A21B0E94A31B8091A9
:103750002402843049F11092E50188E190E020E4F0
:103760000FB6F894A895809360000FBE2093600078
:1037700080E00E9472090E94A31B83B7817F84604E
:1037800083BF83B7816083BF7894889583B78E7F2A
:1037900083BF0FB6F894A8958091600088618093EC
:1037A0006000109260000FBE08950895CF930E94AC
:1037B000A11B0E9434080E94D51BC0E08C2F0E94E0
:1037C0009C08892B31F4CF5FC530C1F780E0CF91E1
:1037D000089581E0FCCF08950C94EB1B0E94221306
:1037E0000E94BA0D0E9472090C94EC1B1F921FB626
:1037F0001F9211248F939F93AF93BF938091E50104
:10380000811113C080911A0290911B02A0911C0299
:10381000B0911D024196A11DB11D80931A02909393
:103820001B02A0931C02B0931D02BF91AF919F9108
:103830008F911F901FBE1F90189582E084BD93E06A
:1038400095BD9AEF97BD80936E0008952FB7F894B9
:1038500080911A0290911B02A0911C02B0911D024E
:103860002FBF08952FB7F89460911A0270911B0230
:1038700080911C0290911D022FBF0895CF92DF927C
:10388000EF92FF920F931F932FB7F89440911A0273
:1038900050911B0260911C0270911D022FBF6A01A2
:1038A0007B01EE24FF248C0130E020E0C016D1061D
:1038B000E206F30650F0481B590BCA011F910F9105
:1038C000FF90EF90DF90CF90089541505109F3CFD2
:1038D00078941F921FB61F9211248F939F93AF93DA
:1038E000BF9380911A0290911B02A0911C02B0918B
:1038F0001D020196A11DB11D80931A0290931B0217
:10390000A0931C02B0931D02BF91AF919F918F9124
:103910001F901FBE1F90189587E797E790930108A7
:103920008093000888E19AE00FB6F894A8958093F8
:1039300060000FBE90936000FFCF0E946B1A811150
:1039400002C00E94F11A0E94761A8093E4010E943C
:103950007E1A90E090931F0280931E020E947A1AB2
:10396000682F70E090E080E00C94E4168091E9010B
:1039700080FF12C06091050185E0689FB0011124AD
:10398000759567957595679560387105A8F561150A
:103990007105A1F1862F089581FF09C0609105018D
:1039A00085E0689FB001112475956795EDCF609112
:1039B000050182FD0AC08091E8018823D1F0909131
:1039C000040160910501891728F085E0689FB00126
:1039D0001124DACF869FB001112485E0869F9001E3
:1039E000879F300D1124692F70E0C9010E94112CAE
:1039F000CBCF65E070E0CECF8FE7089581E00895EA
:103A00008091E90180FF0CC06091030170E0759521
:103A10006795759567956115710549F1862F08952C
:103A200081FF06C06091030170E075956795F3CF43
:103A30006091030182FD0BC09091E8019923A1F0F0
:103A40006091020180910301961738F0682F70E0B1
:103A50006038710500F38FE70895899FC001112434
:103A600070E00E94112CF4CF61E070E0D7CF81E0CC
:103A70000895803F31F40E94B61C81958093ED013A
:103A80000895813F19F40E94B61CF8CF823F31F4AB
:103A90000E94B61C81958093EC010895833F19F430
:103AA0000E94B61CF8CF893F29F40E94001D809324
:103AB000EE0108958A3F21F40E94001D8195F7CF01
:103AC0008B3F31F40E94001D81958093EF01089592
:103AD0008C3F19F40E94001DF8CF843F31F480918F
:103AE000EB0181608093EB010895853F21F4809183
:103AF000EB018260F7CF863F21F48091EB01846077
:103B0000F1CF873F21F48091EB018860EBCF883FB4
:103B100021F48091EB018061E5CF8D3F31F48091FC
:103B2000E90181608093E90108958E3F21F480913D
:103B3000E9018260F7CF8F3FB9F78091E901846096
:103B4000F1CF9091EC01803F41F48091ED0187FD30
:103B50001092ED01992371F00895813F29F480912D
:103B6000ED011816ACF3F6CF823F81F497FFF2CF48
:103B70001092EC018091ED019091EE01892B9091D2
:103B8000EF01892B49F71092E8010895833F19F45A
:103B9000191674F3DFCF893F39F48091EE011816BE
:103BA000CCF61092EE01D6CF8A3F29F48091EE0137
:103BB00087FFD0CFF6CF8B3F39F48091EF0187FF9D
:103BC000C9CF1092EF01C6CF8C3F29F48091EF014D
:103BD0001816BCF3BFCF843F31F48091EB018E7F88
:103BE0008093EB01B7CF853F21F48091EB018D7F6E
:103BF000F7CF863F21F48091EB018B7FF1CF873F98
:103C000021F48091EB01877FEBCF883F21F48091F5
:103C1000EB018F7EE5CF8D3F31F48091E9018E7FFE
:103C20008093E90197CF8E3F21F48091E9018D7F48
:103C3000F7CF8F3F09F08ECF8091E9018B7FF0CFD6
:103C40008091E40183FF7EC08FEC93E00E948F0798
:103C50008091EB011F928F938AEC93E09F938F9357
:103C60000E94280888EC93E00E948F078091EC0165
:103C7000282F082E000C330B3F938F9385EC93E095
:103C80009F938F930E94280883EC93E00E948F07F4
:103C90008091ED01282F082E000C330B3F938F935A
:103CA00080EC93E09F938F930E9428088EEB93E023
:103CB0000E948F078091EE01282F082E000C330BF5
:103CC0003F938F938BEB93E09F938F930E942808F1
:103CD00089EB93E00E948F078091EF01282F082E37
:103CE000000C330B3F938F9386EB93E09F938F935E
:103CF0000E94280883EB93E00E948F078091E801DF
:103D00001F928F9380EB93E09F938F930E942808DC
:103D10008EEA93E00E948F078091E9011F928F93B2
:103D20008BEA93E09F938F930E94280888EA93E0A0
:103D30000E948F078DB79EB74C960FB6F8949EBF22
:103D40000FBE8DBF8AEE91E00E94210E0E94261CBC
:103D50009093E7018093E60108951F93CF93DF933B
:103D60008091E6019091E7010E943E1CAC01909188
:103D7000E8012091060130E0911106C02091070171
:103D80008AE0289F900111244217530778F0209170
:103D9000EC01C091ED01D091EE011091EF012111E4
:103DA00009C08C2F8D2B812B09F06AC0DF91CF9138
:103DB0001F9108959F3F19F09F5F9093E80112169D
:103DC00024F40E94B61C8093EC018091EC0187FFE3
:103DD00005C00E94B61C81958093EC011C1624F44A
:103DE0000E94B61C8093ED018091ED0187FF05C014
:103DF0000E94B61C81958093ED013091EC01332334
:103E0000A1F02091ED01222381F045EB3403C001A4
:103E10001124992369F19093EC0145EB240390015F
:103E20001124332349F13093ED011D1624F40E942F
:103E3000001D8093EE018091EE0187FF05C00E9476
:103E4000001D81958093EE01111624F40E94001D3F
:103E50008093EF018091EF0187FF05C00E94001D54
:103E600081958093EF01DF91CF911F910C94201EDB
:103E700081E08093EC01D1CF81E08093ED01D5CF3B
:103E80009F3F09F099CFAACF86E0EAEEF1E0DF018B
:103E90001D928A95E9F71092E8011092E9010895C0
:103EA00082EF95E00E948F071F9281E08F931F920F
:103EB00085E08F9384EA95E09F938F930E94280872
:103EC0000F900F900F900F900F900F9008958330E8
:103ED00009F445C028F4813061F0823049F1089539
:103EE000853009F46AC008F451C0863009F47CC0FA
:103EF000089580910701482F460F5527551F4F3FC2
:103F0000510594F4680F60930701809107011F9297
:103F10008F938DED94E09F938F930E9428080F90CC
:103F20000F900F900F9008958FEF80930701EDCFC2
:103F300080910601482F460F5527551F4F3F5105C9
:103F400054F4680F60930601809106011F928F93CD
:103F50008BEC94E0E0CF8FEF80930601F5CF80915A
:103F60000501482F460F5527551F4F3F510554F463
:103F7000680F60930501809105011F928F9388EB74
:103F800094E0C9CF8FEF80930501F5CF80910401B4
:103F9000482F460F5527551F4F3F510554F4680FC2
:103FA00060930401809104011F928F9383EA94E04F
:103FB000B2CF8FEF80930401F5CF80910301482F9A
:103FC000460F5527551F4F3F510554F4680F609316
:103FD0000301809103011F928F938AE894E09BCFA5
:103FE0008FEF80930301F5CF80910201482F460F98
:103FF0005527551F4F3F510554F4680F6093020138
:10400000809102011F928F938FE694E084CF8FEF0F
:1040100080930201F5CF8330C9F128F4813061F03B
:10402000823019F10895853009F452C008F43FC078
:10403000863009F45EC0089580910701681790F4F6
:10404000861B80930701809107011F928F9380E662
:1040500094E09F938F930E9428080F900F900F90E9
:104060000F90089510920701EECF80910601681716
:1040700050F4861B80930601809106011F928F9356
:104080008EE494E0E6CF10920601F6CF8091050110
:10409000681750F4861B80930501809105011F92DB
:1040A0008F938BE394E0D5CF10920501F6CF8091EA
:1040B0000401681750F4861B809304018091040169
:1040C0001F928F9386E294E0C4CF10920401F6CF42
:1040D00080910301681750F4861B8093030180913F
:1040E00003011F928F938DE094E0B3CF10920301F0
:1040F000F6CF80910201681750F4861B809302016D
:10410000809102011F928F9382EF93E0A2CF1092D1
:104110000201F6CFCF93C82F1F928F9387EF96E0BF
:104120009F938F930E94280861E070E080E090E008
:1041300004C0660F771F881F991FCA95D2F70E9487
:10414000E4160F900F900F900F90CF910C942213C4
:10415000CF93EBEFE80FEF3308F026C2F0E0E8531F
:10416000F34D0C94252C86E69CE00E948F0782EA92
:104170009BE00E948F070E947A1A1F928F938FE90B
:104180009BE09F938F930E9428088DE99BE00E94FB
:104190008F070E94761AC82F8AE89BE00E948F073B
:1041A0001F92CF9385E89BE09F938F930E942808EE
:1041B00083E89BE00E948F0789E79BE00E948F07BE
:1041C0008C2F81701F928F9386E79BE09F938F9334
:1041D0000E94280884E79BE00E948F078AE69BE004
:1041E0000E948F07C1FB882780F91F928F9387E673
:1041F0009BE09F938F930E94280885E69BE00E9496
:104200008F0789E59BE00E948F07C2FB882780F912
:104210001F928F9386E59BE09F938F930E942808BF
:1042200084E59BE00E948F078BE49BE00E948F0750
:10423000C3FBCC27C0F91F92CF9388E49BE09F93E8
:104240008F930E94280886E49BE00E948F070E94BB
:104250007E1AC82F82E39BE00E948F071F92CF93A4
:104260008DE29BE09F938F930E9428088BE29BE056
:104270000E948F0782E19BE00E948F078C2F817044
:104280001F928F938FE09BE09F938F930E9428084B
:104290008DB79EB780960FB6F8949EBF0FBE8DBFA8
:1042A0008DE09BE00E948F0786EF9AE00E948F07C7
:1042B000C1FB882780F91F928F9383EF9AE09F9329
:1042C0008F930E94280881EF9AE00E948F078FED5C
:1042D0009AE00E948F07C2FB882780F91F928F9374
:1042E0008CED9AE09F938F930E9428088AED9AE0C4
:1042F0000E948F0788EC9AE00E948F07C3FB8827F3
:1043000080F91F928F9385EC9AE09F938F930E9480
:10431000280883EC9AE00E948F0789EB9AE00E94BC
:104320008F07C4FB882780F91F928F9386EB9AE052
:104330009F938F930E94280884EB9AE00E948F0736
:1043400082EA9AE00E948F07C5FB882780F91F92B6
:104350008F938FE99AE09F938F930E9428088DE9AD
:104360009AE00E948F0781E89AE00E948F07C6FBBF
:10437000882780F91F928F938EE79AE09F938F93FF
:104380000E9428088CE79AE00E948F0784E79AE051
:104390000E948F07C7FBCC27C0F91F92CF9381E7FC
:1043A0009AE09F938F930E9428088FE69AE00E94DC
:1043B0008F078DB79EB74C960FB6F8949EBF0FBE71
:1043C0008DBF81E01CC085E59CE00E948F070E94A4
:1043D000F11AF7CF8DEB98E00E948F07F2CF809112
:1043E000E401807F8093E40186E998E00E948F07D2
:1043F00081E59CE00E948F0781E08093F101CF91DD
:1044000008950E94221385E39CE00E948F079FEF8E
:1044100023ED80E3915020408040E1F700C0000090
:104420000E948C1CCECF9091E401892F8E7F90FF4B
:1044300081608093E40180FF03C089E29CE0CCCFDF
:104440008CE19CE00E948F078091E401817F809342
:10445000E401B7CF9091E401892F8D7F91FF8260B5
:104460008093E40181FF08C08FE09CE00E948F07E9
:104470008091E4018160EBCF81E09CE0ADCF909131
:10448000E401892F8B7F92FF84608093E40182FF97
:1044900003C082EF9BE0EACF82EE9BE09DCF90913C
:1044A000E401892F877F93FF88608093E40183FF75
:1044B00003C086ED9BE0DACF89EC9BE08DCF87E8E7
:1044C00098E00E948F078BE598E00E948F0786E1B5
:1044D00098E00E948F0783EE97E00E948F0788EA9A
:1044E00097E00E948F078DE797E076CF8FE697E001
:1044F0000E948F070E94BA0D1F928F9385E597E067
:104500009F938F930E942808809112011F928F938E
:104510008EE397E09F938F930E9428088091160264
:104520001F928F938BE297E09F938F930E942808AE
:1045300080911E0287FB882780F91F928F9383E169
:1045400097E09F938F930E9428080E94321C9F93AC
:104550008F937F936F938CEF96E09F938F930E943E
:1045600028088DB79EB746960FB6F8949EBF0FBE2B
:104570008DBF27CF0E94221390911E02892F97FB97
:1045800087F9805880931E0287FF03C08FEB9BE062
:1045900023CF84EB9BE020CF80E00E948A2011CFC4
:1045A0008953FBCF8D51F9CF82EB9BE00E948F079F
:1045B00080E025CF80E008950C94DA228E518A3075
:1045C00030F4E82FF0E0ED5EFE4F8081089580E04A
:1045D0000895CF93C82F8091F1018130C1F08823D5
:1045E00039F0823009F447C01092F10180E00DC02B
:1045F0000E9418198232D1F78C2F0E94DA22811181
:104600001BC08C2F0E94A8208170CF9108950E941A
:104610001819823289F38C2F0E94DC2281111BC071
:10462000C431D9F060F4CB3071F0C031D1F08DEEEF
:1046300096E00E948F0713C081E090E0E5CFC93279
:1046400061F0C833A1F786E998E00E948F0783EFF5
:1046500096E00E948F0781E0D7CF1092F10180E0B1
:10466000D3CF0E94501F8FEE96E00E948F0782E00A
:104670008093F101F0CFC432C8F4CE3108F0BEC04F
:10468000CB30E1F040F4C73009F4CCC081E995E0CB
:104690000E948F0726C0C331C1F1C431B9F78091A0
:1046A000F001882351F11092F0010AC0CB3409F4D3
:1046B000B7C0C8F4C93299F3C83341F70E94501FFC
:1046C0008091F001882309F4C4C01F928F938BE876
:1046D00095E09F938F930E9428080F900F900F9062
:1046E0000F9081E092CFC13509F494C0C23509F42E
:1046F0008BC0CE3459F66AE08EC080EA95E00E9405
:104700008F0781E08093F10180CF8AE795E00E94D6
:104710008F0788E695E00E948F07809107011F921E
:104720008F9385E695E09F938F930E94280883E6F8
:1047300095E00E948F0781E595E00E948F078091A8
:1047400006011F928F938EE495E09F938F930E94B2
:1047500028088CE495E00E948F078DE395E00E9485
:104760008F07809105011F928F938AE395E09F93B5
:104770008F930E94280888E395E00E948F0787E2C4
:1047800095E00E948F07809104011F928F9384E22D
:1047900095E09F938F930E94280882E295E00E9403
:1047A0008F078DE095E00E948F07809103011F9293
:1047B0008F938AE095E09F938F930E94280888E06A
:1047C00095E00E948F0781EF94E00E948F0780910F
:1047D00002011F928F938EEE94E09F938F930E941D
:1047E00028088CEE94E00E948F078DB79EB74896FC
:1047F0000FB6F8949EBF0FBE8DBF62CF8C2F0E9464
:10480000DE228093F0015CCF61E08091F0010E9494
:10481000671F56CF61E08091F0010E940B2050CFBE
:104820006AE0F3CF8EE18093070182E38093060173
:104830008AE08093050184E18093040188E08093FD
:10484000030188E28093020183E995E00E948F07CB
:1048500037CF88E895E01CCF8091150208959FB767
:10486000F8941092F4019FBF90912402943009F0C3
:1048700048C02091E9002F703091EC00932F917087
:1048800030FD90E8922B23E02093E9002091EB008B
:1048900020FF34C02091EE0027FF30C02091F201AC
:1048A000222321F02091E80025FF28C01092F20178
:1048B00026E03091E80035FF14C08093F10080912C
:1048C000E80085FD27C08091E80080FFFCCF809143
:1048D000E8008E778093E8009F709093E90080E075
:1048E000089530912402343049F43091EB0035FDC5
:1048F00005C0215041F481E08093F2019F709093B4
:10490000E9008FEF0895EFE9FFE03197F1F700C07C
:104910000000CFCF8FB7F89421E02093F4018FBF30
:10492000DBCF0F931F93CF93DF9300D00F92CDB7C0
:10493000DEB78C010E945827823011F0843021F5B7
:1049400084E089831B830A8382E08093E9008FEFF0
:104950009091E800815095FD06C095ED9A95F1F78C
:1049600000008111F5CF8091E80085FF0DC050E077
:1049700040E063E070E0CE0101960E9475278091CF
:10498000E8008E778093E8000F900F900F90DF91F2
:10499000CF911F910F910895CF93DF9300D00F9285
:1049A000CDB7DEB720912402243031F523E02983EE
:1049B000805891099B838A8382E08093E9008FEF7E
:1049C0009091E800815095FD06C095ED9A95F1F71C
:1049D00000008111F5CF8091E80085FF0DC050E007
:1049E00040E063E070E0CE0101960E94752780915F
:1049F000E8008E778093E8000F900F900F90DF9182
:104A0000CF910895CF93DF93EC010E945827823015
:104A100011F08430F9F482E08093E9008FEF9091F7
:104A2000E800815095FD06C095ED9A95F1F70000DC
:104A30008111F5CF8091E80085FF0CC050E040E087
:104A400066E070E0CE010E9475278091E8008E77C5
:104A50008093E800DF91CF910895CF93DF93EC012D
:104A60000E945827823011F08430B9F580911201EC
:104A70008823B1F180911E0287FF32C060E282E09C
:104A80008093E9008FEF9091E800815095FD06C07A
:104A900095ED9A95F1F700008111F5CF8091E8002E
:104AA00085FF1BC08091120170E050E040E0811151
:104AB00004C050E040E068E070E0CE010E9475273D
:104AC0008091E8008E778093E80080E2FE01A5EFF8
:104AD000B1E001900D928A95E1F7DF91CF910895B1
:104AE00068E081E0CDCF86E99CE00E948F0780914D
:104AF0002302811109C00E9405290E946229809128
:104B0000E20084608093E200089582E99CE00E94C4
:104B10008F071092230208958EE89CE00C948F0773
:104B20008AE89CE00C948F0786E89CE00E948F073F
:104B30000C94EE1B2091F3012F5F822F62E30E9401
:104B4000052C992319F02093F30108951092F30195
:104B50008091F4018823F1F0809124028430C1F423
:104B60009091E9009F702091EC00822F817020FDD0
:104B700080E8892B93E09093E9009091EB0090FFFF
:104B800004C09091EE0097FD08C08F708093E900FB
:104B90001092F40108951092F1009091E80095FDB3
:104BA000FACF9091E80090FFF0CF9091E8009E77C7
:104BB0009093E800EACF42E061EC81E00E94812816
:104BC00042E261EC82E00E94812842E261EC83E0F3
:104BD0000C94812880912602833009F45FC030F460
:104BE0008130C1F1823009F49BC008958A3009F404
:104BF00087C08B3009F46DC0893009F04EC08091B8
:104C00002502813209F049C08091290290912A023F
:104C1000029708F042C08091E800877F8093E80007
:104C20008091E80082FF35C09091F3008091F200FE
:104C3000029729F48091F1008B7F813021F48091DB
:104C4000F100809315028091E8008B778093E80053
:104C50000C94B52880912502813AF9F48091E800FE
:104C6000877F8093E8008091290290912A02892B06
:104C700061F460E285EF91E070E00E94C4278091CA
:104C8000E8008B778093E800089560E090E080E092
:104C9000F3CF809124028111C3CF08958091250222
:104CA000813AD9F78091290290912A02892BA9F79C
:104CB0008091E800877F8093E8008091E80080FF82
:104CC000FCCF809112018093F1008091E8008E77F3
:104CD000BDCF80912502813201F780912902909108
:104CE0002A02892BD1F68091E800877F8093E80023
:104CF0000E94B52880912702809312010C94221300
:104D000080912502813249F68091E800877F809367
:104D1000E8000E94B5288091280280931602089529
:104D200080912502813A09F0B8CF8091E800877F11
:104D30008093E8008091E80080FFFCCF809116020C
:104D4000C2CF84B7877F84BF0FB6F894A8958091AF
:104D50006000886180936000109260000FBE80E860
:104D600080936100109261000E94690E0E940529E3
:104D70000E9462298091E20084608093E2008FE2C9
:104D800094E20E94F41978940E94EA2B0E94710E1A
:104D900088E091E00E94B50D85E79CE00E948F07B6
:104DA00080912402853019F00E94A10EF9CF81E78D
:104DB0009CE00E948F070E94A51B809122028823FD
:104DC00079F30E94D61B882359F30E945F27E8CF0E
:104DD0000C94EA26292F33272330310521F168F47A
:104DE0002130310509F449C02230310509F44AC0A7
:104DF00090E080E030E020E029C02132310581F1EF
:104E000022323105A9F76330710590F7FB01EE0FEF
:104E1000FF1FE05EFE4F20813181635E7E4FFB010C
:104E2000808190E013C099278130910599F0009717
:104E300041F08230910589F00397D1F6EAE9FCE070
:104E400002C0E0EEFCE0849190E09F01FA01318322
:104E500020830895E0ECFCE0F6CFE0EAFCE0F3CF3D
:104E60006330710528F6660F771FFB01EA5DFE4F80
:104E70002081318189E090E0E9CF82E190E02FE369
:104E80003DE0E4CF8BE590E024EE3CE0DFCF0895F9
:104E9000CF93C82F0E944727C0931702CF91089540
:104EA00080912402843011F482E0089581E0089515
:104EB00080911702811102C00C945027089580E15F
:104EC00089BD82E189BD09B400FEFDCF8091D80083
:104ED0008F7D8093D8008091E00082608093E00015
:104EE0008091E00081FDFCCF0895AF92BF92CF92F8
:104EF000DF92FF920F931F93CF93DF936C01EB012F
:104F00008A010E94D428F82E811123C001151105B1
:104F100039F0F80180819181C81BD90BC80ED91EC8
:104F2000B12CA12C2097A9F08091E80085FD22C02A
:104F30008091E8008E778093E80001151105A1F0BB
:104F4000F80180819181A80EB91EB182A08285E00E
:104F5000F82E8F2DDF91CF911F910F91FF90DF9051
:104F6000CF90BF90AF9008950E94D4288823D1F2AB
:104F7000F82EEFCFF60181916F018093F100219718
:104F8000FFEFAF1ABF0ACECFFC0180912B029091A8
:104F90002C0286179707A0F06115710529F49091EE
:104FA000E8009E779093E80090E06115710551F458
:104FB000911108C08091E80082FF34C080E008951C
:104FC000BC01F2CF809124028823C1F18530C1F168
:104FD0008091E80083FD30C08091E80082FDEACF37
:104FE0008091E80080FFE1CF8091F3002091F200F2
:104FF000382F6115710519F02830310558F091E00E
:105000002830310509F090E02091E8002E772093B8
:10501000E800CBCF81918093F100615071092F5F3F
:105020003F4FE7CF80912402882341F0853041F043
:105030008091E80083FFBECF81E0089582E008956B
:1050400083E00895FC0180912B0290912C02861739
:105050009707A0F06115710529F48091E8008E771B
:105060008093E80090E06115710551F4911108C03A
:105070008091E80082FF35C080E00895BC01F2CF46
:10508000809124028823C9F18530C9F18091E8001C
:1050900083FD31C08091E80082FDEACF8091E80075
:1050A00080FFE1CF8091F3002091F200382F61154D
:1050B000710519F02830310558F091E0283031059C
:1050C00009F090E08091E8008E778093E800CBCFE4
:1050D00084918093F1003196615071092F5F3F4FA9
:1050E000E6CF80912402882341F0853041F0809101
:1050F000E80083FFBDCF81E0089582E0089583E05A
:105100000895982F973028F08F708093E90081E000
:1051100008959093E900242F762F50E0981731F0EE
:105120007091EC002091ED005091F00021FD02C043
:105130009F5FE8CF3091EB003E7F3093EB003091E2
:10514000ED003D7F3093ED003091EB003160309306
:10515000EB007093EC002093ED005093F000209151
:10516000EE0027FDE5CF80E008958091250287FFBE
:1051700013C08091E80082FF06C08091E8008B7721
:105180008093E80004C0809124028111F2CF089539
:10519000809124028823D9F38091E80080FFF8CF22
:1051A0008091E8008E77ECCF2091E4003091E5000B
:1051B00095E6A9012091EC00822F817020FF06C0A6
:1051C0008091E80080FF06C080E008952091E8000B
:1051D00022FD1AC080912402882389F0853089F04D
:1051E0008091EB0085FD0FC02091E4003091E50037
:1051F00042175307F9F29150E1F684E0089582E0F6
:10520000089583E0089581E008950E9473290E9423
:105210007B29E0EEF0E0808181608083E8EDF0E0C2
:1052200080818F77808319BCA7EDB0E08C918E7F51
:105230008C9380818F7E80831092230208950F9338
:105240001F93CF93DF930E9473290E947B29C8ED9F
:10525000D0E088818F77888388818068888388817F
:105260008F7D888319BC1092240210922002109224
:1052700022021092210200EE10E0F80180818B7F63
:10528000808388818160888342E060E080E00E94C2
:105290008128E1EEF0E080818E7F8083E2EEF0E015
:1052A000808181608083808188608083F801808133
:1052B0008E7F8083888180618883DF91CF911F9169
:1052C0000F910895E8EDF0E080818F7E8083E7ED17
:1052D000F0E080818160808384E082BF81E0809300
:1052E00023020C941F29E8EDF0E080818E7F8083FB
:1052F0001092E20008951092DA001092E1000895F1
:105300001F920F920FB60F9211242F933F934F933A
:105310005F936F937F938F939F93AF93BF93EF931D
:10532000FF938091E10082FF0BC08091E20082FF39
:1053300007C08091E1008B7F8093E1000E949A2555
:105340008091DA0080FF19C08091D80080FF15C0DD
:105350008091DA008E7F8093DA008091D90080FFFF
:1053600096C080E189BD82E189BD09B400FEFDCF10
:1053700081E0809324020E9473258091E10080FFE8
:1053800019C08091E20080FF15C08091E2008E7FFD
:105390008093E2008091E20080618093E20080913E
:1053A000D80080628093D80019BC85E080932402E5
:1053B0000E9490258091E10084FF2BC08091E20043
:1053C00084FF27C080E189BD82E189BD89B5982F1E
:1053D000917080FFFBCF8091D8008F7D8093D800A3
:1053E0008091E1008F7E8093E1008091E2008F7ECA
:1053F0008093E2008091E20081608093E2008091DE
:105400002002882309F449C084E0809324020E948A
:1054100094258091E10083FF29C08091E20083FF01
:1054200025C08091E100877F8093E10082E0809336
:105430002402109220028091E1008E7F8093E1008F
:105440008091E2008E7F8093E2008091E200806193
:105450008093E20042E060E080E00E948128809139
:10546000F00088608093F0000E948C25FF91EF91FE
:10547000BF91AF919F918F917F916F915F914F916C
:105480003F912F910F900FBE0F901F90189519BC50
:10549000109224020E94852570CF8091E30087FD41
:1054A00093E090932402B3CF1F920F920FB60F9206
:1054B00011242F933F934F935F936F937F938F9319
:1054C0009F93AF93BF93CF93DF93EF93FF93D091CD
:1054D000E900DF708091EC00C82FC17080FDC0E84A
:1054E0001092E9008091F000877F8093F00078941B
:1054F0000E94982A1092E9008091F00088608093C1
:10550000F000CD2BCF70C093E900FF91EF91DF91B8
:10551000CF91BF91AF919F918F917F916F915F914B
:105520004F913F912F910F900FBE0F901F901895A4
:105530001F93CF93DF93CDB7DEB7AA970FB6F8943A
:10554000DEBF0FBECDBF85E292E02091F100FC01ED
:105550002193CF01F2E08D329F07B9F70E94EA252F
:105560008091E80083FF1EC1809125029091260260
:105570009A3008F017C1E92FF0E0E95FF24D0C9482
:10558000252C803899F0823809F00CC180912902CD
:105590008F70873008F006C18093E9008091EB009E
:1055A00085FB882780F91092E90006C080912102CE
:1055B00090912202911182609091E800977F9093E0
:1055C000E8008093F1001092F1008091E8008E775E
:1055D000E5C0882309F4D3C0823009F0E3C080918C
:1055E00027028111D6C0809129028F702FEF280FDA
:1055F000263008F0D7C08093E9002091EB0020FF0F
:10560000C8C0933031F48091EB0080628093EB004E
:10561000C0C09091EB0090619093EB0021E030E0EE
:1056200001C0220F8A95EAF72093EA001092EA005F
:105630008091EB008860EACF8111B4C010912702FD
:105640001F778091E3008078812B8093E300809125
:10565000E800877F8093E8000E94B5288091E800E9
:1056600080FFFCCF8091E30080688093E30082E0BC
:10567000111183E08093240295C08058823008F095
:1056800091C080912702909128028C3D23E09207DF
:10569000A1F583E08A838AE289834FB7F894DE011B
:1056A000139620E03EE051E2E32FF0E050935700E4
:1056B000E49120FF03C0E295EF703F5FEF708E2F03
:1056C00090E0EA30C0F0C7968D939D932F5F243110
:1056D00059F74FBF8091E800877F8093E8006AE226
:1056E00070E0CE0101960E94C4278091E8008B777C
:1056F0008093E80057C0C096E7CF6091290270916F
:105700002A02AE014F5F5F4F0E94E826BC01892B41
:1057100009F448C09091E800977F9093E800898150
:105720009A810E942228E1CF8038E1F58091E8003B
:10573000877F8093E800809120028093F10045CF1D
:10574000811130C090912702923060F58091E8007D
:10575000877F8093E800909320020E94B528809173
:105760002002882311F084E005C08091E30087FDCA
:10577000FACF81E0809324020E94DB2513C0809140
:105780002702813079F481E0933009F080E0809342
:1057900022021092E9008091E800877F8093E80060
:1057A0000E94B5288091E80083FF0AC08091E8003C
:1057B000877F8093E8008091EB0080628093EB000C
:1057C000AA960FB6F894DEBF0FBECDBFDF91CF9182
:1057D0001F910895CF93809124028823A1F0C09156
:1057E000E900CF709091EC00892F817090FD80E8E6
:1057F000C82B1092E9008091E80083FD0E94982A4E
:10580000CF70C093E900CF910895991B79E004C04F
:10581000991F961708F0961B881F7A95C9F78095EF
:10582000089597FB072E16F4009407D077FD09D052
:105830000E942B2C07FC05D03EF4909581959F4F3C
:105840000895709561957F4F0895EE0FFF1F0590A5
:10585000F491E02D0994AA1BBB1B51E107C0AA1FBC
:10586000BB1FA617B70710F0A61BB70B881F991F01
:105870005A95A9F780959095BC01CD010895F999A5
:10588000FECF92BD81BDF89A992780B50895A8E111
:10589000B0E042E050E00C94732C262FF999FECF33
:1058A00092BD81BDF89A019700B4021639F01FBA73
:1058B00020BD0FB6F894FA9AF99A0FBE0895039690
:1058C000272F0E944E2C0E944D2C252F0E944E2CDB
:1058D000242F0C944E2C0196272F0E944E2C0C94B2
:1058E0004D2CDC01CB01FC01F999FECF06C0F2BDC5
:1058F000E1BDF89A319600B40D9241505040B8F78E
:105900000895F894FFCF310A3D0A410A450A490A31
:105910004D0A510A550A590A5D0A610A650A690A5F
:105920006D0A710A750A790A7D0AC710C71023111A
:10593000231175119111F410F410D311F4105F12AA
:105940005F12C812F410F410D112691269126912B0
:10595000691269126912691269126912691269126F
:1059600069126912691269126912761284128B1215
:1059700092129C12311331133A133A133C133A1317
:105980003A133A133113311341133A133A134113B3
:105990000122EF211322B320D422D422EA21D422DF
:1059A000D4223F22D4224F22BA22D422D422D4227B
:1059B000D4227622D422D4225F22D4222A22D422B4
:1059C000D422D222D222D222D222D222D222D22235
:1059D000D222D222CC22D4220122E321D422D422E8
:1059E000D422D422D422D422D422D422D422D42207
:1059F000CC22D422D422EA21D422D022D022D022F6
:105A0000D022D022D022D022D022D022CC22C12A11
:105A1000E92AD22BE92AD22B1C2B3D2BD22B942BFB
:025A2000A02BB9
:105A2200C1012808140A321E2C242D250225CC245B
:105A32009124010102030405060708090040C0225F
:0C5A4200330E730D510DF60C0F0D280DE6
:00000001FF
