:100000000C9426030C948C050C946D030C946D03D6
:100010000C946D030C946D030C946D030C946D03A0
:100020000C946D030C946D030C9429270C94FB27FE
:100030000C94B71D0C946D030C946D030C946D031C
:100040000C946D030C946D030C946D030C946D0370
:100050000C946D030C941F1E0C946D030C946D0393
:100060000C946D030C946D030C946D030C946D0350
:100070000C946D030C946D030C946D030C946D0340
:100080000C946D030C946D030C946D030C946D0330
:100090000C946D030C946D030C946D030C946D0320
:1000A0000C946D030C946D030C946D03F606F80626
:1000B0000307FA06FC06FE06000702070507070706
:1000C000090714070B070D070F071107130716077A
:1000D000A614A614E014E0141F153F15B216B216AC
:1000E0008115B21631163116A416B216B216AC1618
:1000F0003E163E163E163E163E163E163E163E1660
:100100003E163E163E163E163E163E163E163E164F
:1001100050165E1665166C16761645174517571756
:1001200057174E1757175717571745174517531790
:1001300057175717531768288F2881298F28812927
:10014000DB28FE2881295429632907634236B79B9F
:10015000D8A71A39685618AEBAAB558C1D3CB7CC27
:100160005763BD6DEDFD753EF6177231BF0000009F
:10017000803F05A84CCDB2D44EB93836A9020C50F8
:10018000B9918688083CA6AAAA2ABE000000803F32
:1001900035421E001F0020002100220001512B00CB
:1001A00014001A000800150017002F002900040091
:1001B0001600070009000A004B43E1001D001B0068
:1001C0000600190005004E00E30057005600556474
:1001D00054612A004C002D422700260025002400EF
:1001E000230001512E00130012000C0018001C0007
:1001F0003000340033000F000E000D000B004D43A3
:10020000E500310037003600100011004A004F00B1
:10021000520051005000E6002C00280001003A0076
:100220003B003C003D003E00010001001E021F0299
:100230002F023002310201000100200221022F00B2
:1002400030003500010001002202230226022702AD
:100250003502010001000100010001000100010060
:100260000100000043004200410040003F00010047
:1002700000000000610060005F000000010000005D
:1002800000005E005D005C00000001000000000056
:100290005B005A00590000000100000000006300EC
:1002A0006200620001000100010001000100010084
:1002B00001000100010000000000F0000000F90052
:1002C000000001000000F200F100F300FA0000005D
:1002D000010000000000000000000000000001001C
:1002E0000000000000000000F400F5000100010023
:1002F00001000100010001000100010000000000F8
:1003000000000000000000000100000000004F009D
:1003100052005100500001000000000000000000E9
:1003200000000000010000000000000000000000CC
:100330000100010000003A003B003C003D003E008F
:100340003F000000005CCB5CC05CC15CC45CC35C73
:10035000000000000000000000000000010000009C
:10036000000000000000000000000000000000008D
:1003700000000000000000000000000045004400F4
:10038000430042004100400000004C000000C75CF8
:10039000C85CC55CC65C00000000000000000000F6
:1003A000000001000000000000000000000000004C
:1003B000000000000000000000000000000000003D
:1003C0006801F000B40078005A007F3F1F643214C7
:1003D000643214783C1E1E140A050000000000015F
:1003E00001010101010101010202020202020202F5
:1003F00002030303030303030304040404040405C6
:100400000505050506060606060707070708080886
:10041000080909090A0A0A0A0B0B0B0C0C0C0D0D32
:100420000D0E0E0F0F0F10101111111212131314C5
:1004300014151516161717181819191A1A1B1C1C3B
:100440001D1D1E1F1F202021222223242525262793
:100450002728292A2B2B2C2D2E2F2F3031323334C5
:100460003536363738393A3B3C3D3E3F40414243D2
:1004700044464748494A4B4C4D4F505152535556AC
:1004800057585A5B5C5E5F606263646667696A6C5A
:100490006D6E707173747678797B7C7E80818384D5
:1004A00086888A8B8D8F91929496989A9B9D9FA116
:1004B000A3A5A7A9ABADAFB1B3B5B7B9BBBDBFC11C
:1004C000C4C6C8CACCCFD1D3D6D8DADCDFE1E4E6E3
:1004D000E8EBEDF0F2F5F7FAFCFF04033000000062
:1004E0002603540068006500200052006500640087
:1004F0006F00780020004B006500790062006F00FB
:1005000061007200640000001403460061006C008A
:10051000620061007400650063006800000004036D
:10052000090409025400030100A0FA0904000001B3
:10053000030101000921110100012240000705818A
:100540000308000A09040100010301020009211146
:10055000010001224D000705820308000A09040278
:1005600000010300000009211101000122360007EB
:1005700005830308000A1201100100000008EDFEC7
:10058000000000010102030105010980A1018502AB
:100590001601002603001A81002A830075109501B8
:1005A0008100C0050C0901A1018503160100269CEC
:1005B000021A01002A9C02751095018100C00501F4
:1005C0000902A1010901A100050919012905150068
:1005D00025019505750181029501750381010501CC
:1005E000093009311581257F950275088106093882
:1005F0001581257F950175088106050C0A380215BD
:1006000081257F950175088106C0C005010906A1F5
:1006100001050719E029E7150025019508750181F5
:1006200002950175088101050819012905950575CF
:100630000191029501750391010507190029FF1524
:100640000026FF00950675088100C00011241FBE1A
:10065000CFEFDAE0DEBFCDBF04B603FE27C0809146
:100660004A0290914B02A0914C02B0914D0287300A
:10067000904BA740B04BD1F410924A0210924B021B
:1006800010924C0210924D0214BE84B7877F84BF33
:100690000FB6F894A89580916000886180936000FF
:1006A000109260000FBEE0E0F8E3099511E0A0E0D1
:1006B000B1E0ECEEFAE502C005900D92A034B1076E
:1006C000D9F722E0A0E4B1E001C01D92AA34B2073C
:1006D000E1F70E944E240C94742D0C9400000895B0
:1006E00008950C9470038091E90183608860809381
:1006F000E901ADE1B1E041E050E025E02A0F8D9144
:10070000E82FE295EF70F0E031A18F70BA0102C0DE
:10071000660F771F8A95E2F7CB01962F909593236A
:1007200091A392A1892B82A32A13E9CFA6E1B1E07C
:1007300041E050E027E02A0F8D91E82FE295EF701D
:10074000F0E031A18F70BA0102C0660F771F8A9561
:10075000E2F7CB01962F9095932391A392A1892B39
:1007600082A32A13E9CF559A209AABE4B1E0E0E4E2
:10077000F1E08AE08E0F11921D928E13FCCF0C9443
:10078000F7082F923F924F925F926F927F928F92D3
:100790009F92AF92BF92CF92DF92EF92FF920F9310
:1007A0001F93CF93DF9300D000D0CDB7DEB78091F9
:1007B0000001811104C035E0C32ED12C02C0C12C30
:1007C000D12C9601255B3E4F79013C832B830DE1B3
:1007D00011E0AA24A394B12C8824839494E0992E48
:1007E00025E0722E700E6B817C81DB015C901C9287
:1007F000F80181918F01E82FE295EF70F0E021A1DF
:100800008F70A50102C0440F551F8A95E2F7CA01F7
:10081000242B21A322A1642E6094262122A350EA36
:100820005A95F1F7A6E1B1E0BA83A98320E030E060
:10083000A981BA813D90BA83A983432D42954F7017
:1008400050E0DA0190962C90AB81BC814C90432D06
:100850004F70D50102C0AA0FBB1F4A95E2F7AD0148
:10086000422139F44A2D022E01C0440F0A94EAF7BE
:1008700001C040E04429AB81BC814C932F5F3F4FC6
:1008800027303105A9F691A1692261A292A1892B95
:1008900082A31196BC83AB83FB018081581659F06B
:1008A000809255010E94E91D909357018093560153
:1008B0008BB189258BB9701296CF80915501882311
:1008C000D1F080915601909157010E94F51D069735
:1008D00090F080E090E0FC01EC0DFD1DE05CFE4F2F
:1008E000D701A80FB91F2C9120830196853091055F
:1008F00091F71092550181E00F900F900F900F909B
:10090000DF91CF911F910F91FF90EF90DF90CF90EB
:10091000BF90AF909F908F907F906F905F904F901F
:100920003F902F900895CF93DF9380910001811124
:1009300003C0C0E0D0E002C0C5E0D0E00E94FF05E7
:10094000009791F420E030E0F901E65AFE4F408133
:10095000F901EC0FFD1FE05CFE4F40832F5F3F4F1E
:100960002530310589F702C081E090E0DF91CF9119
:100970000895CF930E94C103C82F0E949304892B2E
:10098000F9F05D9890914A019F5F90934A019630EB
:10099000D0F080910001811103C040E050E002C01E
:1009A00045E050E020E030E0F901E40FF51FE05CA5
:1009B000FE4F10822F5F3F4F25303105A9F703C04E
:1009C0005D9A10924A010E94F9088C2FCF910895E8
:1009D0000E94C10380910001811103C025E030E035
:1009E00002C020E030E080E090E0FC01E20FF31F65
:1009F000E05CFE4F4081FC01E65AFE4F40830196C9
:100A00008530910591F70895E82FF0E0E05CFE4F06
:100A1000808108950895E8EDF0E080818061808311
:100A20008AE18A95F1F700C08091D900817008951C
:100A30000E940B05809300010E940B05882319F08A
:100A40000E947F0504C00E94E01D0E9483057894E7
:100A500008950E9473030E94E804FDCF0E941805C8
:100A60000E940B05811102C00E9429050895509A29
:100A700008955098589A0895589A08950E943705F5
:100A8000589880E88A95F1F70C943C050E94390546
:100A9000489BFECF80E88A95F1F708950E943905BA
:100AA00098E080E029B12170880F822B20E82A95F8
:100AB000F1F725E02A95F1F70000915099F7089594
:100AC0000F931F93CF93082F0E943705C8E010E0C3
:100AD000C15088F0C8010C2E02C0959587950A94E4
:100AE000E2F780FF03C00E943C0501C0589880E8EF
:100AF0008A95F1F7EDCFCF911F910F9108950E9444
:100B000037050C943C050E943905E89AE9E6F0E0C7
:100B100080818C7F808308951F920F920FB60F9271
:100B20001124CF92DF92EF92FF921F932F933F9366
:100B30004F935F936F937F938F939F93AF93BF93E5
:100B4000EF93FF93CF93DF931F92CDB7DEB70E9451
:100B50003E05C12CD12C10E0C601865A9E4F7C0167
:100B6000FC0180810E9460050E943E05F7018081A2
:100B7000180FFFEFCF1ADF0A85E0C816D10461F71E
:100B8000812F0E9460050E943E0590E89A95F1F73A
:100B9000E0E4EA95F1F70E944E05809359010E9426
:100BA0003E05109159010E944E0589830E943E0521
:100BB0000E9439058981181721F0809158018160C0
:100BC00003C0809158018E7F809358010F90DF9170
:100BD000CF91FF91EF91BF91AF919F918F917F91B5
:100BE0006F915F914F913F912F911F91FF90EF90E7
:100BF000DF90CF900F900FBE0F901F901895CF925F
:100C0000DF92EF92FF921F93CF93DF931F92CDB7A6
:100C1000DEB7F8940E943705589825E02A95F1F739
:100C200000000E9439050E943C0530E83A95F1F732
:100C3000489934C00E944605C12CD12C10E00E9476
:100C40004E05F601E65AFE4F7F0180830E9446055D
:100C5000F7018081180FFFEFCF1ADF0A25E0C216D7
:100C6000D10469F70E944E0589830E944605898157
:100C7000181314C0809159010E9460050E94460516
:100C8000809159010E9460050E9446050E94370527
:100C90000E943C05789480E090E003C0789481E065
:100CA00090E00F90DF91CF911F91FF90EF90DF9038
:100CB000CF9008950C946F0381E0089581E008952A
:100CC0000C945E060E9433172FEF84E39CE02150C2
:100CD00080409040E1F700C000000C94451E0F9347
:100CE0001F93CF93DF938C01FC01C081D181CE0192
:100CF0000E94081CBE010E940409EC01B8010E9478
:100D00006006882309F46DC2B801CE010E94620B0F
:100D1000882309F466C2C93CFCE5DF0741F4F80109
:100D20008281882309F45DC20E944D0C5AC2CA3CDC
:100D30008CE5D80708F012C1C13C9CE5D90761F4E5
:100D4000F8018281882309F44CC20E94BA1C827285
:100D5000F1F00E94C10E45C2C23CECE5DE07D0F0C6
:100D6000F8018281C53CFCE5DF0709F4CCC008F03E
:100D7000DCC0C33CECE5DE0709F4CBC008F0CFC013
:100D8000882309F42EC20E94BA1C827211F30E94B9
:100D9000B70E27C2C531FCE5DF0708F07DC0C230C1
:100DA0008CE5D80708F452C0F8018281882309F441
:100DB00059C00E94141D811102C00E94F31C0E94A0
:100DC000271D90E090933C0280933B02FE01E3508C
:100DD000FC45E231F10530F4EA5AFF4F80913B02C5
:100DE0000C94262D80913B02816027C0826025C033
:100DF000846023C0806121C080621FC080641DC0E8
:100E000080681BC08460886018C08E7F16C08D7F8C
:100E100014C08B7F12C08F7E10C08F7D0EC08F7B61
:100E20000CC08F770AC08B7F877F07C087FB222784
:100E300020F991E0922790FB87F980933B02809103
:100E40003B020E942B1D0E943317CBC1C1159CE5AC
:100E5000D90779F0C130DC45A1F081E080936401CD
:100E600080936501C801DF91CF911F910F910C9480
:100E70005C06F8018281882309F4B3C10E946206EE
:100E8000B0C1F8018281882309F4ABC18091E901E6
:100E900081608093E901A5C1C531FCE5DF0739F523
:100EA0000E94BA1C282FF8018281409103015091C1
:100EB0000401882379F02A7A91E009F490E0909374
:100EC0005F01911102C069E201C065E3CA010E949D
:100ED000631D0AC080915F01811102C069E201C0F7
:100EE00065E3CA010E94651D0E94871C7AC1C03C4F
:100EF000DC4509F0B2CFF8018281882309F471C181
:100F00000E94F60E6EC1882309F46BC10E94D20DB7
:100F100068C1882309F465C10E949B0D62C18823C2
:100F200009F45FC10E94B30D5CC1C73C9CE5D907C1
:100F300031F4882309F455C10E94070E52C1C83C00
:100F4000DC4530F4882309F44CC10E94ED0D49C101
:100F5000882309F446C10E94220E43C1C03DFCE52E
:100F6000DF07C1F4F8018281882309F43AC10E94A5
:100F70003F0C653171058105910540F00E943F0CE1
:100F8000673171058105910508F401CF85E10E9463
:100F90003C0E27C1C13D8CE5D80708F07AC0CC3C97
:100FA0009CE5D907B1F4F8018281882309F419C1BD
:100FB0000E943F0C623071058105910540F00E944E
:100FC0003F0C653071058105910508F4E0CE82E0A3
:100FD000DECFCD3CECE5DE07B8F4CA3CFCE5DF072C
:100FE00041F4F8018281882309F4FBC00E94620C5D
:100FF000F8C0CB3CDC4509F030CFF8018281882372
:1010000009F4EFC081E0C3CFF8018281CE3CFCE55A
:10101000DF07A1F4882309F4E4C00E943F0C693083
:1010200071058105910540F00E943F0C6E307105FD
:101030008105910508F4ABCE89E0A9CFCF3CDC4512
:10104000A0F4882309F4CDC00E943F0C66307105DE
:101050008105910540F00E943F0C683071058105C3
:10106000910508F494CE86E092CF882309F4B9C0A4
:101070000E943F0C6F3071058105910540F00E9480
:101080003F0C643171058105910508F480CE8FE035
:101090007ECFC43DECE5DE0739F5F8018281882377
:1010A00061F0109265010E94E91D909363018093A5
:1010B000620180E20E94591494C0809165018111FF
:1010C0000FC080916201909163010E94F51D883CE0
:1010D000910530F487E20E94EB1287E20E94FA1336
:1010E00080E20E9460147DC0C53DFCE5DF0708F08A
:1010F00043C0F8018281C23DFCE5DF07A1F48823EB
:1011000009F46FC00E943F0C69317105810591059A
:1011100040F00E943F0C623271058105910508F490
:1011200036CE89E134CFC33DDC4528F4882309F469
:1011300058C088E12CCF882351F0109264010E949E
:10114000E91D909361018093600182E0B3CF8091AB
:10115000640181110FC080916001909161010E9432
:10116000F51D883C910530F486E20E94EB1286E280
:101170000E94FA1382E0B5CFC83DECE5DE0731F4FA
:10118000F8018281882369F180E009C0C93DFCE54E
:10119000DF0741F4F8018281882319F182E00E947F
:1011A000EC241FC0C53DDC4509F057CEF801828113
:1011B000811177CF80916501811192CF8091620179
:1011C000909163010E94F51D883C910508F088CF3D
:1011D00080E20E94601488E20E94EB1288E20E9482
:1011E000FA1380E0DF91CF911F910F9108950C9435
:1011F0005A060C94710308950C94FB080C94FC0897
:1012000080E090E00895089597E0799FF00111241F
:1012100096E4899FE00DF11D1124E60FF11DEE0FFC
:10122000FF1FE057FE4F859194910895880F991FF5
:10123000FC01E054FC4F859194910895CF93DF9386
:101240000E9404090E94C10AEC01811520E5920761
:10125000F0F5811530E4930708F018C1883E910538
:1012600000F5803E910508F088C1883A910570F438
:10127000853A910508F09AC08130910509F47DC145
:1012800008F434C1049708F078C130C18D3B910552
:1012900008F497C0803C910508F428C1805C91094E
:1012A000E7C08115904258F4C11581E0D80708F0D5
:1012B00064C1C03FD10508F419C1D0655EC1C11534
:1012C00090E3D90708F0D8C0CE019F70D1C0811536
:1012D00025E5920708F043C0811534E5930708F02F
:1012E000ECC0811542E5940708F5C11581E5D807E2
:1012F00008F0CFC02C2F237081E090E002C0880F4F
:10130000991F2A95E2F79C689E0174E0369527950F
:101310007A95E1F72370922BCF70C695C69530E28F
:10132000C39FE0011124C82BD92B27C18695869530
:101330009E0123703327C115D34508F0AFC040E2AA
:10134000849FC0011124C1E0D0E002C0CC0FDD1F9A
:101350002A95E2F78C2B9D2BEC01DC680EC18115E0
:1013600029E5920778F4811538E5930708F0AAC0BB
:101370008115964508F0BAC0CF71DD27DC2FCC2748
:10138000D062FBC0C1158AE5D80708F4A0C0CE0121
:1013900090568115904208F0A9C08D2F8F710E9440
:1013A0003E0BDD27D0628F71D82BE7C0853A9105BF
:1013B00009F49FC0863A910509F09EC0C2E8D0E4C6
:1013C000DCC0883A910509F49AC0893A910509F47C
:1013D00099C08A3A910509F498C08B3A910509F4AD
:1013E00097C08C3A910509F496C08B3B910509F49E
:1013F00095C08C3B910509F494C08D3A910509F490
:1014000093C0803B910509F492C08E3A910509F48E
:1014100091C08F3A910509F490C0813B910509F480
:101420008FC0823B910509F48EC0833B910509F47E
:101430008DC0843B910509F48CC0853B910509F46E
:101440008BC0863B910509F48AC0873B910509F45E
:1014500089C0883B910509F488C0893B910509F44E
:1014600087C08A3B910509F486C0C0E0D4E485C0FA
:101470000E941609EC0181C0CE019927D3FF03C059
:10148000EC01D86C7AC0EC01D06C77C0DF70D06A08
:1014900074C0DC2FCC27C16FD06A6FC040E2849F3C
:1014A000C0011124C1E0D0E002C0CC0FDD1F2A959D
:1014B000E2F7C82BD92BDA6860C0D82FCC27C46FCD
:1014C000D06A5BC0D82FCC27C06FD06A56C08C2F93
:1014D0008F70806E90E0906A24E0D695C7952A952B
:1014E000E1F7CF709C013C2BE90147C0C0E0D0E0A0
:1014F00044C0C1E8D0E441C0C3E8D0E43EC0C2EE7D
:10150000D4E43BC0C9EED4E438C0CAEED4E435C05C
:10151000C5EBD4E432C0C6EBD4E42FC0C3EBD4E4B3
:101520002CC0C4EBD4E429C0C7EBD4E426C0CCEC77
:10153000D4E423C0CDECD4E420C0C3E8D5E41DC07E
:10154000CAE8D5E41AC0C2E9D5E417C0C4E9D5E4B5
:1015500014C0C1E2D6E411C0C3E2D6E40EC0C4E2B6
:10156000D6E40BC0C5E2D6E408C0C6E2D6E405C0A6
:10157000C7E2D6E402C0CAE2D6E4CE01DF91CF9141
:1015800008958238910549F1B0F48133910509F449
:1015900058C048F48932910509F44EC08A32910549
:1015A00009F454C008958533910509F440C0893386
:1015B000910599F00895833E910529F138F4803E14
:1015C000910591F0823E9105A1F00895863E910526
:1015D000F9F0873E910531F1089520913B0220FDFD
:1015E0003AC021FD38C0089580913B0280FD35C08E
:1015F00032C080913B0282FF32C080913B0284FD69
:1016000030C083EE39C080913B0282FD28C0F5CF07
:1016100080913B0283FF27C080913B0284FD21C063
:1016200087EE2AC080913B0283FD1DC0F5CF8091DB
:101630003B0285FD1AC01BC080913B0285FD17C08F
:1016400014C080913B0286FD14C015C080913B02FE
:1016500086FD11C00EC080EE0FC089E30DC082EE82
:101660000BC080E009C086EE07C089E205C085E3B3
:1016700003C08AE201C081E390E0089590913B02AB
:1016800092FF0DC0282F2871283019F4877F8460BD
:1016900006C0282F2471243011F48B7F886093FFBB
:1016A0000DC0282F2871283119F4877E846106C067
:1016B000282F2471243111F48B7E886194FD877E5C
:1016C000089508950F931F93CF93FB012281211159
:1016D00002C0C1E041C08C01C0917301C11125C09D
:1016E00086319C45B1F70E94610B81E080937301C4
:1016F0000E94E91D9093720180937101109266011E
:10170000109268011092670110926A0110926901AB
:1017100010926C0110926B0110926E0110926D018B
:101720001092700110926F0117C080917101909119
:1017300072010E94F51D883C910558F69091660152
:10174000E92FF0E0EE0FFF1FE959FE4F11830083F0
:101750009F5F90936601C0E08C2FCF911F910F91F6
:101760000895EF92FF920F931F93CF93DF93E901B8
:10177000662309F44BC0242F30E0EFEFF0E0E61BC6
:10178000F109B901E69F9001E79F300DF69F300DFA
:101790001124232F8B01031B11095CE3E52EF12C8F
:1017A000B7010E94FE2CFB01BC01069FC001079FF0
:1017B000900D169F900D1124B7010E94FE2CE2306F
:1017C000F105B1F040F4309779F0319711F5832F9E
:1017D000242F461B21C0E430F105A1F068F03597B5
:1017E000C1F4842F861B18C0832F262F230F14C00B
:1017F000862F830FE42F03C0E42FE61B842F432F93
:101800002E2F0AC0842F462F430F06C0842F242F6B
:1018100003C080E020E040E0E42FF0E0E652FC4F1F
:101820004491E22FF0E0E652FC4F9491E82FF0E073
:10183000E652FC4FE49149839883EA83DF91CF918C
:101840001F910F91FF90EF90089588E090E00C9425
:10185000342DAB01BC0188E090E00C94522DE1E006
:10186000F2E083E08083109202028FEF8283838311
:10187000148260817181828193810C94290C609122
:10188000010260FF06C066956F7370E080E090E033
:10189000089560E070E0CB0108958091050290E02A
:1018A00001968430910514F083E090E08093050266
:1018B00060910102709102028091030290910402F2
:1018C0000C94290C8091050290E0019797FF02C0CB
:1018D00080E090E08430910514F083E090E0809304
:1018E00005026091010270910202809103029091C1
:1018F00004020C94290C8091010280FF06C06EE066
:1019000070E08BE092E00C94AD1180E090E0FC017F
:10191000E55FFD4F11821082128203968A32910593
:10192000B1F7EDCF9091010290FF0FC020E030E0C1
:10193000F901E55FFD4F8183608342832D5F3F4F57
:101940002A323105A9F70C947B0C0895EF92FF928F
:101950000F931F93CF93DF9300D01F92CDB7DEB7C5
:1019600000910102109102022091030230910402C1
:101970000093060210930702209308023093090295
:101980002091010220FF21C0042FF62EE92E182FEE
:101990009E012F5F3F4F0E94B10B8091060210FB0A
:1019A00087F9809306021695809107028078182B9C
:1019B000E0FA17F910930702F09208020093090267
:1019C0004B8169818A810E94920C0F900F900F9039
:1019D000DF91CF911F910F91FF90EF9008958F921B
:1019E0009F92AF92BF92CF92DF92EF92FF920F93AE
:1019F0001F93CF93DF93EC01062F142F80910102E8
:101A000080FF8CC0982F9E77923021F4CE010E94E7
:101A1000A60C5AC0E82FE695EF739EE39E0F9F73C6
:101A2000943018F4109104024FC09AE39E0F9F73F4
:101A3000993070F4881F8827881F90910202292FFF
:101A4000220FC22FC82B97FB992790F9D92F3CC0A2
:101A500087E28E0F8F738A30B8F5F0E07997E0FD5A
:101A600002C021E001C02FEFEE7FE054FC4F8591D2
:101A700094916EE070E00E94FE2C26036001279F87
:101A8000D00C11244E0188E9881A8EEF980A8BE059
:101A9000E82E82E0F82E98E6A92EBB24B394C40168
:101AA000B5010E94FE2C9701412F602F0E94B10BBF
:101AB0008C0C9D1C93E0E90EF11C85E3E81682E096
:101AC000F80669F70E947B0C809101029C2FC0FBF5
:101AD00087F9809301029695809102028078892B84
:101AE000D0FB87F980930202009303021093040253
:101AF00060910102709102028091030290910402B0
:101B0000DF91CF911F910F91FF90EF90DF90CF90D9
:101B1000BF90AF909F908F900C94290CDF91CF9144
:101B20001F910F91FF90EF90DF90CF90BF90AF90FB
:101B30009F908F900895E1E0F2E02081221F2227FC
:101B4000221F30910202432F440F842F822B37FB38
:101B5000992790F9089668E671E00E94122D43815A
:101B600062810C94EF0C20910102221F2227221F78
:101B700030910202432F440F842F822B37FB992789
:101B800090F9883091051CF4805A9E4F01C0089747
:101B900068E671E00E94122D4091040260910302F8
:101BA0000C94EF0C60910302862F90E0883F910522
:101BB00014F4685F01C06FEF80910102881F8827CD
:101BC000881F90910202292F220F97FB992790F9E5
:101BD00040910402822B0C94EF0C60910302862F3B
:101BE00090E0089714F0685001C060E08091010215
:101BF000881F8827881F90910202292F220F97FBA8
:101C0000992790F940910402822B0C94EF0C40919B
:101C10000402842F90E0883F910514F4485F01C0CE
:101C20004FEF80910102881F8827881F9091020240
:101C3000292F220F97FB992790F960910302822B9D
:101C40000C94EF0C40910402842F90E0089714F05C
:101C5000485001C040E080910102881F8827881FFA
:101C600090910202292F220F97FB992790F96091FA
:101C70000302822B0C94EF0C9091010290FF42C062
:101C80009178811102C0926007C0833210F0946491
:101C900003C08F73880F982B90930102609101020B
:101CA0007091020280910302909104020E94290C1B
:101CB00080910102982F9E77923019F41092890139
:101CC00010C0982F96959F732EE3290F2F732731FD
:101CD00020F491E09093890104C0995D9F739A303C
:101CE00068F3881F8827881F90910202292F220FEE
:101CF00097FB992790F94091040260910302822B8F
:101D00000C94EF0C08958091E90181608093E901C2
:101D100081E080938A010E94141D811104C00E94F9
:101D2000F31C0E942F0C0E94250C609301027093FB
:101D3000020280930302909304026E7761F40E9482
:101D40002F0C0E94250C6093010270930202809375
:101D500003029093040281E0809389018091010243
:101D600080FF04C086958F730C943C0E089580917B
:101D7000010286958F738F5F833208F081E00C94A7
:101D80003C0E8091010286958F73815009F482E2A6
:101D90000C943C0ECF93DF93C1E0D2E08881816048
:101DA0008883688179818A819B810E94290C88813E
:101DB00086958F73DF91CF910C943C0EE1E0F2E0B9
:101DC00080818E7F808360817181828193810E9476
:101DD000290C109289012FEF80E792E0215080407A
:101DE0009040E1F700C000000C947B0C8091010250
:101DF00080FD0C94DE0E0C94CA0ECF93C82F8091F8
:101E00008701909188010E94F51DEC2FF0E0EA52C5
:101E1000FC4FE491F0E08E179F0708F443C00E9446
:101E2000E91D90938801809387016091860170E09D
:101E300080E090E00E94FF2A20E030E04FE753E48A
:101E40000E94222A2BED3FE049E450E40E94282C16
:101E50000E94952C0E949C2A2BE43AE34EE25FE319
:101E60000E94B52920EF3BEF48ED52E40E94282C58
:101E70000E94CE2A462F80910102881F8827881F42
:101E800090910202292F220F97FB992790F96091D8
:101E90000302822B0E94A60C8091860190E001969D
:101EA00080938601CF910895CF93C82F80918401AC
:101EB000909185010E94F51DEC2FF0E0ED52FC4F52
:101EC000E491F0E08E179F07E8F00E94E91D9093DF
:101ED0008501809384014091040260910302809106
:101EE0008201909183010E94A60C809182019091C1
:101EF0008301019668E671E00E94FE2C90938301B5
:101F000080938201CF910895CF92DF92FF920F9339
:101F10001F93CF93DF93F82E8091800190918101E0
:101F20000E94F51DEF2DE695F0E0E053FC4FE491A3
:101F3000F0E08E179F07F0F10E94E91D9093810158
:101F4000809380010BE012E0C0E0D0E088E6C82E6C
:101F5000DD24D39480917E0190917F018C0F9D1F91
:101F6000B6010E94FE2C9801409104026091030288
:101F70000E94B10B69960D5F1F4FCE3581E0D807E7
:101F800049F70E947B0C20917E0130917F01F0FE89
:101F90000BC0C901019668E671E00E94FE2C909387
:101FA0007F0180937E0106C02150310930937F016B
:101FB00020937E01DF91CF911F910F91FF90DF90D1
:101FC000CF900895AF92BF92CF92DF92EF92FF929F
:101FD0000F931F93CF93DF93C82F80FF02C01FEF93
:101FE00001C011E080917C0190917D010E94F51D5E
:101FF000C695EC2FF0E0E353FC4FE491F0E08E1730
:102000009F0708F466C00E94E91D90937D018093AC
:102010007C012BE0C22E22E0D22E3DE0E32E32E006
:10202000F32EC0E0D0E0F70131971082F601108264
:10203000F701108294E0A92EB12C00E080917B0181
:10204000800F87FD825F082E000C990BC817D907F7
:10205000E9F4809104028A9DA0018B9D500D11240A
:10206000559547955595479580910102881F88277A
:10207000881F90910202592F550F97FB992790F9CD
:10208000960160910302852B0E94B10B010FF1E0D4
:10209000AF1AB10899F6219683E0C80ED11CE3E08F
:1020A000EE0EF11CCE30D10509F0BDCF0E947B0CA5
:1020B00080917B01113031F4811102C08DE007C0A5
:1020C000815005C090E00196BE010E94122D8093C0
:1020D0007B01DF91CF911F910F91FF90EF90DF90E7
:1020E000CF90BF90AF9008950F931F93CF93DF933E
:1020F000C82F8091790190917A010E94F51DEC2FF3
:10210000F0E0E653FC4FE491F0E08E179F0708F4EF
:1021100066C00E94E91D90937A018093790180E066
:1021200090E0FC01E55FFD4F118210821282039660
:102130008A329105B1F7C0E0D0E00EE010E0CE01A8
:10214000B8010E94122D40917801042E000C550B0D
:10215000FC01EE0FFF1FC417D5070CF140910201DF
:10216000042E000C550B4C175D07CCF08E0F9F1FF3
:102170009C01255F3D4F80910102881F8827881FA1
:1021800090910202592F550F97FB992790F9409192
:10219000040260910302852B0E94B10B07C0E80F77
:1021A000F91FE55FFD4F1182108212822196CE3019
:1021B000D10529F60E947B0C809101019091780154
:1021C000980F9093780120910201280F209302012B
:1021D000121614F49D301CF0819580930101DF915B
:1021E000CF911F910F910895EF92FF920F931F933C
:1021F000CF93DF9380917601909177010E94F51D36
:10220000883E9340D0F10E94E91D9093770180931E
:102210007601C0917401D09175012196C170DD27BE
:10222000D0937501C09374018BE0E82E82E0F82E04
:1022300010E008E7812F8695FE01E80FF11DCF0120
:102240008170992797014091040260910302FC017B
:102250000E9FC0010F9F900D11240E94B10B1F5FB4
:10226000F3E0EF0EF11C1E3029F7DF91CF911F91A3
:102270000F91FF90EF900C947B0CDF91CF911F9109
:102280000F91FF90EF90089580918901882391F13B
:1022900090910102892F86958F732EE3280F2F735B
:1022A000243018F482500C94FD0E2AE3280F2F736B
:1022B000233018F486500C94540F27E3280F2F7303
:1022C000263018F489500C94840F21E3280F2F73C3
:1022D000263018F48F500C94E20F2BE2280F2F7346
:1022E000233018F485510C9474109E77903311F4B8
:1022F0000C94F41008952BB1342F309523233BB167
:10230000432B3FB7F894FC01680F791FE617F707D6
:1023100089F0819198E04BB9000000C087FF2BB98C
:10232000880F000000C000C000C02BB900C09A9503
:1023300091F7ECCF3FBF08952AB1242B2AB99B0116
:10234000220F331F620F731F0E947B1187EC90E0F6
:102350000197F1F700C00000089548E00C949C112B
:102360009093900180938F010895E0918F01F091F7
:102370009001309721F00190F081E02D099480E0E8
:102380000895E0918F01F0919001309721F0028043
:10239000F381E02D09940895E0918F01F09190016F
:1023A000309721F00480F581E02D09940895209163
:1023B0008D0130918E018217930771F090938E01F9
:1023C00080938D01E0918F01F0919001309721F081
:1023D0000680F781E02D0994089520918B013091BA
:1023E0008C018217930771F090938C0180938B017D
:1023F000E0918F01F0919001309721F00084F185F8
:10240000E02D099408950C942E0581E008950E9412
:10241000E01D0E9473030E94691E0C94830ECF92EC
:10242000DF92EF92FF920F931F93CF93DF93CDB77D
:10243000DEB72B970FB6F894DEBF0FBECDBF0E945C
:10244000B9040E940512811111C08FEF89838A831C
:102450001B820E94E91D8160782F9D838C834981B6
:102460005A816B818D810E94B71256C082E9C82EB5
:1024700081E0D82E00E010E0E02E802F0E940405BD
:10248000F60141916F01F42EF82631F40F5F1F4FD2
:102490000A30110589F7D9CF9091E90191FF04C065
:1024A0008B870E940A058B8520E030E04F2D50E09D
:1024B000922FBA01022E02C0759567950A94E2F731
:1024C00060FF24C02E83EF8221E030E0690102C06A
:1024D000CC0CDD1C9A95E2F790E08C219D21892B94
:1024E00009F420E028870E94E91D8160782F9A87EF
:1024F00089874E815F8168858A850E94B712F801BD
:10250000EE56FE4F8081C826C08206C02F5F3F4F27
:102510002730310569F6BACF0E94FC1F1091910156
:102520000E94B5111817A1F00E94B5118093910176
:102530002B960FB6F894DEBF0FBECDBFDF91CF91C3
:102540001F910F91FF90EF90DF90CF900C94FE08B9
:102550002B960FB6F894DEBF0FBECDBFDF91CF91A3
:102560001F910F91FF90EF90DF90CF900895CF9340
:10257000DF93CDB7DEB72B970FB6F894DEBF0FBE53
:10258000CDBF4F83588769877A878B87DE01119685
:1025900086E0FD0111928A95E9F785E0FE01379604
:1025A00001900D928A95E1F749815A816B817C8176
:1025B0008D819E810E94DA192B960FB6F894DEBFAA
:1025C0000FBECDBFDF91CF910895FC018081918135
:1025D0000E94471C0895CF93DF931F92CDB7DEB7BB
:1025E000882309F403C1682F8238C1F40E94B51111
:1025F00081FDFCC069E380910301909104010E9478
:10260000631D0E94871C2FEF81EE94E021508040D3
:102610009040E1F700C0000069E319C0833811F56C
:102620000E94B51180FDE2C063E5809103019091A5
:1026300004010E94631D0E94871C2FEF81EE94E02D
:10264000215080409040E1F700C0000063E5809198
:102650000301909104010E94651D0F90DF91CF91BD
:102660000C94871C8438C1F40E94B51182FDBEC051
:1026700067E480910301909104010E94631D0E9410
:10268000871C2FEF81EE94E0215080409040E1F7CD
:1026900000C0000067E4DBCF8CEF860F813A70F456
:1026A000862F69830E941222698181119FC08091C7
:1026B0000301909104010E94631DCFCF80E2860F39
:1026C000883048F4677081E001C0880F6A95EAF7A6
:1026D0000E94BD1CC2CF8BE5860F833088F4653A1B
:1026E00029F0663A31F083E890E005C081E890E097
:1026F00002C082E890E00F90DF91CF910C94D71147
:1027000088E5860F853108F071C0683A61F1693A51
:1027100069F16A3A71F16B3A79F16C3A81F16B3B8C
:1027200089F16C3B91F16D3A99F1603BA1F16E3A00
:10273000A9F16F3AB1F1613BB9F1623BC1F1633B81
:10274000C9F1643BD1F1653BD9F1663BE1F1673BEF
:10275000E9F1683BF1F1693BF9F16A3B09F43FC0EB
:1027600080E090E03EC082EE90E03BC089EE90E0D9
:1027700038C08AEE90E035C085EB90E032C086EB41
:1027800090E02FC083EB90E02CC084EB90E029C058
:1027900087EB90E026C08CEC90E023C08DEC90E0BD
:1027A00020C083E891E01DC08AE891E01AC082E968
:1027B00091E017C084E991E014C081E292E011C079
:1027C00083E292E00EC084E292E00BC085E292E0E8
:1027D00008C086E292E005C087E292E002C08AE289
:1027E00092E00F90DF91CF910C94ED110F90DF915B
:1027F000CF910895882309F45BC0682F823879F45B
:102800000E94B51181FF54C069E38091030190914A
:1028100004010E94631D0E94871C69E310C0833875
:10282000B1F40E94B51180FF43C063E580910301BC
:10283000909104010E94631D0E94871C63E58091B2
:102840000301909104010E94651D0C94871C84383B
:1028500079F40E94B51182FF2BC067E480910301D7
:10286000909104010E94631D0E94871C67E4E7CFDA
:102870008CEF860F813A18F380E2860F883048F497
:10288000677081E001C0880F6A95EAF70E94C31C57
:10289000DCCF8BE5860F833020F480E090E00C9451
:1028A000D711685A653120F480E090E00C94ED1166
:1028B0000895882321F00E94BD1C0C94871C089564
:1028C000882321F00E94C31C0C94871C08954F920A
:1028D0005F926F927F92AF92BF92CF92DF92EF9210
:1028E000FF920F931F93CF93DF931F92CDB7DEB765
:1028F0007C01A72EFC01058102950F701281112326
:1029000021F069830E94DA1C698169830E94801C1E
:102910006981882381F0112371F080E2860F88306D
:1029200050F082E00E94691C0E94801C91E0B82E49
:10293000B926698101C0B12CCA2CC2948FE0C8228B
:10294000D12CF601E859FF4F0C94262D8A2D807F5B
:102950000A2D0F70882311F00295007F1123C1F01A
:10296000002309F4DCC180E2860F883010F0611189
:1029700005C0802F69830E94BD1C04C0802F69831D
:102980000E94CD1C698169830E94871C6981C7C12F
:10299000862F69830E94FA136981002309F4E2C13A
:1029A00080E2860F883010F0611104C0802F0E94F1
:1029B000C31C03C0802F0E94D31C0E94871CD2C15D
:1029C0008A2D807F9A2D9F70803211F4892F03C049
:1029D000892F8295807F662319F06130B1F01FC086
:1029E000112349F0002309F452C1013009F04FC10D
:1029F0000E94ED1CB7C1002319F0013009F4B2C1E7
:102A000089830E94F01C898148C1112321F006307E
:102A100008F0A8C13CC1053008F0A4C13EC1112393
:102A200051F0002309F433C1F701958190FF77C17C
:102A30009F7095832CC1002309F42FC181C18A2D79
:102A400086958695837090E0009719F0019761F064
:102A500089C1112321F0862F9A2D937002C080E046
:102A600090E00E94D7118EC1112321F0862F9A2D5C
:102A7000937002C080E090E00E94ED1183C11123A9
:102A8000F9F0653F51F0663F71F0643FA9F4809121
:102A900035029091360281600BC080913502909191
:102AA0003602826005C080913502909136028460C2
:102AB0009093360280933502862F0E94041F1EC019
:102AC000653F51F0663F71F0643FA9F48091350293
:102AD000909136028E7F0BC0809135029091360224
:102AE0008D7F05C080913502909136028B7F909347
:102AF000360280933502862F0E946C1F0E94F11FC0
:102B000041C18A2D837009F052C0111137C1862F3F
:102B1000829586958770880F880F962F9F70492E13
:102B2000512C612C712C082E04C0440C551C661CC1
:102B3000771C0A94D2F764FF14C00FE010E020E085
:102B400030E0B901A80104C0440F551F661F771F6C
:102B50008A95D2F7CB01BA016095709580959095D2
:102B600003C060E070E0CB012A2D269526952370E6
:102B700030E02230310569F02330310589F06429D5
:102B80007529862997292130310571F00E941D1B76
:102B9000F5C064297529862997290E942F1BEEC04C
:102BA0000E941D1BC301B2010E940B1BE7C0112331
:102BB00019F08A2D817001C08695882309F4DEC042
:102BC000862F829586958770880F880F962F9F7025
:102BD000492E512C612C712C082E04C0440C551C1C
:102BE000661C771C0A94D2F764FF14C00FE010E053
:102BF00020E030E0B901A80104C0440F551F661F52
:102C0000771F8A95D2F7CB01BA01609570958095B0
:102C1000909503C060E070E0CB012A2D26952695A3
:102C20002370422F50E04230510569F04330510586
:102C300089F064297529862997294130510571F059
:102C40000E94E31B9BC064297529862997290E944D
:102C5000F51B94C00E94E31BC301B2010E94D11B6B
:102C60008DC0862F90E0FC01E05EF109E531F105B1
:102C700008F051C0E858FF4F0C94262D062F0F7016
:102C80008A2D8F71112331F00E946A1B802F0E94C0
:102C9000591468C00E948B1B802F0E94601462C070
:102CA000112341F0053008F05DC08A2D8F710E941C
:102CB000B01B58C0063008F055C0F7CF112339F0CB
:102CC0008A2D8F710E946A1B4DC01123C9F38A2D72
:102CD0008F710E948B1B46C0112329F08A2D8F71A2
:102CE0000E94551B3FC00E94501B3CC0112351F055
:102CF0001A2D1F71812F0E946A1B63E0812F0E9491
:102D0000601C30C081E00E94691C023058F182E0F2
:102D10000E94691C27C0112331F0002389F2862FFD
:102D20000E94EB121FC0002391F2693349F45FEF58
:102D300077EE83E0515070408040E1F700C0000022
:102D4000862F0E94FA130EC04A2D4F70C7010E94B1
:102D500000090E947E1A16C04A2D4F70C7010E94BA
:102D6000030910C098E0C916D10441F05CF0FAE004
:102D7000CF1AD10822E0C216D10420F40E94B51166
:102D80000E94FE08BB2001F10E945C1C80FD1CC05B
:102D9000F70112820E94561C0E946A1BC7010E9402
:102DA000F4160E94561C0F90DF91CF911F910F9146
:102DB000FF90EF90DF90CF90BF90AF907F906F909B
:102DC0005F904F900C948B1B0F90DF91CF911F91D0
:102DD0000F91FF90EF90DF90CF90BF90AF907F90DA
:102DE0006F905F904F9008950F931F93CF93DF9351
:102DF000EC01888199812B813C81232BB9F09F3F85
:102E000011F48F3F99F0CE010E946F06882371F074
:102E1000688179818A810E94521C8C010E94071C62
:102E20000E94081BB801CE010E946714DF91CF9168
:102E30001F910F9108950E94DA1C0E94EA1C809154
:102E40000301909104010E94671D0E94871C0E944B
:102E50008A200E94F11F80E090E00E94D71180E05C
:102E600090E00C94ED110E94CA1C0C941B170E9458
:102E7000471CE92FE295EF70F0E03297EE30F10554
:102E8000B0F4E357FF4F0C94262D803F91F018F4D7
:102E9000803E68F40EC0843F51F40BC0803E48F081
:102EA000813F29F406C093FB882780F9089580E0CC
:102EB000089581E00895CF93DF9300D000D01F9252
:102EC000CDB7DEB70F900F900F900F900F90DF915E
:102ED000CF910895CF93DF9300D000D000D0CDB72D
:102EE000DEB726960FB6F894DEBF0FBECDBFDF91DA
:102EF000CF9108951F93CF93DF93C0919C0116E06B
:102F000080919D01C81799F0D0E01C9FF0011D9F92
:102F1000F00D1124E256FE4F408151816281738190
:102F2000848195810E946A172196C770E9CFDF914D
:102F3000CF911F9108954091CE015091CF016091A2
:102F4000D0017091D1018091D2019091D3010C9464
:102F50006A178091D30182958F7009F054C08091D7
:102F6000D001882309F44FC080919C01A0919D015C
:102F70006091CE017091CF014091D1015091D20169
:102F8000B6E08A1709F43FC090E041155105C1F140
:102F90007F3F11F46F3FA1F1B89FF001B99FF00D91
:102FA0001124E256FE4F218172132AC02081621340
:102FB00027C02281211124C02381348124173507A1
:102FC00010F421503109241B350B283C3105C0F485
:102FD0002091D3012F7020612093D30126E0289FF8
:102FE000F001299FF00D1124ED55FE4F80818F7067
:102FF000806180838EEC91E00E94F4160C947A1725
:1030000001968770BECF0895CF92DF92EF92FF9224
:103010000F931F93CF93DF93CDB7DEB762970FB6B1
:10302000F894DEBF0FBECDBF8C0185E0F801DE0154
:103030001D9601900D928A95E1F7D8014C91119659
:103040005C91119712966C9112971396CD90DC902B
:1030500014973091CE017091CF018091D101909160
:10306000D201009709F46BC17F3F19F43F3F09F487
:1030700066C1E090D001EE2009F4C0C02091D301D8
:10308000C816D90628F0F601E81BF90BCF0104C0D9
:10309000809590958C0D9D1DFF24F394883C91059F
:1030A00078F0F12C207F09F0C6C07C2DD98AC88A1F
:1030B00089890E945B178EEC91E00E94F416B1C0E2
:1030C000822F807F09F046C0751314C0341312C0DC
:1030D000611110C02F7020612093D3010E949B17B3
:1030E0008EEC91E00E94F4168091D301D8011596E0
:1030F0008C932EC0CD2819F15F3F11F44F3FF9F0AA
:10310000F62E61111CC080919C0120919D0136E03A
:10311000821709F45AC090E0389FF001399FF00DF2
:103120001124E256FE4F7181571306C07081471378
:1031300003C07281711103C001968770E9CFF62E2A
:10314000662309F427C18091D30181608093D30164
:10315000F12C20C1751308C0341306C0611104C0DE
:103160008091D301D801C3C04D875E878D859E8530
:103170006A8B0E9437176A898823E1F16623D1F1AF
:103180002091D301822F82958F7090E0029774F086
:103190008091CE019091CF0198878F831986DB862D
:1031A000CA862C87CE0107960E94F41686E0F801A5
:1031B000AEECB1E001900D928A95E1F70E94A9175B
:1031C0000E949B17FF24F394E5C04D875E878D8591
:1031D0009E850E94471C292F22952F7030E02230B7
:1031E00031050CF0CBC09F7009F0C5C0805E8830FF
:1031F00008F4D0C0C8010E94F416E4CFC816D9065E
:1032000008F453C0F601E81BF90BCF01883C910587
:1032100008F450C0F12C7C2DD98AC88A89890E9473
:103220005B17EEECF1E086E0DF011D928A95E9F78D
:103230000E949B17AFC0751314C0341312C06111E4
:1032400010C08091D301F8018583C8010E94F41653
:1032500086E0EEECF1E0DF011D928A95E9F7FE2CA5
:1032600099C04D875E878D859E856A8B0E94371732
:103270006A89882309F4BECF662309F4BBCF209165
:10328000D301822F82958F7090E002970CF48ECF3D
:103290008091CE019091CF019A8389831B82DD8238
:1032A000CC822E83CE0101967FCF809590958C0D98
:1032B0009D1DACCFF62E662309F49CCF75132EC04E
:1032C00034132CC02091D30120FD1FC0822F829582
:1032D0008F70D9F0D80115962C9315978F3049F03F
:1032E0008F5F982F9295907F822F8F70892B1596E4
:1032F0008C93C8010E94F41686E0F801AEECB1E0B0
:1033000001900D928A95E1F793CF86E0F801AEEC3B
:10331000B1E001900D928A95E1F73CC04D875E8740
:103320008D859E850E943717811140CF8091D301F2
:1033300081608093D301C8010E94F4162BC06623DC
:1033400009F458CF4D875E878D859E850E9437177B
:10335000F82E882309F44ECF86E0F801AEECB1E0F8
:1033600001900D928A95E1F78EEC91E00E94E512B2
:103370000E94A9175DCF811139CF0CC024303105CF
:103380000CF038CF9F7009F431CFF8019581907F10
:1033900009F02CCF8F2D62960FB6F894DEBF0FBECA
:1033A000CDBFDF91CF911F910F91FF90EF90DF90F4
:1033B000CF9008951F93CF93DF93CDB7DEB72C97AF
:1033C0000FB6F894DEBF0FBECDBF4F835887698715
:1033D0007A878B879C87CE0107960E9404188823E2
:1033E00069F08F8198852A853B85232BF1F19F3FDA
:1033F00009F063C08F3F09F060C037C086E0FE016E
:103400003796DE01119601900D928A95E1F76F8152
:103410007885EA85FB85309741F17F3F11F46F3F56
:1034200021F120919D0130E0C90101968770992713
:1034300040919C0150E08417950709F447C06983C7
:103440007A83FD83EC8396E0929FD001939FB00D29
:103450001124A256BE4FFE01319601900D929A950D
:10346000E1F780939D010E947A1716E080919C01FC
:1034700090919D018917C1F1189FC00111248256B6
:103480009E4F0E940418882379F1E0919C011E9FB1
:10349000F0011124E256FE4F408151816281738117
:1034A000848195810E946A1780919C0190E0019629
:1034B0008770992780939C01D9CF4F815885698562
:1034C0007A858B859C850E946A17CFCF0E9433171F
:1034D00010929D0110929C01EEECF1E086E0DF017C
:1034E0001D928A95E9F7C1CF2C960FB6F894DEBFEE
:1034F0000FBECDBFDF91CF911F910895EF92FF9244
:103500000F931F93CF93DF938C01892B09F46CC029
:10351000F12CEE24E394E8012196F801849184379C
:1035200040F4843008F051C0813081F0823019F1CC
:103530005BC0853709F444C0A8F19CE7980F903729
:1035400008F052C08F770E94FA1341C00E5F1F4FE0
:10355000FE01C49180E28C0F883048F4C7708E2D34
:1035600001C0880FCA95EAF70E94DD1C14C08C2F99
:103570000E94EB122DC00E5F1F4FFE01C49180E22E
:103580008C0F883058F4C7708E2D01C0880FCA95F3
:10359000EAF70E94E31C0E94871C1AC08C2F0E942D
:1035A000FA1316C00E5F1F4FFE01C491CC2381F0A9
:1035B0008FE99FE00197F1F700C00000C150F6CFFE
:1035C0000E5F1F4FFE01F49003C00E94EB128E01AC
:1035D0008F2D882309F49FCFEFE9FFE03197F1F7B2
:1035E00000C000008150F5CFDF91CF911F910F9166
:1035F000FF90EF90089508950E94FB1A6093D80100
:103600007093D9018093DA019093DB010C941B171E
:1036100008950C94FC1A0F931F930091D8011091F8
:10362000D9012091DA013091DB01602B712B822BC3
:10363000932B1F910F910C94FC1A0F931F930091E1
:10364000D8011091D9012091DA013091DB0160237A
:103650007123822393231F910F910C94FC1A0F93D3
:103660001F930091D8011091D9012091DA01309176
:10367000DB0160277127822793271F910F910C94FC
:10368000FC1A08950C94411B0E94421B6093D401C4
:103690007093D5018093D6019093D7010C941B179A
:1036A00060E070E0CB010C94441B0F931F9341E04A
:1036B00050E060E070E08A019B0104C0000F111F20
:1036C000221F331F8A95D2F7C901B8011F910F91AC
:1036D0000C94441B0F931F9341E050E060E070E0B6
:1036E00004C0440F551F661F771F8A95D2F780913B
:1036F000D4019091D501A091D601B091D7018A0152
:103700009B01082B192B2A2B3B2BC901B8011F91B8
:103710000F910C94441B0F931F9341E050E060E025
:1037200070E004C0440F551F661F771F8A95D2F7BB
:1037300040955095609570958091D4019091D501F8
:10374000A091D601B091D7018A019B0108231923CA
:103750002A233B23C901B8011F910F910C94441BEC
:103760000F931F9341E050E060E070E004C0440F0D
:10377000551F661F771F8A95D2F78091D4019091CB
:10378000D501A091D601B091D7018A019B010827EC
:1037900019272A273B27C901B8011F910F910C94C3
:1037A000441B0F931F930091D4011091D5012091D8
:1037B000D6013091D701602B712B822B932B1F9157
:1037C0000F910C94441B0F931F930091D4011091FF
:1037D000D5012091D6013091D70160237123822336
:1037E00093231F910F910C94441B0F931F930091EF
:1037F000D4011091D5012091D6013091D7016027D5
:103800007127822793271F910F910C94441B0895D1
:10381000CF92DF92EF92FF920F931F93CF93DF939C
:103820008C01C090D801D090D901E090DA01F090DD
:10383000DB018091D4019091D501A091D601B09186
:10384000D701C82AD92AEA2AFB2ACFE1D0E0D7013A
:10385000C6010C2E04C0B695A795979587950A9436
:10386000D2F780FF06C0B8018C2F0E941E09019775
:1038700021F4219760F780E001C08C2FDF91CF9178
:103880001F910F91FF90EF90DF90CF900895CF930D
:10389000DF93EC010E94081CBE010E941E09DF910B
:1038A000CF910895CB010E94471C08958091DC01BF
:1038B00085958595859508958091DC01877008959B
:1038C00098E0899F90011124262B2093DC010C9411
:1038D0006A1B2091DC01809582238093DC01982F64
:1038E000977069F430E0482F082E000C550B241710
:1038F000350729F08595859585950C948B1B089542
:103900009091DC01977081E009F480E00895E091E6
:103910000301F09104018091E8018083E0910301AB
:10392000F091040190818091E701892B8083E091DF
:103930000301F091040190818091E601892B80833D
:103940008091DD01882381F0E0910301F091040171
:103950009081892B808380910301909104010E94C2
:10396000301D81111092DD018091030190910401BD
:103970000C94C1118091E80108959091E801892B80
:103980008093E801089580959091E80189238093C0
:10399000E80108951092E80108959091E701892BBC
:1039A0008093E701089580959091E70189238093A2
:1039B000E70108951092E70108959091E601892B9F
:1039C0008093E601089580959091E6018923809384
:1039D000E60108951092E60108958093DD010895AF
:1039E0001092DD0108956DEE7EEF80E090E00E9480
:1039F0005E2D60E082E090E00E94402D60E083E078
:103A000090E00E94402D60E084E090E00E94402D14
:103A100060E085E090E00E94402D40E050E0BA0177
:103A200088E090E00C94522D80E090E00E943A2DC6
:103A300021E08D3E9E4F09F020E0822F089582E024
:103A400090E00C942C2D83E090E00C942C2D84E0DD
:103A500090E00C942C2D682F84E090E00C94402D85
:103A6000FC0131969C01285F3F4F80E091919111BC
:103A70008F5FE217F307D1F708959C01FC0132969E
:103A80009FEF80E04191461789F09F3F19F4411163
:103A900001C0982F8F5F8630A9F79F3F39F0F90159
:103AA000E90FF11D97FDFA95628308950895FC01D1
:103AB000329608962081261301C010823196E817AD
:103AC000F907C1F708950C943D1D0C94571DFC0196
:103AD000319608961192E817F907E1F70895809159
:103AE0004102843039F11092EA0120E488E190E04B
:103AF0000FB6F894A895809360000FBE20936000E5
:103B000080E00E94FE0883B7817F846083BF83B713
:103B1000816083BF7894889583B78E7F83BF0FB60B
:103B2000F894A8958091600088618093600010925D
:103B300060000FBE089508950895CF930E949B1DC5
:103B40000E94B9040E949C1DC0E08C2F0E940405B5
:103B5000811104C0CF5FCA30C1F701C081E0CF91AD
:103B600008950E9433170E94B5110C94FE081F920D
:103B70000F920FB60F9211248F939F93AF93BF9321
:103B80008091EA01811113C080913702909138022F
:103B9000A0913902B0913A024196A11DB11D8093C6
:103BA000370290933802A0933902B0933A02BF9142
:103BB000AF919F918F910F900FBE0F901F9018950E
:103BC00082E084BD93E095BD9AEF97BD80936E002F
:103BD00008952FB7F8948091370290913802A09100
:103BE0003902B0913A022FBF0895CF92DF92EF923F
:103BF000FF920F931F932FB7F89440913702509183
:103C000038026091390270913A022FBF6A017B013C
:103C1000EE24FF248C0120E030E0C016D106E2063D
:103C2000F30610F4415051099A01281B390BC901C0
:103C30001F910F91FF90EF90DF90CF9008957894AF
:103C40001F920F920FB60F9211248F939F93AF93F1
:103C5000BF938091370290913802A0913902B091C0
:103C60003A020196A11DB11D80933702909338024C
:103C7000A0933902B0933A02BF91AF919F918F9177
:103C80000F900FBE0F901F90189581E08093E00079
:103C900080E28093D8001092C9008FE19EE40197E2
:103CA000F1F700C0000087E090EBDC0180934A024E
:103CB00090934B02A0934C02B0934D029CE088E19C
:103CC0000FB6F894A895809360000FBE90936000A3
:103CD000FFCF0E94141D811102C00E94F31C0E949C
:103CE0001F1D8093E9010E94271D90E090933C02E4
:103CF00080933B020E94231D682F70E080E090E0DB
:103D00000C94091B8091ED0180FF0BC060910801AC
:103D100085E0689FB0011124759567957595679545
:103D20002BC081FF09C06091080185E0689FB00148
:103D300011247595679520C082FF07C06091080126
:103D400085E0689FB001112417C09091EE0199237E
:103D5000D1F060910701961788F72091080185E05E
:103D6000289F90011124929FA001939F500D112430
:103D700070E0CA010E94122D6038710540F461158F
:103D8000710539F002C065E070E0862F08958FE775
:103D9000089581E008958091ED0180FF08C0609151
:103DA000060170E0759567957595679521C081FF4F
:103DB00006C06091060170E07595679519C082FF95
:103DC00004C06091060170E010C09091EE0199234B
:103DD000C1F0609105019617A0F780910601899FB7
:103DE000C001112470E00E94122D6038710528F482
:103DF0006115710521F0862F08958FE7089581E000
:103E0000089561E070E0F4CF803F21F40E94821EAB
:103E1000819504C0813F29F40E94821E8093F101A4
:103E20000895823F21F40E94821E819504C0833F41
:103E300029F40E94821E8093F0010895893F19F4AD
:103E40000E94CB1E05C08A3F31F40E94CB1E819593
:103E50008093F20108958B3F21F40E94CB1E81953F
:103E600004C08C3F29F40E94CB1E8093F301089577
:103E7000843F21F48091EF01816017C0853F21F4D8
:103E80008091EF01826011C0863F21F48091EF01A3
:103E900084600BC0873F21F48091EF01886005C0EA
:103EA000883F31F48091EF0180618093EF010895A4
:103EB0008D3F21F48091ED0181600BC08E3F21F494
:103EC0008091ED01826005C08F3F29F48091ED0162
:103ED00084608093ED010895803F39F48091F10171
:103EE00087FF6CC01092F10169C0813F29F4809175
:103EF000F1011816BCF362C09091F001823F29F4E1
:103F000097FF5CC01092F00159C0833F19F4191655
:103F1000CCF354C0893F41F48091F20118160CF0A3
:103F20004DC01092F2014AC08A3F29F48091F201FB
:103F300087FF44C0F6CF8B3F39F48091F30187FFB0
:103F40003DC01092F3013AC08C3F29F48091F301F7
:103F50001816BCF333C0843F21F48091EF018E7FAB
:103F600017C0853F21F48091EF018D7F11C0863FFE
:103F700021F48091EF018B7F0BC0873F21F480916A
:103F8000EF01877F05C0883F31F48091EF018F7E7C
:103F90008093EF0113C08D3F21F48091ED018E7F5E
:103FA0000BC08E3F21F48091ED018D7F05C08F3FC6
:103FB00029F48091ED018B7F8093ED018091F001D8
:103FC00081110EC08091F10181110AC08091F2012E
:103FD000811106C08091F301811102C01092EE019F
:103FE00008958FEE91E00E94CC110E94E91D9093FC
:103FF000EC018093EB0108951F93CF93DF938091A1
:10400000EB019091EC010E94F51DAC019091EE0145
:10401000992321F02091090130E006C020910A0186
:104020008AE0289F900111244217530708F46EC0BC
:104030008091F001C091F101D091F2011091F30152
:10404000811107C0C1115EC0D1115CC011115AC0ED
:104050005DC09F3F19F09F5F9093EE01181624F406
:104060000E94821E8093F0018091F00187FF05C0BD
:104070000E94821E81958093F0011C1624F40E94F8
:10408000821E8093F1018091F10187FF05C00E949B
:10409000821E81958093F1014091F001442379F0D3
:1040A0003091F101332359F025EB4203A001112493
:1040B0005093F0013203C00111249093F1011D16B9
:1040C00024F40E94CB1E8093F2018091F20187FFBD
:1040D00005C00E94CB1E81958093F201111624F435
:1040E0000E94CB1E8093F3018091F30187FF05C0EE
:1040F0000E94CB1E81958093F301DF91CF911F9198
:104100000C94F11F9F3F09F0A6CFAECFDF91CF9166
:104110001F910895EFEEF1E085E0DF011D928A9591
:10412000E9F71092EE011092ED010895833081F1CC
:1041300028F4813059F08230D1F00895853009F4A7
:1041400049C0B8F1863009F456C0089580910A013B
:10415000262F30E0280F311D2F3F310524F4680F42
:1041600060930A0108958FEF80930A01089580916A
:104170000901262F30E0280F311D2F3F310524F48F
:10418000680F6093090108958FEF809309010895E6
:1041900080910801262F30E0280F311D2F3F310577
:1041A00024F4680F6093080108958FEF809308014D
:1041B000089580910701262F30E0280F311D2F3FF1
:1041C000310524F4680F6093070108958FEF809301
:1041D0000701089580910601262F30E0280F311D38
:1041E0002F3F310524F4680F6093060108958FEF87
:1041F00080930601089580910501262F30E0280F55
:10420000311D2F3F310524F4680F60930501089597
:104210008FEF809305010895833011F128F48130E8
:1042200049F0823091F00895853081F120F1863097
:10423000C1F1089580910A01681720F4861B8093CC
:104240000A01089510920A010895809109016817E2
:1042500020F4861B809309010895109209010895A6
:1042600080910801681720F4861B80930801089547
:1042700010920801089580910701681720F4861BA9
:104280008093070108951092070108958091060117
:10429000681720F4861B809306010895109206018A
:1042A000089580910501681720F4861B809305010D
:1042B00008951092050108950F931F938732D8F542
:1042C0008E3108F081C08E3009F46BC098F48730CD
:1042D00009F459C08B3009F48BC0863009F08FC0C7
:1042E0008091E901817F8E7F8093E90181E0809355
:1042F000F50186C0863109F47BC068F4803109F08D
:104300007EC08091E90183FB222720F991E092276A
:1043100090FB83F94FC0893109F46AC08B3109F0F1
:104320006EC08091E90181FB222720F991E092275C
:1043300090FB81F93FC0883309F45AC050F48932A8
:1043400009F458C0853309F455C0873209F452C0C6
:1043500056C0833409F44EC028F48A3308F44FC0A1
:10436000895333C0883409F04AC00E9433170FEFD5
:1043700013ED20E3015010402040E1F700C00000A1
:104380000E94451E35C08091E901982F909591704B
:1043900090FB80F98093E90191112AC0897F877F82
:1043A00010C08091E90182FB222720F991E0922739
:1043B00090FB82F98093E9019923D1F08091E90182
:1043C00081608093E90114C08D5141E050E060E0CC
:1043D00070E08A019B0104C0000F111F221F331FD0
:1043E0008A95D2F7C901B8010E94091B0E943317B0
:1043F00081E006C061E070E080E090E0F5CF80E011
:104400001F910F91089580E0089580E008958E51E6
:104410008A3030F4E82FF0E0E95DFE4F80810895A6
:1044200080E00895CF93C82F8091F501813069F025
:1044300018F08230C9F183C0E0910301F0910401CA
:104440008081823209F07DC007C0E0910301F091C4
:1044500004018081823261F48C2F0E940322811139
:1044600004C08C2F0E945C211DC081E090E01AC026
:104470008C2F0E940522811114C0C43179F048F4B8
:10448000CB3079F0C03109F060C082E08093F50153
:1044900008C0C93219F0C83321F057C01092F50195
:1044A00054C081E0817053C0C93289F118F5C4311C
:1044B00071F1B0F4C73009F046C08EE180930A0173
:1044C00082E3809309018AE08093080184E180936C
:1044D000070188E08093060188E28093050133C0DC
:1044E00082EE8C0F863078F58C2F0E940722809305
:1044F000F40129C0CE34E9F020F4CB3421F56AE090
:1045000013C0C13579F0C235F1F461E00DC080917E
:10451000F401882319F01092F40115C081E0809312
:10452000F50115C061E006C08091F4010E9496205B
:104530000AC06AE08091F4010E940C2104C010922C
:10454000F50180E004C081E002C080E0ABCFCF91F4
:1045500008958091FE0108950F931F93CF93DF93E9
:1045600000D01F92CDB7DEB78C010E94FC248230B0
:1045700011F0843019F593E099831B830A8390939B
:10458000E9008FEF9091E800815095FD06C095ED10
:104590009A95F1F700008111F5CF8091E80085FF31
:1045A0000DC040E050E063E070E0CE0101960E9453
:1045B00019258091E8008E778093E8000F900F9086
:1045C0000F90DF91CF911F910F910895CF93DF93BB
:1045D00000D01F92CDB7DEB720914102243031F5D3
:1045E00022E02983805891099B838A8383E080930A
:1045F000E9008FEF9091E800815095FD06C095EDA0
:104600009A95F1F700008111F5CF8091E80085FFC0
:104610000DC040E050E063E070E0CE0101960E94E2
:1046200019258091E8008E778093E8000F900F9015
:104630000F90DF91CF910895CF93DF93EC010E940B
:10464000FC24823011F08430F9F482E08093E90098
:104650009FEF8091E800915085FD06C085ED8A9519
:10466000F1F700009111F5CF8091E80085FF0CC0B3
:1046700040E050E065E070E0CE010E941925809195
:10468000E8008E778093E800DF91CF910895CF9373
:10469000DF93EC010E94FC24823011F0843039F564
:1046A00081E08093E9009FEF8091E800915085FDC3
:1046B00006C085ED8A95F1F700009111F5CF809144
:1046C000E80085FF14C040E050E068E070E0CE01F3
:1046D0000E9419259091E8009E779093E80098E059
:1046E000FE01A6EFB1E001900D929A95E1F7DF91FE
:1046F000CF91089580914002811109C00E94AE2699
:104700000E940B278091E20084608093E20008956C
:10471000109240020895089508950C94B11D42E04E
:1047200061EC81E00E94282642E061EC82E00E9478
:10473000282642E061EC83E00C9428268091430215
:10474000833009F453C030F4813071F0823009F4C1
:104750008CC008958A3009F478C08B3009F45EC0AB
:10476000893009F09AC020C080914202813A09F054
:1047700094C08091E800877F8093E8008091460292
:1047800090914702892B21F468E086EF91E003C005
:1047900060E080E090E070E00E9464258091E80095
:1047A0008B778093E800089580914202813209F06E
:1047B00074C08091460290914702892B09F06DC028
:1047C0008091E800877F8093E8008091E80082FD77
:1047D00005C0809141028111F8CF5FC08091F10046
:1047E0008093FE018091E8008B7753C08091420254
:1047F000813A09F052C08091460290914702892B7C
:1048000009F04BC08091E800877F8093E800809199
:10481000E80080FFFCCF8091150136C080914202F4
:104820008132D9F58091460290914702892BA9F5F2
:104830008091E800877F8093E8000E945D26809148
:104840004402809315010C94331780914202813207
:1048500021F58091E800877F8093E8000E945D2623
:10486000809145028093FF01089580914202813A30
:10487000A1F48091E800877F8093E8008091E800B0
:1048800080FFFCCF8091FF018093F1008091E800D0
:104890008E778093E8000C945D26089584B7877F17
:1048A00084BF0FB6F894A8958091600088618093CA
:1048B0006000109260000FBE80E88093610010924B
:1048C00061000E9403120E94AE260E940B27809175
:1048D000E20084608093E20078940E949A290E940A
:1048E00007128BE091E00E94B01180914102853067
:1048F00069F40E946F1D80913F028823B1F30E94EA
:104900009D1D882391F30E940325EFCF0E940F1273
:104910000E944411EACF0C948D24292F3327233091
:104920003105C9F064F42130310581F022303105C0
:1049300009F049C084E590E022E235E048C0213228
:10494000310521F12232310571F13DC082E190E063
:1049500026E735E03CC099278130910571F02CF4B1
:10496000892B89F5EEE1F5E00DC08230910541F02B
:10497000039749F5EAEDF4E005C0E8E0F5E002C090
:10498000E0EEF4E0849190E09F0121C06330710576
:10499000D0F4660F771FFB01E65CFE4F208131816A
:1049A00089E090E014C06330710568F4FB01EE0FFC
:1049B000FF1FEC5CFE4F20813181FB01EF5CFE4F5D
:1049C000808190E004C080E090E020E030E0FA01D7
:1049D0003183208308950895CF93C82F0E94EB243C
:1049E000C0930002CF91089580914102843011F06C
:1049F00081E0089582E0089580910002811102C053
:104A00000C94F424089580E189BD82E189BD09B444
:104A100000FEFDCF8091D8008F7D8093D8008091DB
:104A2000E00082608093E0008091E00081FDFCCF97
:104A30000895CF92DF92EF92FF920F931F93CF933F
:104A4000DF93EC018B016A010E947C26811133C047
:104A5000C114D10439F0F60180819181081B190B32
:104A6000C80FD91FE12CF12C0115110519F1809106
:104A7000E80085FD16C08091E8008E778093E800FD
:104A8000C114D10449F0F60180819181E80EF91E2C
:104A9000F182E08285E00FC00E947C26882321F30A
:104AA0000AC089918093F10001501109FFEFEF1ABC
:104AB000FF0ADACF80E0DF91CF911F910F91FF9035
:104AC000EF90DF90CF9008952091480230914902F5
:104AD0002617370748F06115710539F42091E80071
:104AE0002E772093E80001C0B90140E061157105FF
:104AF000A9F120914102222309F443C0253009F491
:104B000042C02091E80023FD40C02091E80022FD32
:104B100032C02091E80020FFE9CF4091F3002091BE
:104B2000F20030E0342BFC01CF016115710559F022
:104B30002830310540F481918093F1006150710972
:104B40002F5F3F4FF1CF41E02830310509F040E0C1
:104B50002091E8002E772093E800C8CF4111C9CFFB
:104B60000AC080914102882361F0853061F0809114
:104B7000E80083FD0AC08091E80082FFF2CF80E068
:104B8000089582E0089583E0089581E008952091DA
:104B90004802309149022617370748F06115710520
:104BA00039F42091E8002E772093E80001C0B90184
:104BB000FC0120E06115710591F18091410288238B
:104BC00009F440C0853009F43FC08091E80083FDBE
:104BD0003DC08091E80082FD2FC08091E80080FFF9
:104BE000E9CF2091F3008091F20090E0922B6115C3
:104BF000710559F08830910540F424912093F1001B
:104C00003196615071090196F2CF21E0089709F0C1
:104C100020E08091E8008E778093E800CBCF2111CF
:104C2000CCCF0AC080914102882361F0853061F0C9
:104C30008091E80083FD0AC08091E80082FFF2CFF6
:104C400080E0089582E0089583E0089581E008956A
:104C5000982F973058F59093E900981739F0709194
:104C6000EC002091ED005091F00003C0242F762F2E
:104C700050E021FF19C03091EB003E7F3093EB00F4
:104C80003091ED003D7F3093ED003091EB003160CD
:104C90003093EB007093EC002093ED005093F00004
:104CA0002091EE0027FF07C09F5FD3CF8F708093C6
:104CB000E90081E0089580E008958091420287FF35
:104CC00011C08091E80082FD05C0809141028111F0
:104CD000F8CF11C08091E8008B770BC08091410222
:104CE000882349F08091E80080FFF8CF8091E800A8
:104CF0008E778093E80008952091E4003091E500DC
:104D000095E64091EC00842F817040FF22C0809195
:104D1000E80080FD1CC080914102882391F085301D
:104D200091F08091EB0085FD10C04091E40050911E
:104D3000E5004217530729F39A01915011F784E0D7
:104D4000089582E0089583E0089581E0089580E069
:104D500008954091E80042FFDECF08950E941C278D
:104D60000E942427E0EEF0E0808181608083E8EDFE
:104D7000F0E080818F77808319BCA7EDB0E08C9143
:104D80008E7F8C9380818F7E808310924002089565
:104D90000F931F93CF93DF930E941C270E94242719
:104DA000C8EDD0E088818F77888388818068888388
:104DB00088818F7D888319BC1092410210923D0238
:104DC00010923F0210923E0200EE10E0F801808146
:104DD0008B7F808388818160888342E060E080E00F
:104DE0000E942826E1EEF0E080818E7F8083E2EE53
:104DF000F0E0808181608083808188608083F80119
:104E000080818E7F8083888180618883DF91CF91CC
:104E10001F910F910895E8EDF0E080818F7E8083EF
:104E2000E7EDF0E080818160808384E082BF81E0F3
:104E3000809340020C94C826E8EDF0E080818E7FDC
:104E400080831092E20008951092DA001092E1003F
:104E500008951F920F920FB60F9211242F933F9334
:104E60004F935F936F937F938F939F93AF93BF9372
:104E7000EF93FF938091E10082FF0BC08091E200ED
:104E800082FF07C08091E1008B7F8093E1000E9448
:104E900099298091DA0080FF1FC08091D80080FF9F
:104EA0001BC08091DA008E7F8093DA008091D90058
:104EB00080FF0DC080E189BD82E189BD09B400FE9B
:104EC000FDCF81E0809341020E947A2305C019BC86
:104ED000109241020E9488238091E10080FF19C056
:104EE0008091E20080FF15C08091E2008E7F809368
:104EF000E2008091E20080618093E2008091D8001E
:104F000080628093D80019BC85E0809341020E94A2
:104F10008C238091E10084FF30C08091E20084FF07
:104F20002CC080E189BD82E189BD09B400FEFDCFBE
:104F30008091D8008F7D8093D8008091E1008F7E92
:104F40008093E1008091E2008F7E8093E200809167
:104F5000E20081608093E20080913D02882311F09D
:104F600084E007C08091E30087FD02C081E001C0BA
:104F700083E0809341020E948D238091E10083FFB2
:104F800029C08091E20083FF25C08091E100877FE6
:104F90008093E10082E08093410210923D02809173
:104FA000E1008E7F8093E1008091E2008E7F80930C
:104FB000E2008091E20080618093E20042E060E0E4
:104FC00080E00E9428268091F00088608093F000A5
:104FD0000E948B23FF91EF91BF91AF919F918F9191
:104FE0007F916F915F914F913F912F910F900FBEE5
:104FF0000F901F9018951F920F920FB60F921124C9
:105000002F933F934F935F936F937F938F939F93D0
:10501000AF93BF93CF93DF93EF93FF93C091E900DA
:10502000CF708091EC00D82FD17080FDD0E8109225
:10503000E9008091F000877F8093F00078940E94CF
:105040003F281092E9008091F00088608093F00082
:10505000CD2BCF70C093E900FF91EF91DF91CF91FD
:10506000BF91AF919F918F917F916F915F914F9180
:105070003F912F910F900FBE0F901F9018951F9387
:10508000CF93DF93CDB7DEB7AA970FB6F894DEBF04
:105090000FBECDBFE2E4F2E088E08E0F9091F10008
:1050A00091938E13FBCF0E949E238091E80083FF93
:1050B00028C18091420290914302492F50E04A302A
:1050C000510508F01EC1FA01E556FF4F0C94262D3C
:1050D000803821F0823809F014C108C080913E0266
:1050E00090913F02992389F082600FC0809146021F
:1050F0008F70873008F005C18093E9008091EB0044
:1051000085FB882780F91092E9009091E800977F4D
:105110009093E8008093F1001092F100D0C0282F06
:105120002D7F09F0EEC0882319F0823061F0E9C0CC
:1051300080914402813009F0E4C0933009F080E0AE
:1051400080933F022EC08091440281112AC0809139
:1051500046028F702FEF280F263008F0D2C08093C0
:10516000E9002091EB0020FF1CC0933021F48091D6
:10517000EB00806214C09091EB0090619093EB0083
:1051800021E030E0A90102C0440F551F8A95E2F7E3
:105190004093EA001092EA008091EB0088608093CF
:1051A000EB001092E9008091E800877F8093E8008F
:1051B0000E945D26A6C08111A4C0109144021F77F1
:1051C0008091E3008078812B8093E3008091E80058
:1051D000877F8093E8000E945D268091E80080FF31
:1051E000FCCF8091E30080688093E300111102C03E
:1051F00082E001C083E08093410283C08058823006
:1052000008F07FC080914402909145028C3D53E0AC
:10521000950779F583E08A838AE289834FB7F8940A
:10522000DE01139620E03EE051E2E32FF0E05093E0
:105230005700E49120FF03C0E295EF703F5FEF70ED
:105240008E2F90E0EA3010F0C79601C0C0968D9383
:105250009D932F5F243149F74FBF8091E800877FEE
:105260008093E8006AE270E0CE0101960E94642516
:1052700015C06091460270914702AE014F5F5F4FCB
:105280000E948B24BC01892BE1F19091E800977F6B
:105290009093E80089819A810E94C7258091E80057
:1052A0008B778093E8002DC0803859F58091E80015
:1052B000877F8093E80080913D028093F100809188
:1052C000E8008E7773CF81111CC090914402923018
:1052D000C0F48091E800877F8093E80090933D02BE
:1052E0000E945D2680913D02811106C08091E300FD
:1052F00087FD02C081E001C084E0809341020E94EA
:105300008F238091E80083FF0AC08091E800877FA7
:105310008093E8008091EB0080628093EB00AA9676
:105320000FB6F894DEBF0FBECDBFDF91CF911F91B6
:1053300008950895CF93809141028823A1F0C091F0
:10534000E900CF709091EC00892F817090FD80E88A
:10535000C82B1092E9008091E80083FD0E943F284D
:10536000CF70C093E900CF9108955058BB27AA276A
:105370000E94CD290C94782B0E946A2B38F00E9451
:10538000712B20F039F49F3F19F426F40C94402B34
:105390000EF4E095E7FB0C943A2BE92F0E94892B41
:1053A00058F3BA17620773078407950720F079F45A
:1053B000A6F50C94AB2B0EF4E0950B2EBA2FA02D76
:1053C0000B01B90190010C01CA01A0011124FF27B2
:1053D000591B99F0593F50F4503E68F11A16F040AD
:1053E000A22F232F342F4427585FF3CF46953795AC
:1053F0002795A795F0405395C9F77EF41F16BA0B71
:10540000620B730B840BBAF09150A1F0FF0FBB1F1E
:10541000661F771F881FC2F70EC0BA0F621F731F67
:10542000841F48F4879577956795B795F7959E3FC4
:1054300008F0B0CF9395880F08F09927EE0F979555
:10544000879508950E94362A0C94782B0E94712B20
:1054500058F00E946A2B40F029F45F3F29F00C9429
:105460003A2B51110C94AC2B0C94402B0E94892B9D
:1054700068F39923B1F3552391F3951B550BBB2783
:10548000AA2762177307840738F09F5F5F4F220FC8
:10549000331F441FAA1FA9F335D00E2E3AF0E0E8BF
:1054A00032D091505040E695001CCAF72BD0FE2F09
:1054B00029D0660F771F881FBB1F2617370748079D
:1054C000AB07B0E809F0BB0B802DBF01FF27935855
:1054D0005F4F3AF09E3F510578F00C943A2B0C94B4
:1054E000AC2B5F3FE4F3983ED4F3869577956795B0
:1054F000B795F7959F5FC9F7880F911D969587958A
:1055000097F90895E1E0660F771F881FBB1F6217A8
:1055100073078407BA0720F0621B730B840BBA0B66
:10552000EE1F88F7E095089529F416F00C943A2BB5
:105530000C94AB2B0C94402B0E94912BA8F3963823
:10554000A0F707F80F92E8942BE33AEA48EB5FE7FD
:105550000E943E2C0F920F920F924DB75EB70F92A2
:105560000E94F42BEAE4F1E00E94432B4F915F91FB
:10557000EF91FF91E595EE1FFF1F49F0FE57E068A0
:105580004427EE0F441FFA95E1F74195550B0E9411
:10559000BE2B0F9007FE0C94B22B08950E94912B06
:1055A00088F09F5798F0B92F9927B751B0F0E1F0E4
:1055B000660F771F881F991F1AF0BA95C9F714C094
:1055C000B13091F00E94AB2BB1E008950C94AB2B5D
:1055D000672F782F8827B85F39F0B93FCCF38695CD
:1055E00077956795B395D9F73EF49095809570952A
:1055F00061957F4F8F4F9F4F0895E89409C097FBA7
:105600003EF490958095709561957F4F8F4F9F4F99
:105610009923A9F0F92F96E9BB279395F6958795DD
:1056200077956795B795F111F8CFFAF4BB0F11F4A0
:1056300060FF1BC06F5F7F4F8F4F9F4F16C0882347
:1056400011F096E911C0772321F09EE8872F762F7D
:1056500005C0662371F096E8862F70E060E02AF0BE
:105660009A95660F771F881FDAF7880F96958795AA
:1056700097F9089597F99F6780E870E060E00895D2
:105680009FEF80EC0895DF93CF931F930F93FF92CA
:10569000EF92DF927B018C01689406C0DA2EEF0155
:1056A0000E943B2CFE01E894A591259135914591EE
:1056B0005591A6F3EF010E94CD29FE019701A801A3
:1056C000DA9469F7DF90EF90FF900F911F91CF91DF
:1056D000DF91089500240A94161617061806090685
:1056E000089500240A941216130614060506089558
:1056F000092E0394000C11F4882352F0BB0F40F4E0
:10570000BF2B11F460FF04C06F5F7F4F8F4F9F4F1F
:10571000089557FD9058440F551F59F05F3F71F0A1
:105720004795880F97FB991F61F09F3F79F0879508
:105730000895121613061406551FF2CF4695F1DF91
:1057400008C0161617061806991FF1CF8695710521
:10575000610508940895E894BB2766277727CB0155
:1057600097F908959B01AC0160E070E080E89FE349
:105770000C94222A0C943A2B0C949D2C0E94912B71
:10578000D8F39923C9F3940F511DA3F391505040BE
:1057900094F059F0882332F0660F771F881F9150DC
:1057A0005040C1F79E3F51052CF7880F911D9695EB
:1057B000879597F908955F3FACF0983E9CF0BB2722
:1057C000869577956795B79508F4B1609395C1F77D
:1057D000BB0F58F711F460FFE8CF6F5F7F4F8F4F1B
:1057E0009F4FE3CF0C94AC2BFA01DC01AA0FBB1F37
:1057F0009B01AC01BF5728F4222733274427507858
:1058000020C0B75190F4AB2F0024469537952795CB
:10581000011CA395D2F3002071F0220F331F441F07
:10582000B395DAF30ED00C94B52961307105A0E878
:105830008A07B94630F49B01AC0166277727882791
:105840009078309621F020833183428353830895EA
:105850000E943B2C0C94782B0E946A2B38F00E94FB
:10586000712B20F0952311F00C943A2B0C94402BC3
:1058700011240C94AC2B0E94892B70F3959FC1F3DB
:10588000950F50E0551F629FF001729FBB27F00DEE
:10589000B11D639FAA27F00DB11DAA1F649F662743
:1058A000B00DA11D661F829F2227B00DA11D621F92
:1058B000739FB00DA11D621F839FA00D611D221F4C
:1058C000749F3327A00D611D231F849F600D211D30
:1058D000822F762F6A2F11249F5750409AF0F1F0B3
:1058E00088234AF0EE0FFF1FBB1F661F771F881F1C
:1058F00091505040A9F79E3F510580F00C943A2BEF
:105900000C94AC2B5F3FE4F3983ED4F386957795E7
:105910006795B795F795E7959F5FC1F7FE2B880FC1
:10592000911D9695879597F908959F930E94AD2CA8
:105930000F9007FCEE5F0C94D62C9F3F31F09150F6
:1059400020F4879577956795B795880F911D969563
:10595000879597F908950C94402B0E94912BD8F3CA
:10596000E894E0E0BB279F57F0F02AED3FE049ECD8
:1059700006C0EE0FBB0F661F771F881F28F0B23AD4
:1059800062077307840728F0B25A620B730B840B0B
:10599000E3959A9572F7803830F49A95BB0F661F9D
:1059A000771F881FD2F790480C949F2CEF93E0FF4D
:1059B00007C0A2EA2AED3FE049EC5FEB0E94CD2947
:1059C0000E94782B0F90039401FC9058E2E7F1E0DD
:1059D0000C94EA2C9F938F937F936F93FF93EF9395
:1059E0009B01AC010E94282CEF91FF910E94432B58
:1059F0002F913F914F915F910C94282CAA1BBB1BB8
:105A000051E107C0AA1FBB1FA617B70710F0A61BBE
:105A1000B70B881F991F5A95A9F780959095BC01DF
:105A2000CD01089597FB072E16F4009407D077FD5B
:105A300009D00E94FE2C07FC05D03EF4909581957C
:105A40009F4F0895709561957F4F0895EE0FFF1F4A
:105A50000590F491E02D0994F999FECF92BD81BD96
:105A6000F89A992780B50895A6E1B0E044E050E0A7
:105A70000C94662DA8E1B0E042E050E00C94662D55
:105A8000262FF999FECF92BD81BDF89A019700B4F7
:105A9000021639F01FBA20BD0FB6F894FA9AF99A97
:105AA0000FBE08950396272F0E94412D0E94402D7E
:105AB000252F0E94412D242F0C94412D0196272F34
:105AC0000E94412D0C94402DDC01CB01FC01F99981
:105AD000FECF06C0F2BDE1BDF89A319600B40D923A
