:100000000C9426030C946D030C946D030C946D03F7
:100010000C946D030C946D030C946D030C946D03A0
:100020000C946D030C946D030C94F8260C94CA2761
:100030000C94861D0C946D030C946D030C946D034D
:100040000C946D030C946D030C946D030C946D0370
:100050000C946D030C94EE1D0C946D030C946D03C5
:100060000C946D030C946D030C946D030C946D0350
:100070000C946D030C946D030C946D030C946D0340
:100080000C946D030C946D030C946D030C946D0330
:100090000C949C050C946D030C946D030C946D03EF
:1000A0000C946D030C946D030C946D03C506C70688
:1000B000D206C906CB06CD06CF06D106D406D60693
:1000C000D806E306DA06DC06DE06E006E206E5060A
:1000D00075147514AF14AF14EE140E158116811635
:1000E00050158116001600167316811681167B16A0
:1000F0000D160D160D160D160D160D160D160D16E8
:100100000D160D160D160D160D160D160D160D16D7
:100110001F162D1634163B164516141714172617DE
:1001200026171D1726172617261714171417221718
:1001300026172617221737285E2850295E285029AF
:10014000AA28CD2850292329322907634236B79B94
:10015000D8A71A39685618AEBAAB558C1D3CB7CC27
:100160005763BD6DEDFD753EF6177231BF0000009F
:10017000803F05A84CCDB2D44EB93836A9020C50F8
:10018000B9918688083CA6AAAA2ABE000000803F32
:1001900035421E001F0020002100220001512B00CB
:1001A00014001A000800150017002F14290004007D
:1001B0001600070009000A004B43E1001D001B0068
:1001C0000600190005004E0064685700560055648B
:1001D00054612A004C002D422700260025002400EF
:1001E000230001512F00130012000C0018001C0006
:1001F0003014340033000F000E000D000B004D438F
:100200003872310037003600100011004A004F00EC
:100210005200510050002E742C00280001003A00BA
:100220003B003C003D003E00010001001E02331473
:100230002F163016350201000100341421022F144C
:1002400030142E140100010022022E022502260283
:100250002D14010001000100010001000100010056
:100260000100000043004200410040003F00010047
:1002700000000000610060005F000000010000005D
:1002800000005E005D005C00000001000000000056
:100290005B005A00590000000100000000006300EC
:1002A0006200620001000100010001000100010084
:1002B00001000100010000000000F0000000F90052
:1002C000000001000000F200F100F300FA0000005D
:1002D000010000000000000000000000000001001C
:1002E0000000000000000000F400F5000100010023
:1002F00001000100010001000100010000000000F8
:1003000000000000000000000100000000004F009D
:1003100052005100500001000000000000000000E9
:1003200000000000010000000000000000000000CC
:100330000100010000003A003B003C003D003E008F
:100340003F000000005CCB5CC05CC15CC45CC35C73
:10035000000000000000000000000000010000009C
:10036000000000000000000000000000000000008D
:1003700000000000000000000000000045004400F4
:10038000430042004100400000004C000000C75CF8
:10039000C85CC55CC65C00000000000000000000F6
:1003A000000001000000000000000000000000004C
:1003B000000000000000000000000000000000003D
:1003C0006801F000B40078005A007F3F1F643214C7
:1003D000643214783C1E1E140A050000000000015F
:1003E00001010101010101010202020202020202F5
:1003F00002030303030303030304040404040405C6
:100400000505050506060606060707070708080886
:10041000080909090A0A0A0A0B0B0B0C0C0C0D0D32
:100420000D0E0E0F0F0F10101111111212131314C5
:1004300014151516161717181819191A1A1B1C1C3B
:100440001D1D1E1F1F202021222223242525262793
:100450002728292A2B2B2C2D2E2F2F3031323334C5
:100460003536363738393A3B3C3D3E3F40414243D2
:1004700044464748494A4B4C4D4F505152535556AC
:1004800057585A5B5C5E5F606263646667696A6C5A
:100490006D6E707173747678797B7C7E80818384D5
:1004A00086888A8B8D8F91929496989A9B9D9FA116
:1004B000A3A5A7A9ABADAFB1B3B5B7B9BBBDBFC11C
:1004C000C4C6C8CACCCFD1D3D6D8DADCDFE1E4E6E3
:1004D000E8EBEDF0F2F5F7FAFCFF04033000000062
:1004E0002603540068006500200052006500640087
:1004F0006F00780020004B006500790062006F00FB
:1005000061007200640000001403460061006C008A
:10051000620061007400650063006800000004036D
:10052000090409025400030100A0FA0904000001B3
:10053000030101000921110100012240000705818A
:100540000308000A09040100010301020009211146
:10055000010001224D000705820308000A09040278
:1005600000010300000009211101000122360007EB
:1005700005830308000A1201100100000008EDFEC7
:10058000000000010102030105010980A1018502AB
:100590001601002603001A81002A830075109501B8
:1005A0008100C0050C0901A1018503160100269CEC
:1005B000021A01002A9C02751095018100C00501F4
:1005C0000902A1010901A100050919012905150068
:1005D00025019505750181029501750381010501CC
:1005E000093009311581257F950275088106093882
:1005F0001581257F950175088106050C0A380215BD
:1006000081257F950175088106C0C005010906A1F5
:1006100001050719E029E7150025019508750181F5
:1006200002950175088101050819012905950575CF
:100630000191029501750391010507190029FF1524
:100640000026FF00950675088100C00011241FBE1A
:10065000CFEFDAE0DEBFCDBF04B603FE27C0809146
:10066000550290915602A0915702B09158028730DE
:10067000904BA740B04BD1F4109255021092560205
:10068000109257021092580214BE84B7877F84BF1D
:100690000FB6F894A89580916000886180936000FF
:1006A000109260000FBEE0E0F8E3099511E0A0E0D1
:1006B000B1E0EAE8FAE502C005900D92A034B10776
:1006C000D9F722E0A0E4B1E001C01D92A535B20740
:1006D000E1F70E941D240C94432D0C940000089512
:1006E00008950C9470038091E40183608860809386
:1006F000E401ADE1B1E041E050E025E02A0F8D9149
:10070000E82FE295EF70F0E031A18F70BA0102C0DE
:10071000660F771F8A95E2F7CB01962F909593236A
:1007200091A392A1892B82A32A13E9CFA6E1B1E07C
:1007300041E050E027E02A0F8D91E82FE295EF701D
:10074000F0E031A18F70BA0102C0660F771F8A9561
:10075000E2F7CB01962F9095932391A392A1892B39
:1007600082A32A13E9CF559A209AABE4B1E0E0E4E2
:10077000F1E08AE08E0F11921D928E13FCCF0C9443
:10078000C6082F923F924F925F926F927F928F9204
:100790009F92AF92BF92CF92DF92EF92FF920F9310
:1007A0001F93CF93DF9300D000D0CDB7DEB78091F9
:1007B0000001811104C035E0C32ED12C02C0C12C30
:1007C000D12C9601255B3E4F79013C832B830DE1B3
:1007D00011E0AA24A394B12C8824839494E0992E48
:1007E00025E0722E700E6B817C81DB015C901C9287
:1007F000F80181918F01E82FE295EF70F0E021A1DF
:100800008F70A50102C0440F551F8A95E2F7CA01F7
:10081000242B21A322A1642E6094262122A350EA36
:100820005A95F1F7A6E1B1E0BA83A98320E030E060
:10083000A981BA813D90BA83A983432D42954F7017
:1008400050E0DA0190962C90AB81BC814C90432D06
:100850004F70D50102C0AA0FBB1F4A95E2F7AD0148
:10086000422139F44A2D022E01C0440F0A94EAF7BE
:1008700001C040E04429AB81BC814C932F5F3F4FC6
:1008800027303105A9F691A1692261A292A1892B95
:1008900082A31196BC83AB83FB018081581659F06B
:1008A000809255010E94B81D909357018093560184
:1008B0008BB189258BB9701296CF80915501882311
:1008C000D1F080915601909157010E94C41D069766
:1008D00090F080E090E0FC01EC0DFD1DE05CFE4F2F
:1008E000D701A80FB91F2C9120830196853091055F
:1008F00091F71092550181E00F900F900F900F909B
:10090000DF91CF911F910F91FF90EF90DF90CF90EB
:10091000BF90AF909F908F907F906F905F904F901F
:100920003F902F900895EF92FF920F931F93CF93D4
:10093000DF9380910001811103C000E010E002C04C
:1009400005E010E082E30E943D05C82FD0E020972B
:1009500049F580E00E947705C82FD0E0209711F577
:1009600083E30E943D05C82FD0E02097D9F4E80129
:10097000C05CDE4F00E010E07E0181E090E00E946C
:10098000860589930F5F1F4F04301105B1F780E092
:1009900090E00E948605F70184830E946B0580E049
:1009A00090E003C00E949305CE01DF91CF911F918B
:1009B0000F91FF90EF900895CF930E94C103C82F2D
:1009C0000E949304892BF9F05D9890914A019F5FF2
:1009D00090934A019630D0F080910001811103C0BC
:1009E00040E050E002C045E050E020E030E0F90196
:1009F000E40FF51FE05CFE4F10822F5F3F4F253064
:100A00003105A9F703C05D9A10924A010E94C808F7
:100A10008C2FCF9108950E94C10380910001811114
:100A200003C025E030E002C020E030E080E090E04C
:100A3000FC01E20FF31FE05CFE4F4081FC01E4503B
:100A4000FE4F408301968530910591F70895E82F78
:100A5000F0E0E05CFE4F80810895089589EC90E01D
:100A60002091BC0027FD02C00197D1F70895109294
:100A7000B90088E48093B8000895CF93DF931F9264
:100A8000CDB7DEB794EA9093BC0089830E942E050F
:100A90009091B900987F8981983039F09091B90090
:100AA000987F903111F081E012C08093BB0084E800
:100AB0008093BC000E942E058091B900887F883108
:100AC00029F08091B900887F803469F780E00F9029
:100AD000DF91CF91089584E98093BC0089EC90E088
:100AE0002091BC0024FD02C00197D1F708958093A6
:100AF000BB0084E88093BC000E942E059091B90051
:100B0000987F81E0983209F480E0089526E0880F0C
:100B1000991F2A95E1F784688093BC000E942E05F6
:100B20008091BB0008951092BC0008958093BA0094
:100B300085EC8093BC0008951F920F920FB60F9220
:100B400011248F939F93EF93FF938091B900887F37
:100B5000803869F038F48823C9F18036C9F51092DD
:100B6000580136C0883A09F1883BF9F031C08091CC
:100B70005801811111C08091BB008093590180916F
:100B80005901803120F01092590180E001C081E0CC
:100B900091E0909358011DC0E0915901F0E08091DF
:100BA000BB00E450FE4F808308C0E0915901F0E0A3
:100BB000E450FE4F80818093BB008091590190E00A
:100BC00001968F7099278093590102C01092BC0042
:100BD00081E09091BC0095688295880F880F807C99
:100BE000892B8093BC00FF91EF919F918F910F9083
:100BF0000FBE0F901F901895E8EDF0E080818061A6
:100C000080838AE18A95F1F700C08091D9008170D4
:100C100008950E94FC05809300010E94FC05882332
:100C200019F00E94370505C00E94AF1D82E30E94A3
:100C30009605789408950E9473030E940B05FDCFDA
:100C40000E9409060E94FC05811102C00E941B0639
:100C500008950C946F0381E0089581E008950C9449
:100C60002D060E9402172FEF84E39CE02150804064
:100C70009040E1F700C000000C94141E0F931F93E6
:100C8000CF93DF938C01FC01C081D181CE010E9402
:100C9000D71BBE010E94D308EC01B8010E942F06A9
:100CA000882309F46DC2B801CE010E94310B88235C
:100CB00009F466C2C93CFCE5DF0741F4F801828112
:100CC000882309F45DC20E941C0C5AC2CA3C8CE500
:100CD000D80708F012C1C13C9CE5D90761F4F801BE
:100CE0008281882309F44CC20E94891C8272F1F02F
:100CF0000E94900E45C2C23CECE5DE07D0F0F80140
:100D00008281C53CFCE5DF0709F4CCC008F0DCC0FB
:100D1000C33CECE5DE0709F4CBC008F0CFC0882364
:100D200009F42EC20E94891C827211F30E94860E61
:100D300027C2C531FCE5DF0708F07DC0C2308CE575
:100D4000D80708F452C0F8018281882309F459C0F9
:100D50000E94E31C811102C00E94C21C0E94F61C6A
:100D600090E09093470280934602FE01E350FC45D9
:100D7000E231F10530F4EA5AFF4F809146020C94BB
:100D8000F52C80914602816027C0826025C0846076
:100D900023C0806121C080621FC080641DC0806844
:100DA0001BC08460886018C08E7F16C08D7F14C001
:100DB0008B7F12C08F7E10C08F7D0EC08F7B0CC0CA
:100DC0008F770AC08B7F877F07C087FB222720F998
:100DD00091E0922790FB87F980934602809146022A
:100DE0000E94FA1C0E940217CBC1C1159CE5D907CD
:100DF00079F0C130DC45A1F081E080935F01809300
:100E00006001C801DF91CF911F910F910C942B06C7
:100E1000F8018281882309F4B3C10E943106B0C170
:100E2000F8018281882309F4ABC18091E4018160DB
:100E30008093E401A5C1C531FCE5DF0739F50E94C7
:100E4000891C282FF80182814091030150910401EF
:100E5000882379F02A7A91E009F490E090935A017E
:100E6000911102C069E201C065E3CA010E94321D0E
:100E70000AC080915A01811102C069E201C065E394
:100E8000CA010E94341D0E94561C7AC1C03CDC4538
:100E900009F0B2CFF8018281882309F471C10E9460
:100EA000C50E6EC1882309F46BC10E94A10D68C1F3
:100EB000882309F465C10E946A0D62C1882309F480
:100EC0005FC10E94820D5CC1C73C9CE5D90731F42B
:100ED000882309F455C10E94D60D52C1C83CDC4597
:100EE00030F4882309F44CC10E94BC0D49C1882309
:100EF00009F446C10E94F10D43C1C03DFCE5DF0786
:100F0000C1F4F8018281882309F43AC10E940E0CD1
:100F1000653171058105910540F00E940E0C673125
:100F200071058105910508F401CF85E10E940B0E42
:100F300027C1C13D8CE5D80708F07AC0CC3C9CE5C0
:100F4000D907B1F4F8018281882309F419C10E94FC
:100F50000E0C623071058105910540F00E940E0C67
:100F6000653071058105910508F4E0CE82E0DECFA1
:100F7000CD3CECE5DE07B8F4CA3CFCE5DF0741F404
:100F8000F8018281882309F4FBC00E94310CF8C06B
:100F9000CB3CDC4509F030CFF8018281882309F48D
:100FA000EFC081E0C3CFF8018281CE3CFCE5DF07D2
:100FB000A1F4882309F4E4C00E940E0C6930710585
:100FC0008105910540F00E940E0C6E30710581057F
:100FD000910508F4ABCE89E0A9CFCF3CDC45A0F465
:100FE000882309F4CDC00E940E0C6630710581057E
:100FF000910540F00E940E0C683071058105910545
:1010000008F494CE86E092CF882309F4B9C00E94F8
:101010000E0C6F3071058105910540F00E940E0C99
:10102000643171058105910508F480CE8FE07ECF93
:10103000C43DECE5DE0739F5F8018281882361F0D3
:10104000109260010E94B81D90935E0180935D0133
:1010500080E20E94281494C08091600181110FC029
:1010600080915D0190915E010E94C41D883C9105B4
:1010700030F487E20E94BA1287E20E94C91380E22C
:101080000E942F147DC0C53DFCE5DF0708F043C07A
:10109000F8018281C23DFCE5DF07A1F4882309F451
:1010A0006FC00E940E0C693171058105910540F0F9
:1010B0000E940E0C623271058105910508F436CE4E
:1010C00089E134CFC33DDC4528F4882309F458C0B6
:1010D00088E12CCF882351F010925F010E94B81D47
:1010E00090935C0180935B0182E0B3CF80915F01BC
:1010F00081110FC080915B0190915C010E94C41D21
:10110000883C910530F486E20E94BA1286E20E9481
:10111000C91382E0B5CFC83DECE5DE0731F4F80134
:101120008281882369F180E009C0C93DFCE5DF07C1
:1011300041F4F8018281882319F182E00E94BB24E6
:101140001FC0C53DDC4509F057CEF80182818111F1
:1011500077CF80916001811192CF80915D01909154
:101160005E010E94C41D883C910508F088CF80E292
:101170000E942F1488E20E94BA1288E20E94C913CA
:1011800080E0DF91CF911F910F9108950C94290673
:101190000C94710308950C94CA080C94CB0880E059
:1011A00090E00895089597E0799FF001112496E466
:1011B000899FE00DF11D1124E60FF11DEE0FFF1FB9
:1011C000E057FE4F859194910895880F991FFC0177
:1011D000E054FC4F859194910895CF93DF930E9442
:1011E000D3080E94900AEC01811520E59207F0F5E2
:1011F000811530E4930708F018C1883E910500F589
:10120000803E910508F088C1883A910570F4853ACE
:10121000910508F09AC08130910509F47DC108F468
:1012200034C1049708F078C130C18D3B910508F4B2
:1012300097C0803C910508F428C1805C9109E7C003
:101240008115904258F4C11581E0D80708F064C1B7
:10125000C03FD10508F419C1D0655EC1C11590E346
:10126000D90708F0D8C0CE019F70D1C0811525E5FF
:10127000920708F043C0811534E5930708F0ECC0ED
:10128000811542E5940708F5C11581E5D80708F0F6
:10129000CFC02C2F237081E090E002C0880F991FEF
:1012A0002A95E2F79C689E0174E0369527957A9519
:1012B000E1F72370922BCF70C695C69530E2C39F9D
:1012C000E0011124C82BD92B27C1869586959E0154
:1012D00023703327C115D34508F0AFC040E2849F87
:1012E000C0011124C1E0D0E002C0CC0FDD1F2A955F
:1012F000E2F78C2B9D2BEC01DC680EC1811529E5F2
:10130000920778F4811538E5930708F0AAC0811593
:10131000964508F0BAC0CF71DD27DC2FCC27D0620C
:10132000FBC0C1158AE5D80708F4A0C0CE019056CD
:101330008115904208F0A9C08D2F8F710E940D0B6E
:10134000DD27D0628F71D82BE7C0853A910509F46B
:101350009FC0863A910509F09EC0C2E8D0E4DCC087
:10136000883A910509F49AC0893A910509F499C01F
:101370008A3A910509F498C08B3A910509F497C00F
:101380008C3A910509F496C08B3B910509F495C000
:101390008C3B910509F494C08D3A910509F493C0F2
:1013A000803B910509F492C08E3A910509F491C0F1
:1013B0008F3A910509F490C0813B910509F48FC0E3
:1013C000823B910509F48EC0833B910509F48DC0E1
:1013D000843B910509F48CC0853B910509F48BC0D1
:1013E000863B910509F48AC0873B910509F489C0C1
:1013F000883B910509F488C0893B910509F487C0B1
:101400008A3B910509F486C0C0E0D4E485C00E94FF
:10141000E508EC0181C0CE019927D3FF03C0EC01A0
:10142000D86C7AC0EC01D06C77C0DF70D06A74C021
:10143000DC2FCC27C16FD06A6FC040E2849FC0010F
:101440001124C1E0D0E002C0CC0FDD1F2A95E2F7E5
:10145000C82BD92BDA6860C0D82FCC27C46FD06ACC
:101460005BC0D82FCC27C06FD06A56C08C2F8F702E
:10147000806E90E0906A24E0D695C7952A95E1F7B2
:10148000CF709C013C2BE90147C0C0E0D0E044C0D4
:10149000C1E8D0E441C0C3E8D0E43EC0C2EED4E429
:1014A0003BC0C9EED4E438C0CAEED4E435C0C5EBC5
:1014B000D4E432C0C6EBD4E42FC0C3EBD4E42CC0D8
:1014C000C4EBD4E429C0C7EBD4E426C0CCECD4E40C
:1014D00023C0CDECD4E420C0C3E8D5E41DC0CAE8E5
:1014E000D5E41AC0C2E9D5E417C0C4E9D5E414C0F4
:1014F000C1E2D6E411C0C3E2D6E40EC0C4E2D6E431
:101500000BC0C5E2D6E408C0C6E2D6E405C0C7E217
:10151000D6E402C0CAE2D6E4CE01DF91CF910895AD
:101520008238910549F1B0F48133910509F458C02E
:1015300048F48932910509F44EC08A32910509F4C4
:1015400054C008958533910509F440C0893391054D
:1015500099F00895833E910529F138F4803E910574
:1015600091F0823E9105A1F00895863E9105F9F033
:10157000873E910531F108952091460220FD3AC041
:1015800021FD38C008958091460280FD35C032C0EB
:101590008091460282FF32C08091460284FD30C0B5
:1015A00083EE39C08091460282FD28C0F5CF80913C
:1015B000460283FF27C08091460284FD21C087EE4A
:1015C0002AC08091460283FD1DC0F5CF809146025E
:1015D00085FD1AC01BC08091460285FD17C014C04E
:1015E0008091460286FD14C015C08091460286FD9A
:1015F00011C00EC080EE0FC089E30DC082EE0BC09B
:1016000080E009C086EE07C089E205C085E303C01B
:101610008AE201C081E390E008959091460292FF32
:101620000DC0282F2871283019F4877F846006C0E8
:10163000282F2471243011F48B7F886093FF0DC014
:10164000282F2871283119F4877E846106C0282F3D
:101650002471243111F48B7E886194FD877E089576
:1016600008950F931F93CF93FB012281211102C094
:10167000C1E041C08C01C0916E01C11125C086310D
:101680009C45B1F70E94300B81E080936E010E946F
:10169000B81D90936D0180936C01109261011092BE
:1016A0006301109262011092650110926401109220
:1016B0006701109266011092690110926801109200
:1016C0006B0110926A0117C080916C0190916D01BD
:1016D0000E94C41D883C910558F690916101E92F44
:1016E000F0E0EE0FFF1FEE59FE4F118300839F5F66
:1016F00090936101C0E08C2FCF911F910F910895BD
:10170000EF92FF920F931F93CF93DF93E90166232C
:1017100009F44BC0242F30E0EFEFF0E0E61BF109B5
:10172000B901E69F9001E79F300DF69F300D11241F
:10173000232F8B01031B11095CE3E52EF12CB7016C
:101740000E94CD2CFB01BC01069FC001079F900D9C
:10175000169F900D1124B7010E94CD2CE230F105A7
:10176000B1F040F4309779F0319711F5832F242FA1
:10177000461B21C0E430F105A1F068F03597C1F4B3
:10178000842F861B18C0832F262F230F14C0862F6B
:10179000830FE42F03C0E42FE61B842F432F2E2F4B
:1017A0000AC0842F462F430F06C0842F242F03C066
:1017B00080E020E040E0E42FF0E0E652FC4F44916E
:1017C000E22FF0E0E652FC4F9491E82FF0E0E65271
:1017D000FC4FE49149839883EA83DF91CF911F9175
:1017E0000F91FF90EF90089588E090E00C94032D06
:1017F000AB01BC0188E090E00C94212DECE0F2E01C
:1018000083E0808310920D028FEF828383831482A2
:1018100060817181828193810C94F80B60910C023C
:1018200060FF06C066956F7370E080E090E00895F9
:1018300060E070E0CB0108958091100290E0019685
:101840008430910514F083E090E080931002609161
:101850000C0270910D0280910E0290910F020C9477
:10186000F80B8091100290E0019797FF02C080E092
:1018700090E08430910514F083E090E080931002B2
:1018800060910C0270910D0280910E0290910F02F6
:101890000C94F80B80910C0280FF06C06EE070E0A3
:1018A00086E192E00C947C1180E090E0FC01EA5E1D
:1018B000FD4F11821082128203968A329105B1F790
:1018C000EDCF90910C0290FF0FC020E030E0F901C5
:1018D000EA5EFD4F8183608342832D5F3F4F2A3252
:1018E0003105A9F70C944A0C0895EF92FF920F93DB
:1018F0001F93CF93DF9300D01F92CDB7DEB7009137
:101900000C0210910D0220910E0230910F020093F3
:1019100011021093120220931302309314022091AB
:101920000C0220FF21C0042FF62EE92E182F9E0155
:101930002F5F3F4F0E94800B8091110210FB87F9AF
:10194000809311021695809112028078182BE0FA8C
:1019500017F910931202F0921302009314024B81B4
:1019600069818A810E94610C0F900F900F90DF9126
:10197000CF911F910F91FF90EF9008958F929F92BA
:10198000AF92BF92CF92DF92EF92FF920F931F938D
:10199000CF93DF93EC01062F142F80910C0280FF70
:1019A0008CC0982F9E77923021F4CE010E94750C46
:1019B0005AC0E82FE695EF739EE39E0F9F73943015
:1019C00018F410910F024FC09AE39E0F9F73993045
:1019D00070F4881F8827881F90910D02292F220FED
:1019E000C22FC82B97FB992790F9D92F3CC087E2CB
:1019F0008E0F8F738A30B8F5F0E07997E0FD02C062
:101A000021E001C02FEFEE7FE054FC4F85919491CF
:101A10006EE070E00E94CD2C26036001279FD00C61
:101A200011244E0188E9881A8EEF980A86E1E82E83
:101A300082E0F82E98E6A92EBB24B394C401B50128
:101A40000E94CD2C9701412F602F0E94800B8C0C9F
:101A50009D1C93E0E90EF11C80E4E81682E0F80694
:101A600069F70E944A0C80910C029C2FC0FB87F9F9
:101A700080930C02969580910D028078892BD0FB83
:101A800087F980930D0200930E0210930F0260916C
:101A90000C0270910D0280910E0290910F02DF9165
:101AA000CF911F910F91FF90EF90DF90CF90BF905B
:101AB000AF909F908F900C94F80BDF91CF911F9176
:101AC0000F91FF90EF90DF90CF90BF90AF909F90DD
:101AD0008F900895ECE0F2E02081221F2227221F40
:101AE00030910D02432F440F842F822B37FB99270F
:101AF00090F9089668E671E00E94E12C43816281CA
:101B00000C94BE0C20910C02221F2227221F309120
:101B10000D02432F440F842F822B37FB992790F916
:101B2000883091051CF4805A9E4F01C0089768E6E2
:101B300071E00E94E12C40910F0260910E020C9422
:101B4000BE0C60910E02862F90E0883F910514F440
:101B5000685F01C06FEF80910C02881F8827881F83
:101B600090910D02292F220F97FB992790F9409110
:101B70000F02822B0C94BE0C60910E02862F90E017
:101B8000089714F0685001C060E080910C02881F33
:101B90008827881F90910D02292F220F97FB9927E4
:101BA00090F940910F02822B0C94BE0C40910F02D1
:101BB000842F90E0883F910514F4485F01C04FEFF7
:101BC00080910C02881F8827881F90910D02292F71
:101BD000220F97FB992790F960910E02822B0C94AB
:101BE000BE0C40910F02842F90E0089714F04850EB
:101BF00001C040E080910C02881F8827881F9091C7
:101C00000D02292F220F97FB992790F960910E0260
:101C1000822B0C94BE0C90910C0290FF42C09178E4
:101C2000811102C0926007C0833210F0946403C037
:101C30008F73880F982B90930C0260910C02709117
:101C40000D0280910E0290910F020E94F80B80917C
:101C50000C02982F9E77923019F41092840110C0D4
:101C6000982F96959F732EE3290F2F73273120F419
:101C700091E09093840104C0995D9F739A3068F35A
:101C8000881F8827881F90910D02292F220F97FB0C
:101C9000992790F940910F0260910E02822B0C94CB
:101CA000BE0C08958091E40181608093E40181E09D
:101CB000809385010E94E31C811104C00E94C21C14
:101CC0000E94FE0B0E94F40B60930C0270930D02B5
:101CD00080930E0290930F026E7761F40E94FE0BC8
:101CE0000E94F40B60930C0270930D0280930E021D
:101CF00090930F0281E08093840180910C0280FF19
:101D000004C086958F730C940B0E089580910C027D
:101D100086958F738F5F833208F081E00C940B0EF1
:101D200080910C0286958F73815009F482E20C94A5
:101D30000B0ECF93DF93CCE0D2E088818160888363
:101D4000688179818A819B810E94F80B88818695C0
:101D50008F73DF91CF910C940B0EECE0F2E0808159
:101D60008E7F808360817181828193810E94F80BD4
:101D7000109284012FEF80E792E021508040904044
:101D8000E1F700C000000C944A0C80910C0280FD29
:101D90000C94AD0E0C94990ECF93C82F80918201B4
:101DA000909183010E94C41DEC2FF0E0EA52FC4F99
:101DB000E491F0E08E179F0708F443C00E94B81D1D
:101DC00090938301809382016091810170E080E0B3
:101DD00090E00E94CE2A20E030E04FE753E40E94DA
:101DE000F1292BED3FE049E450E40E94F72B0E94DB
:101DF000642C0E946B2A2BE43AE34EE25FE30E94DC
:101E0000842920EF3BEF48ED52E40E94F72B0E941B
:101E10009D2A462F80910C02881F8827881F909149
:101E20000D02292F220F97FB992790F960910E023E
:101E3000822B0E94750C8091810190E00196809325
:101E40008101CF910895CF93C82F80917F01909108
:101E500080010E94C41DEC2FF0E0ED52FC4FE49194
:101E6000F0E08E179F07E8F00E94B81D9093800164
:101E700080937F0140910F0260910E0280917D015D
:101E800090917E010E94750C80917D0190917E0160
:101E9000019668E671E00E94CD2C90937E018093BC
:101EA0007D01CF910895CF92DF92FF920F931F9300
:101EB000CF93DF93F82E80917B0190917C010E945B
:101EC000C41DEF2DE695F0E0E053FC4FE491F0E007
:101ED0008E179F07F0F10E94B81D90937C018093AC
:101EE0007B0106E112E0C0E0D0E088E6C82EDD24E8
:101EF000D3948091790190917A018C0F9D1FB60146
:101F00000E94CD2C980140910F0260910E020E9418
:101F1000800B69960D5F1F4FCE3581E0D80749F7DA
:101F20000E944A0C2091790130917A01F0FE0BC099
:101F3000C901019668E671E00E94CD2C90937A0168
:101F40008093790106C02150310930937A012093A2
:101F50007901DF91CF911F910F91FF90DF90CF908A
:101F60000895AF92BF92CF92DF92EF92FF920F93BC
:101F70001F93CF93DF93C82F80FF02C01FEF01C0D4
:101F800011E080917701909178010E94C41DC6955F
:101F9000EC2FF0E0E353FC4FE491F0E08E179F0745
:101FA00008F466C00E94B81D909378018093770171
:101FB00026E1C22E22E0D22E38E1E32E32E0F32ECB
:101FC000C0E0D0E0F70131971082F6011082F701EE
:101FD000108294E0A92EB12C00E080917601800F50
:101FE00087FD825F082E000C990BC817D907E9F40A
:101FF00080910F028A9DA0018B9D500D1124559553
:1020000047955595479580910C02881F8827881F12
:1020100090910D02592F550F97FB992790F9960132
:1020200060910E02852B0E94800B010FF1E0AF1A28
:10203000B10899F6219683E0C80ED11CE3E0EE0EBC
:10204000F11CCE30D10509F0BDCF0E944A0C809121
:102050007601113031F4811102C08DE007C081504A
:1020600005C090E00196BE010E94E12C80937601AC
:10207000DF91CF911F910F91FF90EF90DF90CF9064
:10208000BF90AF9008950F931F93CF93DF93C82F06
:1020900080917401909175010E94C41DEC2FF0E0B5
:1020A000E653FC4FE491F0E08E179F0708F466C0FA
:1020B0000E94B81D909375018093740180E090E0B8
:1020C000FC01EA5EFD4F11821082128203968A3271
:1020D0009105B1F7C0E0D0E00EE010E0CE01B8010C
:1020E0000E94E12C40917301042E000C550BFC0161
:1020F000EE0FFF1FC417D5070CF140910201042E0B
:10210000000C550B4C175D07CCF08E0F9F1F9C01E8
:102110002A5E3D4F80910C02881F8827881F90916E
:102120000D02592F550F97FB992790F940910F02F7
:1021300060910E02852B0E94800B07C0E80FF91FEB
:10214000EA5EFD4F1182108212822196CE30D105B7
:1021500029F60E944A0C8091010190917301980F19
:102160009093730120910201280F2093020112160F
:1021700014F49D301CF0819580930101DF91CF9183
:102180001F910F910895EF92FF920F931F93CF939A
:10219000DF9380917101909172010E94C41D883E6D
:1021A0009340D0F10E94B81D909372018093710109
:1021B000C0916F01D09170012196C170DD27D0933D
:1021C0007001C0936F0186E1E82E82E0F82E10E0E6
:1021D00008E7812F8695FE01E80FF11DCF01817080
:1021E0009927970140910F0260910E02FC010E9F0A
:1021F000C0010F9F900D11240E94800B1F5FF3E020
:10220000EF0EF11C1E3029F7DF91CF911F910F9136
:10221000FF90EF900C944A0CDF91CF911F910F919A
:10222000FF90EF90089580918401882391F190911F
:102230000C02892F86958F732EE3280F2F7324307D
:1022400018F482500C94CC0E2AE3280F2F732330FD
:1022500018F486500C94230F27E3280F2F73263091
:1022600018F489500C94530F21E3280F2F73263054
:1022700018F48F500C94B10F2BE2280F2F732330DA
:1022800018F485510C9443109E77903311F40C94FC
:10229000C31008952BB1342F309523233BB1432B2A
:1022A0003FB7F894FC01680F791FE617F70789F02C
:1022B000819198E04BB9000000C087FF2BB9880FCF
:1022C000000000C000C000C02BB900C09A9591F773
:1022D000ECCF3FBF08952AB1242B2AB99B01220FCE
:1022E000331F620F731F0E944A1187EC90E0019721
:1022F000F1F700C00000089548E00C946B11909332
:102300008B0180938A010895E0918A01F0918B01FD
:10231000309721F00190F081E02D099480E008953C
:10232000E0918A01F0918B01309721F00280F381D6
:10233000E02D09940895E0918A01F0918B01309786
:1023400021F00480F581E02D099408952091880101
:10235000309189018217930771F0909389018093DE
:102360008801E0918A01F0918B01309721F006807D
:10237000F781E02D0994089520918601309187011D
:102380008217930771F09093870180938601E09103
:102390008A01F0918B01309721F00084F185E02DC6
:1023A000099408950C94200681E008950E94AF1DC1
:1023B0000E9473030E94381E0C94520ECF92DF923B
:1023C000EF92FF920F931F93CF93DF93CDB7DEB7BA
:1023D0002B970FB6F894DEBF0FBECDBF0E94DC0472
:1023E0000E94D411811111C08FEF89838A831B82CF
:1023F0000E94B81D8160782F9D838C8349815A810A
:102400006B818D810E94861256C08DE8C82E81E0B6
:10241000D82E00E010E0E02E802F0E942705F60164
:1024200041916F01F42EF82631F40F5F1F4F0A30EF
:10243000110589F7D9CF9091E40191FF04C08B87F2
:102440000E942D058B8520E030E04F2D50E0922F2B
:10245000BA01022E02C0759567950A94E2F760FFF3
:1024600024C02E83EF8221E030E0690102C0CC0C51
:10247000DD1C9A95E2F790E08C219D21892B09F4CF
:1024800020E028870E94B81D8160782F9A8789876D
:102490004E815F8168858A850E948612F801E35724
:1024A000FE4F8081C826C08206C02F5F3F4F273075
:1024B000310569F6BACF0E94CB1F10918C010E94A2
:1024C00084111817A1F00E94841180938C012B961F
:1024D0000FB6F894DEBF0FBECDBFDF91CF911F9135
:1024E0000F91FF90EF90DF90CF900C94CD082B963A
:1024F0000FB6F894DEBF0FBECDBFDF91CF911F9115
:102500000F91FF90EF90DF90CF900895CF93DF93DE
:10251000CDB7DEB72B970FB6F894DEBF0FBECDBF99
:102520004F83588769877A878B87DE01119686E00B
:10253000FD0111928A95E9F785E0FE013796019039
:102540000D928A95E1F749815A816B817C818D8159
:102550009E810E94A9192B960FB6F894DEBF0FBE7C
:10256000CDBFDF91CF910895FC01808191810E94C0
:10257000161C0895CF93DF931F92CDB7DEB7882343
:1025800009F403C1682F8238C1F40E94841181FDCF
:10259000FCC069E380910301909104010E94321D07
:1025A0000E94561C2FEF81EE94E021508040904015
:1025B000E1F700C0000069E319C0833811F50E94FB
:1025C000841180FDE2C063E58091030190910401D4
:1025D0000E94321D0E94561C2FEF81EE94E0215084
:1025E00080409040E1F700C0000063E58091030166
:1025F000909104010E94341D0F90DF91CF910C94B3
:10260000561C8438C1F40E94841182FDBEC067E468
:1026100080910301909104010E94321D0E94561C7A
:102620002FEF81EE94E0215080409040E1F700C010
:10263000000067E4DBCF8CEF860F813A70F4862FC1
:1026400069830E94E121698181119FC0809103010A
:10265000909104010E94321DCFCF80E2860F883016
:1026600048F4677081E001C0880F6A95EAF70E941C
:102670008C1CC2CF8BE5860F833088F4653A29F035
:10268000663A31F083E890E005C081E890E002C04E
:1026900082E890E00F90DF91CF910C94A61188E52D
:1026A000860F853108F071C0683A61F1693A69F1C5
:1026B0006A3A71F16B3A79F16C3A81F16B3B89F1CD
:1026C0006C3B91F16D3A99F1603BA1F16E3AA9F141
:1026D0006F3AB1F1613BB9F1623BC1F1633BC9F1C2
:1026E000643BD1F1653BD9F1663BE1F1673BE9F130
:1026F000683BF1F1693BF9F16A3B09F43FC080E0C6
:1027000090E03EC082EE90E03BC089EE90E038C0A1
:102710008AEE90E035C085EB90E032C086EB90E029
:102720002FC083EB90E02CC084EB90E029C087EBB6
:1027300090E026C08CEC90E023C08DEC90E020C0AF
:1027400083E891E01DC08AE891E01AC082E991E037
:1027500017C084E991E014C081E292E011C083E2E5
:1027600092E00EC084E292E00BC085E292E008C0E5
:1027700086E292E005C087E292E002C08AE292E03F
:102780000F90DF91CF910C94BC110F90DF91CF91FE
:102790000895882309F45BC0682F823879F40E9479
:1027A000841181FF54C069E3809103019091040179
:1027B0000E94321D0E94561C69E310C08338B1F498
:1027C0000E94841180FF43C063E5809103019091D2
:1027D00004010E94321D0E94561C63E58091030192
:1027E000909104010E94341D0C94561C843879F495
:1027F0000E94841182FF2BC067E4809103019091B5
:1028000004010E94321D0E94561C67E4E7CF8CEF42
:10281000860F813A18F380E2860F883048F467709B
:1028200081E001C0880F6A95EAF70E94921CDCCF14
:102830008BE5860F833020F480E090E00C94A611A5
:10284000685A653120F480E090E00C94BC11089542
:10285000882321F00E948C1C0C94561C0895882318
:1028600021F00E94921C0C94561C08954F925F9286
:102870006F927F92AF92BF92CF92DF92EF92FF92D0
:102880000F931F93CF93DF931F92CDB7DEB77C01D9
:10289000A72EFC01058102950F701281112321F0F2
:1028A00069830E94A91C698169830E944F1C698108
:1028B000882381F0112371F080E2860F883050F078
:1028C00082E00E94381C0E944F1C91E0B82EB9266D
:1028D000698101C0B12CCA2CC2948FE0C822D12CCE
:1028E000F601E859FF4F0C94F52C8A2D807F0A2DB4
:1028F0000F70882311F00295007F1123C1F000238F
:1029000009F4DCC180E2860F883010F0611105C047
:10291000802F69830E948C1C04C0802F69830E94D1
:102920009C1C698169830E94561C6981C7C1862FDE
:1029300069830E94C9136981002309F4E2C180E21E
:10294000860F883010F0611104C0802F0E94921C05
:1029500003C0802F0E94A21C0E94561CD2C18A2D47
:10296000807F9A2D9F70803211F4892F03C0892FA8
:102970008295807F662319F06130B1F01FC011236A
:1029800049F0002309F452C1013009F04FC10E94FF
:10299000BC1CB7C1002319F0013009F4B2C189830E
:1029A0000E94BF1C898148C1112321F0063008F024
:1029B000A8C13CC1053008F0A4C13EC1112351F0AB
:1029C000002309F433C1F701958190FF77C19F700F
:1029D00095832CC1002309F42FC181C18A2D8695CE
:1029E0008695837090E0009719F0019761F089C196
:1029F000112321F0862F9A2D937002C080E090E081
:102A00000E94A6118EC1112321F0862F9A2D93705A
:102A100002C080E090E00E94BC1183C11123F9F054
:102A2000653F51F0663F71F0643FA9F48091400228
:102A30009091410281600BC08091400290914102CF
:102A4000826005C080914002909141028460909321
:102A5000410280934002862F0E94D31E1EC0653F14
:102A600051F0663F71F0643FA9F48091400290916B
:102A700041028E7F0BC080914002909141028D7F78
:102A800005C080914002909141028B7F909341025A
:102A900080934002862F0E943B1F0E94C01F41C1AD
:102AA0008A2D837009F052C0111137C1862F82958B
:102AB00086958770880F880F962F9F70492E512C0E
:102AC000612C712C082E04C0440C551C661C771C0C
:102AD0000A94D2F764FF14C00FE010E020E030E069
:102AE000B901A80104C0440F551F661F771F8A95BE
:102AF000D2F7CB01BA01609570958095909503C08F
:102B000060E070E0CB012A2D26952695237030E0F9
:102B10002230310569F02330310589F064297529A7
:102B2000862997292130310571F00E94EC1AF5C0F1
:102B300064297529862997290E94FE1AEEC00E94F1
:102B4000EC1AC301B2010E94DA1AE7C0112319F08E
:102B50008A2D817001C08695882309F4DEC0862FF6
:102B6000829586958770880F880F962F9F70492EC3
:102B7000512C612C712C082E04C0440C551C661C71
:102B8000771C0A94D2F764FF14C00FE010E020E035
:102B900030E0B901A80104C0440F551F661F771F1C
:102BA0008A95D2F7CB01BA01609570958095909582
:102BB00003C060E070E0CB012A2D26952695237096
:102BC000422F50E04230510569F04330510589F001
:102BD00064297529862997294130510571F00E9491
:102BE000B21B9BC064297529862997290E94C41BA2
:102BF00094C00E94B21BC301B2010E94A01B8DC0F1
:102C0000862F90E0FC01E05EF109E531F10508F066
:102C100051C0E858FF4F0C94F52C062F0F708A2DE9
:102C20008F71112331F00E94391B802F0E942814CC
:102C300068C00E945A1B802F0E942F1462C011236B
:102C400041F0053008F05DC08A2D8F710E947F1B16
:102C500058C0063008F055C0F7CF112339F08A2D3F
:102C60008F710E94391B4DC01123C9F38A2D8F71BA
:102C70000E945A1B46C0112329F08A2D8F710E9491
:102C8000241B3FC00E941F1B3CC0112351F01A2D72
:102C90001F71812F0E94391B63E0812F0E942F1C1E
:102CA00030C081E00E94381C023058F182E00E945E
:102CB000381C27C0112331F0002389F2862F0E948F
:102CC000BA121FC0002391F2693349F45FEF77EE27
:102CD00083E0515070408040E1F700C00000862F33
:102CE0000E94C9130EC04A2D4F70C7010E94CF0821
:102CF0000E944D1A16C04A2D4F70C7010E94D2087B
:102D000010C098E0C916D10441F05CF0FAE0CF1A87
:102D1000D10822E0C216D10420F40E9484110E943E
:102D2000CD08BB2001F10E942B1C80FD1CC0F701C7
:102D300012820E94251C0E94391BC7010E94C316E3
:102D40000E94251C0F90DF91CF911F910F91FF9052
:102D5000EF90DF90CF90BF90AF907F906F905F909B
:102D60004F900C945A1B0F90DF91CF911F910F91B0
:102D7000FF90EF90DF90CF90BF90AF907F906F90DB
:102D80005F904F9008950F931F93CF93DF93EC01C3
:102D9000888199812B813C81232BB9F09F3F11F4CD
:102DA0008F3F99F0CE010E943E06882371F0688122
:102DB00079818A810E94211C8C010E94D61B0E946D
:102DC000D71AB801CE010E943614DF91CF911F911E
:102DD0000F9108950E94A91C0E94B91C80910301C3
:102DE000909104010E94361D0E94561C0E94592099
:102DF0000E94C01F80E090E00E94A61180E090E059
:102E00000C94BC110E94991C0C94EA160E94161C8A
:102E1000E92FE295EF70F0E03297EE30F105B0F473
:102E2000E357FF4F0C94F52C803F91F018F4803E4F
:102E300068F40EC0843F51F40BC0803E48F0813FDF
:102E400029F406C093FB882780F9089580E008954F
:102E500081E00895CF93DF9300D000D01F92CDB7CB
:102E6000DEB70F900F900F900F900F90DF91CF91E2
:102E70000895CF93DF9300D000D000D0CDB7DEB758
:102E800026960FB6F894DEBF0FBECDBFDF91CF916F
:102E900008951F93CF93DF93C091970116E080911F
:102EA0009801C81799F0D0E01C9FF0011D9FF00D0C
:102EB0001124E756FE4F40815181628173818481E4
:102EC00095810E9439172196C770E9CFDF91CF9184
:102ED0001F9108954091C9015091CA016091CB01A1
:102EE0007091CC018091CD019091CE010C94391755
:102EF0008091CE0182958F7009F054C08091CB01F2
:102F0000882309F44FC080919701A09198016091A6
:102F1000C9017091CA014091CC015091CD01B6E038
:102F20008A1709F43FC090E041155105C1F17F3F78
:102F300011F46F3FA1F1B89FF001B99FF00D11247A
:102F4000E756FE4F218172132AC02081621327C0E9
:102F50002281211124C0238134812417350710F4E4
:102F600021503109241B350B283C3105C0F4209138
:102F7000CE012F7020612093CE0126E0289FF00122
:102F8000299FF00D1124E256FE4F80818F708061E1
:102F9000808389EC91E00E94C3160C944917019636
:102FA0008770BECF0895CF92DF92EF92FF920F937A
:102FB0001F93CF93DF93CDB7DEB762970FB6F89428
:102FC000DEBF0FBECDBF8C0185E0F801DE011D968E
:102FD00001900D928A95E1F7D8014C9111965C9180
:102FE000119712966C9112971396CD90DC901497CE
:102FF0003091C9017091CA018091CC019091CD01AD
:10300000009709F46BC17F3F19F43F3F09F466C193
:10301000E090CB01EE2009F4C0C02091CE01C8168B
:10302000D90628F0F601E81BF90BCF0104C0809502
:1030300090958C0D9D1DFF24F394883C910578F0AC
:10304000F12C207F09F0C6C07C2DD98AC88A8989D5
:103050000E942A1789EC91E00E94C316B1C0822F0A
:10306000807F09F046C0751314C0341312C061117B
:1030700010C02F7020612093CE010E946A1789EC46
:1030800091E00E94C3168091CE01D80115968C93D1
:103090002EC0CD2819F15F3F11F44F3FF9F0F62E05
:1030A00061111CC0809197012091980136E0821730
:1030B00009F45AC090E0389FF001399FF00D1124B7
:1030C000E756FE4F7181571306C07081471303C046
:1030D0007281711103C001968770E9CFF62E6623C5
:1030E00009F427C18091CE0181608093CE01F12C3B
:1030F00020C1751308C0341306C0611104C080914B
:10310000CE01D801C3C04D875E878D859E856A8BB1
:103110000E9406176A898823E1F16623D1F1209184
:10312000CE01822F82958F7090E0029774F080918B
:10313000C9019091CA0198878F831986DB86CA8658
:103140002C87CE0107960E94C31686E0F801A9ECF1
:10315000B1E001900D928A95E1F70E9478170E94E4
:103160006A17FF24F394E5C04D875E878D859E85A1
:103170000E94161C292F22952F7030E02230310535
:103180000CF0CBC09F7009F0C5C0805E883008F499
:10319000D0C0C8010E94C316E4CFC816D90608F4EF
:1031A00053C0F601E81BF90BCF01883C910508F4E8
:1031B00050C0F12C7C2DD98AC88A89890E942A178F
:1031C000E9ECF1E086E0DF011D928A95E9F70E94C3
:1031D0006A17AFC0751314C0341312C0611110C048
:1031E0008091CE01F8018583C8010E94C31686E054
:1031F000E9ECF1E0DF011D928A95E9F7FE2C99C018
:103200004D875E878D859E856A8B0E9406176A8929
:10321000882309F4BECF662309F4BBCF2091CE01E9
:10322000822F82958F7090E002970CF48ECF809160
:10323000C9019091CA019A8389831B82DD82CC8265
:103240002E83CE0101967FCF809590958C0D9D1D8C
:10325000ACCFF62E662309F49CCF75132EC0341321
:103260002CC02091CE0120FD1FC0822F82958F702F
:10327000D9F0D80115962C9315978F3049F08F5FB0
:10328000982F9295907F822F8F70892B15968C9313
:10329000C8010E94C31686E0F801A9ECB1E00190D4
:1032A0000D928A95E1F793CF86E0F801A9ECB1E0A1
:1032B00001900D928A95E1F73CC04D875E878D8520
:1032C0009E850E940617811140CF8091CE018160BA
:1032D0008093CE01C8010E94C3162BC0662309F457
:1032E00058CF4D875E878D859E850E940617F82EE4
:1032F000882309F44ECF86E0F801A9ECB1E00190F3
:103300000D928A95E1F789EC91E00E94B4120E9437
:1033100078175DCF811139CF0CC0243031050CF006
:1033200038CF9F7009F431CFF8019581907F09F073
:103330002CCF8F2D62960FB6F894DEBF0FBECDBF97
:10334000DF91CF911F910F91FF90EF90DF90CF9081
:1033500008951F93CF93DF93CDB7DEB72C970FB6A9
:10336000F894DEBF0FBECDBF4F83588769877A8739
:103370008B879C87CE0107960E94D317882369F01C
:103380008F8198852A853B85232BF1F19F3F09F09A
:1033900063C08F3F09F060C037C086E0FE013796FA
:1033A000DE01119601900D928A95E1F76F81788583
:1033B000EA85FB85309741F17F3F11F46F3F21F1A2
:1033C0002091980130E0C9010196877099274091BA
:1033D000970150E08417950709F447C069837A8301
:1033E000FD83EC8396E0929FD001939FB00D112452
:1033F000A756BE4FFE01319601900D929A95E1F7C6
:10340000809398010E94491716E08091970190914E
:1034100098018917C1F1189FC001112487569E4F4A
:103420000E94D317882379F1E09197011E9FF00144
:103430001124E756FE4F408151816281738184815E
:1034400095810E9439178091970190E001968770CD
:10345000992780939701D9CF4F81588569857A85BF
:103460008B859C850E943917CFCF0E94021710923E
:10347000980110929701E9ECF1E086E0DF011D92DE
:103480008A95E9F7C1CF2C960FB6F894DEBF0FBE30
:10349000CDBFDF91CF911F910895EF92FF920F93CF
:1034A0001F93CF93DF938C01892B09F46CC0F12C0F
:1034B000EE24E394E8012196F8018491843740F4E6
:1034C000843008F051C0813081F0823019F15BC046
:1034D000853709F444C0A8F19CE7980F903708F0AD
:1034E00052C08F770E94C91341C00E5F1F4FFE016B
:1034F000C49180E28C0F883048F4C7708E2D01C0D3
:10350000880FCA95EAF70E94AC1C14C08C2F0E9449
:10351000BA122DC00E5F1F4FFE01C49180E28C0FC6
:10352000883058F4C7708E2D01C0880FCA95EAF70D
:103530000E94B21C0E94561C1AC08C2F0E94C913F4
:1035400016C00E5F1F4FFE01C491CC2381F08FE99E
:103550009FE00197F1F700C00000C150F6CF0E5F69
:103560001F4FFE01F49003C00E94BA128E018F2DEE
:10357000882309F49FCFEFE9FFE03197F1F700C00E
:1035800000008150F5CFDF91CF911F910F91FF90F7
:10359000EF90089508950E94CA1A6093D301709322
:1035A000D4018093D5019093D6010C94EA16089526
:1035B0000C94CB1A0F931F930091D3011091D40157
:1035C0002091D5013091D601602B712B822B932B4A
:1035D0001F910F910C94CB1A0F931F930091D3015D
:1035E0001091D4012091D5013091D601602371232F
:1035F000822393231F910F910C94CB1A0F931F9347
:103600000091D3011091D4012091D5013091D601C0
:1036100060277127822793271F910F910C94CB1A53
:1036200008950C94101B0E94111B6093CF0170939E
:10363000D0018093D1019093D2010C94EA1660E0FE
:1036400070E0CB010C94131B0F931F9341E050E0EB
:1036500060E070E08A019B0104C0000F111F221F6F
:10366000331F8A95D2F7C901B8011F910F910C94AD
:10367000131B0F931F9341E050E060E070E004C023
:10368000440F551F661F771F8A95D2F78091CF018F
:103690009091D001A091D101B091D2018A019B01FA
:1036A000082B192B2A2B3B2BC901B8011F910F9115
:1036B0000C94131B0F931F9341E050E060E070E007
:1036C00004C0440F551F661F771F8A95D2F7409597
:1036D0005095609570958091CF019091D001A09107
:1036E000D101B091D2018A019B01082319232A2319
:1036F0003B23C901B8011F910F910C94131B0F9329
:103700001F9341E050E060E070E004C0440F551F9B
:10371000661F771F8A95D2F78091CF019091D001D3
:10372000A091D101B091D2018A019B0108271927EC
:103730002A273B27C901B8011F910F910C94131B35
:103740000F931F930091CF011091D0012091D101CF
:103750003091D201602B712B822B932B1F910F91F3
:103760000C94131B0F931F930091CF011091D00164
:103770002091D1013091D2016023712382239323C0
:103780001F910F910C94131B0F931F930091CF0166
:103790001091D0012091D1013091D2016027712781
:1037A000822793271F910F910C94131B0895CF929A
:1037B000DF92EF92FF920F931F93CF93DF938C01D1
:1037C000C090D301D090D401E090D501F090D60103
:1037D0008091CF019091D001A091D101B091D201FF
:1037E000C82AD92AEA2AFB2ACFE1D0E0D701C601AC
:1037F0000C2E04C0B695A795979587950A94D2F795
:1038000080FF06C0B8018C2F0E94ED08019721F4BB
:10381000219760F780E001C08C2FDF91CF911F913D
:103820000F91FF90EF90DF90CF900895CF93DF93AB
:10383000EC010E94D71BBE010E94ED08DF91CF91E1
:103840000895CB010E94161C08958091D70185959B
:103850008595859508958091D7018770089598E0A2
:10386000899F90011124262B2093D7010C94391B9A
:103870002091D701809582238093D701982F97704C
:1038800069F430E0482F082E000C550B241735073B
:1038900029F08595859585950C945A1B08959091EE
:1038A000D701977081E009F480E00895E091030169
:1038B000F09104018091E3018083E0910301F09194
:1038C000040190818091E201892B8083E0910301C2
:1038D000F091040190818091E101892B8083809196
:1038E000D801882381F0E0910301F09104019081D7
:1038F000892B808380910301909104010E94FF1C19
:1039000081111092D80180910301909104010C94CF
:1039100090118091E30108959091E301892B8093A8
:10392000E301089580959091E30189238093E30159
:1039300008951092E30108959091E201892B8093FC
:10394000E201089580959091E20189238093E2013C
:1039500008951092E20108959091E101892B8093DE
:10396000E101089580959091E10189238093E1011F
:1039700008951092E10108958093D801089510925E
:10398000D80108956DEE7EEF80E090E00E942D2D2D
:1039900060E082E090E00E940F2D60E083E090E024
:1039A0000E940F2D60E084E090E00E940F2D60E007
:1039B00085E090E00E940F2D40E050E0BA0188E0E1
:1039C00090E00C94212D80E090E00E94092D21E0F0
:1039D0008D3E9E4F09F020E0822F089582E090E016
:1039E0000C94FB2C83E090E00C94FB2C84E090E0A2
:1039F0000C94FB2C682F84E090E00C940F2DFC01BC
:103A000031969C01285F3F4F80E0919191118F5F2B
:103A1000E217F307D1F708959C01FC0132969FEF5E
:103A200080E04191461789F09F3F19F4411101C090
:103A3000982F8F5F8630A9F79F3F39F0F901E90F82
:103A4000F11D97FDFA95628308950895FC01329661
:103A500008962081261301C010823196E817F907D5
:103A6000C1F708950C940C1D0C94261DFC01319691
:103A700008961192E817F907E1F7089580914C0232
:103A8000843039F11092E50120E488E190E00FB62E
:103A9000F894A895809360000FBE2093600080E0AA
:103AA0000E94CD0883B7817F846083BF83B7816024
:103AB00083BF7894889583B78E7F83BF0FB6F894C1
:103AC000A8958091600088618093600010926000EA
:103AD0000FBE089508950895CF930E946A1D0E9415
:103AE000DC040E946B1DC0E08C2F0E942705811111
:103AF00004C0CF5FCA30C1F701C081E0CF91089503
:103B00000E9402170E9484110C94CD081F920F92FC
:103B10000FB60F9211248F939F93AF93BF93809111
:103B2000E501811113C08091420290914302A0915E
:103B30004402B09145024196A11DB11D80934202FD
:103B400090934302A0934402B0934502BF91AF917A
:103B50009F918F910F900FBE0F901F90189582E04C
:103B600084BD93E095BD9AEF97BD80936E00089554
:103B70002FB7F8948091420290914302A0914402A1
:103B8000B09145022FBF0895CF92DF92EF92FF923E
:103B90000F931F932FB7F894409142025091430224
:103BA00060914402709145022FBF6A017B01EE24AF
:103BB000FF248C0120E030E0C016D106E206F306B7
:103BC00010F4415051099A01281B390BC9011F916A
:103BD0000F91FF90EF90DF90CF90089578941F920F
:103BE0000F920FB60F9211248F939F93AF93BF93B1
:103BF0008091420290914302A0914402B09145020B
:103C00000196A11DB11D8093420290934302A0939F
:103C10004402B0934502BF91AF919F918F910F9055
:103C20000FBE0F901F90189581E08093E00080E216
:103C30008093D8001092C9008FE19EE40197F1F7BC
:103C400000C0000087E090EBDC0180935502909368
:103C50005602A0935702B09358029CE088E10FB639
:103C6000F894A895809360000FBE90936000FFCFFA
:103C70000E94E31C811102C00E94C21C0E94EE1C23
:103C80008093E4010E94F61C90E090934702809399
:103C900046020E94F21C682F70E080E090E00C94D5
:103CA000D81A8091E80180FF0BC06091080185E07F
:103CB000689FB001112475956795759567952BC020
:103CC00081FF09C06091080185E0689FB00111245F
:103CD0007595679520C082FF07C06091080185E057
:103CE000689FB001112417C09091E9019923D1F088
:103CF00060910701961788F72091080185E0289FB9
:103D000090011124929FA001939F500D112470E007
:103D1000CA010E94E12C6038710540F461157105FB
:103D200039F002C065E070E0862F08958FE70895AE
:103D300081E008958091E80180FF08C0609106014C
:103D400070E0759567957595679521C081FF06C0F0
:103D50006091060170E07595679519C082FF04C0F7
:103D60006091060170E010C09091E9019923C1F0C3
:103D7000609105019617A0F780910601899FC00107
:103D8000112470E00E94E12C6038710528F461155F
:103D9000710521F0862F08958FE7089581E0089539
:103DA00061E070E0F4CF803F21F40E94511E8195C4
:103DB00004C0813F29F40E94511E8093EC010895B4
:103DC000823F21F40E94511E819504C0833F29F453
:103DD0000E94511E8093EB010895893F19F40E94BF
:103DE0009A1E05C08A3F31F40E949A1E81958093E5
:103DF000ED0108958B3F21F40E949A1E819504C025
:103E00008C3F29F40E949A1E8093EE010895843F0E
:103E100021F48091EA01816017C0853F21F48091EF
:103E2000EA01826011C0863F21F48091EA0184603A
:103E30000BC0873F21F48091EA01886005C0883F6C
:103E400031F48091EA0180618093EA0108958D3F09
:103E500021F48091E80181600BC08E3F21F48091B4
:103E6000E801826005C08F3F29F48091E8018460F9
:103E70008093E8010895803F39F48091EC0187FF39
:103E80006CC01092EC0169C0813F29F48091EC0173
:103E90001816BCF362C09091EB01823F29F497FFA2
:103EA0005CC01092EB0159C0833F19F41916CCF392
:103EB00054C0893F41F48091ED0118160CF04DC0BB
:103EC0001092ED014AC08A3F29F48091ED0187FFED
:103ED00044C0F6CF8B3F39F48091EE0187FF3DC09F
:103EE0001092EE013AC08C3F29F48091EE01181631
:103EF000BCF333C0843F21F48091EA018E7F17C068
:103F0000853F21F48091EA018D7F11C0863F21F425
:103F10008091EA018B7F0BC0873F21F48091EA01F9
:103F2000877F05C0883F31F48091EA018F7E8093BE
:103F3000EA0113C08D3F21F48091E8018E7F0BC010
:103F40008E3F21F48091E8018D7F05C08F3F29F4D9
:103F50008091E8018B7F8093E8018091EB018111D2
:103F60000EC08091EC0181110AC08091ED01811198
:103F700006C08091EE01811102C01092E9010895FE
:103F80008AEE91E00E949B110E94B81D9093E70178
:103F90008093E60108951F93CF93DF938091E6010C
:103FA0009091E7010E94C41DAC019091E901992311
:103FB00021F02091090130E006C020910A018AE039
:103FC000289F900111244217530708F46EC0809176
:103FD000EB01C091EC01D091ED011091EE01811146
:103FE00007C0C1115EC0D1115CC011115AC05DC0C3
:103FF0009F3F19F09F5F9093E901181624F40E94E7
:10400000511E8093EB018091EB0187FF05C00E9458
:10401000511E81958093EB011C1624F40E94511EC1
:104020008093EC018091EC0187FF05C00E94511E36
:1040300081958093EC014091EB01442379F030911C
:10404000EC01332359F025EB4203A00111245093D6
:10405000EB013203C00111249093EC011D1624F4EE
:104060000E949A1E8093ED018091ED0187FF05C0AB
:104070000E949A1E81958093ED01111624F40E94EE
:104080009A1E8093EE018091EE0187FF05C00E9489
:104090009A1E81958093EE01DF91CF911F910C9430
:1040A000C01F9F3F09F0A6CFAECFDF91CF911F91E8
:1040B0000895EAEEF1E085E0DF011D928A95E9F7C7
:1040C0001092E9011092E8010895833081F128F4FB
:1040D000813059F08230D1F00895853009F449C01B
:1040E000B8F1863009F456C0089580910A01262F50
:1040F00030E0280F311D2F3F310524F4680F609305
:104100000A0108958FEF80930A01089580910901B3
:10411000262F30E0280F311D2F3F310524F4680F82
:104120006093090108958FEF8093090108958091AC
:104130000801262F30E0280F311D2F3F310524F4D0
:10414000680F6093080108958FEF80930801089528
:1041500080910701262F30E0280F311D2F3F3105B8
:1041600024F4680F6093070108958FEF809307018F
:10417000089580910601262F30E0280F311D2F3F32
:10418000310524F4680F6093060108958FEF809342
:104190000601089580910501262F30E0280F311D7A
:1041A0002F3F310524F4680F6093050108958FEFC8
:1041B000809305010895833011F128F4813049F08E
:1041C000823091F00895853081F120F18630C1F17F
:1041D000089580910A01681720F4861B80930A01D4
:1041E000089510920A01089580910901681720F43A
:1041F000861B80930901089510920901089580910A
:104200000801681720F4861B809308010895109216
:104210000801089580910701681720F4861B809398
:10422000070108951092070108958091060168170B
:1042300020F4861B809306010895109206010895CC
:1042400080910501681720F4861B8093050108956D
:104250001092050108950F931F938732D8F58E3180
:1042600008F081C08E3009F46BC098F4873009F4EF
:1042700059C08B3009F48BC0863009F08FC0809113
:10428000E401817F8E7F8093E40181E08093F001DF
:1042900086C0863109F47BC068F4803109F07EC0A5
:1042A0008091E40183FB222720F991E0922790FB83
:1042B00083F94FC0893109F46AC08B3109F06EC0AF
:1042C0008091E40181FB222720F991E0922790FB65
:1042D00081F93FC0883309F45AC050F4893209F497
:1042E00058C0853309F455C0873209F452C056C00E
:1042F000833409F44EC028F48A3308F44FC089533C
:1043000033C0883409F04AC00E9402170FEF13ED42
:1043100020E3015010402040E1F700C000000E945F
:10432000141E35C08091E401982F9095917090FBF8
:1043300080F98093E40191112AC0897F877F10C0A2
:104340008091E40182FB222720F991E0922790FBE3
:1043500082F98093E4019923D1F08091E401816096
:104360008093E40114C08D5141E050E060E070E0C2
:104370008A019B0104C0000F111F221F331F8A9561
:10438000D2F7C901B8010E94D81A0E94021781E031
:1043900006C061E070E080E090E0F5CF80E01F9122
:1043A0000F91089580E0089580E008958E518A303D
:1043B00030F4E82FF0E0E95DFE4F8081089580E061
:1043C0000895CF93C82F8091F001813069F018F0E3
:1043D0008230C9F183C0E0910301F0910401808132
:1043E000823209F07DC007C0E0910301F091040121
:1043F0008081823261F48C2F0E94D221811104C00D
:104400008C2F0E942B211DC081E090E01AC08C2FC0
:104410000E94D421811114C0C43179F048F4CB300A
:1044200079F0C03109F060C082E08093F00108C0EB
:10443000C93219F0C83321F057C01092F00154C0AE
:1044400081E0817053C0C93289F118F5C43171F12E
:10445000B0F4C73009F046C08EE180930A0182E3D0
:10446000809309018AE08093080184E18093070129
:1044700088E08093060188E28093050133C082EED4
:104480008C0F863078F58C2F0E94D6218093EF0117
:1044900029C0CE34E9F020F4CB3421F56AE013C012
:1044A000C13579F0C235F1F461E00DC08091EF01C2
:1044B000882319F01092EF0115C081E08093F0017C
:1044C00015C061E006C08091EF010E9465200AC01E
:1044D0006AE08091EF010E94DB2004C01092F0019D
:1044E00080E004C081E002C080E0ABCFCF910895AE
:1044F0008091F90108950F931F93CF93DF9300D01C
:104500001F92CDB7DEB78C010E94CB24823011F010
:10451000843019F593E099831B830A839093E90013
:104520008FEF9091E800815095FD06C095ED9A952A
:10453000F1F700008111F5CF8091E80085FF0DC0F3
:1045400040E050E063E070E0CE0101960E94E82474
:104550008091E8008E778093E8000F900F900F9085
:10456000DF91CF911F910F910895CF93DF9300D0EA
:104570001F92CDB7DEB720914C02243031F522E0F6
:104580002983805891099B838A8383E08093E90083
:104590008FEF9091E800815095FD06C095ED9A95BA
:1045A000F1F700008111F5CF8091E80085FF0DC083
:1045B00040E050E063E070E0CE0101960E94E82404
:1045C0008091E8008E778093E8000F900F900F9015
:1045D000DF91CF910895CF93DF93EC010E94CB241C
:1045E000823011F08430F9F482E08093E9009FEF8B
:1045F0008091E800915085FD06C085ED8A95F1F720
:1046000000009111F5CF8091E80085FF0CC040E0DB
:1046100050E065E070E0CE010E94E8248091E8005F
:104620008E778093E800DF91CF910895CF93DF9349
:10463000EC010E94CB24823011F0843039F581E006
:104640008093E9009FEF8091E800915085FD06C0BE
:1046500085ED8A95F1F700009111F5CF8091E80082
:1046600085FF14C040E050E068E070E0CE010E9499
:10467000E8249091E8009E779093E80098E0FE018E
:10468000A1EFB1E001900D929A95E1F7DF91CF9102
:10469000089580914B02811109C00E947D260E94DD
:1046A000DA268091E20084608093E20008951092FF
:1046B0004B020895089508950C94801D42E061EC2A
:1046C00081E00E94F72542E061EC82E00E94F7253C
:1046D00042E061EC83E00C94F72580914E02833038
:1046E00009F453C030F4813071F0823009F48CC089
:1046F00008958A3009F478C08B3009F45EC089309F
:1047000009F09AC020C080914D02813A09F094C00E
:104710008091E800877F8093E8008091510290911A
:104720005202892B21F468E081EF91E003C060E040
:1047300080E090E070E00E9433258091E8008B7764
:104740008093E800089580914D02813209F074C091
:104750008091510290915202892B09F06DC0809195
:10476000E800877F8093E8008091E80082FD05C023
:1047700080914C028111F8CF5FC08091F10080934D
:10478000F9018091E8008B7753C080914D02813A06
:1047900009F052C08091510290915202892B09F088
:1047A0004BC08091E800877F8093E8008091E8000B
:1047B00080FFFCCF8091150136C080914D0281327F
:1047C000D9F58091510290915202892BA9F58091DF
:1047D000E800877F8093E8000E942C2680914F029A
:1047E000809315010C94021780914D02813221F5BE
:1047F0008091E800877F8093E8000E942C268091BA
:1048000050028093FA01089580914D02813AA1F4FB
:104810008091E800877F8093E8008091E80080FF26
:10482000FCCF8091FA018093F1008091E8008E77AF
:104830008093E8000C942C26089584B7877F84BF6A
:104840000FB6F894A895809160008861809360000D
:10485000109260000FBE80E88093610010926100AA
:104860000E94D2110E947D260E94DA268091E200E9
:1048700084608093E20078940E9469290E94D61196
:104880008BE091E00E947F1180914C02853069F4A9
:104890000E943E1D80914A028823B1F30E946C1D44
:1048A000882391F30E94D224EFCF0E94DE110E9450
:1048B0001311EACF0C945C24292F332723303105C0
:1048C000C9F064F42130310581F02230310509F05E
:1048D00049C084E590E022E235E048C0213231054C
:1048E00021F12232310571F13DC082E190E026E7ED
:1048F00035E03CC099278130910571F02CF4892B6B
:1049000089F5EEE1F5E00DC08230910541F00397A5
:1049100049F5EAEDF4E005C0E8E0F5E002C0E0EEBC
:10492000F4E0849190E09F0121C063307105D0F4E0
:10493000660F771FFB01E65CFE4F2081318189E025
:1049400090E014C06330710568F4FB01EE0FFF1FA7
:10495000EC5CFE4F20813181FB01EF5CFE4F8081DA
:1049600090E004C080E090E020E030E0FA01318384
:10497000208308950895CF93C82F0E94BA24C0932E
:10498000FB01CF91089580914C02843011F081E0B9
:10499000089582E008958091FB01811102C00C947A
:1049A000C324089580E189BD82E189BD09B400FE78
:1049B000FDCF8091D8008F7D8093D8008091E0005A
:1049C00082608093E0008091E00081FDFCCF08953B
:1049D000CF92DF92EF92FF920F931F93CF93DF93CB
:1049E000EC018B016A010E944B26811133C0C11476
:1049F000D10439F0F60180819181081B190BC80F91
:104A0000D91FE12CF12C0115110519F18091E80055
:104A100085FD16C08091E8008E778093E800C11470
:104A2000D10449F0F60180819181E80EF91EF182EE
:104A3000E08285E00FC00E944B26882321F30AC044
:104A400089918093F10001501109FFEFEF1AFF0ADD
:104A5000DACF80E0DF91CF911F910F91FF90EF901F
:104A6000DF90CF9008952091530230915402261781
:104A7000370748F06115710539F42091E8002E7769
:104A80002093E80001C0B90140E061157105A9F16A
:104A900020914C02222309F443C0253009F442C07E
:104AA0002091E80023FD40C02091E80022FD32C0A3
:104AB0002091E80020FFE9CF4091F3002091F2001F
:104AC00030E0342BFC01CF016115710559F028301D
:104AD000310540F481918093F100615071092F5F9D
:104AE0003F4FF1CF41E02830310509F040E02091FF
:104AF000E8002E772093E800C8CF4111C9CF0AC043
:104B000080914C02882361F0853061F08091E8004B
:104B100083FD0AC08091E80082FFF2CF80E0089513
:104B200082E0089583E0089581E008952091530282
:104B3000309154022617370748F06115710539F492
:104B40002091E8002E772093E80001C0B901FC0114
:104B500020E06115710591F180914C02882309F4E0
:104B600040C0853009F43FC08091E80083FD3DC01E
:104B70008091E80082FD2FC08091E80080FFE9CF9E
:104B80002091F3008091F20090E0922B6115710565
:104B900059F08830910540F424912093F10031962A
:104BA000615071090196F2CF21E0089709F020E0E9
:104BB0008091E8008E778093E800CBCF2111CCCF95
:104BC0000AC080914C02882361F0853061F08091A9
:104BD000E80083FD0AC08091E80082FFF2CF80E008
:104BE000089582E0089583E0089581E00895982F64
:104BF000973058F59093E900981739F07091EC00D0
:104C00002091ED005091F00003C0242F762F50E04A
:104C100021FF19C03091EB003E7F3093EB003091C3
:104C2000ED003D7F3093ED003091EB00316030932B
:104C3000EB007093EC002093ED005093F000209176
:104C4000EE0027FF07C09F5FD3CF8F708093E900EE
:104C500081E0089580E0089580914D0287FF11C0A2
:104C60008091E80082FD05C080914C028111F8CF4F
:104C700011C08091E8008B770BC080914C02882393
:104C800049F08091E80080FFF8CF8091E8008E77AE
:104C90008093E80008952091E4003091E50095E6C6
:104CA0004091EC00842F817040FF22C08091E80089
:104CB00080FD1CC080914C02882391F0853091F0DA
:104CC0008091EB0085FD10C04091E4005091E5001B
:104CD0004217530729F39A01915011F784E0089580
:104CE00082E0089583E0089581E0089580E00895CA
:104CF0004091E80042FFDECF08950E94EB260E941B
:104D0000F326E0EEF0E0808181608083E8EDF0E062
:104D100080818F77808319BCA7EDB0E08C918E7F66
:104D20008C9380818F7E808310924B0208950F9325
:104D30001F93CF93DF930E94EB260E94F326C8EDCA
:104D4000D0E088818F778883888180688883888194
:104D50008F7D888319BC10924C02109248021092E9
:104D60004A021092490200EE10E0F80180818B7F28
:104D7000808388818160888342E060E080E00E94D7
:104D8000F725E1EEF0E080818E7F8083E2EEF0E0B7
:104D9000808181608083808188608083F801808148
:104DA0008E7F8083888180618883DF91CF911F917E
:104DB0000F910895E8EDF0E080818F7E8083E7ED2C
:104DC000F0E080818160808384E082BF81E0809315
:104DD0004B020C949726E8EDF0E080818E7F808373
:104DE0001092E20008951092DA001092E100089506
:104DF0001F920F920FB60F9211242F933F934F9350
:104E00005F936F937F938F939F93AF93BF93EF9332
:104E1000FF938091E10082FF0BC08091E20082FF4E
:104E200007C08091E1008B7F8093E1000E94682998
:104E30008091DA0080FF1FC08091D80080FF1BC0E6
:104E40008091DA008E7F8093DA008091D90080FF14
:104E50000DC080E189BD82E189BD09B400FEFDCFAE
:104E600081E080934C020E94492305C019BC109236
:104E70004C020E9457238091E10080FF19C080916D
:104E8000E20080FF15C08091E2008E7F8093E200F7
:104E90008091E20080618093E2008091D80080627E
:104EA0008093D80019BC85E080934C020E945B235C
:104EB0008091E10084FF30C08091E20084FF2CC02B
:104EC00080E189BD82E189BD09B400FEFDCF8091FA
:104ED000D8008F7D8093D8008091E1008F7E8093F1
:104EE000E1008091E2008F7E8093E2008091E200F9
:104EF00081608093E20080914802882311F084E071
:104F000007C08091E30087FD02C081E001C083E01B
:104F100080934C020E945C238091E10083FF29C0B2
:104F20008091E20083FF25C08091E100877F80931C
:104F3000E10082E080934C02109248028091E100EF
:104F40008E7F8093E1008091E2008E7F8093E2006B
:104F50008091E20080618093E20042E060E080E0C6
:104F60000E94F7258091F00088608093F0000E94F5
:104F70005A23FF91EF91BF91AF919F918F917F91B4
:104F80006F915F914F913F912F910F900FBE0F90B6
:104F90001F9018951F920F920FB60F9211242F9306
:104FA0003F934F935F936F937F938F939F93AF93B1
:104FB000BF93CF93DF93EF93FF93C091E900CF703E
:104FC0008091EC00D82FD17080FDD0E81092E900DC
:104FD0008091F000877F8093F00078940E940E28E3
:104FE0001092E9008091F00088608093F000CD2B52
:104FF000CF70C093E900FF91EF91DF91CF91BF9106
:10500000AF919F918F917F916F915F914F913F9160
:105010002F910F900FBE0F901F9018951F93CF9355
:10502000DF93CDB7DEB7AA970FB6F894DEBF0FBEF9
:10503000CDBFEDE4F2E088E08E0F9091F100919306
:105040008E13FBCF0E946D238091E80083FF28C15F
:1050500080914D0290914E02492F50E04A30510507
:1050600008F01EC1FA01E556FF4F0C94F52C80386C
:1050700021F0823809F014C108C080914902909152
:105080004A02992389F082600FC0809151028F708B
:10509000873008F005C18093E9008091EB0085FB23
:1050A000882780F91092E9009091E800977F90930B
:1050B000E8008093F1001092F100D0C0282F2D7FDE
:1050C00009F0EEC0882319F0823061F0E9C08091C8
:1050D0004F02813009F0E4C0933009F080E0809302
:1050E0004A022EC080914F0281112AC08091510244
:1050F0008F702FEF280F263008F0D2C08093E90080
:105100002091EB0020FF1CC0933021F48091EB0034
:10511000806214C09091EB0090619093EB0021E0CD
:1051200030E0A90102C0440F551F8A95E2F7409371
:10513000EA001092EA008091EB0088608093EB0017
:105140001092E9008091E800877F8093E8000E9438
:105150002C26A6C08111A4C010914F021F77809108
:10516000E3008078812B8093E3008091E800877FC3
:105170008093E8000E942C268091E80080FFFCCFFD
:105180008091E30080688093E300111102C082E007
:1051900001C083E080934C0283C08058823008F0C5
:1051A0007FC080914F02909150028C3D53E0950753
:1051B00079F583E08A838AE289834FB7F894DE0128
:1051C000139620E03EE051E2E32FF0E050935700C9
:1051D000E49120FF03C0E295EF703F5FEF708E2FE8
:1051E00090E0EA3010F0C79601C0C0968D939D9371
:1051F0002F5F243149F74FBF8091E800877F80936C
:10520000E8006AE270E0CE0101960E94332515C0E5
:105210006091510270915202AE014F5F5F4F0E9448
:105220005A24BC01892BE1F19091E800977F90937B
:10523000E80089819A810E9496258091E8008B7709
:105240008093E8002DC0803859F58091E800877F71
:105250008093E800809148028093F1008091E800FB
:105260008E7773CF81111CC090914F029230C0F4A1
:105270008091E800877F8093E800909348020E9425
:105280002C2680914802811106C08091E30087FDA1
:1052900002C081E001C084E080934C020E945E2342
:1052A0008091E80083FF0AC08091E800877F8093A7
:1052B000E8008091EB0080628093EB00AA960FB625
:1052C000F894DEBF0FBECDBFDF91CF911F9108953F
:1052D0000895CF9380914C028823A1F0C091E900FA
:1052E000CF709091EC00892F817090FD80E8C82BE1
:1052F0001092E9008091E80083FD0E940E28CF7093
:10530000C093E900CF9108955058BB27AA270E9467
:105310009C290C94472B0E94392B38F00E94402B7B
:1053200020F039F49F3F19F426F40C940F2B0EF45F
:10533000E095E7FB0C94092BE92F0E94582B58F3BA
:10534000BA17620773078407950720F079F4A6F56A
:105350000C947A2B0EF4E0950B2EBA2FA02D0B0196
:10536000B90190010C01CA01A0011124FF27591BAA
:1053700099F0593F50F4503E68F11A16F040A22FB0
:10538000232F342F4427585FF3CF46953795279521
:10539000A795F0405395C9F77EF41F16BA0B620B20
:1053A000730B840BBAF09150A1F0FF0FBB1F661F67
:1053B000771F881FC2F70EC0BA0F621F731F841FAA
:1053C00048F4879577956795B795F7959E3F08F0D0
:1053D000B0CF9395880F08F09927EE0F9795879592
:1053E00008950E94052A0C94472B0E94402B58F0E8
:1053F0000E94392B40F029F45F3F29F00C94092BCF
:1054000051110C947B2B0C940F2B0E94582B68F39A
:105410009923B1F3552391F3951B550BBB27AA276D
:1054200062177307840738F09F5F5F4F220F331FA7
:10543000441FAA1FA9F335D00E2E3AF0E0E832D06F
:1054400091505040E695001CCAF72BD0FE2F29D072
:10545000660F771F881FBB1F261737074807AB0744
:10546000B0E809F0BB0B802DBF01FF2793585F4FB9
:105470003AF09E3F510578F00C94092B0C947B2B4D
:105480005F3FE4F3983ED4F3869577956795B7959B
:10549000F7959F5FC9F7880F911D9695879597F9A6
:1054A0000895E1E0660F771F881FBB1F621773071F
:1054B0008407BA0720F0621B730B840BBA0BEE1F34
:1054C00088F7E095089529F416F00C94092B0C94B4
:1054D0007A2B0C940F2B0E94602BA8F39638A0F720
:1054E00007F80F92E8942BE33AEA48EB5FE70E9453
:1054F0000D2C0F920F920F924DB75EB70F920E9434
:10550000C32BEAE4F1E00E94122B4F915F91EF91DF
:10551000FF91E595EE1FFF1F49F0FE57E068442715
:10552000EE0F441FFA95E1F74195550B0E948D2B24
:105530000F9007FE0C94812B08950E94602B88F039
:105540009F5798F0B92F9927B751B0F0E1F0660F47
:10555000771F881F991F1AF0BA95C9F714C0B13088
:1055600091F00E947A2BB1E008950C947A2B672F6A
:10557000782F8827B85F39F0B93FCCF386957795B7
:105580006795B395D9F73EF49095809570956195A0
:105590007F4F8F4F9F4F0895E89409C097FB3EF4CB
:1055A00090958095709561957F4F8F4F9F4F992370
:1055B000A9F0F92F96E9BB279395F69587957795EE
:1055C0006795B795F111F8CFFAF4BB0F11F460FFAE
:1055D0001BC06F5F7F4F8F4F9F4F16C0882311F006
:1055E00096E911C0772321F09EE8872F762F05C01A
:1055F000662371F096E8862F70E060E02AF09A95B5
:10560000660F771F881FDAF7880F9695879597F9A9
:10561000089597F99F6780E870E060E008959FEF34
:1056200080EC0895DF93CF931F930F93FF92EF9237
:10563000DF927B018C01689406C0DA2EEF010E9494
:105640000A2CFE01E894A59125913591459155913B
:10565000A6F3EF010E949C29FE019701A801DA94AC
:1056600069F7DF90EF90FF900F911F91CF91DF913D
:10567000089500240A9416161706180609060895B8
:1056800000240A9412161306140605060895092E1E
:105690000394000C11F4882352F0BB0F40F4BF2B8D
:1056A00011F460FF04C06F5F7F4F8F4F9F4F0895CD
:1056B00057FD9058440F551F59F05F3F71F04795C3
:1056C000880F97FB991F61F09F3F79F087950895A8
:1056D000121613061406551FF2CF4695F1DF08C0C7
:1056E000161617061806991FF1CF869571056105E4
:1056F00008940895E894BB2766277727CB0197F98C
:1057000008959B01AC0160E070E080E89FE30C9499
:10571000F1290C94092B0C946C2C0E94602BD8F36B
:105720009923C9F3940F511DA3F39150504094F065
:1057300059F0882332F0660F771F881F9150504030
:10574000C1F79E3F51052CF7880F911D96958795BF
:1057500097F908955F3FACF0983E9CF0BB27869583
:1057600077956795B79508F4B1609395C1F7BB0F2E
:1057700058F711F460FFE8CF6F5F7F4F8F4F9F4F57
:10578000E3CF0C947B2BFA01DC01AA0FBB1F9B011A
:10579000AC01BF5728F4222733274427507820C074
:1057A000B75190F4AB2F0024469537952795011CEF
:1057B000A395D2F3002071F0220F331F441FB3953D
:1057C000DAF30ED00C94842961307105A0E88A07C1
:1057D000B94630F49B01AC0166277727882790787B
:1057E000309621F0208331834283538308950E94B1
:1057F0000A2C0C94472B0E94392B38F00E94402B26
:1058000020F0952311F00C94092B0C940F2B1124EC
:105810000C947B2B0E94582B70F3959FC1F3950F2E
:1058200050E0551F629FF001729FBB27F00DB11D24
:10583000639FAA27F00DB11DAA1F649F6627B00DB4
:10584000A11D661F829F2227B00DA11D621F739F9D
:10585000B00DA11D621F839FA00D611D221F749FAB
:105860003327A00D611D231F849F600D211D822FF2
:10587000762F6A2F11249F5750409AF0F1F0882319
:105880004AF0EE0FFF1FBB1F661F771F881F915046
:105890005040A9F79E3F510580F00C94092B0C94C1
:1058A0007B2B5F3FE4F3983ED4F38695779567951D
:1058B000B795F795E7959F5FC1F7FE2B880F911D70
:1058C0009695879597F908959F930E947C2C0F9049
:1058D00007FCEE5F0C94A52C9F3F31F0915020F413
:1058E000879577956795B795880F911D96958795BC
:1058F00097F908950C940F2B0E94602BD8F3E8942D
:10590000E0E0BB279F57F0F02AED3FE049EC06C0EE
:10591000EE0FBB0F661F771F881F28F0B23A620791
:105920007307840728F0B25A620B730B840BE3955C
:105930009A9572F7803830F49A95BB0F661F771FDF
:10594000881FD2F790480C946E2CEF93E0FF07C0AD
:10595000A2EA2AED3FE049EC5FEB0E949C290E94FD
:10596000472B0F90039401FC9058E2E7F1E00C9470
:10597000B92C9F938F937F936F93FF93EF939B012A
:10598000AC010E94F72BEF91FF910E94122B2F91F7
:105990003F914F915F910C94F72BAA1BBB1B51E1D8
:1059A00007C0AA1FBB1FA617B70710F0A61BB70B8F
:1059B000881F991F5A95A9F780959095BC01CD0134
:1059C000089597FB072E16F4009407D077FD09D0B1
:1059D0000E94CD2C07FC05D03EF4909581959F4FF9
:1059E0000895709561957F4F0895EE0FFF1F059004
:1059F000F491E02D0994F999FECF92BD81BDF89AFA
:105A0000992780B50895A6E1B0E044E050E00C94F9
:105A1000352DA8E1B0E042E050E00C94352D262F62
:105A2000F999FECF92BD81BDF89A019700B4021694
:105A300039F01FBA20BD0FB6F894FA9AF99A0FBE42
:105A400008950396272F0E94102D0E940F2D252FB9
:105A50000E94102D242F0C94102D0196272F0E94A8
:105A6000102D0C940F2DDC01CB01FC01F999FECF18
:105A700006C0F2BDE1BDF89A319600B40D924150D6
:0A5A80005040B8F70895F894FFCFE6
:105A8A00010102D9012808140A321E78221623EBD2
:105A9A0022B5227B2201F5F6F7313332369497C6C6
:105AAA003435000000000001020304050607080956
:105ABA0000404D360B06BE05880534054D056605C2
:00000001FF
